{
  "_format": "hh-sol-artifact-1",
  "contractName": "SenderCreator",
  "sourceName": "account-abstraction/core/SenderCreator.sol",
  "abi": [
    {
      "inputs": [
        {
          "internalType": "bytes",
          "name": "initCode",
          "type": "bytes"
        }
      ],
      "name": "createSender",
      "outputs": [
        {
          "internalType": "address",
          "name": "sender",
          "type": "address"
        }
      ],
      "stateMutability": "nonpayable",
      "type": "function"
    }
  ],
  "bytecode": "0x60808060405234601557610172908161001a8239f35b5f80fdfe6080600436101561000e575f80fd5b5f3560e01c63570e1a3614610021575f80fd5b34610138576020366003190112610138576004359067ffffffffffffffff821161013857366023830112156101385781600401359167ffffffffffffffff8311610138573660248483010111610138578260141161013857601319830167ffffffffffffffff811161010b57600b8401601f19908116603f011683019367ffffffffffffffff85118486101761010b5760245f9485600c819460209960405286845289840196603889018837830101525193013560601c5af15f519015610104575b60209073ffffffffffffffffffffffffffffffffffffffff60405191168152f35b505f6100e3565b7f4e487b71000000000000000000000000000000000000000000000000000000005f52604160045260245ffd5b5f80fdfea2646970667358221220c6c95eda006272b148118cf90847c6f57e6134df8131fb96039695bd69ebc67764736f6c634300081b0033",
  "linkReferences": {},
  "deployedLinkReferences": {}
}