{
  "_format": "hh-sol-artifact-1",
  "contractName": "VerifyingPaymaster",
  "sourceName": "account-abstraction/samples/VerifyingPaymaster.sol",
  "abi": [
    {
      "inputs": [
        {
          "internalType": "contract IEntryPoint",
          "name": "_entryPoint",
          "type": "address"
        },
        {
          "internalType": "address",
          "name": "_verifyingSigner",
          "type": "address"
        }
      ],
      "stateMutability": "nonpayable",
      "type": "constructor"
    },
    {
      "inputs": [],
      "name": "ECDSAInvalidSignature",
      "type": "error"
    },
    {
      "inputs": [
        {
          "internalType": "uint256",
          "name": "length",
          "type": "uint256"
        }
      ],
      "name": "ECDSAInvalidSignatureLength",
      "type": "error"
    },
    {
      "inputs": [
        {
          "internalType": "bytes32",
          "name": "s",
          "type": "bytes32"
        }
      ],
      "name": "ECDSAInvalidSignatureS",
      "type": "error"
    },
    {
      "inputs": [
        {
          "internalType": "address",
          "name": "owner",
          "type": "address"
        }
      ],
      "name": "OwnableInvalidOwner",
      "type": "error"
    },
    {
      "inputs": [
        {
          "internalType": "address",
          "name": "account",
          "type": "address"
        }
      ],
      "name": "OwnableUnauthorizedAccount",
      "type": "error"
    },
    {
      "anonymous": false,
      "inputs": [
        {
          "indexed": true,
          "internalType": "address",
          "name": "previousOwner",
          "type": "address"
        },
        {
          "indexed": true,
          "internalType": "address",
          "name": "newOwner",
          "type": "address"
        }
      ],
      "name": "OwnershipTransferred",
      "type": "event"
    },
    {
      "inputs": [
        {
          "internalType": "uint32",
          "name": "unstakeDelaySec",
          "type": "uint32"
        }
      ],
      "name": "addStake",
      "outputs": [],
      "stateMutability": "payable",
      "type": "function"
    },
    {
      "inputs": [],
      "name": "deposit",
      "outputs": [],
      "stateMutability": "payable",
      "type": "function"
    },
    {
      "inputs": [],
      "name": "entryPoint",
      "outputs": [
        {
          "internalType": "contract IEntryPoint",
          "name": "",
          "type": "address"
        }
      ],
      "stateMutability": "view",
      "type": "function"
    },
    {
      "inputs": [],
      "name": "getDeposit",
      "outputs": [
        {
          "internalType": "uint256",
          "name": "",
          "type": "uint256"
        }
      ],
      "stateMutability": "view",
      "type": "function"
    },
    {
      "inputs": [
        {
          "components": [
            {
              "internalType": "address",
              "name": "sender",
              "type": "address"
            },
            {
              "internalType": "uint256",
              "name": "nonce",
              "type": "uint256"
            },
            {
              "internalType": "bytes",
              "name": "initCode",
              "type": "bytes"
            },
            {
              "internalType": "bytes",
              "name": "callData",
              "type": "bytes"
            },
            {
              "internalType": "bytes32",
              "name": "accountGasLimits",
              "type": "bytes32"
            },
            {
              "internalType": "uint256",
              "name": "preVerificationGas",
              "type": "uint256"
            },
            {
              "internalType": "bytes32",
              "name": "gasFees",
              "type": "bytes32"
            },
            {
              "internalType": "bytes",
              "name": "paymasterAndData",
              "type": "bytes"
            },
            {
              "internalType": "bytes",
              "name": "signature",
              "type": "bytes"
            }
          ],
          "internalType": "struct PackedUserOperation",
          "name": "userOp",
          "type": "tuple"
        },
        {
          "internalType": "uint48",
          "name": "validUntil",
          "type": "uint48"
        },
        {
          "internalType": "uint48",
          "name": "validAfter",
          "type": "uint48"
        }
      ],
      "name": "getHash",
      "outputs": [
        {
          "internalType": "bytes32",
          "name": "",
          "type": "bytes32"
        }
      ],
      "stateMutability": "view",
      "type": "function"
    },
    {
      "inputs": [],
      "name": "owner",
      "outputs": [
        {
          "internalType": "address",
          "name": "",
          "type": "address"
        }
      ],
      "stateMutability": "view",
      "type": "function"
    },
    {
      "inputs": [
        {
          "internalType": "bytes",
          "name": "paymasterAndData",
          "type": "bytes"
        }
      ],
      "name": "parsePaymasterAndData",
      "outputs": [
        {
          "internalType": "uint48",
          "name": "validUntil",
          "type": "uint48"
        },
        {
          "internalType": "uint48",
          "name": "validAfter",
          "type": "uint48"
        },
        {
          "internalType": "bytes",
          "name": "signature",
          "type": "bytes"
        }
      ],
      "stateMutability": "pure",
      "type": "function"
    },
    {
      "inputs": [
        {
          "internalType": "enum IPaymaster.PostOpMode",
          "name": "mode",
          "type": "uint8"
        },
        {
          "internalType": "bytes",
          "name": "context",
          "type": "bytes"
        },
        {
          "internalType": "uint256",
          "name": "actualGasCost",
          "type": "uint256"
        },
        {
          "internalType": "uint256",
          "name": "actualUserOpFeePerGas",
          "type": "uint256"
        }
      ],
      "name": "postOp",
      "outputs": [],
      "stateMutability": "nonpayable",
      "type": "function"
    },
    {
      "inputs": [],
      "name": "renounceOwnership",
      "outputs": [],
      "stateMutability": "nonpayable",
      "type": "function"
    },
    {
      "inputs": [
        {
          "internalType": "address",
          "name": "newOwner",
          "type": "address"
        }
      ],
      "name": "transferOwnership",
      "outputs": [],
      "stateMutability": "nonpayable",
      "type": "function"
    },
    {
      "inputs": [],
      "name": "unlockStake",
      "outputs": [],
      "stateMutability": "nonpayable",
      "type": "function"
    },
    {
      "inputs": [
        {
          "components": [
            {
              "internalType": "address",
              "name": "sender",
              "type": "address"
            },
            {
              "internalType": "uint256",
              "name": "nonce",
              "type": "uint256"
            },
            {
              "internalType": "bytes",
              "name": "initCode",
              "type": "bytes"
            },
            {
              "internalType": "bytes",
              "name": "callData",
              "type": "bytes"
            },
            {
              "internalType": "bytes32",
              "name": "accountGasLimits",
              "type": "bytes32"
            },
            {
              "internalType": "uint256",
              "name": "preVerificationGas",
              "type": "uint256"
            },
            {
              "internalType": "bytes32",
              "name": "gasFees",
              "type": "bytes32"
            },
            {
              "internalType": "bytes",
              "name": "paymasterAndData",
              "type": "bytes"
            },
            {
              "internalType": "bytes",
              "name": "signature",
              "type": "bytes"
            }
          ],
          "internalType": "struct PackedUserOperation",
          "name": "userOp",
          "type": "tuple"
        },
        {
          "internalType": "bytes32",
          "name": "userOpHash",
          "type": "bytes32"
        },
        {
          "internalType": "uint256",
          "name": "maxCost",
          "type": "uint256"
        }
      ],
      "name": "validatePaymasterUserOp",
      "outputs": [
        {
          "internalType": "bytes",
          "name": "context",
          "type": "bytes"
        },
        {
          "internalType": "uint256",
          "name": "validationData",
          "type": "uint256"
        }
      ],
      "stateMutability": "nonpayable",
      "type": "function"
    },
    {
      "inputs": [],
      "name": "verifyingSigner",
      "outputs": [
        {
          "internalType": "address",
          "name": "",
          "type": "address"
        }
      ],
      "stateMutability": "view",
      "type": "function"
    },
    {
      "inputs": [
        {
          "internalType": "address payable",
          "name": "withdrawAddress",
          "type": "address"
        }
      ],
      "name": "withdrawStake",
      "outputs": [],
      "stateMutability": "nonpayable",
      "type": "function"
    },
    {
      "inputs": [
        {
          "internalType": "address payable",
          "name": "withdrawAddress",
          "type": "address"
        },
        {
          "internalType": "uint256",
          "name": "amount",
          "type": "uint256"
        }
      ],
      "name": "withdrawTo",
      "outputs": [],
      "stateMutability": "nonpayable",
      "type": "function"
    }
  ],
  "bytecode": "0x60c080604052346101ae576040816110d6803803809161001f82856101d8565b8339810103126101ae5780516001600160a01b038116918282036101ae5760200151916001600160a01b03831683036101ae5733156101c5575f8054336001600160a01b031982168117835560405193602093859360249385939290916001600160a01b0316907f8be0079c531659141344cd1fd0a4f28419497f9722a3daafe3b4186f6b6457e09080a36301ffc9a760e01b825263122a0e9b60e31b60048301525afa9081156101ba575f9161017b575b50156101365760805260a052604051610ec69081610210823960805181818161018801528181610260015281816102fe0152818161039b0152818161042001528181610742015281816107ef0152610aed015260a0518181816106f10152610be70152f35b60405162461bcd60e51b815260206004820152601e60248201527f49456e747279506f696e7420696e74657266616365206d69736d6174636800006044820152606490fd5b90506020813d6020116101b2575b81610196602093836101d8565b810103126101ae575180151581036101ae575f6100d1565b5f80fd5b3d9150610189565b6040513d5f823e3d90fd5b631e4fbdf760e01b5f525f60045260245ffd5b601f909101601f19168101906001600160401b038211908210176101fb57604052565b634e487b7160e01b5f52604160045260245ffdfe60806040526004361015610011575f80fd5b5f5f3560e01c80630396cb60146107bf578063205c28781461071557806323d9ac9b146106d157806352b7512c146106505780635829c5f5146105db578063715018a6146105755780637c627b21146104ea5780638da5cb5b146104c457806394d4ad6014610444578063b0d691fe14610400578063bb9fe6bf14610377578063c23a5cea146102d1578063c399ec8814610213578063d0e30db0146101715763f2fde38b146100bf575f80fd5b3461016e57602036600319011261016e576004356001600160a01b03811680910361016c576100ec610aa4565b8015610140576001600160a01b0382548273ffffffffffffffffffffffffffffffffffffffff198216178455167f8be0079c531659141344cd1fd0a4f28419497f9722a3daafe3b4186f6b6457e08380a380f35b6024827f1e4fbdf700000000000000000000000000000000000000000000000000000000815280600452fd5b505b80fd5b508060031936011261016e57806001600160a01b037f000000000000000000000000000000000000000000000000000000000000000016803b156102105781602491604051928380927fb760faf900000000000000000000000000000000000000000000000000000000825230600483015234905af18015610205576101f45750f35b816101fe916108d0565b61016e5780f35b6040513d84823e3d90fd5b50fd5b503461016e578060031936011261016e576040517f70a082310000000000000000000000000000000000000000000000000000000081523060048201526020816024816001600160a01b037f0000000000000000000000000000000000000000000000000000000000000000165afa90811561020557829161029b575b602082604051908152f35b90506020813d6020116102c9575b816102b6602093836108d0565b8101031261016c5760209150515f610290565b3d91506102a9565b503461016e57602036600319011261016e57806102ec610879565b6102f4610aa4565b6001600160a01b037f00000000000000000000000000000000000000000000000000000000000000001690813b15610373576001600160a01b03602484928360405195869485937fc23a5cea0000000000000000000000000000000000000000000000000000000085521660048401525af18015610205576101f45750f35b5050fd5b503461016e578060031936011261016e57610390610aa4565b806001600160a01b037f000000000000000000000000000000000000000000000000000000000000000016803b15610210578180916004604051809481937fbb9fe6bf0000000000000000000000000000000000000000000000000000000083525af18015610205576101f45750f35b503461016e578060031936011261016e5760206040516001600160a01b037f0000000000000000000000000000000000000000000000000000000000000000168152f35b503461016e57602036600319011261016e5760043567ffffffffffffffff811161016c5765ffffffffffff918261048a61048460809436906004016108a2565b90610a5c565b9384926040969496519889971687521660208601526060604086015281606086015285850137828201840152601f01601f19168101030190f35b503461016e578060031936011261016e576001600160a01b036020915416604051908152f35b503461016e57608036600319011261016e576003600435101561016e5760243567ffffffffffffffff811161016c576105279036906004016108a2565b5050610531610ae3565b606460405162461bcd60e51b815260206004820152600d60248201527f6d757374206f76657272696465000000000000000000000000000000000000006044820152fd5b503461016e578060031936011261016e5761058e610aa4565b806001600160a01b03815473ffffffffffffffffffffffffffffffffffffffff1981168355167f8be0079c531659141344cd1fd0a4f28419497f9722a3daafe3b4186f6b6457e08280a380f35b503461016e57606036600319011261016e5760043567ffffffffffffffff811161016c57610120600319823603011261016c576024359065ffffffffffff8216820361064c576044359265ffffffffffff8416840361016e57602061064485858560040161097f565b604051908152f35b8280fd5b503461016e57606036600319011261016e5760043567ffffffffffffffff811161016c57610120600319823603011261016c57602061069b606092610693610ae3565b600401610b59565b604092919251948593604085528051938491826040880152018686015e8383018501526020830152601f01601f19168101030190f35b503461016e578060031936011261016e5760206040516001600160a01b037f0000000000000000000000000000000000000000000000000000000000000000168152f35b503461016e57604036600319011261016e5780610730610879565b610738610aa4565b6001600160a01b037f00000000000000000000000000000000000000000000000000000000000000001690813b15610373576001600160a01b03604484928360405195869485937f205c287800000000000000000000000000000000000000000000000000000000855216600484015260243560248401525af18015610205576101f45750f35b5060203660031901126108755760043563ffffffff8116809103610875576107e5610aa4565b6001600160a01b037f00000000000000000000000000000000000000000000000000000000000000001690813b15610875575f906024604051809481937f0396cb60000000000000000000000000000000000000000000000000000000008352600483015234905af1801561086a5761085c575080f35b61086891505f906108d0565b005b6040513d5f823e3d90fd5b5f80fd5b600435906001600160a01b038216820361087557565b359065ffffffffffff8216820361087557565b9181601f840112156108755782359167ffffffffffffffff8311610875576020838186019501011161087557565b90601f8019910116810190811067ffffffffffffffff8211176108f257604052565b634e487b7160e01b5f52604160045260245ffd5b903590601e1981360301821215610875570180359067ffffffffffffffff82116108755760200191813603831361087557565b92919267ffffffffffffffff82116108f25760405191610963601f8201601f1916602001846108d0565b829481845281830111610875578281602093845f960137010152565b906109976109906040840184610906565b3691610939565b60208151910120926109af6109906060850185610906565b60208151910120926109c460e0820182610906565b6034949194116108755760c065ffffffffffff9492601486946040519860208a019a6001600160a01b038535168c52602085013560408c015260608b015260808a0152608083013560a08a015201358288015260a081013560e08801520135610100860152466101208601523061014086015216610160840152166101808201526101808152610a566101a0826108d0565b51902090565b9190806034116108755760406033198483810103011261087557610a826034840161088f565b91610a8f6054850161088f565b92938260741161087557607401916073190190565b6001600160a01b035f54163303610ab757565b7f118cdaa7000000000000000000000000000000000000000000000000000000005f523360045260245ffd5b6001600160a01b037f0000000000000000000000000000000000000000000000000000000000000000163303610b1557565b606460405162461bcd60e51b815260206004820152601560248201527f53656e646572206e6f7420456e747279506f696e7400000000000000000000006044820152fd5b610b6961048460e0830183610906565b91929390604083148015610d0b575b15610ca1576001600160a01b0392610bcd610bd392610b9b8789610bdc9761097f565b7f19457468657265756d205369676e6564204d6573736167653a0a3332000000005f52601c52603c5f20923691610939565b90610d15565b90929192610d4f565b166001600160a01b037f00000000000000000000000000000000000000000000000000000000000000001603610c58577fffffffffffff000000000000000000000000000000000000000000000000000065ffffffffffff60a01b9160d01b169160a01b161790604051610c516020826108d0565b5f81529190565b9065ffffffffffff60a01b7fffffffffffff000000000000000000000000000000000000000000000000000060019360d01b169160a01b16171790604051610c516020826108d0565b608460405162461bcd60e51b815260206004820152604060248201527f566572696679696e675061796d61737465723a20696e76616c6964207369676e60448201527f6174757265206c656e67746820696e207061796d6173746572416e64446174616064820152fd5b5060418314610b78565b8151919060418303610d4557610d3e9250602082015190606060408401519301515f1a90610e0e565b9192909190565b50505f9160029190565b6004811015610dfa5780610d61575050565b60018103610d91577ff645eedf000000000000000000000000000000000000000000000000000000005f5260045ffd5b60028103610dc557507ffce698f7000000000000000000000000000000000000000000000000000000005f5260045260245ffd5b600314610dcf5750565b7fd78bce0c000000000000000000000000000000000000000000000000000000005f5260045260245ffd5b634e487b7160e01b5f52602160045260245ffd5b91907f7fffffffffffffffffffffffffffffff5d576e7357a4501ddfe92f46681b20a08411610e85579160209360809260ff5f9560405194855216868401526040830152606082015282805260015afa1561086a575f516001600160a01b03811615610e7b57905f905f90565b505f906001905f90565b5050505f916003919056fea2646970667358221220139ca074c3385499042b22ed50e999177d4bee672ac24918508ad4be0348965864736f6c634300081b0033",
  "linkReferences": {},
  "deployedLinkReferences": {}
}