{
  "_format": "hh-sol-artifact-1",
  "contractName": "Mock7739PreValidationHook",
  "sourceName": "contracts/mocks/Mock7739PreValidationHook.sol",
  "abi": [
    {
      "inputs": [
        {
          "internalType": "address",
          "name": "_prevalidationHookMultiplexer",
          "type": "address"
        }
      ],
      "stateMutability": "nonpayable",
      "type": "constructor"
    },
    {
      "inputs": [
        {
          "internalType": "address",
          "name": "",
          "type": "address"
        }
      ],
      "name": "isInitialized",
      "outputs": [
        {
          "internalType": "bool",
          "name": "",
          "type": "bool"
        }
      ],
      "stateMutability": "pure",
      "type": "function"
    },
    {
      "inputs": [
        {
          "internalType": "uint256",
          "name": "moduleTypeId",
          "type": "uint256"
        }
      ],
      "name": "isModuleType",
      "outputs": [
        {
          "internalType": "bool",
          "name": "",
          "type": "bool"
        }
      ],
      "stateMutability": "pure",
      "type": "function"
    },
    {
      "inputs": [
        {
          "internalType": "address",
          "name": "forwarder",
          "type": "address"
        }
      ],
      "name": "isTrustedForwarder",
      "outputs": [
        {
          "internalType": "bool",
          "name": "",
          "type": "bool"
        }
      ],
      "stateMutability": "view",
      "type": "function"
    },
    {
      "inputs": [
        {
          "internalType": "bytes",
          "name": "data",
          "type": "bytes"
        }
      ],
      "name": "onInstall",
      "outputs": [],
      "stateMutability": "nonpayable",
      "type": "function"
    },
    {
      "inputs": [
        {
          "internalType": "bytes",
          "name": "data",
          "type": "bytes"
        }
      ],
      "name": "onUninstall",
      "outputs": [],
      "stateMutability": "nonpayable",
      "type": "function"
    },
    {
      "inputs": [
        {
          "internalType": "address",
          "name": "",
          "type": "address"
        },
        {
          "internalType": "bytes32",
          "name": "hash",
          "type": "bytes32"
        },
        {
          "internalType": "bytes",
          "name": "data",
          "type": "bytes"
        }
      ],
      "name": "preValidationHookERC1271",
      "outputs": [
        {
          "internalType": "bytes32",
          "name": "hookHash",
          "type": "bytes32"
        },
        {
          "internalType": "bytes",
          "name": "hookSignature",
          "type": "bytes"
        }
      ],
      "stateMutability": "view",
      "type": "function"
    },
    {
      "inputs": [],
      "name": "prevalidationHookMultiplexer",
      "outputs": [
        {
          "internalType": "address",
          "name": "",
          "type": "address"
        }
      ],
      "stateMutability": "view",
      "type": "function"
    }
  ],
  "bytecode": "0x60a034607457601f61098438819003918201601f19168301916001600160401b03831184841017607857808492602094604052833981010312607457516001600160a01b03811681036074576080526040516108f7908161008d8239608051818181610178015281816101bc015261071b0152f35b5f80fd5b634e487b7160e01b5f52604160045260245ffdfe6080806040526004361015610012575f80fd5b5f3560e01c9081630c85c4211461019f57508063572b6c051461014e5780636d61fe70146100ca5780637a0468b7146100cf5780638a91b0e3146100ca578063d60b347f146100a55763ecd0596114610069575f80fd5b346100a15760203660031901126100a157602060043560088114908115610096575b506040519015158152f35b60099150145f61008b565b5f80fd5b346100a15760203660031901126100a1576100be6101e0565b50602060405160018152f35b610224565b346100a15760603660031901126100a1576100e86101e0565b5060443567ffffffffffffffff81116100a15761011761010e60609236906004016101f6565b906024356102df565b9190602060405193849283526040828401528051918291826040860152018484015e5f828201840152601f01601f19168101030190f35b346100a15760203660031901126100a15760206101696101e0565b604051906001600160a01b03807f0000000000000000000000000000000000000000000000000000000000000000169116148152f35b346100a1575f3660031901126100a1576020906001600160a01b037f0000000000000000000000000000000000000000000000000000000000000000168152f35b600435906001600160a01b03821682036100a157565b9181601f840112156100a15782359167ffffffffffffffff83116100a157602083818601950101116100a157565b346100a15760203660031901126100a15760043567ffffffffffffffff81116100a1576102559036906004016101f6565b005b90601f8019910116810190811067ffffffffffffffff82111761027957604052565b634e487b7160e01b5f52604160045260245ffd5b67ffffffffffffffff811161027957601f01601f191660200190565b9291926102b58261028d565b916102c36040519384610257565b8294818452818301116100a1578281602093845f960137010152565b90929160606102ec610711565b9082156106fd577fff000000000000000000000000000000000000000000000000000000000000008635161561033c575050806001116100a1576103399193600136925f190191016102a9565b90565b8260019695929396116100a15760018501945f1987019661ffff835119046164920290601f199083010135146106e5575b506001600160a01b0386949316946040516342580cb760e11b81525f816004818a5afa8015610667575f905f5f5f5f915f935f956106b2575b6001600160a01b0394959697506040519761012089016040525f1a60f81b6040890152602081519101208988015260208151910120608087015260a08601521660c084015260e08301526020815160051b9101206101008201529360405197600119908301013560f01c978860420197891598600e8301600e8c850101998c8103958688019c8d60411901946119015f52604086602037831017816042601e2018176106725750507f5479706564446174615369676e280000000000000000000000000000000000008452600119909a019a90999860286f07fffffe0000000000000100000000008b848f8237515f1a1c91525b89515f1a602881146104bb5790651201000000016001921c1799019861049a565b50939699986040879a8386999e607f9796999c9f7f657333322073616c742c75696e743235365b5d20657874656e73696f6e732900907f20636f6e74656e74732c627974657331206669656c64732c737472696e67206e87527f616d652c737472696e672076657273696f6e2c75696e7432353620636861696e60208801527f49642c6164647265737320766572696679696e67436f6e74726163742c62797486880152860152878501378d37010301832088526101208820604052600116604201601e209260411901965b82604052156105a0575b505061033992509336916102a9565b816004815f936342580cb760e11b82525afa938415610667576103399460a0925f925f5f925f94610636575b50604051947f8b73c3c69bb8fe3d512ecc4cf759cc79239f7b179b0ffacaa9a75d522b39400f86526020815191012060208601526020815191012060408501528301526080820152206719010000000000005f52601a52603a5260426018205f603a525f80610591565b925050925061065791503d805f833e61064f8183610257565b8101906107a9565b509395909450909250905f6105cc565b6040513d5f823e3d90fd5b989b509b505050929550929550505f927f983e65e5148e570cd828ead231ee759a8d7958721a768f93bc4483ba005c32de5f5260205260405f2092610587565b505050505050506106d46001600160a01b03913d805f833e61064f8183610257565b9596508695949093919291906103a6565b6041810135016001810135965060210194505f61036d565b634e487b7160e01b5f52603260045260245ffd5b6001600160a01b037f000000000000000000000000000000000000000000000000000000000000000016331480610758575b156107545736601319013560601c90565b3390565b506014361015610743565b81601f820112156100a15780519061077a8261028d565b926107886040519485610257565b828452602083830101116100a157815f9260208093018386015e8301015290565b60e0818303126100a15780517fff00000000000000000000000000000000000000000000000000000000000000811681036100a15792602082015167ffffffffffffffff81116100a157836107ff918401610763565b92604083015167ffffffffffffffff81116100a15781610820918501610763565b9260608101519260808201516001600160a01b03811681036100a1579260a08301519260c08101519067ffffffffffffffff82116100a157019080601f830112156100a15781519167ffffffffffffffff8311610279578260051b906040519361088d6020840186610257565b84526020808501928201019283116100a157602001905b8282106108b15750505090565b81518152602091820191016108a456fea2646970667358221220cad0231044b07fc95924871d0d3c5020416175890d8596977e13281f2f7995f764736f6c634300081b0033",
  "linkReferences": {},
  "deployedLinkReferences": {}
}