{
  "_format": "hh-sol-artifact-1",
  "contractName": "AutoBridgeModule",
  "sourceName": "contracts/modules/executors/AutoBridge.sol",
  "abi": [
    {
      "inputs": [
        {
          "internalType": "address",
          "name": "_authorizedRelayer",
          "type": "address"
        },
        {
          "internalType": "address",
          "name": "_spokePool",
          "type": "address"
        },
        {
          "internalType": "address",
          "name": "_wrappedNative",
          "type": "address"
        },
        {
          "internalType": "address",
          "name": "_owner",
          "type": "address"
        }
      ],
      "stateMutability": "nonpayable",
      "type": "constructor"
    },
    {
      "inputs": [],
      "name": "AlreadyOnDefaultChain",
      "type": "error"
    },
    {
      "inputs": [],
      "name": "CannotRemoveSelf",
      "type": "error"
    },
    {
      "inputs": [
        {
          "internalType": "uint256",
          "name": "chainId",
          "type": "uint256"
        }
      ],
      "name": "ConfigNotFound",
      "type": "error"
    },
    {
      "inputs": [],
      "name": "ECDSAInvalidSignature",
      "type": "error"
    },
    {
      "inputs": [
        {
          "internalType": "uint256",
          "name": "length",
          "type": "uint256"
        }
      ],
      "name": "ECDSAInvalidSignatureLength",
      "type": "error"
    },
    {
      "inputs": [
        {
          "internalType": "bytes32",
          "name": "s",
          "type": "bytes32"
        }
      ],
      "name": "ECDSAInvalidSignatureS",
      "type": "error"
    },
    {
      "inputs": [],
      "name": "EmptyConfigList",
      "type": "error"
    },
    {
      "inputs": [],
      "name": "ExecutionFailed",
      "type": "error"
    },
    {
      "inputs": [],
      "name": "InsufficientBalance",
      "type": "error"
    },
    {
      "inputs": [],
      "name": "InvalidAmount",
      "type": "error"
    },
    {
      "inputs": [],
      "name": "InvalidConfigHash",
      "type": "error"
    },
    {
      "inputs": [],
      "name": "InvalidSpokePool",
      "type": "error"
    },
    {
      "inputs": [
        {
          "internalType": "address",
          "name": "account",
          "type": "address"
        }
      ],
      "name": "ModuleAlreadyInitialized",
      "type": "error"
    },
    {
      "inputs": [
        {
          "internalType": "address",
          "name": "account",
          "type": "address"
        }
      ],
      "name": "ModuleNotInitialized",
      "type": "error"
    },
    {
      "inputs": [
        {
          "internalType": "address",
          "name": "relayer",
          "type": "address"
        }
      ],
      "name": "NotAuthorized",
      "type": "error"
    },
    {
      "inputs": [
        {
          "internalType": "address",
          "name": "owner",
          "type": "address"
        }
      ],
      "name": "OwnableInvalidOwner",
      "type": "error"
    },
    {
      "inputs": [
        {
          "internalType": "address",
          "name": "account",
          "type": "address"
        }
      ],
      "name": "OwnableUnauthorizedAccount",
      "type": "error"
    },
    {
      "inputs": [],
      "name": "SignatureAlreadyUsed",
      "type": "error"
    },
    {
      "anonymous": false,
      "inputs": [
        {
          "indexed": true,
          "internalType": "address",
          "name": "relayer",
          "type": "address"
        }
      ],
      "name": "AddAuthorizedRelayer",
      "type": "event"
    },
    {
      "anonymous": false,
      "inputs": [
        {
          "indexed": true,
          "internalType": "address",
          "name": "smartAccount",
          "type": "address"
        },
        {
          "indexed": true,
          "internalType": "address",
          "name": "token",
          "type": "address"
        },
        {
          "indexed": false,
          "internalType": "uint256",
          "name": "amount",
          "type": "uint256"
        },
        {
          "indexed": false,
          "internalType": "uint256",
          "name": "destinationChainId",
          "type": "uint256"
        }
      ],
      "name": "BridgeExecuted",
      "type": "event"
    },
    {
      "anonymous": false,
      "inputs": [
        {
          "indexed": true,
          "internalType": "address",
          "name": "account",
          "type": "address"
        },
        {
          "indexed": false,
          "internalType": "uint256",
          "name": "oldConfigHash",
          "type": "uint256"
        },
        {
          "indexed": false,
          "internalType": "uint256",
          "name": "newConfigHash",
          "type": "uint256"
        }
      ],
      "name": "ConfigHashChanged",
      "type": "event"
    },
    {
      "anonymous": false,
      "inputs": [
        {
          "indexed": true,
          "internalType": "uint256",
          "name": "configHash",
          "type": "uint256"
        },
        {
          "indexed": true,
          "internalType": "uint256",
          "name": "originChainId",
          "type": "uint256"
        },
        {
          "indexed": false,
          "internalType": "address",
          "name": "token",
          "type": "address"
        },
        {
          "indexed": false,
          "internalType": "uint256",
          "name": "destinationChainId",
          "type": "uint256"
        }
      ],
      "name": "ConfigSet",
      "type": "event"
    },
    {
      "anonymous": false,
      "inputs": [
        {
          "indexed": true,
          "internalType": "address",
          "name": "account",
          "type": "address"
        }
      ],
      "name": "ModuleInitialized",
      "type": "event"
    },
    {
      "anonymous": false,
      "inputs": [
        {
          "indexed": true,
          "internalType": "address",
          "name": "account",
          "type": "address"
        }
      ],
      "name": "ModuleUninitialized",
      "type": "event"
    },
    {
      "anonymous": false,
      "inputs": [
        {
          "indexed": true,
          "internalType": "address",
          "name": "previousOwner",
          "type": "address"
        },
        {
          "indexed": true,
          "internalType": "address",
          "name": "newOwner",
          "type": "address"
        }
      ],
      "name": "OwnershipTransferred",
      "type": "event"
    },
    {
      "anonymous": false,
      "inputs": [
        {
          "indexed": true,
          "internalType": "address",
          "name": "relayer",
          "type": "address"
        }
      ],
      "name": "RemoveAuthorizedRelayer",
      "type": "event"
    },
    {
      "inputs": [],
      "name": "MODULE_TYPE_EXECUTOR",
      "outputs": [
        {
          "internalType": "uint256",
          "name": "",
          "type": "uint256"
        }
      ],
      "stateMutability": "view",
      "type": "function"
    },
    {
      "inputs": [],
      "name": "NATIVE_TOKEN",
      "outputs": [
        {
          "internalType": "address",
          "name": "",
          "type": "address"
        }
      ],
      "stateMutability": "view",
      "type": "function"
    },
    {
      "inputs": [
        {
          "internalType": "address",
          "name": "",
          "type": "address"
        }
      ],
      "name": "accountConfig",
      "outputs": [
        {
          "internalType": "uint256",
          "name": "",
          "type": "uint256"
        }
      ],
      "stateMutability": "view",
      "type": "function"
    },
    {
      "inputs": [
        {
          "internalType": "address",
          "name": "newRelayer",
          "type": "address"
        }
      ],
      "name": "addAuthorizedRelayer",
      "outputs": [],
      "stateMutability": "nonpayable",
      "type": "function"
    },
    {
      "inputs": [
        {
          "internalType": "address",
          "name": "",
          "type": "address"
        }
      ],
      "name": "authorizedRelayers",
      "outputs": [
        {
          "internalType": "bool",
          "name": "",
          "type": "bool"
        }
      ],
      "stateMutability": "view",
      "type": "function"
    },
    {
      "inputs": [
        {
          "internalType": "uint256",
          "name": "amount",
          "type": "uint256"
        },
        {
          "internalType": "uint256",
          "name": "relayerFeePct",
          "type": "uint256"
        },
        {
          "internalType": "address",
          "name": "nexusAccount",
          "type": "address"
        },
        {
          "internalType": "address",
          "name": "recievingNexusAccount",
          "type": "address"
        },
        {
          "internalType": "uint256",
          "name": "nonce",
          "type": "uint256"
        },
        {
          "internalType": "bytes",
          "name": "signature",
          "type": "bytes"
        }
      ],
      "name": "bridge",
      "outputs": [],
      "stateMutability": "payable",
      "type": "function"
    },
    {
      "inputs": [
        {
          "internalType": "uint256",
          "name": "newConfigHash",
          "type": "uint256"
        }
      ],
      "name": "changeConfigHash",
      "outputs": [],
      "stateMutability": "nonpayable",
      "type": "function"
    },
    {
      "inputs": [
        {
          "internalType": "uint256",
          "name": "",
          "type": "uint256"
        },
        {
          "internalType": "uint256",
          "name": "",
          "type": "uint256"
        }
      ],
      "name": "config",
      "outputs": [
        {
          "internalType": "address",
          "name": "token",
          "type": "address"
        },
        {
          "internalType": "uint256",
          "name": "destinationChainId",
          "type": "uint256"
        }
      ],
      "stateMutability": "view",
      "type": "function"
    },
    {
      "inputs": [
        {
          "internalType": "bytes32",
          "name": "",
          "type": "bytes32"
        }
      ],
      "name": "executedHashes",
      "outputs": [
        {
          "internalType": "bool",
          "name": "",
          "type": "bool"
        }
      ],
      "stateMutability": "view",
      "type": "function"
    },
    {
      "inputs": [
        {
          "internalType": "address",
          "name": "account",
          "type": "address"
        }
      ],
      "name": "getConfig",
      "outputs": [
        {
          "internalType": "address",
          "name": "token",
          "type": "address"
        },
        {
          "internalType": "uint256",
          "name": "destinationChainId",
          "type": "uint256"
        }
      ],
      "stateMutability": "view",
      "type": "function"
    },
    {
      "inputs": [
        {
          "internalType": "uint256",
          "name": "configHash_",
          "type": "uint256"
        },
        {
          "internalType": "uint256",
          "name": "chainId_",
          "type": "uint256"
        }
      ],
      "name": "getConfigForChain",
      "outputs": [
        {
          "internalType": "address",
          "name": "token",
          "type": "address"
        },
        {
          "internalType": "uint256",
          "name": "destinationChainId",
          "type": "uint256"
        }
      ],
      "stateMutability": "view",
      "type": "function"
    },
    {
      "inputs": [],
      "name": "getConfigInputTypeData",
      "outputs": [
        {
          "internalType": "string",
          "name": "configInputTypeData",
          "type": "string"
        }
      ],
      "stateMutability": "pure",
      "type": "function"
    },
    {
      "inputs": [
        {
          "internalType": "address",
          "name": "smartAccount",
          "type": "address"
        }
      ],
      "name": "isInitialized",
      "outputs": [
        {
          "internalType": "bool",
          "name": "",
          "type": "bool"
        }
      ],
      "stateMutability": "view",
      "type": "function"
    },
    {
      "inputs": [
        {
          "internalType": "uint256",
          "name": "moduleTypeId",
          "type": "uint256"
        }
      ],
      "name": "isModuleType",
      "outputs": [
        {
          "internalType": "bool",
          "name": "",
          "type": "bool"
        }
      ],
      "stateMutability": "pure",
      "type": "function"
    },
    {
      "inputs": [
        {
          "internalType": "bytes",
          "name": "data",
          "type": "bytes"
        }
      ],
      "name": "onInstall",
      "outputs": [],
      "stateMutability": "nonpayable",
      "type": "function"
    },
    {
      "inputs": [
        {
          "internalType": "bytes",
          "name": "data",
          "type": "bytes"
        }
      ],
      "name": "onUninstall",
      "outputs": [],
      "stateMutability": "nonpayable",
      "type": "function"
    },
    {
      "inputs": [],
      "name": "owner",
      "outputs": [
        {
          "internalType": "address",
          "name": "",
          "type": "address"
        }
      ],
      "stateMutability": "view",
      "type": "function"
    },
    {
      "inputs": [
        {
          "internalType": "address",
          "name": "relayer",
          "type": "address"
        }
      ],
      "name": "removeAuthorizedRelayer",
      "outputs": [],
      "stateMutability": "nonpayable",
      "type": "function"
    },
    {
      "inputs": [],
      "name": "renounceOwnership",
      "outputs": [],
      "stateMutability": "nonpayable",
      "type": "function"
    },
    {
      "inputs": [
        {
          "components": [
            {
              "internalType": "uint256",
              "name": "sourceChainId",
              "type": "uint256"
            },
            {
              "internalType": "address",
              "name": "sourceTokenAddress",
              "type": "address"
            },
            {
              "internalType": "uint256",
              "name": "destinationChainId",
              "type": "uint256"
            }
          ],
          "internalType": "struct AutoBridgeModule.ConfigInput[]",
          "name": "newConfigs",
          "type": "tuple[]"
        }
      ],
      "name": "setConfig",
      "outputs": [],
      "stateMutability": "nonpayable",
      "type": "function"
    },
    {
      "inputs": [],
      "name": "spokePool",
      "outputs": [
        {
          "internalType": "address",
          "name": "",
          "type": "address"
        }
      ],
      "stateMutability": "view",
      "type": "function"
    },
    {
      "inputs": [
        {
          "internalType": "address",
          "name": "newOwner",
          "type": "address"
        }
      ],
      "name": "transferOwnership",
      "outputs": [],
      "stateMutability": "nonpayable",
      "type": "function"
    },
    {
      "inputs": [],
      "name": "wrappedNative",
      "outputs": [
        {
          "internalType": "address",
          "name": "",
          "type": "address"
        }
      ],
      "stateMutability": "view",
      "type": "function"
    }
  ],
  "bytecode": "0x60c03461016f57601f6119b238819003918201601f19168301916001600160401b038311848410176101735780849260809460405283398101031261016f5761004781610187565b9061005460208201610187565b61006060408301610187565b916001600160a01b039061007690606001610187565b1692831561015c575f80546001600160a01b031981168617825560405195916001600160a01b03909116907f8be0079c531659141344cd1fd0a4f28419497f9722a3daafe3b4186f6b6457e09080a36001600160a01b0382161561014d576001600160a01b03165f8181526001602081905260408220805460ff191690911790557fa44ff6e0d94169d67f70222d68cf4f729cfce4da3b9c9224da7e2fa51e70de0d9080a260805260a052611816908161019c823960805181818161032401526105f6015260a05181818161020201526105ac0152f35b632d1d091b60e21b5f5260045ffd5b631e4fbdf760e01b5f525f60045260245ffd5b5f80fd5b634e487b7160e01b5f52604160045260245ffd5b51906001600160a01b038216820361016f5756fe60806040526004361015610011575f80fd5b5f3560e01c8063086533da146112795780630e13942b14611241578063260d711e1461121257806329e295c5146111d55780632f6c8ea9146111ba57806331f7d9641461118c5780633a3b063514610f905780634fbd06dc14610f345780635a71e2f814610e935780636d61fe7014610dcc578063715018a614610d685780638a54642614610ca15780638a91b0e314610c5c5780638da5cb5b14610c37578063a4f4b0dd14610b8c578063afb991a314610348578063afdac3d614610305578063b0771ab0146102ab578063d60b347f14610269578063e48a5f7b14610226578063eb6d3a11146101e3578063ecd05961146101c35763f2fde38b14610116575f80fd5b346101bf5760203660031901126101bf576001600160a01b03610137611333565b61013f6114c7565b168015610193576001600160a01b035f548273ffffffffffffffffffffffffffffffffffffffff198216175f55167f8be0079c531659141344cd1fd0a4f28419497f9722a3daafe3b4186f6b6457e05f80a3005b7f1e4fbdf7000000000000000000000000000000000000000000000000000000005f525f60045260245ffd5b5f80fd5b346101bf5760203660031901126101bf5760206040516002600435148152f35b346101bf575f3660031901126101bf5760206040516001600160a01b037f0000000000000000000000000000000000000000000000000000000000000000168152f35b346101bf5760203660031901126101bf57610247610242611333565b611466565b604080516001600160a01b0390931683526020830191909152819081015b0390f35b346101bf5760203660031901126101bf5760206102a1610287611333565b6001600160a01b03165f52600360205260405f2054151590565b6040519015158152f35b346101bf576102b936611349565b905f52600260205260405f20905f5260205260405f2060016001600160a01b038254169101549061026560405192839283602090939291936001600160a01b0360408201951681520152565b346101bf575f3660031901126101bf5760206040516001600160a01b037f0000000000000000000000000000000000000000000000000000000000000000168152f35b60c03660031901126101bf5760043560243590604435906001600160a01b038216918281036101bf57606435936001600160a01b038516948581036101bf5760a4359067ffffffffffffffff82116101bf57366023830112156101bf5781600401356103b381611426565b926103c16040519485611404565b81845236602483830101116101bf57815f92602460209301838701378401015260405160208101914683528660408301528460608301526bffffffffffffffffffffffff198660601b1660808301526bffffffffffffffffffffffff199060601b16609482015260843560a882015260a8815261043f60c882611404565b5190207f19457468657265756d205369676e6564204d6573736167653a0a3332000000005f52601c52603c5f2090815f52600460205260ff60405f205416610b645761049f6104966001600160a01b03928461161b565b90929192611655565b16805f52600160205260ff60405f20541615610b5257505f52600460205260405f20600160ff198254161790556104ea826001600160a01b03165f52600360205260405f2054151590565b15610b3f578215610b1757835f52600360205260405f20545f52600260205260405f20465f5260205260405f209460405192610525846113d4565b60016001600160a01b03885416978886520154966020850197885215610aeb5786514614610ac35784906001600160a01b0385511673eeeeeeeeeeeeeeeeeeeeeeeeeeeeeeeeeeeeeeee81145f14610a3f5750315b10610a17575f6001600160a01b0384511673eeeeeeeeeeeeeeeeeeeeeeeeeeeeeeeeeeeeeeee81145f14610a105750507f000000000000000000000000000000000000000000000000000000000000000084925b670de0b6b3a76400000391670de0b6b3a76400008311610896578286029286840403610896577f0000000000000000000000000000000000000000000000000000000000000000906001600160a01b038216604051907f29cb924d000000000000000000000000000000000000000000000000000000008252602082600481845afa91821561088b575f926109eb575b506020600491604051928380927f079bd2c70000000000000000000000000000000000000000000000000000000082525afa90811561088b575f916109bc575b5073eeeeeeeeeeeeeeeeeeeeeeeeeeeeeeeeeeeeeeee6001600160a01b03895116036108aa575b63ffffffff808c519316911681019163ffffffff8311610896578a966040519660208801957f7b9392320000000000000000000000000000000000000000000000000000000087528960248a015260448901526001600160a01b03166064880152608487015f90528a60a4880152670de0b6b3a7640000900460c487015260e486015261010485015f905261012485015263ffffffff1661014484015261016483015f9052610184830161018090526101a483015f90526101a4835261078d6101c484611404565b6040519283926bffffffffffffffffffffffff199060601b166020840152856034840152518091605484015e8101605481015f905203605401601f19810182526107d79082611404565b6107df611714565b9260405180809581946335a4725960e21b8352600483019161080092611601565b03915a945f95f190811561088b575f91610869575b50511561085a577f5905d0a4a39f409beb4e0ffe014f92a2d7740f707f0f1876a72cc5c69ad8c3a3916001600160a01b036040925116945182519182526020820152a3005b632b3f6d1160e21b5f5260045ffd5b61088591503d805f833e61087d8183611404565b810190611522565b85610815565b6040513d5f823e3d90fd5b634e487b7160e01b5f52601160045260245ffd5b61097b5f8a61095560546040516109148161090660208201967f095ea7b30000000000000000000000000000000000000000000000000000000088528d60248401602090939291936001600160a01b0360408201951681520152565b03601f198101835282611404565b6040519384916bffffffffffffffffffffffff198d60601b1660208401528660348401525180918484015e810185838201520301601f198101835282611404565b8c61095e611714565b836040518096819582946335a4725960e21b845260048401611601565b03925af190811561088b575f916109a2575b50516106c557632b3f6d1160e21b5f5260045ffd5b6109b691503d805f833e61087d8183611404565b8c61098d565b6109de915060203d6020116109e4575b6109d68183611404565b810190611506565b8b61069e565b503d6109cc565b6004919250610a08602091823d84116109e4576109d68183611404565b92915061065e565b90926105ce565b7ff4d678b8000000000000000000000000000000000000000000000000000000005f5260045ffd5b6024925060209150604051928380927f70a082310000000000000000000000000000000000000000000000000000000082528a60048301525afa801561088b5785915f91610a8e575b5061057a565b9150506020813d602011610abb575b81610aaa60209383611404565b810103126101bf5784905188610a88565b3d9150610a9d565b7fb374e4ea000000000000000000000000000000000000000000000000000000005f5260045ffd5b7f0effdae4000000000000000000000000000000000000000000000000000000005f524660045260245ffd5b7f2c5211c6000000000000000000000000000000000000000000000000000000005f5260045ffd5b83632ed28b2160e11b5f5260045260245ffd5b634a0bfec160e01b5f5260045260245ffd5b7f900bb2c9000000000000000000000000000000000000000000000000000000005f5260045ffd5b346101bf575f3660031901126101bf57610265604051610bad608082611404565b605481527f7475706c655b5d2875696e7432353620736f75726365436861696e49642c616460208201527f647265737320736f75726365546f6b656e416464726573732c75696e7432353660408201527f2064657374696e6174696f6e436861696e49642900000000000000000000000060608201526040519182916020835260208301906113b0565b346101bf575f3660031901126101bf5760206001600160a01b035f5416604051908152f35b346101bf57610c6a3661135f565b5050335f5260036020525f6040812055337f9d00629762554452d03c3b45626436df6ca1c3795d05d04df882f6db481b1be05f80a2005b346101bf5760203660031901126101bf57600435610cd3336001600160a01b03165f52600360205260405f2054151590565b15610d55578015610d2d57335f52600360205260405f205490335f5260036020528060405f205560405191825260208201527f393c6beb5756a944b2967f15f31ff671e312e945d7a84fd3bdcfd6b408b2dc7960403392a2005b7fb39d5b51000000000000000000000000000000000000000000000000000000005f5260045ffd5b632ed28b2160e11b5f523360045260245ffd5b346101bf575f3660031901126101bf57610d806114c7565b5f6001600160a01b03815473ffffffffffffffffffffffffffffffffffffffff1981168355167f8be0079c531659141344cd1fd0a4f28419497f9722a3daafe3b4186f6b6457e08280a3005b346101bf57610dda3661135f565b335f90815260036020526040902054610e675781602091810103126101bf57358015610d2d57335f5260036020528060405f205560405190337f27b541a16df0902e262f34789782092ab25125513b8ed73608e802951771b9285f80a25f825260208201527f393c6beb5756a944b2967f15f31ff671e312e945d7a84fd3bdcfd6b408b2dc7960403392a2005b7f4d6b9dd3000000000000000000000000000000000000000000000000000000005f523360045260245ffd5b346101bf5760203660031901126101bf57610eac611333565b335f52600160205260ff60405f2054161580610f20575b610f0d576001600160a01b0316805f52600160205260405f20600160ff198254161790557fa44ff6e0d94169d67f70222d68cf4f729cfce4da3b9c9224da7e2fa51e70de0d5f80a2005b634a0bfec160e01b5f523360045260245ffd5b506001600160a01b035f5416331415610ec3565b346101bf57610f4236611349565b905f52600260205260405f20905f52602052602060405f20604051610f66816113d4565b81546001600160a01b03168082526001909201549201829052604080519182526020820192909252f35b346101bf5760203660031901126101bf5760043567ffffffffffffffff81116101bf57366023820112156101bf57806004013567ffffffffffffffff81116101bf57602482019160243691606084020101116101bf57610fee6114c7565b801561116457604051602081019082604082016020845252606081018185915f5b868110611123575061102a925003601f198101835282611404565b519020905f5b81811061103957005b611044818386611442565b35906020611053828588611442565b0135916001600160a01b0383168084036101bf577fed904b514045ff8b7abd1ed8086f36a68c4c283706b8fdbd0a5cdda16fb0f9638691600195604061109a878a8d611442565b013591604051906110aa826113d4565b81528760208201848152865f52600260205260405f20885f526020526001600160a01b0360405f2093511673ffffffffffffffffffffffffffffffffffffffff198454161783555191015561111a60405192839283602090939291936001600160a01b0360408201951681520152565b0390a301611030565b9150823581526020830135906001600160a01b0382168092036101bf576060816001936020839401526040860135604082015201930191019183919261100f565b7fcf4739d6000000000000000000000000000000000000000000000000000000005f5260045ffd5b346101bf575f3660031901126101bf57602060405173eeeeeeeeeeeeeeeeeeeeeeeeeeeeeeeeeeeeeeee8152f35b346101bf575f3660031901126101bf57602060405160028152f35b346101bf5760203660031901126101bf576001600160a01b036111f6611333565b165f526001602052602060ff60405f2054166040519015158152f35b346101bf5760203660031901126101bf576004355f526004602052602060ff60405f2054166040519015158152f35b346101bf5760203660031901126101bf576001600160a01b03611262611333565b165f526003602052602060405f2054604051908152f35b346101bf5760203660031901126101bf57611292611333565b335f52600160205260ff60405f205416158061131f575b610f0d576001600160a01b03163381146112f757805f52600160205260405f2060ff1981541690557f65beca40474fc223df158326daebfa4f3508869a6cf95dec7beb00b27af20adb5f80a2005b7f5e03d55f000000000000000000000000000000000000000000000000000000005f5260045ffd5b506001600160a01b035f54163314156112a9565b600435906001600160a01b03821682036101bf57565b60409060031901126101bf576004359060243590565b9060206003198301126101bf5760043567ffffffffffffffff81116101bf57826023820112156101bf5780600401359267ffffffffffffffff84116101bf57602484830101116101bf576024019190565b805180835260209291819084018484015e5f828201840152601f01601f1916010190565b6040810190811067ffffffffffffffff8211176113f057604052565b634e487b7160e01b5f52604160045260245ffd5b90601f8019910116810190811067ffffffffffffffff8211176113f057604052565b67ffffffffffffffff81116113f057601f01601f191660200190565b9190811015611452576060020190565b634e487b7160e01b5f52603260045260245ffd5b6001600160a01b03165f52600360205260405f205480156114c057906020915f526002825260405f20465f52825260405f206040516114a4816113d4565b60016001600160a01b0383541692838352015493849101529190565b505f905f90565b6001600160a01b035f541633036114da57565b7f118cdaa7000000000000000000000000000000000000000000000000000000005f523360045260245ffd5b908160209103126101bf575163ffffffff811681036101bf5790565b6020818303126101bf5780519067ffffffffffffffff82116101bf57019080601f830112156101bf5781519167ffffffffffffffff83116113f0578260051b604051936115726020830186611404565b8452602080850191830101918383116101bf5760208101915b83831061159a57505050505090565b825167ffffffffffffffff81116101bf57820185603f820112156101bf576020810151916115c783611426565b6115d46040519182611404565b83815260408385010188106101bf575f602085819660408397018386015e8301015281520192019161158b565b6040906116189392815281602082015201906113b0565b90565b815191906041830361164b576116449250602082015190606060408401519301515f1a9061175e565b9192909190565b50505f9160029190565b60048110156117005780611667575050565b60018103611697577ff645eedf000000000000000000000000000000000000000000000000000000005f5260045ffd5b600281036116cb57507ffce698f7000000000000000000000000000000000000000000000000000000005f5260045260245ffd5b6003146116d55750565b7fd78bce0c000000000000000000000000000000000000000000000000000000005f5260045260245ffd5b634e487b7160e01b5f52602160045260245ffd5b60405160208101905f82525f60218201525f60228201525f6026820152601c8152611740603c82611404565b5190519060208110611750575090565b5f199060200360031b1b1690565b91907f7fffffffffffffffffffffffffffffff5d576e7357a4501ddfe92f46681b20a084116117d5579160209360809260ff5f9560405194855216868401526040830152606082015282805260015afa1561088b575f516001600160a01b038116156117cb57905f905f90565b505f906001905f90565b5050505f916003919056fea264697066735822122093638835de83cae50581ff737e692c7b29fb14b66812e8e7a0296cbeca7d3c3064736f6c634300081b0033",
  "linkReferences": {},
  "deployedLinkReferences": {}
}