{
  "_format": "hh-sol-artifact-1",
  "contractName": "Counter",
  "sourceName": "contracts/mocks/Counter.sol",
  "abi": [
    {
      "inputs": [],
      "name": "decrementNumber",
      "outputs": [],
      "stateMutability": "nonpayable",
      "type": "function"
    },
    {
      "inputs": [],
      "name": "getNumber",
      "outputs": [
        {
          "internalType": "uint256",
          "name": "",
          "type": "uint256"
        }
      ],
      "stateMutability": "view",
      "type": "function"
    },
    {
      "inputs": [],
      "name": "incrementNumber",
      "outputs": [],
      "stateMutability": "nonpayable",
      "type": "function"
    },
    {
      "inputs": [],
      "name": "revertOperation",
      "outputs": [],
      "stateMutability": "pure",
      "type": "function"
    }
  ],
  "bytecode": "0x60808060405234601557610177908161001a8239f35b5f80fdfe6080806040526004361015610012575f80fd5b5f3560e01c90816312467434146100d557508063273ea3e3146100b4578063871cc9d4146100685763f2c9ecd814610048575f80fd5b34610064575f3660031901126100645760205f54604051908152f35b5f80fd5b34610064575f366003190112610064575f548015610087575f19015f55005b7f4e487b71000000000000000000000000000000000000000000000000000000005f52601160045260245ffd5b34610064575f366003190112610064575f545f198114610087576001015f55005b34610064575f36600319011261006457807f08c379a0000000000000000000000000000000000000000000000000000000006064925260206004820152601960248201527f436f756e7465723a20526576657274206f7065726174696f6e000000000000006044820152fdfea264697066735822122003ca44c83b331af21527f4ec3af9a0ea10bbf22ca9544ab69afb21556923ba9d64736f6c634300081b0033",
  "linkReferences": {},
  "deployedLinkReferences": {}
}