{
  "_format": "hh-sol-artifact-1",
  "contractName": "BaseAccount",
  "sourceName": "contracts/base/BaseAccount.sol",
  "abi": [
    {
      "inputs": [],
      "name": "AccountAccessUnauthorized",
      "type": "error"
    },
    {
      "inputs": [],
      "name": "addDeposit",
      "outputs": [],
      "stateMutability": "payable",
      "type": "function"
    },
    {
      "inputs": [],
      "name": "entryPoint",
      "outputs": [
        {
          "internalType": "address",
          "name": "",
          "type": "address"
        }
      ],
      "stateMutability": "view",
      "type": "function"
    },
    {
      "inputs": [],
      "name": "getDeposit",
      "outputs": [
        {
          "internalType": "uint256",
          "name": "result",
          "type": "uint256"
        }
      ],
      "stateMutability": "view",
      "type": "function"
    },
    {
      "inputs": [
        {
          "internalType": "uint192",
          "name": "key",
          "type": "uint192"
        }
      ],
      "name": "nonce",
      "outputs": [
        {
          "internalType": "uint256",
          "name": "",
          "type": "uint256"
        }
      ],
      "stateMutability": "view",
      "type": "function"
    },
    {
      "inputs": [
        {
          "internalType": "address",
          "name": "to",
          "type": "address"
        },
        {
          "internalType": "uint256",
          "name": "amount",
          "type": "uint256"
        }
      ],
      "name": "withdrawDepositTo",
      "outputs": [],
      "stateMutability": "payable",
      "type": "function"
    }
  ],
  "bytecode": "0x60a080604052346039576103c4908161003e8239608051818181608d01528181610156015281816101aa015281816101f301526102a90152f35b5f80fdfe60806040526004361015610011575f80fd5b5f3560e01c80634a58db19146101445780634d44560d1461005f578063b0d691fe1461005a578063c399ec88146100555763d86f2b3c14610050575f80fd5b610224565b6101ce565b61017e565b60403660031901126101405760043573ffffffffffffffffffffffffffffffffffffffff81168103610140577f000000000000000000000000000000000000000000000000000000000000000073ffffffffffffffffffffffffffffffffffffffff811633148015610137575b1561010f575f90604051926014526024356034526f205c28780000000000000000000000008252604460108338935af115610107575f603452005b3d5f823e3d90fd5b7fac52ccbe000000000000000000000000000000000000000000000000000000005f5260045ffd5b503033146100cc565b5f80fd5b5f366003190112610140575f388180347f00000000000000000000000000000000000000000000000000000000000000005af11561014057005b34610140575f36600319011261014057602060405173ffffffffffffffffffffffffffffffffffffffff7f0000000000000000000000000000000000000000000000000000000000000000168152f35b34610140575f36600319011261014057306020526370a082315f52602080806024601c7f00000000000000000000000000000000000000000000000000000000000000005afa601f3d1116815102604051908152f35b346101405760203660031901126101405760043577ffffffffffffffffffffffffffffffffffffffffffffffff811680910361014057604051907f35567e1a000000000000000000000000000000000000000000000000000000008252306004830152602482015260208160448173ffffffffffffffffffffffffffffffffffffffff7f0000000000000000000000000000000000000000000000000000000000000000165afa8015610320576102ed915f916102f1575b506040519081529081906020820190565b0390f35b610313915060203d602011610319575b61030b8183610325565b810190610374565b5f6102dc565b503d610301565b610383565b90601f8019910116810190811067ffffffffffffffff82111761034757604052565b7f4e487b71000000000000000000000000000000000000000000000000000000005f52604160045260245ffd5b90816020910312610140575190565b6040513d5f823e3d90fdfea2646970667358221220c635d45c25f08cfce5b18a4565b80b045d1260835abe57baf9a3b76b3665422364736f6c634300081b0033",
  "linkReferences": {},
  "deployedLinkReferences": {}
}