{
  "_format": "hh-sol-artifact-1",
  "contractName": "MockExecutor",
  "sourceName": "contracts/mocks/MockExecutor.sol",
  "abi": [
    {
      "anonymous": false,
      "inputs": [
        {
          "indexed": false,
          "internalType": "bytes32",
          "name": "dataFirstWord",
          "type": "bytes32"
        }
      ],
      "name": "ExecutorOnInstallCalled",
      "type": "event"
    },
    {
      "inputs": [
        {
          "internalType": "ExecutionMode",
          "name": "mode",
          "type": "bytes32"
        },
        {
          "internalType": "contract INexus",
          "name": "account",
          "type": "address"
        },
        {
          "internalType": "address",
          "name": "target",
          "type": "address"
        },
        {
          "internalType": "uint256",
          "name": "value",
          "type": "uint256"
        },
        {
          "internalType": "bytes",
          "name": "callData",
          "type": "bytes"
        }
      ],
      "name": "customExecuteViaAccount",
      "outputs": [
        {
          "internalType": "bytes[]",
          "name": "",
          "type": "bytes[]"
        }
      ],
      "stateMutability": "nonpayable",
      "type": "function"
    },
    {
      "inputs": [
        {
          "internalType": "contract INexus",
          "name": "account",
          "type": "address"
        },
        {
          "internalType": "bytes",
          "name": "callData",
          "type": "bytes"
        }
      ],
      "name": "execDelegatecall",
      "outputs": [
        {
          "internalType": "bytes[]",
          "name": "returnData",
          "type": "bytes[]"
        }
      ],
      "stateMutability": "nonpayable",
      "type": "function"
    },
    {
      "inputs": [
        {
          "internalType": "contract INexus",
          "name": "account",
          "type": "address"
        },
        {
          "components": [
            {
              "internalType": "address",
              "name": "target",
              "type": "address"
            },
            {
              "internalType": "uint256",
              "name": "value",
              "type": "uint256"
            },
            {
              "internalType": "bytes",
              "name": "callData",
              "type": "bytes"
            }
          ],
          "internalType": "struct Execution[]",
          "name": "execs",
          "type": "tuple[]"
        }
      ],
      "name": "executeBatchViaAccount",
      "outputs": [
        {
          "internalType": "bytes[]",
          "name": "returnData",
          "type": "bytes[]"
        }
      ],
      "stateMutability": "nonpayable",
      "type": "function"
    },
    {
      "inputs": [
        {
          "internalType": "contract INexus",
          "name": "account",
          "type": "address"
        },
        {
          "internalType": "address",
          "name": "target",
          "type": "address"
        },
        {
          "internalType": "uint256",
          "name": "value",
          "type": "uint256"
        },
        {
          "internalType": "bytes",
          "name": "callData",
          "type": "bytes"
        }
      ],
      "name": "executeViaAccount",
      "outputs": [
        {
          "internalType": "bytes[]",
          "name": "returnData",
          "type": "bytes[]"
        }
      ],
      "stateMutability": "nonpayable",
      "type": "function"
    },
    {
      "inputs": [],
      "name": "getModuleTypes",
      "outputs": [
        {
          "internalType": "EncodedModuleTypes",
          "name": "",
          "type": "uint256"
        }
      ],
      "stateMutability": "view",
      "type": "function"
    },
    {
      "inputs": [
        {
          "internalType": "address",
          "name": "",
          "type": "address"
        }
      ],
      "name": "isInitialized",
      "outputs": [
        {
          "internalType": "bool",
          "name": "",
          "type": "bool"
        }
      ],
      "stateMutability": "pure",
      "type": "function"
    },
    {
      "inputs": [
        {
          "internalType": "uint256",
          "name": "moduleTypeId",
          "type": "uint256"
        }
      ],
      "name": "isModuleType",
      "outputs": [
        {
          "internalType": "bool",
          "name": "",
          "type": "bool"
        }
      ],
      "stateMutability": "pure",
      "type": "function"
    },
    {
      "inputs": [
        {
          "internalType": "bytes",
          "name": "data",
          "type": "bytes"
        }
      ],
      "name": "onInstall",
      "outputs": [],
      "stateMutability": "nonpayable",
      "type": "function"
    },
    {
      "inputs": [
        {
          "internalType": "bytes",
          "name": "data",
          "type": "bytes"
        }
      ],
      "name": "onUninstall",
      "outputs": [],
      "stateMutability": "nonpayable",
      "type": "function"
    },
    {
      "inputs": [
        {
          "internalType": "contract INexus",
          "name": "account",
          "type": "address"
        },
        {
          "components": [
            {
              "internalType": "address",
              "name": "target",
              "type": "address"
            },
            {
              "internalType": "uint256",
              "name": "value",
              "type": "uint256"
            },
            {
              "internalType": "bytes",
              "name": "callData",
              "type": "bytes"
            }
          ],
          "internalType": "struct Execution[]",
          "name": "execs",
          "type": "tuple[]"
        }
      ],
      "name": "tryExecuteBatchViaAccount",
      "outputs": [
        {
          "internalType": "bytes[]",
          "name": "returnData",
          "type": "bytes[]"
        }
      ],
      "stateMutability": "nonpayable",
      "type": "function"
    },
    {
      "inputs": [
        {
          "internalType": "contract INexus",
          "name": "account",
          "type": "address"
        },
        {
          "internalType": "address",
          "name": "target",
          "type": "address"
        },
        {
          "internalType": "uint256",
          "name": "value",
          "type": "uint256"
        },
        {
          "internalType": "bytes",
          "name": "callData",
          "type": "bytes"
        }
      ],
      "name": "tryExecuteViaAccount",
      "outputs": [
        {
          "internalType": "bytes[]",
          "name": "returnData",
          "type": "bytes[]"
        }
      ],
      "stateMutability": "nonpayable",
      "type": "function"
    },
    {
      "stateMutability": "payable",
      "type": "receive"
    }
  ],
  "bytecode": "0x60808060405234601557610c09908161001a8239f35b5f80fdfe6080604052600436101561001a575b3615610018575f80fd5b005b5f3560e01c80631262b0ee146105075780633006a107146104bb5780634bcfa24b146104365780635873f2001461031f578063628cd4a91461021a5780636d61fe70146101a95780637b378abf1461012a5780638a91b0e3146100f9578063d60b347f146100d5578063d6cc1aa4146100bb5763ecd059610361000e57346100b75760203660031901126100b75760206040516002600435148152f35b5f80fd5b346100b7575f3660031901126100b75760206040515f8152f35b346100b75760203660031901126100b7576100ee610556565b5060206040515f8152f35b346100b75760203660031901126100b75760043567ffffffffffffffff81116100b757610018903690600401610656565b346100b75760a03660031901126100b7576024356001600160a01b03811681036100b757604435906001600160a01b03821682036100b7576084359067ffffffffffffffff82116100b7576101a59261018a610199933690600401610656565b9290916064359160043561098b565b604051918291826105f7565b0390f35b346100b75760203660031901126100b75760043567ffffffffffffffff81116100b7576101da903690600401610656565b60208110156101e557005b6020116100b75760207f7d5cb0984bb7d1f4bd4b5173bf72bc11bee784a856f3fe474cba8d93aa9e3baa9160405190358152a1005b346100b7576102b75f61022c36610684565b93918593919350604051936020850194878652600160f81b602182015287602282015287602682015287602a8201526020815261026a604082610710565b5194519460208110610307575b5061028b9085966102919596503691610766565b91610b87565b91836001600160a01b036040518097819682956335a4725960e21b845260048401610940565b0393165af180156102fc576101a5915f916102da575b50604051918291826105f7565b6102f691503d805f833e6102ee8183610710565b81019061086a565b826102cd565b6040513d5f823e3d90fd5b871960209190910360031b1b9094169361028b610277565b346100b75760403660031901126100b757610338610556565b60243567ffffffffffffffff81116100b7576103595f913690600401610656565b928391836001600160a01b03606460405160208101907fff00000000000000000000000000000000000000000000000000000000000000825284602182015284602282015284602682015284602a820152602081526103b9604082610710565b5190519060208110610425575b50604051988997889687936335a4725960e21b8552600485015260406024850152816044850152848401378181018301859052601f01601f19168101030193165af180156102fc576101a5915f916102da5750604051918291826105f7565b84199060200360031b1b16896103c6565b346100b7576102b75f6104483661056c565b9190604051926020840193600160f81b855285602182015285602282015285602682015285602a82015260208152610481604082610710565b51935193602081106104a3575b506102919161049e91369161079c565b610aee565b851960209190910360031b1b9093169261029161048e565b346100b7576102b75f6104cd36610684565b9391859391935060405193602085019487865287602182015287602282015287602682015287602a8201526020815261026a604082610710565b346100b7576102b75f6105193661056c565b9190604051926020840193600160f81b8552600160f81b602182015285602282015285602682015285602a82015260208152610481604082610710565b600435906001600160a01b03821682036100b757565b60406003198201126100b7576004356001600160a01b03811681036100b7579160243567ffffffffffffffff81116100b757826023820112156100b75780600401359267ffffffffffffffff84116100b75760248460051b830101116100b7576024019190565b805180835260209291819084018484015e5f828201840152601f01601f1916010190565b602081016020825282518091526040820191602060408360051b8301019401925f915b83831061062957505050505090565b9091929394602080610647600193603f1986820301875289516105d3565b9701930193019193929061061a565b9181601f840112156100b75782359167ffffffffffffffff83116100b757602083818601950101116100b757565b9060806003198301126100b7576004356001600160a01b03811681036100b757916024356001600160a01b03811681036100b75791604435916064359067ffffffffffffffff82116100b7576106dc91600401610656565b9091565b6060810190811067ffffffffffffffff8211176106fc57604052565b634e487b7160e01b5f52604160045260245ffd5b90601f8019910116810190811067ffffffffffffffff8211176106fc57604052565b67ffffffffffffffff81116106fc5760051b60200190565b67ffffffffffffffff81116106fc57601f01601f191660200190565b9291926107728261074a565b916107806040519384610710565b8294818452818301116100b7578281602093845f960137010152565b9291926107a882610732565b936107b66040519586610710565b602085848152019260051b8201918183116100b75780935b8385106107dc575050505050565b843567ffffffffffffffff81116100b7578201906060828503126100b75760405191610807836106e0565b80356001600160a01b03811681036100b75783526020810135602084015260408101359067ffffffffffffffff82116100b757019084601f830112156100b75760209261085a8684868096359101610766565b60408201528152019401936107ce565b6020818303126100b75780519067ffffffffffffffff82116100b757019080601f830112156100b75781519161089f83610732565b926108ad6040519485610710565b80845260208085019160051b830101918383116100b75760208101915b8383106108d957505050505090565b825167ffffffffffffffff81116100b757820185603f820112156100b7576020810151916109068361074a565b6109136040519182610710565b83815260408385010188106100b7575f602085819660408397018386015e830101528152019201916108ca565b6040906109579392815281602082015201906105d3565b90565b8051156109675760200190565b634e487b7160e01b5f52603260045260245ffd5b8051600110156109675760400190565b949093919291907fff000000000000000000000000000000000000000000000000000000000000008616806109fc5750925f949261028b610291936109d298963691610766565b0393165af19081156102fc575f916109e8575090565b61095791503d805f833e6102ee8183610710565b600160f81b14610a1d57925f949261028b610291936109d298963691610766565b6040519392506060610a2f8186610710565b600285526040905f5b828110610ac557505050925f9492610a77610291936109d298966001600160a01b0360405194610a67866106e0565b1684528860208501523691610766565b6040820152610a858261095a565b52610a8f8161095a565b50604051610a9c816106e0565b30815285602082015260606040820152610ab58261097b565b52610abf8161097b565b50610aee565b602090604051610ad4816106e0565b5f81525f8382015283604082015282828a01015201610a38565b6040519081604081019160208083015280518093526060820192602060608260051b8501019201935f905b828210610b3657505050610957925003601f198101835282610710565b91935091602080610b77600193605f198a8203018652606060408a516001600160a01b038151168452858101518685015201519181604082015201906105d3565b9601920192018593919492610b19565b605490602061095793946040519586936bffffffffffffffffffffffff199060601b168385015260348401528051918291018484015e81015f838201520301601f19810183528261071056fea2646970667358221220de0cd38233afc3dc49c87c7b4f4cbdf4b9f732a4963fb5e6bd357d83f49bb9c764736f6c634300081b0033",
  "linkReferences": {},
  "deployedLinkReferences": {}
}