{
  "_format": "hh-sol-artifact-1",
  "contractName": "MockNFT",
  "sourceName": "contracts/mocks/MockNFT.sol",
  "abi": [
    {
      "inputs": [
        {
          "internalType": "string",
          "name": "name",
          "type": "string"
        },
        {
          "internalType": "string",
          "name": "symbol",
          "type": "string"
        }
      ],
      "stateMutability": "nonpayable",
      "type": "constructor"
    },
    {
      "inputs": [
        {
          "internalType": "address",
          "name": "sender",
          "type": "address"
        },
        {
          "internalType": "uint256",
          "name": "tokenId",
          "type": "uint256"
        },
        {
          "internalType": "address",
          "name": "owner",
          "type": "address"
        }
      ],
      "name": "ERC721IncorrectOwner",
      "type": "error"
    },
    {
      "inputs": [
        {
          "internalType": "address",
          "name": "operator",
          "type": "address"
        },
        {
          "internalType": "uint256",
          "name": "tokenId",
          "type": "uint256"
        }
      ],
      "name": "ERC721InsufficientApproval",
      "type": "error"
    },
    {
      "inputs": [
        {
          "internalType": "address",
          "name": "approver",
          "type": "address"
        }
      ],
      "name": "ERC721InvalidApprover",
      "type": "error"
    },
    {
      "inputs": [
        {
          "internalType": "address",
          "name": "operator",
          "type": "address"
        }
      ],
      "name": "ERC721InvalidOperator",
      "type": "error"
    },
    {
      "inputs": [
        {
          "internalType": "address",
          "name": "owner",
          "type": "address"
        }
      ],
      "name": "ERC721InvalidOwner",
      "type": "error"
    },
    {
      "inputs": [
        {
          "internalType": "address",
          "name": "receiver",
          "type": "address"
        }
      ],
      "name": "ERC721InvalidReceiver",
      "type": "error"
    },
    {
      "inputs": [
        {
          "internalType": "address",
          "name": "sender",
          "type": "address"
        }
      ],
      "name": "ERC721InvalidSender",
      "type": "error"
    },
    {
      "inputs": [
        {
          "internalType": "uint256",
          "name": "tokenId",
          "type": "uint256"
        }
      ],
      "name": "ERC721NonexistentToken",
      "type": "error"
    },
    {
      "anonymous": false,
      "inputs": [
        {
          "indexed": true,
          "internalType": "address",
          "name": "owner",
          "type": "address"
        },
        {
          "indexed": true,
          "internalType": "address",
          "name": "approved",
          "type": "address"
        },
        {
          "indexed": true,
          "internalType": "uint256",
          "name": "tokenId",
          "type": "uint256"
        }
      ],
      "name": "Approval",
      "type": "event"
    },
    {
      "anonymous": false,
      "inputs": [
        {
          "indexed": true,
          "internalType": "address",
          "name": "owner",
          "type": "address"
        },
        {
          "indexed": true,
          "internalType": "address",
          "name": "operator",
          "type": "address"
        },
        {
          "indexed": false,
          "internalType": "bool",
          "name": "approved",
          "type": "bool"
        }
      ],
      "name": "ApprovalForAll",
      "type": "event"
    },
    {
      "anonymous": false,
      "inputs": [
        {
          "indexed": true,
          "internalType": "address",
          "name": "from",
          "type": "address"
        },
        {
          "indexed": true,
          "internalType": "address",
          "name": "to",
          "type": "address"
        },
        {
          "indexed": true,
          "internalType": "uint256",
          "name": "tokenId",
          "type": "uint256"
        }
      ],
      "name": "Transfer",
      "type": "event"
    },
    {
      "inputs": [
        {
          "internalType": "address",
          "name": "to",
          "type": "address"
        },
        {
          "internalType": "uint256",
          "name": "tokenId",
          "type": "uint256"
        }
      ],
      "name": "approve",
      "outputs": [],
      "stateMutability": "nonpayable",
      "type": "function"
    },
    {
      "inputs": [
        {
          "internalType": "address",
          "name": "owner",
          "type": "address"
        }
      ],
      "name": "balanceOf",
      "outputs": [
        {
          "internalType": "uint256",
          "name": "",
          "type": "uint256"
        }
      ],
      "stateMutability": "view",
      "type": "function"
    },
    {
      "inputs": [
        {
          "internalType": "uint256",
          "name": "tokenId",
          "type": "uint256"
        }
      ],
      "name": "getApproved",
      "outputs": [
        {
          "internalType": "address",
          "name": "",
          "type": "address"
        }
      ],
      "stateMutability": "view",
      "type": "function"
    },
    {
      "inputs": [
        {
          "internalType": "address",
          "name": "owner",
          "type": "address"
        },
        {
          "internalType": "address",
          "name": "operator",
          "type": "address"
        }
      ],
      "name": "isApprovedForAll",
      "outputs": [
        {
          "internalType": "bool",
          "name": "",
          "type": "bool"
        }
      ],
      "stateMutability": "view",
      "type": "function"
    },
    {
      "inputs": [
        {
          "internalType": "address",
          "name": "to",
          "type": "address"
        },
        {
          "internalType": "uint256",
          "name": "tokenId",
          "type": "uint256"
        }
      ],
      "name": "mint",
      "outputs": [],
      "stateMutability": "nonpayable",
      "type": "function"
    },
    {
      "inputs": [],
      "name": "name",
      "outputs": [
        {
          "internalType": "string",
          "name": "",
          "type": "string"
        }
      ],
      "stateMutability": "view",
      "type": "function"
    },
    {
      "inputs": [
        {
          "internalType": "uint256",
          "name": "tokenId",
          "type": "uint256"
        }
      ],
      "name": "ownerOf",
      "outputs": [
        {
          "internalType": "address",
          "name": "",
          "type": "address"
        }
      ],
      "stateMutability": "view",
      "type": "function"
    },
    {
      "inputs": [
        {
          "internalType": "address",
          "name": "to",
          "type": "address"
        },
        {
          "internalType": "uint256",
          "name": "tokenId",
          "type": "uint256"
        }
      ],
      "name": "safeMint",
      "outputs": [],
      "stateMutability": "nonpayable",
      "type": "function"
    },
    {
      "inputs": [
        {
          "internalType": "address",
          "name": "to",
          "type": "address"
        },
        {
          "internalType": "uint256",
          "name": "tokenId",
          "type": "uint256"
        }
      ],
      "name": "safeTransfer",
      "outputs": [],
      "stateMutability": "nonpayable",
      "type": "function"
    },
    {
      "inputs": [
        {
          "internalType": "address",
          "name": "from",
          "type": "address"
        },
        {
          "internalType": "address",
          "name": "to",
          "type": "address"
        },
        {
          "internalType": "uint256",
          "name": "tokenId",
          "type": "uint256"
        }
      ],
      "name": "safeTransferFrom",
      "outputs": [],
      "stateMutability": "nonpayable",
      "type": "function"
    },
    {
      "inputs": [
        {
          "internalType": "address",
          "name": "from",
          "type": "address"
        },
        {
          "internalType": "address",
          "name": "to",
          "type": "address"
        },
        {
          "internalType": "uint256",
          "name": "tokenId",
          "type": "uint256"
        },
        {
          "internalType": "bytes",
          "name": "data",
          "type": "bytes"
        }
      ],
      "name": "safeTransferFrom",
      "outputs": [],
      "stateMutability": "nonpayable",
      "type": "function"
    },
    {
      "inputs": [
        {
          "internalType": "address",
          "name": "operator",
          "type": "address"
        },
        {
          "internalType": "bool",
          "name": "approved",
          "type": "bool"
        }
      ],
      "name": "setApprovalForAll",
      "outputs": [],
      "stateMutability": "nonpayable",
      "type": "function"
    },
    {
      "inputs": [
        {
          "internalType": "bytes4",
          "name": "interfaceId",
          "type": "bytes4"
        }
      ],
      "name": "supportsInterface",
      "outputs": [
        {
          "internalType": "bool",
          "name": "",
          "type": "bool"
        }
      ],
      "stateMutability": "view",
      "type": "function"
    },
    {
      "inputs": [],
      "name": "symbol",
      "outputs": [
        {
          "internalType": "string",
          "name": "",
          "type": "string"
        }
      ],
      "stateMutability": "view",
      "type": "function"
    },
    {
      "inputs": [
        {
          "internalType": "uint256",
          "name": "tokenId",
          "type": "uint256"
        }
      ],
      "name": "tokenURI",
      "outputs": [
        {
          "internalType": "string",
          "name": "",
          "type": "string"
        }
      ],
      "stateMutability": "view",
      "type": "function"
    },
    {
      "inputs": [
        {
          "internalType": "address",
          "name": "from",
          "type": "address"
        },
        {
          "internalType": "address",
          "name": "to",
          "type": "address"
        },
        {
          "internalType": "uint256",
          "name": "tokenId",
          "type": "uint256"
        }
      ],
      "name": "transferFrom",
      "outputs": [],
      "stateMutability": "nonpayable",
      "type": "function"
    }
  ],
  "bytecode": "0x60806040523461030b5761122d803803806100198161030f565b92833981019060408183031261030b5780516001600160401b03811161030b5782610045918301610334565b60208201519092906001600160401b03811161030b576100659201610334565b81516001600160401b038111610221575f54600181811c91168015610301575b602082101461020357601f811161029f575b50602092601f821160011461024057928192935f92610235575b50508160011b915f199060031b1c1916175f555b80516001600160401b03811161022157600154600181811c91168015610217575b602082101461020357601f81116101a0575b50602091601f8211600114610140579181925f92610135575b50508160011b915f199060031b1c1916176001555b604051610ea790816103868239f35b015190505f80610111565b601f1982169260015f52805f20915f5b85811061018857508360019510610170575b505050811b01600155610126565b01515f1960f88460031b161c191690555f8080610162565b91926020600181928685015181550194019201610150565b60015f527fb10e2d527612073b26eecdfd717e6a320cf44b4afac2b0732d9fcbe2b7fa0cf6601f830160051c810191602084106101f9575b601f0160051c01905b8181106101ee57506100f8565b5f81556001016101e1565b90915081906101d8565b634e487b7160e01b5f52602260045260245ffd5b90607f16906100e6565b634e487b7160e01b5f52604160045260245ffd5b015190505f806100b1565b601f198216935f8052805f20915f5b868110610287575083600195961061026f575b505050811b015f556100c5565b01515f1960f88460031b161c191690555f8080610262565b9192602060018192868501518155019401920161024f565b5f80527f290decd9548b62a8d60345a988386fc84ba6bc95484008f6362f93160ef3e563601f830160051c810191602084106102f7575b601f0160051c01905b8181106102ec5750610097565b5f81556001016102df565b90915081906102d6565b90607f1690610085565b5f80fd5b6040519190601f01601f191682016001600160401b0381118382101761022157604052565b81601f8201121561030b578051906001600160401b03821161022157610363601f8301601f191660200161030f565b928284526020838301011161030b57815f9260208093018386015e830101529056fe6080806040526004361015610012575f80fd5b5f905f3560e01c90816301ffc9a7146108d25750806306fdde031461081a578063081812fc146107dd578063095ea7b3146106d857806323b872dd146106c157806340c10f191461069c578063423f6cef146105f057806342842e0e146105c15780636352211e1461059257806370a082311461052857806395d89b4114610420578063a1448194146102ca578063a22cb46514610216578063b88d4fde14610180578063c87b56dd146101235763e985e9c5146100ce575f80fd5b34610120576040366003190112610120576001600160a01b0360406100f16109ad565b92826100fb6109c3565b9416815260056020522091165f52602052602060ff60405f2054166040519015158152f35b80fd5b3461017c57602036600319011261017c5761013f600435610c0d565b505f60405161014f602082610a13565b52610178604051610161602082610a13565b5f8152604051918291602083526020830190610989565b0390f35b5f80fd5b3461017c57608036600319011261017c576101996109ad565b6101a16109c3565b906044356064359267ffffffffffffffff841161017c573660238501121561017c578360040135926101d284610a49565b936101e06040519586610a13565b808552366024828801011161017c576020815f9260246102149901838901378601015261020e838383610a65565b33610d4d565b005b3461017c57604036600319011261017c5761022f6109ad565b6024359081151580920361017c576001600160a01b031690811561029e57335f52600560205260405f20825f5260205260405f2060ff1981541660ff83161790556040519081527f17307eab39ab6107e8899845ad3d59bd9653f200f220920489ca2b5937696c3160203392a3005b507f5b08ba18000000000000000000000000000000000000000000000000000000005f5260045260245ffd5b3461017c57604036600319011261017c576102e36109ad565b60243590602090604051906102f88383610a13565b5f82526103058482610cf9565b803b61030d57005b610351916001600160a01b03849216946040519384928392630a85bd0160e11b84523360048501525f60248501526044840152608060648401526084830190610989565b03815f875af15f91816103e0575b506103b357503d156103ab573d9061037682610a49565b916103846040519384610a13565b82523d5f8284013e5b815191826103a85783633250574960e11b5f5260045260245ffd5b01fd5b60609061038d565b630a85bd0160e11b91506001600160e01b031916036103ce57005b633250574960e11b5f5260045260245ffd5b9091508281813d8311610419575b6103f88183610a13565b8101031261017c57516001600160e01b03198116810361017c57908461035f565b503d6103ee565b3461017c575f36600319011261017c576040515f6001548060011c9060018116801561051e575b60208310811461050a578285529081156104e65750600114610488575b6101788361047481850382610a13565b604051918291602083526020830190610989565b91905060015f527fb10e2d527612073b26eecdfd717e6a320cf44b4afac2b0732d9fcbe2b7fa0cf6915f905b8082106104cc57509091508101602001610474610464565b9192600181602092548385880101520191019092916104b4565b60ff191660208086019190915291151560051b840190910191506104749050610464565b634e487b7160e01b5f52602260045260245ffd5b91607f1691610447565b3461017c57602036600319011261017c576001600160a01b036105496109ad565b168015610566575f526003602052602060405f2054604051908152f35b7f89c62b64000000000000000000000000000000000000000000000000000000005f525f60045260245ffd5b3461017c57602036600319011261017c5760206105b0600435610c0d565b6001600160a01b0360405191168152f35b3461017c576102146105d2366109d9565b90604051926105e2602085610a13565b5f845261020e838383610a65565b3461017c57604036600319011261017c576106096109ad565b6024359060405161061b602082610a13565b5f81526001600160a01b03821615610689576001600160a01b0361063f8484610c40565b1691826106595783637e27328960e01b5f5260045260245ffd5b839033840361066e5761021493503333610d4d565b83826364283d7b60e01b5f523360045260245260445260645ffd5b633250574960e11b5f525f60045260245ffd5b3461017c57604036600319011261017c576102146106b86109ad565b60243590610cf9565b3461017c576102146106d2366109d9565b91610a65565b3461017c57604036600319011261017c576106f16109ad565b6024356106fd81610c0d565b331515806107ca575b80610797575b61076b5781906001600160a01b0380851691167f8c5be1e5ebec7d5bd14f71427d1e84f3dd0314c0f7b2291e5b200ac8c7c3b9255f80a45f5260046020526001600160a01b0360405f2091166001600160a01b03198254161790555f80f35b7fa9fbf51f000000000000000000000000000000000000000000000000000000005f523360045260245ffd5b506001600160a01b0381165f52600560205260405f206001600160a01b0333165f5260205260ff60405f2054161561070c565b50336001600160a01b0382161415610706565b3461017c57602036600319011261017c576004356107fa81610c0d565b505f52600460205260206001600160a01b0360405f205416604051908152f35b3461017c575f36600319011261017c576040515f5f548060011c906001811680156108c8575b60208310811461050a578285529081156104e6575060011461086c576101788361047481850382610a13565b5f8080527f290decd9548b62a8d60345a988386fc84ba6bc95484008f6362f93160ef3e563939250905b8082106108ae57509091508101602001610474610464565b919260018160209254838588010152019101909291610896565b91607f1691610840565b3461017c57602036600319011261017c57600435906001600160e01b0319821680920361017c57817f80ac58cd000000000000000000000000000000000000000000000000000000006020931490811561095f575b8115610935575b5015158152f35b7f01ffc9a7000000000000000000000000000000000000000000000000000000009150148361092e565b7f5b5e139f0000000000000000000000000000000000000000000000000000000081149150610927565b805180835260209291819084018484015e5f828201840152601f01601f1916010190565b600435906001600160a01b038216820361017c57565b602435906001600160a01b038216820361017c57565b606090600319011261017c576004356001600160a01b038116810361017c57906024356001600160a01b038116810361017c579060443590565b90601f8019910116810190811067ffffffffffffffff821117610a3557604052565b634e487b7160e01b5f52604160045260245ffd5b67ffffffffffffffff8111610a3557601f01601f191660200190565b91906001600160a01b0316801561068957815f5260026020526001600160a01b0360405f20541692823315159283610b58575b6001600160a01b03935085610b21575b805f52600360205260405f2060018154019055815f52600260205260405f20816001600160a01b0319825416179055857fddf252ad1be2c89b69c2b068fc378daa952ba7f163c4a11628f55a4df523b3ef5f80a416808303610b0957505050565b6364283d7b60e01b5f5260045260245260445260645ffd5b610b40825f52600460205260405f206001600160a01b03198154169055565b855f52600360205260405f205f198154019055610aa8565b9192905080610bb6575b15610b6f57828291610a98565b8284610b8757637e27328960e01b5f5260045260245ffd5b7f177e802f000000000000000000000000000000000000000000000000000000005f523360045260245260445ffd5b503384148015610be4575b80610b625750825f526004602052336001600160a01b0360405f20541614610b62565b50835f52600560205260405f206001600160a01b0333165f5260205260ff60405f205416610bc1565b805f5260026020526001600160a01b0360405f205416908115610c2e575090565b637e27328960e01b5f5260045260245ffd5b90805f5260026020526001600160a01b038060405f2054169283610cc2575b1680610caa575b815f52600260205260405f20816001600160a01b0319825416179055827fddf252ad1be2c89b69c2b068fc378daa952ba7f163c4a11628f55a4df523b3ef5f80a490565b805f52600360205260405f2060018154019055610c66565b610ce1835f52600460205260405f206001600160a01b03198154169055565b835f52600360205260405f205f198154019055610c5f565b6001600160a01b03811615610689576001600160a01b0391610d1a91610c40565b16610d2157565b7f73c6ac6e000000000000000000000000000000000000000000000000000000005f525f60045260245ffd5b93909293823b610d5f575b5050505050565b610da66001600160a01b0392836020951696846040519788968796630a85bd0160e11b88521660048701521660248501526044840152608060648401526084830190610989565b03815f865af15f9181610e2c575b50610e0957503d15610e02573d610dca81610a49565b90610dd86040519283610a13565b81523d5f602083013e5b80519081610dfd5782633250574960e11b5f5260045260245ffd5b602001fd5b6060610de2565b6001600160e01b0319630a85bd0160e11b9116036103ce57505f80808080610d58565b9091506020813d602011610e69575b81610e4860209383610a13565b8101031261017c57516001600160e01b03198116810361017c57905f610db4565b3d9150610e3b56fea2646970667358221220a48cf5469ffea5a5e9b7ddb9e7665f22b13866565d88c564d94ae77758a8afdb64736f6c634300081b0033",
  "linkReferences": {},
  "deployedLinkReferences": {}
}