{
  "_format": "hh-sol-artifact-1",
  "contractName": "MockERC1155",
  "sourceName": "contracts/mocks/MockNFT.sol",
  "abi": [
    {
      "inputs": [
        {
          "internalType": "string",
          "name": "uri",
          "type": "string"
        }
      ],
      "stateMutability": "nonpayable",
      "type": "constructor"
    },
    {
      "inputs": [
        {
          "internalType": "address",
          "name": "sender",
          "type": "address"
        },
        {
          "internalType": "uint256",
          "name": "balance",
          "type": "uint256"
        },
        {
          "internalType": "uint256",
          "name": "needed",
          "type": "uint256"
        },
        {
          "internalType": "uint256",
          "name": "tokenId",
          "type": "uint256"
        }
      ],
      "name": "ERC1155InsufficientBalance",
      "type": "error"
    },
    {
      "inputs": [
        {
          "internalType": "address",
          "name": "approver",
          "type": "address"
        }
      ],
      "name": "ERC1155InvalidApprover",
      "type": "error"
    },
    {
      "inputs": [
        {
          "internalType": "uint256",
          "name": "idsLength",
          "type": "uint256"
        },
        {
          "internalType": "uint256",
          "name": "valuesLength",
          "type": "uint256"
        }
      ],
      "name": "ERC1155InvalidArrayLength",
      "type": "error"
    },
    {
      "inputs": [
        {
          "internalType": "address",
          "name": "operator",
          "type": "address"
        }
      ],
      "name": "ERC1155InvalidOperator",
      "type": "error"
    },
    {
      "inputs": [
        {
          "internalType": "address",
          "name": "receiver",
          "type": "address"
        }
      ],
      "name": "ERC1155InvalidReceiver",
      "type": "error"
    },
    {
      "inputs": [
        {
          "internalType": "address",
          "name": "sender",
          "type": "address"
        }
      ],
      "name": "ERC1155InvalidSender",
      "type": "error"
    },
    {
      "inputs": [
        {
          "internalType": "address",
          "name": "operator",
          "type": "address"
        },
        {
          "internalType": "address",
          "name": "owner",
          "type": "address"
        }
      ],
      "name": "ERC1155MissingApprovalForAll",
      "type": "error"
    },
    {
      "anonymous": false,
      "inputs": [
        {
          "indexed": true,
          "internalType": "address",
          "name": "account",
          "type": "address"
        },
        {
          "indexed": true,
          "internalType": "address",
          "name": "operator",
          "type": "address"
        },
        {
          "indexed": false,
          "internalType": "bool",
          "name": "approved",
          "type": "bool"
        }
      ],
      "name": "ApprovalForAll",
      "type": "event"
    },
    {
      "anonymous": false,
      "inputs": [
        {
          "indexed": true,
          "internalType": "address",
          "name": "operator",
          "type": "address"
        },
        {
          "indexed": true,
          "internalType": "address",
          "name": "from",
          "type": "address"
        },
        {
          "indexed": true,
          "internalType": "address",
          "name": "to",
          "type": "address"
        },
        {
          "indexed": false,
          "internalType": "uint256[]",
          "name": "ids",
          "type": "uint256[]"
        },
        {
          "indexed": false,
          "internalType": "uint256[]",
          "name": "values",
          "type": "uint256[]"
        }
      ],
      "name": "TransferBatch",
      "type": "event"
    },
    {
      "anonymous": false,
      "inputs": [
        {
          "indexed": true,
          "internalType": "address",
          "name": "operator",
          "type": "address"
        },
        {
          "indexed": true,
          "internalType": "address",
          "name": "from",
          "type": "address"
        },
        {
          "indexed": true,
          "internalType": "address",
          "name": "to",
          "type": "address"
        },
        {
          "indexed": false,
          "internalType": "uint256",
          "name": "id",
          "type": "uint256"
        },
        {
          "indexed": false,
          "internalType": "uint256",
          "name": "value",
          "type": "uint256"
        }
      ],
      "name": "TransferSingle",
      "type": "event"
    },
    {
      "anonymous": false,
      "inputs": [
        {
          "indexed": false,
          "internalType": "string",
          "name": "value",
          "type": "string"
        },
        {
          "indexed": true,
          "internalType": "uint256",
          "name": "id",
          "type": "uint256"
        }
      ],
      "name": "URI",
      "type": "event"
    },
    {
      "inputs": [
        {
          "internalType": "address",
          "name": "account",
          "type": "address"
        },
        {
          "internalType": "uint256",
          "name": "id",
          "type": "uint256"
        }
      ],
      "name": "balanceOf",
      "outputs": [
        {
          "internalType": "uint256",
          "name": "",
          "type": "uint256"
        }
      ],
      "stateMutability": "view",
      "type": "function"
    },
    {
      "inputs": [
        {
          "internalType": "address[]",
          "name": "accounts",
          "type": "address[]"
        },
        {
          "internalType": "uint256[]",
          "name": "ids",
          "type": "uint256[]"
        }
      ],
      "name": "balanceOfBatch",
      "outputs": [
        {
          "internalType": "uint256[]",
          "name": "",
          "type": "uint256[]"
        }
      ],
      "stateMutability": "view",
      "type": "function"
    },
    {
      "inputs": [
        {
          "internalType": "address",
          "name": "account",
          "type": "address"
        },
        {
          "internalType": "address",
          "name": "operator",
          "type": "address"
        }
      ],
      "name": "isApprovedForAll",
      "outputs": [
        {
          "internalType": "bool",
          "name": "",
          "type": "bool"
        }
      ],
      "stateMutability": "view",
      "type": "function"
    },
    {
      "inputs": [
        {
          "internalType": "address",
          "name": "from",
          "type": "address"
        },
        {
          "internalType": "address",
          "name": "to",
          "type": "address"
        },
        {
          "internalType": "uint256[]",
          "name": "ids",
          "type": "uint256[]"
        },
        {
          "internalType": "uint256[]",
          "name": "values",
          "type": "uint256[]"
        },
        {
          "internalType": "bytes",
          "name": "data",
          "type": "bytes"
        }
      ],
      "name": "safeBatchTransferFrom",
      "outputs": [],
      "stateMutability": "nonpayable",
      "type": "function"
    },
    {
      "inputs": [
        {
          "internalType": "address",
          "name": "to",
          "type": "address"
        },
        {
          "internalType": "uint256",
          "name": "tokenId",
          "type": "uint256"
        },
        {
          "internalType": "uint256",
          "name": "amount",
          "type": "uint256"
        }
      ],
      "name": "safeMint",
      "outputs": [],
      "stateMutability": "nonpayable",
      "type": "function"
    },
    {
      "inputs": [
        {
          "internalType": "address",
          "name": "to",
          "type": "address"
        },
        {
          "internalType": "uint256[]",
          "name": "tokenIds",
          "type": "uint256[]"
        },
        {
          "internalType": "uint256[]",
          "name": "amounts",
          "type": "uint256[]"
        }
      ],
      "name": "safeMintBatch",
      "outputs": [],
      "stateMutability": "nonpayable",
      "type": "function"
    },
    {
      "inputs": [
        {
          "internalType": "address",
          "name": "from",
          "type": "address"
        },
        {
          "internalType": "address",
          "name": "to",
          "type": "address"
        },
        {
          "internalType": "uint256",
          "name": "id",
          "type": "uint256"
        },
        {
          "internalType": "uint256",
          "name": "value",
          "type": "uint256"
        },
        {
          "internalType": "bytes",
          "name": "data",
          "type": "bytes"
        }
      ],
      "name": "safeTransferFrom",
      "outputs": [],
      "stateMutability": "nonpayable",
      "type": "function"
    },
    {
      "inputs": [
        {
          "internalType": "address",
          "name": "operator",
          "type": "address"
        },
        {
          "internalType": "bool",
          "name": "approved",
          "type": "bool"
        }
      ],
      "name": "setApprovalForAll",
      "outputs": [],
      "stateMutability": "nonpayable",
      "type": "function"
    },
    {
      "inputs": [
        {
          "internalType": "bytes4",
          "name": "interfaceId",
          "type": "bytes4"
        }
      ],
      "name": "supportsInterface",
      "outputs": [
        {
          "internalType": "bool",
          "name": "",
          "type": "bool"
        }
      ],
      "stateMutability": "view",
      "type": "function"
    },
    {
      "inputs": [
        {
          "internalType": "uint256",
          "name": "",
          "type": "uint256"
        }
      ],
      "name": "uri",
      "outputs": [
        {
          "internalType": "string",
          "name": "",
          "type": "string"
        }
      ],
      "stateMutability": "view",
      "type": "function"
    }
  ],
  "bytecode": "0x6080604052346101f95761130280380380610019816101fd565b9283398101906020818303126101f9578051906001600160401b0382116101f9570181601f820112156101f9578051906001600160401b0382116101e55761006a601f8301601f19166020016101fd565b92828452602083830101116101f957815f9260208093018386015e8301015280516001600160401b0381116101e557600254600181811c911680156101db575b60208210146101c757601f8111610164575b50602091601f8211600114610104579181925f926100f9575b50508160011b915f199060031b1c1916176002555b6040516110df90816102238239f35b015190505f806100d5565b601f1982169260025f52805f20915f5b85811061014c57508360019510610134575b505050811b016002556100ea565b01515f1960f88460031b161c191690555f8080610126565b91926020600181928685015181550194019201610114565b60025f527f405787fa12a823e0f2b7631cc41b3ba8828b3321ca811111fa75cd3aa3bb5ace601f830160051c810191602084106101bd575b601f0160051c01905b8181106101b257506100bc565b5f81556001016101a5565b909150819061019c565b634e487b7160e01b5f52602260045260245ffd5b90607f16906100aa565b634e487b7160e01b5f52604160045260245ffd5b5f80fd5b6040519190601f01601f191682016001600160401b038111838210176101e55760405256fe60806040526004361015610011575f80fd5b5f3560e01c8062fdd58e146100b357806301ffc9a7146100ae5780630e89341c146100a957806324eeedf6146100a45780632eb2c2d61461009f5780634e1273f41461009a578063637f68cd14610095578063a22cb46514610090578063e985e9c51461008b5763f242432a14610086575f80fd5b610817565b6107b9565b6106e5565b610662565b6105a1565b6104d0565b610338565b610244565b610152565b346100fc5760403660031901126100fc5760206100f36100d1610100565b6024355f525f835260405f20906001600160a01b03165f5260205260405f2090565b54604051908152f35b5f80fd5b600435906001600160a01b03821682036100fc57565b602435906001600160a01b03821682036100fc57565b35906001600160a01b03821682036100fc57565b6001600160e01b03198116036100fc57565b346100fc5760203660031901126100fc5760206001600160e01b031960043561017a81610140565b167fd9b67a260000000000000000000000000000000000000000000000000000000081149081156101e2575b81156101b8575b506040519015158152f35b7f01ffc9a7000000000000000000000000000000000000000000000000000000009150145f6101ad565b7f0e89341c00000000000000000000000000000000000000000000000000000000811491506101a6565b805180835260209291819084018484015e5f828201840152601f01601f1916010190565b90602061024192818152019061020c565b90565b346100fc5760203660031901126100fc576040515f6002548060011c906001811690811561032e575b60208310821461031a57828552602085019190811561030157506001146102af575b6102ab8461029f818603826103d2565b60405191829182610230565b0390f35b60025f9081529250907f405787fa12a823e0f2b7631cc41b3ba8828b3321ca811111fa75cd3aa3bb5ace5b8184106102ed5750500161029f8261028f565b8054848401526020909301926001016102da565b60ff191682525090151560051b01905061029f8261028f565b634e487b7160e01b5f52602260045260245ffd5b91607f169161026d565b346100fc5760603660031901126100fc57610351610100565b604051604435916024356103666020846103d2565b5f83526001600160a01b038216156103ab576103a9936103a360405192600184526020840152604083019160018352606084015260808301604052565b91610ab6565b005b632bfa23e760e11b5f525f60045260245ffd5b634e487b7160e01b5f52604160045260245ffd5b90601f8019910116810190811067ffffffffffffffff8211176103f457604052565b6103be565b67ffffffffffffffff81116103f45760051b60200190565b9080601f830112156100fc578135610428816103f9565b9261043660405194856103d2565b81845260208085019260051b8201019283116100fc57602001905b82821061045e5750505090565b8135815260209182019101610451565b67ffffffffffffffff81116103f457601f01601f191660200190565b81601f820112156100fc578035906104a18261046e565b926104af60405194856103d2565b828452602083830101116100fc57815f926020809301838601378301015290565b346100fc5760a03660031901126100fc576104e9610100565b6104f1610116565b9060443567ffffffffffffffff81116100fc57610512903690600401610411565b60643567ffffffffffffffff81116100fc57610532903690600401610411565b906084359367ffffffffffffffff85116100fc576105576103a995369060040161048a565b93610974565b90602080835192838152019201905f5b81811061057a5750505090565b825184526020938401939092019160010161056d565b90602061024192818152019061055d565b346100fc5760403660031901126100fc5760043567ffffffffffffffff81116100fc57366023820112156100fc578060040135906105de826103f9565b916105ec60405193846103d2565b8083526024602084019160051b830101913683116100fc57602401905b82821061064a578360243567ffffffffffffffff81116100fc576102ab9161063861063e923690600401610411565b90610a08565b60405191829182610590565b602080916106578461012c565b815201910190610609565b346100fc5760603660031901126100fc5761067b610100565b60243567ffffffffffffffff81116100fc5761069b903690600401610411565b60443567ffffffffffffffff81116100fc576106bb903690600401610411565b604051916106ca6020846103d2565b5f83526001600160a01b038416156103ab576103a993610ab6565b346100fc5760403660031901126100fc576106fe610100565b6024358015158082036100fc576001600160a01b03831692831561078d5761074290335f52600160205260405f20906001600160a01b03165f5260205260405f2090565b9060ff801983541691161790557f17307eab39ab6107e8899845ad3d59bd9653f200f220920489ca2b5937696c3160405180610788339482919091602081019215159052565b0390a3005b7fced3e100000000000000000000000000000000000000000000000000000000005f525f60045260245ffd5b346100fc5760403660031901126100fc57602060ff61080b6107d9610100565b6001600160a01b036107e9610116565b91165f526001845260405f20906001600160a01b03165f5260205260405f2090565b54166040519015158152f35b346100fc5760a03660031901126100fc57610830610100565b610838610116565b604435906064359260843567ffffffffffffffff81116100fc5761086090369060040161048a565b926001600160a01b038216338114158061091b575b6108ec576001600160a01b038416156103ab57156108c0576103a9946108b860405192600184526020840152604083019160018352606084015260808301604052565b929091610c13565b7f01a83514000000000000000000000000000000000000000000000000000000005f525f60045260245ffd5b7fe237d922000000000000000000000000000000000000000000000000000000005f523360045260245260445ffd5b50805f52600160205260ff6109443360405f20906001600160a01b03165f5260205260405f2090565b541615610875565b610970915f525f60205260405f20906001600160a01b03165f5260205260405f2090565b5490565b939291906001600160a01b03851633811415806109af575b6108ec576001600160a01b038216156103ab57156108c0576109ad94610c13565b565b50805f52600160205260ff6109d83360405f20906001600160a01b03165f5260205260405f2090565b54161561098c565b80518210156109f45760209160051b010190565b634e487b7160e01b5f52603260045260245ffd5b91909180518351808203610a88575050805190610a24826103f9565b91610a3260405193846103d2565b808352610a41601f19916103f9565b013660208401375f5b8151811015610a815780610a7060019260051b602080828701015191890101519061094c565b610a7a82866109e0565b5201610a4a565b5090925050565b7f5b059991000000000000000000000000000000000000000000000000000000005f5260045260245260445ffd5b939291908051825190818103610a885750506001600160a01b03851693841515935f5b8351811015610b475780868960019360051b602080828a010151918a01015192610b07575b50505001610ad9565b610b3d91610b1f610b35925f525f60205260405f2090565b906001600160a01b03165f5260205260405f2090565b918254610e07565b90555f8981610afe565b509390959460018351145f14610bd8576020838101518582015160408051928352928201525f9133917fc3d58168c5ae7397731d063d5bbf3d657854427343f4c083240f7aacaa2d0f629190a45b610ba0575b50505050565b8051600103610bc85790602080610bbf95930151910151915f3361100a565b5f808080610b9a565b610bd3935f33610edf565b610bbf565b5f6040517f4a39dc06d4c0dbc64b70af90fd698a233a518aa5d07e595d983b8c0526c8f7fb339180610c0b898983610e28565b0390a4610b95565b9493929091938451825190818103610a88575050935f906001600160a01b03871695861515956001600160a01b038616801515945b8451811015610d3a578060051b90898988602080868b010151958c01015192610ca0575b93600194610c7e575b50505001610c48565b610c9691610b1f610b35925f525f60205260405f2090565b90555f8981610c75565b50509091610cb98d610b1f835f525f60205260405f2090565b54828110610cea578291898f610ce1600197968f950391610b1f855f525f60205260405f2090565b55909450610c6c565b6040517f03dee4c50000000000000000000000000000000000000000000000000000000081526001600160a01b038f16600482015260248101919091526044810183905260648101829052608490fd5b5091989593929790965060018851145f14610dcd5760208881015186820151604080519283529282015233917fc3d58168c5ae7397731d063d5bbf3d657854427343f4c083240f7aacaa2d0f6291a45b610d96575b5050505050565b8451600103610dbc57602080610db2960151920151923361100a565b5f80808080610d8f565b610dc894919233610edf565b610db2565b6040517f4a39dc06d4c0dbc64b70af90fd698a233a518aa5d07e595d983b8c0526c8f7fb339180610dff898d83610e28565b0390a4610d8a565b91908201809211610e1457565b634e487b7160e01b5f52601160045260245ffd5b9091610e3f6102419360408452604084019061055d565b91602081840391015261055d565b908160209103126100fc575161024181610140565b939061024195936001600160a01b03610ea29481610e949416885216602087015260a0604087015260a086019061055d565b90848203606086015261055d565b91608081840391015261020c565b3d15610eda573d90610ec18261046e565b91610ecf60405193846103d2565b82523d5f602084013e565b606090565b9091949293853b610ef3575b505050505050565b602093610f1591604051968795869563bc197c8160e01b875260048701610e62565b03815f6001600160a01b0387165af15f9181610fa5575b50610f665750610f3a610eb0565b8051919082610f5f57632bfa23e760e11b5f526001600160a01b03821660045260245ffd5b6020915001fd5b6001600160e01b031963bc197c8160e01b911603610f8a57505f8080808080610eeb565b632bfa23e760e11b5f526001600160a01b031660045260245ffd5b610fc891925060203d602011610fcf575b610fc081836103d2565b810190610e4d565b905f610f2c565b503d610fb6565b91926001600160a01b0360a0948161024198979416855216602084015260408301526060820152816080820152019061020c565b9091949293853b61101d57505050505050565b60209361103f91604051968795869563f23a6e6160e01b875260048701610fd6565b03815f6001600160a01b0387165af15f9181611088575b506110645750610f3a610eb0565b6001600160e01b031963f23a6e6160e01b911603610f8a57505f8080808080610eeb565b6110a291925060203d602011610fcf57610fc081836103d2565b905f61105656fea26469706673582212209350170d6e46151f7802ce55e237c2aefc628ab81052a6c8d0d6144d43cdbff664736f6c634300081b0033",
  "linkReferences": {},
  "deployedLinkReferences": {}
}