{
  "_format": "hh-sol-artifact-1",
  "contractName": "MockValidator",
  "sourceName": "contracts/mocks/MockValidator.sol",
  "abi": [
    {
      "inputs": [],
      "name": "InvalidSignature",
      "type": "error"
    },
    {
      "inputs": [
        {
          "internalType": "address",
          "name": "smartAccount",
          "type": "address"
        }
      ],
      "name": "getOwner",
      "outputs": [
        {
          "internalType": "address",
          "name": "",
          "type": "address"
        }
      ],
      "stateMutability": "view",
      "type": "function"
    },
    {
      "inputs": [
        {
          "internalType": "address",
          "name": "",
          "type": "address"
        }
      ],
      "name": "isInitialized",
      "outputs": [
        {
          "internalType": "bool",
          "name": "",
          "type": "bool"
        }
      ],
      "stateMutability": "view",
      "type": "function"
    },
    {
      "inputs": [
        {
          "internalType": "uint256",
          "name": "moduleTypeId",
          "type": "uint256"
        }
      ],
      "name": "isModuleType",
      "outputs": [
        {
          "internalType": "bool",
          "name": "",
          "type": "bool"
        }
      ],
      "stateMutability": "pure",
      "type": "function"
    },
    {
      "inputs": [
        {
          "internalType": "address",
          "name": "account",
          "type": "address"
        },
        {
          "internalType": "address",
          "name": "owner",
          "type": "address"
        }
      ],
      "name": "isOwner",
      "outputs": [
        {
          "internalType": "bool",
          "name": "",
          "type": "bool"
        }
      ],
      "stateMutability": "view",
      "type": "function"
    },
    {
      "inputs": [
        {
          "internalType": "address",
          "name": "sender",
          "type": "address"
        },
        {
          "internalType": "bytes32",
          "name": "hash",
          "type": "bytes32"
        },
        {
          "internalType": "bytes",
          "name": "signature",
          "type": "bytes"
        }
      ],
      "name": "isValidSignatureWithSender",
      "outputs": [
        {
          "internalType": "bytes4",
          "name": "sigValidationResult",
          "type": "bytes4"
        }
      ],
      "stateMutability": "view",
      "type": "function"
    },
    {
      "inputs": [
        {
          "internalType": "bytes",
          "name": "data",
          "type": "bytes"
        }
      ],
      "name": "onInstall",
      "outputs": [],
      "stateMutability": "nonpayable",
      "type": "function"
    },
    {
      "inputs": [
        {
          "internalType": "bytes",
          "name": "data",
          "type": "bytes"
        }
      ],
      "name": "onUninstall",
      "outputs": [],
      "stateMutability": "nonpayable",
      "type": "function"
    },
    {
      "inputs": [
        {
          "internalType": "address",
          "name": "",
          "type": "address"
        }
      ],
      "name": "smartAccountOwners",
      "outputs": [
        {
          "internalType": "address",
          "name": "",
          "type": "address"
        }
      ],
      "stateMutability": "view",
      "type": "function"
    },
    {
      "inputs": [],
      "name": "supportsNestedTypedDataSign",
      "outputs": [
        {
          "internalType": "bytes32",
          "name": "result",
          "type": "bytes32"
        }
      ],
      "stateMutability": "view",
      "type": "function"
    },
    {
      "inputs": [
        {
          "internalType": "bytes32",
          "name": "hash",
          "type": "bytes32"
        },
        {
          "internalType": "bytes",
          "name": "sig",
          "type": "bytes"
        },
        {
          "internalType": "bytes",
          "name": "data",
          "type": "bytes"
        }
      ],
      "name": "validateSignatureWithData",
      "outputs": [
        {
          "internalType": "bool",
          "name": "validSig",
          "type": "bool"
        }
      ],
      "stateMutability": "view",
      "type": "function"
    },
    {
      "inputs": [
        {
          "components": [
            {
              "internalType": "address",
              "name": "sender",
              "type": "address"
            },
            {
              "internalType": "uint256",
              "name": "nonce",
              "type": "uint256"
            },
            {
              "internalType": "bytes",
              "name": "initCode",
              "type": "bytes"
            },
            {
              "internalType": "bytes",
              "name": "callData",
              "type": "bytes"
            },
            {
              "internalType": "bytes32",
              "name": "accountGasLimits",
              "type": "bytes32"
            },
            {
              "internalType": "uint256",
              "name": "preVerificationGas",
              "type": "uint256"
            },
            {
              "internalType": "bytes32",
              "name": "gasFees",
              "type": "bytes32"
            },
            {
              "internalType": "bytes",
              "name": "paymasterAndData",
              "type": "bytes"
            },
            {
              "internalType": "bytes",
              "name": "signature",
              "type": "bytes"
            }
          ],
          "internalType": "struct PackedUserOperation",
          "name": "userOp",
          "type": "tuple"
        },
        {
          "internalType": "bytes32",
          "name": "userOpHash",
          "type": "bytes32"
        }
      ],
      "name": "validateUserOp",
      "outputs": [
        {
          "internalType": "uint256",
          "name": "validation",
          "type": "uint256"
        }
      ],
      "stateMutability": "view",
      "type": "function"
    }
  ],
  "bytecode": "0x60808060405234601557610e5a908161001a8239f35b5f80fdfe6080806040526004361015610012575f80fd5b5f3560e01c9081632e5b63a61461056b575080636d61fe70146104c85780637ddc02d4146104735780638a91b0e314610316578063940d38401461029d5780639700320314610205578063d60b347f146101ca578063d620c85a14610190578063ecd0596114610170578063f551e2ee146100cd5763fa54416114610095575f80fd5b346100c95760203660031901126100c95760206100b86100b36105a7565b61063a565b6001600160a01b0360405191168152f35b5f80fd5b346100c95760603660031901126100c9576100e66105a7565b60443567ffffffffffffffff81116100c95760209161010c6101329236906004016105bd565b9181808401601f19013561649261ffff30801c1904021461015c575b50602435906106da565b7fffffffff0000000000000000000000000000000000000000000000000000000060405191168152f35b604081013501803593508501915085610128565b346100c95760203660031901126100c95760206040516001600435148152f35b346100c9575f3660031901126100c95760206040517fd620c85a000000000000000000000000000000000000000000000000000000008152f35b346100c95760203660031901126100c9576101e36105a7565b50335f525f60205260206001600160a01b0360405f2054161515604051908152f35b346100c95760403660031901126100c95760043567ffffffffffffffff81116100c9578036036101206003198201126100c9576102413361063a565b9161010481013591602219018212156100c9570160048101359067ffffffffffffffff82116100c95760240181360381136100c9576102839260243590610669565b156102945760205f5b604051908152f35b6020600161028c565b346100c95760603660031901126100c95760243567ffffffffffffffff81116100c9576102ce9036906004016105bd565b60443567ffffffffffffffff81116100c9576102ee9036906004016105bd565b6014929192116100c95760209261030c92600435903560601c610669565b6040519015158152f35b346100c95760203660031901126100c95760043567ffffffffffffffff81116100c9576103479036906004016105bd565b50506040517f112d3a7d00000000000000000000000000000000000000000000000000000000815260016004820152306024820152606060448201525f6064820152602081608481335afa908115610468575f9161042d575b506103cf57335f525f60205260405f2073ffffffffffffffffffffffffffffffffffffffff1981541690555f80f35b60646040517f08c379a000000000000000000000000000000000000000000000000000000000815260206004820152601c60248201527f56616c696461746f72206973207374696c6c20696e7374616c6c6564000000006044820152fd5b90506020813d602011610460575b81610448602093836105eb565b810103126100c9575180151581036100c957816103a0565b3d915061043b565b6040513d5f823e3d90fd5b346100c95760403660031901126100c95761048c6105a7565b6024356001600160a01b0381168091036100c9576001600160a01b03602092165f525f82526001600160a01b0360405f20541614604051908152f35b346100c95760203660031901126100c95760043567ffffffffffffffff81116100c9576104f99036906004016105bd565b6bffffffffffffffffffffffff1991359182169160148210610546575b82335f525f60205260405f209060601c73ffffffffffffffffffffffffffffffffffffffff198254161790555f80f35b6bffffffffffffffffffffffff1960149290920360031b82901b161690508180610516565b346100c95760203660031901126100c9576020906001600160a01b0361058f6105a7565b165f525f82526001600160a01b0360405f2054168152f35b600435906001600160a01b03821682036100c957565b9181601f840112156100c95782359167ffffffffffffffff83116100c957602083818601950101116100c957565b90601f8019910116810190811067ffffffffffffffff82111761060d57604052565b7f4e487b71000000000000000000000000000000000000000000000000000000005f52604160045260245ffd5b6001600160a01b0381165f525f6020526001600160a01b0360405f20541680155f14610664575090565b905090565b926001600160a01b03938461067f838686610d96565b9116941684146106d1576001600160a01b03926106c2926020527b19457468657265756d205369676e6564204d6573736167653a0a33325f52603c600420610d96565b16146106cc575f90565b600190565b50505050600190565b928015610bf0575b7f7fffffffffffffffffffffffffffffff5d576e7357a4501ddfe92f46681b20a0602084013511610bc8576001600160a01b035f94166dd9ecebf3c23529de49815dac1c4c8114908115610bbe575b50610ba7575b831561080e575b8315610757575b505050155f03631626ba7e1760e01b90565b5f935090913a1561076e575b5050505f8080610745565b909192503a3a5260203a3a386d378edcd5b5b0a24f5342d8c1048561fffffa503a51156107b0575b6107a8926107a33361063a565b610669565b5f8080610763565b60405192631626ba7e3a526d378edcd5b5b0a24f5342d8c1048560205260408052454561ffff011793845a106d378edcd5b5b0a24f5342d8c1048583141761080c576107a8943a906064601c3a923090fa506040529250610796565bfe5b90933093508492829085610b07575b604051600119838301013560f01c96600e820195889089810385016041198101996119015f5260408b6020378b158c604201841017816042601e201817610ac757507f5479706564446174615369676e280000000000000000000000000000000000008552889a600119820199818b82378187016028600e8201526029600d8201515f1a03610a71575b506f07fffffe0000000000000100000000009192509b9a9b515f1a1c5b8a515f1a602881146108e55790651201000000016001921c179a01996108c4565b509294979b9890869a6040605c9496999d838c957f20636f6e74656e74732c737472696e67206e616d652c737472696e670000000085527f2076657273696f6e2c75696e7432353620636861696e49642c61646472657373601c8601527f20766572696679696e67436f6e74726163742c627974657333322073616c7429603c860152878501378a370103018620855260e08520604052600116604201601e2091604119910301925b84604052156109ac575b6109a693506107a33361063a565b9261073e565b90506342580cb760e11b83525f83600481335afa8015610468576109a69360a0915f915f5f915f93610a44575b50604051937f8b73c3c69bb8fe3d512ecc4cf759cc79239f7b179b0ffacaa9a75d522b39400f855260208151910120602085015260208151910120604084015260608301526080820152206719010000000000005f52601a52603a528360426018205f603a52610998565b92505050610a6491503d805f833e610a5c81836105eb565b810190610c7e565b509394509250905f6109d9565b60015f5b016029600d82840301515f1a148482101115610a9357600190610a75565b6028915080806040600e936f07fffffe000000000000010000000000970397886041199101010185378901015382916108a7565b94979b98505094985050508195505f907f983e65e5148e570cd828ead231ee759a8d7958721a768f93bc4483ba005c32de5f5260205260405f209061098e565b6040516342580cb760e11b815295505f86600481335afa8015610468575f965f5f905f925f94610b76575b50906001600160a01b0392916040519a6020815191012060408c01526020815191012060608b015260808a01521660a088015260c087015260e0860160405261081d565b925050506001600160a01b039750610b9891503d805f833e610a5c81836105eb565b50939a93945092909190610b32565b9250610bb88383836107a33361063a565b92610737565b905033145f610731565b7f8baa579f000000000000000000000000000000000000000000000000000000005f5260045ffd5b61773961ffff8219040282036106e257505050507f773900010000000000000000000000000000000000000000000000000000000090565b81601f820112156100c95780519067ffffffffffffffff821161060d5760405192610c5d601f8401601f1916602001856105eb565b828452602083830101116100c957815f9260208093018386015e8301015290565b60e0818303126100c95780517fff00000000000000000000000000000000000000000000000000000000000000811681036100c95792602082015167ffffffffffffffff81116100c95783610cd4918401610c28565b92604083015167ffffffffffffffff81116100c95781610cf5918501610c28565b9260608101519260808201516001600160a01b03811681036100c9579260a08301519260c08101519067ffffffffffffffff82116100c957019080601f830112156100c95781519167ffffffffffffffff831161060d578260051b9060405193610d6260208401866105eb565b84526020808501928201019283116100c957602001905b828210610d865750505090565b8151815260209182019101610d79565b604080515f95949093918114610de157604114610db257505050565b604080929395508101355f1a60205281375b5f526020604060805f60015afa505f6060523d6060185191604052565b507f7fffffffffffffffffffffffffffffffffffffffffffffffffffffffffffffff91929450602081013590601b8260ff1c016020523560405216606052610dc456fea2646970667358221220f84c97a1cb43e73b250c8de72c9b4dd65ac8b8f5d16ae81407b751398b381a8a64736f6c634300081b0033",
  "linkReferences": {},
  "deployedLinkReferences": {}
}