{
  "_format": "hh-sol-artifact-1",
  "contractName": "ExposedNexus",
  "sourceName": "contracts/mocks/ExposedNexus.sol",
  "abi": [
    {
      "inputs": [
        {
          "internalType": "address",
          "name": "anEntryPoint",
          "type": "address"
        },
        {
          "internalType": "address",
          "name": "defaultValidator",
          "type": "address"
        },
        {
          "internalType": "bytes",
          "name": "initData",
          "type": "bytes"
        },
        {
          "internalType": "address[]",
          "name": "executorModules",
          "type": "address[]"
        },
        {
          "internalType": "bytes[]",
          "name": "executorInitData",
          "type": "bytes[]"
        }
      ],
      "stateMutability": "nonpayable",
      "type": "constructor"
    },
    {
      "inputs": [],
      "name": "AccountAccessUnauthorized",
      "type": "error"
    },
    {
      "inputs": [],
      "name": "AccountAlreadyInitialized",
      "type": "error"
    },
    {
      "inputs": [],
      "name": "AccountNotInitialized",
      "type": "error"
    },
    {
      "inputs": [],
      "name": "CanNotRemoveLastValidator",
      "type": "error"
    },
    {
      "inputs": [],
      "name": "ComposableExecutionFailed",
      "type": "error"
    },
    {
      "inputs": [
        {
          "internalType": "enum ConstraintType",
          "name": "constraintType",
          "type": "uint8"
        }
      ],
      "name": "ConstraintNotMet",
      "type": "error"
    },
    {
      "inputs": [],
      "name": "DefaultValidatorAlreadyInstalled",
      "type": "error"
    },
    {
      "inputs": [],
      "name": "ERC7702AccountCannotBeUpgradedThisWay",
      "type": "error"
    },
    {
      "inputs": [],
      "name": "EmergencyTimeLockNotExpired",
      "type": "error"
    },
    {
      "inputs": [],
      "name": "EmergencyUninstallSigError",
      "type": "error"
    },
    {
      "inputs": [],
      "name": "EnableModeSigError",
      "type": "error"
    },
    {
      "inputs": [],
      "name": "EntryPointCanNotBeZero",
      "type": "error"
    },
    {
      "inputs": [],
      "name": "ExecutionFailed",
      "type": "error"
    },
    {
      "inputs": [
        {
          "internalType": "bytes4",
          "name": "selector",
          "type": "bytes4"
        }
      ],
      "name": "FallbackAlreadyInstalledForSelector",
      "type": "error"
    },
    {
      "inputs": [],
      "name": "FallbackCallTypeInvalid",
      "type": "error"
    },
    {
      "inputs": [],
      "name": "FallbackHandlerUninstallFailed",
      "type": "error"
    },
    {
      "inputs": [
        {
          "internalType": "bytes4",
          "name": "selector",
          "type": "bytes4"
        }
      ],
      "name": "FallbackNotInstalledForSelector",
      "type": "error"
    },
    {
      "inputs": [],
      "name": "FallbackSelectorForbidden",
      "type": "error"
    },
    {
      "inputs": [
        {
          "internalType": "address",
          "name": "currentHook",
          "type": "address"
        }
      ],
      "name": "HookAlreadyInstalled",
      "type": "error"
    },
    {
      "inputs": [],
      "name": "HookPostCheckFailed",
      "type": "error"
    },
    {
      "inputs": [],
      "name": "ImplementationIsNotAContract",
      "type": "error"
    },
    {
      "inputs": [],
      "name": "InnerCallFailed",
      "type": "error"
    },
    {
      "inputs": [],
      "name": "InvalidConstraintType",
      "type": "error"
    },
    {
      "inputs": [],
      "name": "InvalidImplementationAddress",
      "type": "error"
    },
    {
      "inputs": [],
      "name": "InvalidInitData",
      "type": "error"
    },
    {
      "inputs": [],
      "name": "InvalidInput",
      "type": "error"
    },
    {
      "inputs": [
        {
          "internalType": "address",
          "name": "module",
          "type": "address"
        }
      ],
      "name": "InvalidModule",
      "type": "error"
    },
    {
      "inputs": [
        {
          "internalType": "uint256",
          "name": "moduleTypeId",
          "type": "uint256"
        }
      ],
      "name": "InvalidModuleTypeId",
      "type": "error"
    },
    {
      "inputs": [],
      "name": "InvalidNonce",
      "type": "error"
    },
    {
      "inputs": [],
      "name": "InvalidOutputParamFetcherType",
      "type": "error"
    },
    {
      "inputs": [],
      "name": "InvalidPREP",
      "type": "error"
    },
    {
      "inputs": [],
      "name": "InvalidParameterEncoding",
      "type": "error"
    },
    {
      "inputs": [],
      "name": "LinkedList_AlreadyInitialized",
      "type": "error"
    },
    {
      "inputs": [
        {
          "internalType": "address",
          "name": "entry",
          "type": "address"
        }
      ],
      "name": "LinkedList_EntryAlreadyInList",
      "type": "error"
    },
    {
      "inputs": [
        {
          "internalType": "address",
          "name": "entry",
          "type": "address"
        }
      ],
      "name": "LinkedList_InvalidEntry",
      "type": "error"
    },
    {
      "inputs": [],
      "name": "LinkedList_InvalidPage",
      "type": "error"
    },
    {
      "inputs": [],
      "name": "MismatchModuleTypeId",
      "type": "error"
    },
    {
      "inputs": [
        {
          "internalType": "bytes4",
          "name": "selector",
          "type": "bytes4"
        }
      ],
      "name": "MissingFallbackHandler",
      "type": "error"
    },
    {
      "inputs": [],
      "name": "ModuleAddressCanNotBeZero",
      "type": "error"
    },
    {
      "inputs": [
        {
          "internalType": "uint256",
          "name": "moduleTypeId",
          "type": "uint256"
        },
        {
          "internalType": "address",
          "name": "module",
          "type": "address"
        }
      ],
      "name": "ModuleAlreadyInstalled",
      "type": "error"
    },
    {
      "inputs": [
        {
          "internalType": "uint256",
          "name": "moduleTypeId",
          "type": "uint256"
        },
        {
          "internalType": "address",
          "name": "module",
          "type": "address"
        }
      ],
      "name": "ModuleNotInstalled",
      "type": "error"
    },
    {
      "inputs": [],
      "name": "NexusInitializationFailed",
      "type": "error"
    },
    {
      "inputs": [],
      "name": "NoValidatorInstalled",
      "type": "error"
    },
    {
      "inputs": [],
      "name": "Output_StaticCallFailed",
      "type": "error"
    },
    {
      "inputs": [
        {
          "internalType": "address",
          "name": "currentPreValidationHook",
          "type": "address"
        }
      ],
      "name": "PrevalidationHookAlreadyInstalled",
      "type": "error"
    },
    {
      "inputs": [],
      "name": "UnauthorizedCallContext",
      "type": "error"
    },
    {
      "inputs": [
        {
          "internalType": "address",
          "name": "operator",
          "type": "address"
        }
      ],
      "name": "UnauthorizedOperation",
      "type": "error"
    },
    {
      "inputs": [
        {
          "internalType": "CallType",
          "name": "callType",
          "type": "bytes1"
        }
      ],
      "name": "UnsupportedCallType",
      "type": "error"
    },
    {
      "inputs": [
        {
          "internalType": "ExecType",
          "name": "execType",
          "type": "bytes1"
        }
      ],
      "name": "UnsupportedExecType",
      "type": "error"
    },
    {
      "inputs": [
        {
          "internalType": "uint256",
          "name": "moduleTypeId",
          "type": "uint256"
        }
      ],
      "name": "UnsupportedModuleType",
      "type": "error"
    },
    {
      "inputs": [],
      "name": "UpgradeFailed",
      "type": "error"
    },
    {
      "inputs": [
        {
          "internalType": "address",
          "name": "module",
          "type": "address"
        }
      ],
      "name": "ValidatorNotInstalled",
      "type": "error"
    },
    {
      "anonymous": false,
      "inputs": [
        {
          "indexed": true,
          "internalType": "contract IERC7484",
          "name": "registry",
          "type": "address"
        }
      ],
      "name": "ERC7484RegistryConfigured",
      "type": "event"
    },
    {
      "anonymous": false,
      "inputs": [
        {
          "indexed": false,
          "internalType": "address",
          "name": "hook",
          "type": "address"
        },
        {
          "indexed": false,
          "internalType": "uint256",
          "name": "timestamp",
          "type": "uint256"
        }
      ],
      "name": "EmergencyHookUninstallRequest",
      "type": "event"
    },
    {
      "anonymous": false,
      "inputs": [
        {
          "indexed": false,
          "internalType": "address",
          "name": "hook",
          "type": "address"
        },
        {
          "indexed": false,
          "internalType": "uint256",
          "name": "timestamp",
          "type": "uint256"
        }
      ],
      "name": "EmergencyHookUninstallRequestReset",
      "type": "event"
    },
    {
      "anonymous": false,
      "inputs": [
        {
          "indexed": false,
          "internalType": "uint256",
          "name": "moduleTypeId",
          "type": "uint256"
        },
        {
          "indexed": false,
          "internalType": "address",
          "name": "module",
          "type": "address"
        }
      ],
      "name": "ModuleInstalled",
      "type": "event"
    },
    {
      "anonymous": false,
      "inputs": [
        {
          "indexed": false,
          "internalType": "uint256",
          "name": "moduleTypeId",
          "type": "uint256"
        },
        {
          "indexed": false,
          "internalType": "address",
          "name": "module",
          "type": "address"
        }
      ],
      "name": "ModuleUninstalled",
      "type": "event"
    },
    {
      "anonymous": false,
      "inputs": [
        {
          "indexed": false,
          "internalType": "bytes32",
          "name": "r",
          "type": "bytes32"
        }
      ],
      "name": "PREPInitialized",
      "type": "event"
    },
    {
      "anonymous": false,
      "inputs": [
        {
          "indexed": false,
          "internalType": "bytes",
          "name": "callData",
          "type": "bytes"
        },
        {
          "indexed": false,
          "internalType": "bytes",
          "name": "result",
          "type": "bytes"
        }
      ],
      "name": "TryDelegateCallUnsuccessful",
      "type": "event"
    },
    {
      "anonymous": false,
      "inputs": [
        {
          "indexed": false,
          "internalType": "bytes",
          "name": "callData",
          "type": "bytes"
        },
        {
          "indexed": false,
          "internalType": "bytes",
          "name": "result",
          "type": "bytes"
        }
      ],
      "name": "TryExecuteUnsuccessful",
      "type": "event"
    },
    {
      "anonymous": false,
      "inputs": [
        {
          "indexed": true,
          "internalType": "address",
          "name": "implementation",
          "type": "address"
        }
      ],
      "name": "Upgraded",
      "type": "event"
    },
    {
      "stateMutability": "payable",
      "type": "fallback"
    },
    {
      "inputs": [],
      "name": "accountId",
      "outputs": [
        {
          "internalType": "string",
          "name": "",
          "type": "string"
        }
      ],
      "stateMutability": "pure",
      "type": "function"
    },
    {
      "inputs": [],
      "name": "addDeposit",
      "outputs": [],
      "stateMutability": "payable",
      "type": "function"
    },
    {
      "inputs": [],
      "name": "amIERC7702",
      "outputs": [
        {
          "internalType": "bool",
          "name": "",
          "type": "bool"
        }
      ],
      "stateMutability": "view",
      "type": "function"
    },
    {
      "inputs": [
        {
          "internalType": "bytes32",
          "name": "hash",
          "type": "bytes32"
        },
        {
          "internalType": "bytes",
          "name": "signature",
          "type": "bytes"
        }
      ],
      "name": "checkERC7739Support",
      "outputs": [
        {
          "internalType": "bytes4",
          "name": "",
          "type": "bytes4"
        }
      ],
      "stateMutability": "view",
      "type": "function"
    },
    {
      "inputs": [],
      "name": "eip712Domain",
      "outputs": [
        {
          "internalType": "bytes1",
          "name": "fields",
          "type": "bytes1"
        },
        {
          "internalType": "string",
          "name": "name",
          "type": "string"
        },
        {
          "internalType": "string",
          "name": "version",
          "type": "string"
        },
        {
          "internalType": "uint256",
          "name": "chainId",
          "type": "uint256"
        },
        {
          "internalType": "address",
          "name": "verifyingContract",
          "type": "address"
        },
        {
          "internalType": "bytes32",
          "name": "salt",
          "type": "bytes32"
        },
        {
          "internalType": "uint256[]",
          "name": "extensions",
          "type": "uint256[]"
        }
      ],
      "stateMutability": "view",
      "type": "function"
    },
    {
      "inputs": [
        {
          "components": [
            {
              "internalType": "address",
              "name": "hook",
              "type": "address"
            },
            {
              "internalType": "uint256",
              "name": "hookType",
              "type": "uint256"
            },
            {
              "internalType": "bytes",
              "name": "deInitData",
              "type": "bytes"
            },
            {
              "internalType": "uint256",
              "name": "nonce",
              "type": "uint256"
            }
          ],
          "internalType": "struct EmergencyUninstall",
          "name": "data",
          "type": "tuple"
        },
        {
          "internalType": "bytes",
          "name": "signature",
          "type": "bytes"
        }
      ],
      "name": "emergencyUninstallHook",
      "outputs": [],
      "stateMutability": "payable",
      "type": "function"
    },
    {
      "inputs": [],
      "name": "entryPoint",
      "outputs": [
        {
          "internalType": "address",
          "name": "",
          "type": "address"
        }
      ],
      "stateMutability": "view",
      "type": "function"
    },
    {
      "inputs": [
        {
          "internalType": "ExecutionMode",
          "name": "mode",
          "type": "bytes32"
        },
        {
          "internalType": "bytes",
          "name": "executionCalldata",
          "type": "bytes"
        }
      ],
      "name": "execute",
      "outputs": [],
      "stateMutability": "payable",
      "type": "function"
    },
    {
      "inputs": [
        {
          "components": [
            {
              "internalType": "address",
              "name": "to",
              "type": "address"
            },
            {
              "internalType": "uint256",
              "name": "value",
              "type": "uint256"
            },
            {
              "internalType": "bytes4",
              "name": "functionSig",
              "type": "bytes4"
            },
            {
              "components": [
                {
                  "internalType": "enum InputParamFetcherType",
                  "name": "fetcherType",
                  "type": "uint8"
                },
                {
                  "internalType": "bytes",
                  "name": "paramData",
                  "type": "bytes"
                },
                {
                  "components": [
                    {
                      "internalType": "enum ConstraintType",
                      "name": "constraintType",
                      "type": "uint8"
                    },
                    {
                      "internalType": "bytes",
                      "name": "referenceData",
                      "type": "bytes"
                    }
                  ],
                  "internalType": "struct Constraint[]",
                  "name": "constraints",
                  "type": "tuple[]"
                }
              ],
              "internalType": "struct InputParam[]",
              "name": "inputParams",
              "type": "tuple[]"
            },
            {
              "components": [
                {
                  "internalType": "enum OutputParamFetcherType",
                  "name": "fetcherType",
                  "type": "uint8"
                },
                {
                  "internalType": "bytes",
                  "name": "paramData",
                  "type": "bytes"
                }
              ],
              "internalType": "struct OutputParam[]",
              "name": "outputParams",
              "type": "tuple[]"
            }
          ],
          "internalType": "struct ComposableExecution[]",
          "name": "executions",
          "type": "tuple[]"
        }
      ],
      "name": "executeComposable",
      "outputs": [],
      "stateMutability": "payable",
      "type": "function"
    },
    {
      "inputs": [
        {
          "internalType": "ExecutionMode",
          "name": "mode",
          "type": "bytes32"
        },
        {
          "internalType": "bytes",
          "name": "executionCalldata",
          "type": "bytes"
        }
      ],
      "name": "executeFromExecutor",
      "outputs": [
        {
          "internalType": "bytes[]",
          "name": "returnData",
          "type": "bytes[]"
        }
      ],
      "stateMutability": "payable",
      "type": "function"
    },
    {
      "inputs": [
        {
          "components": [
            {
              "internalType": "address",
              "name": "sender",
              "type": "address"
            },
            {
              "internalType": "uint256",
              "name": "nonce",
              "type": "uint256"
            },
            {
              "internalType": "bytes",
              "name": "initCode",
              "type": "bytes"
            },
            {
              "internalType": "bytes",
              "name": "callData",
              "type": "bytes"
            },
            {
              "internalType": "bytes32",
              "name": "accountGasLimits",
              "type": "bytes32"
            },
            {
              "internalType": "uint256",
              "name": "preVerificationGas",
              "type": "uint256"
            },
            {
              "internalType": "bytes32",
              "name": "gasFees",
              "type": "bytes32"
            },
            {
              "internalType": "bytes",
              "name": "paymasterAndData",
              "type": "bytes"
            },
            {
              "internalType": "bytes",
              "name": "signature",
              "type": "bytes"
            }
          ],
          "internalType": "struct PackedUserOperation",
          "name": "userOp",
          "type": "tuple"
        },
        {
          "internalType": "bytes32",
          "name": "",
          "type": "bytes32"
        }
      ],
      "name": "executeUserOp",
      "outputs": [],
      "stateMutability": "payable",
      "type": "function"
    },
    {
      "inputs": [],
      "name": "getActiveHook",
      "outputs": [
        {
          "internalType": "address",
          "name": "hook",
          "type": "address"
        }
      ],
      "stateMutability": "view",
      "type": "function"
    },
    {
      "inputs": [],
      "name": "getDeposit",
      "outputs": [
        {
          "internalType": "uint256",
          "name": "result",
          "type": "uint256"
        }
      ],
      "stateMutability": "view",
      "type": "function"
    },
    {
      "inputs": [
        {
          "internalType": "address",
          "name": "cursor",
          "type": "address"
        },
        {
          "internalType": "uint256",
          "name": "size",
          "type": "uint256"
        }
      ],
      "name": "getExecutorsPaginated",
      "outputs": [
        {
          "internalType": "address[]",
          "name": "array",
          "type": "address[]"
        },
        {
          "internalType": "address",
          "name": "next",
          "type": "address"
        }
      ],
      "stateMutability": "view",
      "type": "function"
    },
    {
      "inputs": [
        {
          "internalType": "bytes4",
          "name": "selector",
          "type": "bytes4"
        }
      ],
      "name": "getFallbackHandlerBySelector",
      "outputs": [
        {
          "internalType": "CallType",
          "name": "",
          "type": "bytes1"
        },
        {
          "internalType": "address",
          "name": "",
          "type": "address"
        }
      ],
      "stateMutability": "view",
      "type": "function"
    },
    {
      "inputs": [],
      "name": "getImplementation",
      "outputs": [
        {
          "internalType": "address",
          "name": "implementation",
          "type": "address"
        }
      ],
      "stateMutability": "view",
      "type": "function"
    },
    {
      "inputs": [],
      "name": "getRegistry",
      "outputs": [
        {
          "internalType": "contract IERC7484",
          "name": "",
          "type": "address"
        }
      ],
      "stateMutability": "view",
      "type": "function"
    },
    {
      "inputs": [
        {
          "internalType": "address",
          "name": "cursor",
          "type": "address"
        },
        {
          "internalType": "uint256",
          "name": "size",
          "type": "uint256"
        }
      ],
      "name": "getValidatorsPaginated",
      "outputs": [
        {
          "internalType": "address[]",
          "name": "array",
          "type": "address[]"
        },
        {
          "internalType": "address",
          "name": "next",
          "type": "address"
        }
      ],
      "stateMutability": "view",
      "type": "function"
    },
    {
      "inputs": [
        {
          "internalType": "bytes",
          "name": "initData",
          "type": "bytes"
        }
      ],
      "name": "initializeAccount",
      "outputs": [],
      "stateMutability": "payable",
      "type": "function"
    },
    {
      "inputs": [
        {
          "internalType": "uint256",
          "name": "moduleTypeId",
          "type": "uint256"
        },
        {
          "internalType": "address",
          "name": "module",
          "type": "address"
        },
        {
          "internalType": "bytes",
          "name": "initData",
          "type": "bytes"
        }
      ],
      "name": "installModule",
      "outputs": [],
      "stateMutability": "payable",
      "type": "function"
    },
    {
      "inputs": [],
      "name": "isInitialized",
      "outputs": [
        {
          "internalType": "bool",
          "name": "",
          "type": "bool"
        }
      ],
      "stateMutability": "view",
      "type": "function"
    },
    {
      "inputs": [
        {
          "internalType": "uint256",
          "name": "moduleTypeId",
          "type": "uint256"
        },
        {
          "internalType": "address",
          "name": "module",
          "type": "address"
        },
        {
          "internalType": "bytes",
          "name": "additionalContext",
          "type": "bytes"
        }
      ],
      "name": "isModuleInstalled",
      "outputs": [
        {
          "internalType": "bool",
          "name": "",
          "type": "bool"
        }
      ],
      "stateMutability": "view",
      "type": "function"
    },
    {
      "inputs": [
        {
          "internalType": "bytes32",
          "name": "hash",
          "type": "bytes32"
        },
        {
          "internalType": "bytes",
          "name": "signature",
          "type": "bytes"
        }
      ],
      "name": "isValidSignature",
      "outputs": [
        {
          "internalType": "bytes4",
          "name": "",
          "type": "bytes4"
        }
      ],
      "stateMutability": "view",
      "type": "function"
    },
    {
      "inputs": [
        {
          "internalType": "uint192",
          "name": "key",
          "type": "uint192"
        }
      ],
      "name": "nonce",
      "outputs": [
        {
          "internalType": "uint256",
          "name": "",
          "type": "uint256"
        }
      ],
      "stateMutability": "view",
      "type": "function"
    },
    {
      "inputs": [],
      "name": "proxiableUUID",
      "outputs": [
        {
          "internalType": "bytes32",
          "name": "",
          "type": "bytes32"
        }
      ],
      "stateMutability": "view",
      "type": "function"
    },
    {
      "inputs": [
        {
          "internalType": "contract IERC7484",
          "name": "newRegistry",
          "type": "address"
        },
        {
          "internalType": "address[]",
          "name": "attesters",
          "type": "address[]"
        },
        {
          "internalType": "uint8",
          "name": "threshold",
          "type": "uint8"
        }
      ],
      "name": "setRegistry",
      "outputs": [],
      "stateMutability": "payable",
      "type": "function"
    },
    {
      "inputs": [
        {
          "internalType": "ExecutionMode",
          "name": "mode",
          "type": "bytes32"
        }
      ],
      "name": "supportsExecutionMode",
      "outputs": [
        {
          "internalType": "bool",
          "name": "isSupported",
          "type": "bool"
        }
      ],
      "stateMutability": "view",
      "type": "function"
    },
    {
      "inputs": [
        {
          "internalType": "uint256",
          "name": "moduleTypeId",
          "type": "uint256"
        }
      ],
      "name": "supportsModule",
      "outputs": [
        {
          "internalType": "bool",
          "name": "",
          "type": "bool"
        }
      ],
      "stateMutability": "view",
      "type": "function"
    },
    {
      "inputs": [
        {
          "internalType": "uint256",
          "name": "moduleTypeId",
          "type": "uint256"
        },
        {
          "internalType": "address",
          "name": "module",
          "type": "address"
        },
        {
          "internalType": "bytes",
          "name": "deInitData",
          "type": "bytes"
        }
      ],
      "name": "uninstallModule",
      "outputs": [],
      "stateMutability": "payable",
      "type": "function"
    },
    {
      "inputs": [
        {
          "internalType": "address",
          "name": "newImplementation",
          "type": "address"
        },
        {
          "internalType": "bytes",
          "name": "data",
          "type": "bytes"
        }
      ],
      "name": "upgradeToAndCall",
      "outputs": [],
      "stateMutability": "payable",
      "type": "function"
    },
    {
      "inputs": [
        {
          "components": [
            {
              "internalType": "address",
              "name": "sender",
              "type": "address"
            },
            {
              "internalType": "uint256",
              "name": "nonce",
              "type": "uint256"
            },
            {
              "internalType": "bytes",
              "name": "initCode",
              "type": "bytes"
            },
            {
              "internalType": "bytes",
              "name": "callData",
              "type": "bytes"
            },
            {
              "internalType": "bytes32",
              "name": "accountGasLimits",
              "type": "bytes32"
            },
            {
              "internalType": "uint256",
              "name": "preVerificationGas",
              "type": "uint256"
            },
            {
              "internalType": "bytes32",
              "name": "gasFees",
              "type": "bytes32"
            },
            {
              "internalType": "bytes",
              "name": "paymasterAndData",
              "type": "bytes"
            },
            {
              "internalType": "bytes",
              "name": "signature",
              "type": "bytes"
            }
          ],
          "internalType": "struct PackedUserOperation",
          "name": "op",
          "type": "tuple"
        },
        {
          "internalType": "bytes32",
          "name": "userOpHash",
          "type": "bytes32"
        },
        {
          "internalType": "uint256",
          "name": "missingAccountFunds",
          "type": "uint256"
        }
      ],
      "name": "validateUserOp",
      "outputs": [
        {
          "internalType": "uint256",
          "name": "validationData",
          "type": "uint256"
        }
      ],
      "stateMutability": "nonpayable",
      "type": "function"
    },
    {
      "inputs": [
        {
          "internalType": "address",
          "name": "to",
          "type": "address"
        },
        {
          "internalType": "uint256",
          "name": "amount",
          "type": "uint256"
        }
      ],
      "name": "withdrawDepositTo",
      "outputs": [],
      "stateMutability": "payable",
      "type": "function"
    },
    {
      "stateMutability": "payable",
      "type": "receive"
    }
  ],
  "bytecode": "0x61018080604052346103a857616a75803803809161001d8285610578565b8339810160a0828203126103a857610034826105af565b90610041602084016105af565b60408401519093906001600160401b0381116103a857826100639183016105c3565b60608201519094906001600160401b0381116103a85782019183601f840112156103a85782519261009384610618565b936100a16040519586610578565b80855260208086019160051b830101918683116103a857602001905b828210610560575050506080810151906001600160401b0382116103a857019280601f850112156103a85783516100f381610618565b946101016040519687610578565b81865260208087019260051b820101918383116103a85760208201905b8382106105335750505050503060a0524660c05260409460a086516101438882610578565b600581526020810190644e6578757360d81b82528851916101648a84610578565b60058352640312e322e360dc1b6020938401529051902060e08190527fe374587661e69268352d25204d81b23ce801573f4b09f3545e69536dc085a37a61010081905289517f8b73c3c69bb8fe3d512ecc4cf759cc79239f7b179b0ffacaa9a75d522b39400f815280840192909252818a01524660608201523060808201529190912061012052865163ecd0596160e01b8152600160048201526001600160a01b0384169181602481855afa908115610529575f916104fa575b50156104eb57803b156103a85786516306d61fe760e41b8152915f91839182908490829061024f906004830161066f565b03925af1801561039e576104db575b506101405230610160526001600160a01b038316156104cc575f5b81518110156103fd576001600160a01b03610294828461062f565b5116906102a1818561062f565b517f0bb70095b32b9671358306b0339b4c06e7cbd8cb82505941fba30d1eb5b82f03546001600160a01b0316806102e557506102df90600193610699565b01610279565b9087519363d68f602560e01b85523360048601525f602486015260606044860152366064860152365f60848701375f608436870101525f85608481601f19601f360116810103018183875af19485156103f3575f956103ac575b509061034a91610699565b803b156103a8578651630b9dfbed60e11b8152925f918491829084908290610375906004830161066f565b03925af191821561039e5760019261038e575b506102df565b5f61039891610578565b5f610388565b86513d5f823e3d90fd5b5f80fd5b919094503d805f843e6103bf8184610578565b8201916020818403126103a8578051926001600160401b0384116103a85761034a936103eb92016105c3565b94909161033f565b89513d5f823e3d90fd5b5050506080525161617c90816108d982396080518181816103cf015281816106950152818161074b01528181610fb7015281816110860152818161133501528181611487015281816114e9015281816117e9015281816118620152818161198b01526123ff015260a0518161581f015260c05181615842015260e051816158b2015261010051816158d8015261012051816157fe01526101405181818161223d015281816127d201528181612e7b01528181613c55015261531401526101605181818161090601526123ce0152f35b6307e355bf60e31b5f5260045ffd5b5f6104e591610578565b5f61025e565b631c4f83bb60e31b5f5260045ffd5b61051c915060203d602011610522575b6105148183610578565b810190610657565b5f61021e565b503d61050a565b88513d5f823e3d90fd5b81516001600160401b0381116103a857602091610555878480948801016105c3565b81520191019061011e565b6020809161056d846105af565b8152019101906100bd565b601f909101601f19168101906001600160401b0382119082101761059b57604052565b634e487b7160e01b5f52604160045260245ffd5b51906001600160a01b03821682036103a857565b81601f820112156103a8578051906001600160401b03821161059b57604051926105f7601f8401601f191660200185610578565b828452602083830101116103a857815f9260208093018386015e8301015290565b6001600160401b03811161059b5760051b60200190565b80518210156106435760209160051b010190565b634e487b7160e01b5f52603260045260245ffd5b908160209103126103a8575180151581036103a85790565b602060409281835280519182918282860152018484015e5f828201840152601f01601f1916010190565b7f0bb70095b32b9671358306b0339b4c06e7cbd8cb82505941fba30d1eb5b82f08545f92906001600160a01b031680610877575b5060405163ecd0596160e01b8152600260048201526001600160a01b0383169290602081602481875afa90811561086c57859161084d575b501561083e5782158015610834575b610820576001600160a01b038181165f9081525f516020616a555f395f51905f5260205260409020541661080c575f516020616a555f395f51905f526020527fbdfeb076d903611fa58576955630d640569633049bcf40ad9c22db9251b54a1380546001600160a01b039283165f908152604081208054949092166001600160a01b03199485161790915560019052805490911683179055813b15610808576107d6839283926040519485809481936306d61fe760e41b83526004830161066f565b03925af180156107fd576107e8575050565b6107f3828092610578565b6107fa5750565b80fd5b6040513d84823e3d90fd5b8280fd5b631034f46960e21b84526004839052602484fd5b637c84ecfb60e01b84526004839052602484fd5b5060018314610714565b631c4f83bb60e31b8452600484fd5b610866915060203d602011610522576105148183610578565b5f610705565b6040513d87823e3d90fd5b803b156103a8576040516396fb721760e01b81526001600160a01b038416600482015260026024820152905f90829060449082905afa80156108cd57156106cd576108c59193505f90610578565b5f915f6106cd565b6040513d5f823e3d90fdfe60806040526004361015610015575b36612b2157005b5f3560e01c80630a664dba14610214578063112d3a7d1461020f5780631626ba7e1461020a57806319822f7c14610205578063392e53cd14610200578063481ddd23146101fb5780634a58db19146101f65780634b6a1419146101f15780634d44560d146101ec5780634f1ef286146101e757806352d1902d146101e25780635ab1bd53146101dd5780635bfeadbb146101d85780635faac46b146101d357806384b0196e146101ce5780638bc6573a146101c95780638dd7712f146101c45780639517e29f146101bf5780639cfd7cff146101ba578063a71763a8146101b5578063aaf10f42146101b0578063b0d691fe146101ab578063b46b61a9146101a6578063c399ec88146101a1578063d03c79141461019c578063d691c96414610197578063d86f2b3c14610192578063e9ae5c531461018d578063ea5a6d9114610188578063ea5f61d014610183578063eab77e171461017e5763f2dc691d0361000e57611cec565b611b46565b611a4a565b611952565b61184b565b611771565b61162a565b61151a565b6114c4565b6114ab565b611468565b61140a565b611321565b6112c2565b611072565b610f7e565b610f64565b610eaa565b610cc7565b6109a6565b610961565b6108f3565b6107cb565b610730565b6106bd565b610683565b6105ee565b6105c2565b61037e565b610344565b6102ee565b610227565b5f91031261022357565b5f80fd5b34610223575f3660031901126102235760206001600160a01b035f5160206161075f395f51905f5254166001600160a01b0360405191168152f35b6001600160a01b0381160361022357565b359061027e82610262565b565b9181601f840112156102235782359167ffffffffffffffff8311610223576020838186019501011161022357565b606060031982011261022357600435916024356102ca81610262565b916044359067ffffffffffffffff8211610223576102ea91600401610280565b9091565b3461022357602061030a610301366102ae565b92919091612da0565b6040519015158152f35b90604060031983011261022357600435916024359067ffffffffffffffff8211610223576102ea91600401610280565b3461022357602061035d61035736610314565b91611e70565b6001600160e01b031960405191168152f35b90816101209103126102235790565b346102235760603660031901126102235760043567ffffffffffffffff8111610223576103b261048091369060040161036f565b602061042f60243561043a60443580956103f66001600160a01b037f0000000000000000000000000000000000000000000000000000000000000000163314611f47565b6104346104033683612002565b95869288810135906104198260031a60f81b1590565b156104f9575b5060401c6001600160a01b031690565b612e68565b93613316565b61010084929401525f6001600160a01b036040518098819682957f97003203000000000000000000000000000000000000000000000000000000008452600484016121e6565b0393165af19081156104f4576104af925f926104c3575b50806104b3575b506040519081529081906020820190565b0390f35b5f9081803892335af1505f61049e565b8192506104e79060203d6020116104ed575b6104df8183611e06565b810190612144565b91610497565b503d6104d5565b611e65565b600382901a60f81b600160f81b0361053b576105276105208261010061052e940190612111565b908a613200565b3691611fb1565b6101008501525b5f61041f565b600382901a60f81b7f020000000000000000000000000000000000000000000000000000000000000014610570575b50610535565b6105b16105a561059f6105bc9361059461058f61058b61221a565b1590565b6120e2565b610100810190612111565b90612fe2565b93919290923691611fb1565b61010088015261310e565b5f61056a565b34610223575f36600319011261022357602061030a61221a565b6001600160e01b031981160361022357565b346102235760203660031901126102235760406020610649600435610612816105dc565b6001600160e01b0319165f527f0bb70095b32b9671358306b0339b4c06e7cbd8cb82505941fba30d1eb5b82f0260205260405f2090565b82519061065582611de5565b54906001600160f81b03196001600160a01b0383169283835260581b16928391015282519182526020820152f35b5f366003190112610223575f388180347f00000000000000000000000000000000000000000000000000000000000000005af11561022357005b60203660031901126102235760043567ffffffffffffffff8111610223576106e9903690600401610280565b3033036106fc575b6106fa9161310e565b005b7f90b772c2cb8a51aa7a8a65fc23543c6d022d5b3f8e2b92eed79fba7eef8293005c6106f1575b63aed595955f526004601cfd5b60403660031901126102235760043561074881610262565b5f7f0000000000000000000000000000000000000000000000000000000000000000602435336001600160a01b0383161480156107c2575b61078990611f47565b604051936014526034526f205c28780000000000000000000000008252604460108338935af1156107ba575f603452005b3d5f823e3d90fd5b50333014610780565b6040366003190112610223576004356107e381610262565b60243567ffffffffffffffff811161022357610803903690600401610280565b906001600160a01b0361082a6001600160a01b035f5160206161075f395f51905f52541690565b168061083a57506106fa926123a1565b90916040519263d68f602560e01b84525f848061085c3634336004850161233b565b038183875af19384156104f4575f946108cb575b5061087c9293946123a1565b803b15610223576108a75f92918392604051948580948193630b9dfbed60e11b835260048301612361565b03925af180156104f4576108b757005b806108c55f6106fa93611e06565b80610219565b61087c9394506108ec903d805f833e6108e48183611e06565b8101906122f5565b9392610870565b34610223575f36600319011261022357307f0000000000000000000000000000000000000000000000000000000000000000036109545760206040517f360894a13ba1a3210667c828492db98dca3e2076cc3735a920a3ca505d382bbc8152f35b639f03a0265f526004601cfd5b34610223575f3660031901126102235760206001600160a01b037f0bb70095b32b9671358306b0339b4c06e7cbd8cb82505941fba30d1eb5b82f085416604051908152f35b60403660031901126102235760043567ffffffffffffffff8111610223578060040190608060031982360301126102235760243567ffffffffffffffff8111610223576109fa610a01913690600401610280565b90846134ad565b610a1d6024820135926044610a1582612521565b930190612111565b9290600482148015610c5a575b828115610c4f575b610a3b9161252b565b610a518383610a4c87858484612da0565b61255e565b610a8b836001600160a01b03165f527f0bb70095b32b9671358306b0339b4c06e7cbd8cb82505941fba30d1eb5b82f0460205260405f2090565b5480610b1c575050507f2841d18703faaff388732165e48fe431468531b1b1e626b1b7cbcbfc0d79c7409150610b179042610af6826001600160a01b03165f527f0bb70095b32b9671358306b0339b4c06e7cbd8cb82505941fba30d1eb5b82f0460205260405f2090565b55604080516001600160a01b03909216825242602083015290918291820190565b0390a1005b610b296203f480826125b0565b4210610b94575050507fcbd44a75f6935b5837022648b6c8487db984701200c5381c7c0f8c2b1d69b9da9150610b179042610af6826001600160a01b03165f527f0bb70095b32b9671358306b0339b4c06e7cbd8cb82505941fba30d1eb5b82f0460205260405f2090565b610b9d906125a0565b4210610c27577f341347516a9de374859dfda710fa4828b2d48cb57d4fbe4c1149612b8e02276e93610c0c915f610c04866001600160a01b03165f527f0bb70095b32b9671358306b0339b4c06e7cbd8cb82505941fba30d1eb5b82f0460205260405f2090565b55838561360f565b604080519182526001600160a01b03929092166020820152a1005b7f07f2f2d2000000000000000000000000000000000000000000000000000000005f5260045ffd5b600981149150610a32565b5060088214610a2a565b90602080835192838152019201905f5b818110610c815750505090565b82516001600160a01b0316845260209384019390920191600101610c74565b906001600160a01b03610cc0602092959495604085526040850190610c64565b9416910152565b3461022357604036600319011261022357600435610ce481610262565b6024359060016001600160a01b038216141580610e74575b610e59578115610e315790610d1081614818565b610d48610d3b5f946001600160a01b03165f525f5160206160e75f395f51905f5260205260405f2090565b546001600160a01b031690565b6001600160a01b0381168015159081610e25575b5080610e1c575b15610dbd57610db1610d3b82610d8e610db794610d80898861416d565b906001600160a01b03169052565b6001600160a01b03165f525f5160206160e75f395f51905f5260205260405f2090565b9361484a565b92610d48565b908360016001600160a01b038416141580610e13575b610de9575b81526104af60405192839283610ca0565b9150610e0d610e00610dfa84614858565b8361416d565b516001600160a01b031690565b91610dd8565b50801515610dd3565b50828410610d63565b6001915014155f610d5c565b7ff7250817000000000000000000000000000000000000000000000000000000005f5260045ffd5b637c84ecfb60e01b5f526001600160a01b031660045260245ffd5b50610e8161058b82613dd0565b610cfc565b805180835260209291819084018484015e5f828201840152601f01601f1916010190565b34610223575f36600319011261022357610f05610f13610ec8613710565b6040929192519384937f0f00000000000000000000000000000000000000000000000000000000000000855260e0602086015260e0850190610e86565b908382036040850152610e86565b4660608301523060808301525f60a083015281810360c083015260206060519182815201906080905f5b818110610f4b575050500390f35b8251845285945060209384019390920191600101610f3d565b34610223575f36600319011261022357602061030a613784565b60403660031901126102235760043567ffffffffffffffff811161022357610faa90369060040161036f565b610fde6001600160a01b037f0000000000000000000000000000000000000000000000000000000000000000163314611f47565b6001600160a01b036110046001600160a01b035f5160206161075f395f51905f52541690565b168061101457506106fa906125f9565b6040519163d68f602560e01b83525f83806110343634336004850161233b565b038183865af19283156104f4575f93611052575b5061087c906125f9565b61087c91935061106b903d805f833e6108e48183611e06565b9290611048565b61107b366102ae565b906001600160a01b037f000000000000000000000000000000000000000000000000000000000000000016331480156112b9575b6110b890611f47565b6110c361058b6133bf565b6112ac575b6001600160a01b03831615611284576001840361112d577fd21d0b289f126c4b473ea641963e766833c2f13866e4ff480abd787c100ef123939161110c9184615229565b604080519182526001600160a01b0390921660208201529081908101610b17565b9060028403611172576111677fd21d0b289f126c4b473ea641963e766833c2f13866e4ff480abd787c100ef123949261116d923691611fb1565b83615122565b61110c565b90600384036111a8577fd21d0b289f126c4b473ea641963e766833c2f13866e4ff480abd787c100ef123939161116d9184614e3f565b600484036111dd577fd21d0b289f126c4b473ea641963e766833c2f13866e4ff480abd787c100ef123939161116d9184614cc9565b60088414801561127a575b1561121b57839161116d91847fd21d0b289f126c4b473ea641963e766833c2f13866e4ff480abd787c100ef12396614ad3565b8361124d577fd21d0b289f126c4b473ea641963e766833c2f13866e4ff480abd787c100ef123939161116d918461499b565b7f098312d2000000000000000000000000000000000000000000000000000000005f52600484905260245ffd5b50600984146111e8565b7f5316c18d000000000000000000000000000000000000000000000000000000005f5260045ffd5b6112b4614866565b6110c8565b503330146110af565b34610223575f366003190112610223576104af6040516112e3604082611e06565b601481527f6269636f6e6f6d792e6e657875732e312e322e300000000000000000000000006020820152604051918291602083526020830190610e86565b61132a366102ae565b916001600160a01b037f00000000000000000000000000000000000000000000000000000000000000001633148015611401575b61136790611f47565b6001600160a01b0361138d6001600160a01b035f5160206161075f395f51905f52541690565b168061139d57506106fa9361266e565b916040939193519363d68f602560e01b85525f85806113c13634336004850161233b565b038183885af19485156104f4575f956113e1575b5061087c93949561266e565b61087c9495506113fa903d805f833e6108e48183611e06565b94936113d5565b5033301461135e565b34610223575f366003190112610223577f360894a13ba1a3210667c828492db98dca3e2076cc3735a920a3ca505d382bbc546001600160a01b03811615611460575b6020906001600160a01b0360405191168152f35b50305461144c565b34610223575f3660031901126102235760206040516001600160a01b037f0000000000000000000000000000000000000000000000000000000000000000168152f35b3461022357602061035d6114be36610314565b9161274c565b34610223575f36600319011261022357306020526370a082315f52602080806024601c7f00000000000000000000000000000000000000000000000000000000000000005afa601f3d1116815102604051908152f35b34610223576020366003190112610223576104af6004358060081b6001600160f81b03198216159182156115b3575b821561159e575b508161156a575b5060405190151581529081906020820190565b6001600160f81b031981161591508115611586575b505f611557565b6001600160f81b031916600160f81b1490505f61157f565b6001600160f81b03199081161491505f611550565b6001600160f81b03198116600160f81b149250611549565b602081016020825282518091526040820191602060408360051b8301019401925f915b8383106115fd57505050505090565b909192939460208061161b600193603f198682030187528951610e86565b970193019301919392906115ee565b61163336610314565b9161163d33613e10565b15611745576001600160a01b036116686001600160a01b035f5160206161075f395f51905f52541690565b168061168957509161167d916104af9361281e565b604051918291826115cb565b90926040519263d68f602560e01b84525f84806116ab3634336004850161233b565b038183875af19384156104f4575f94611725575b506116cb92939461281e565b90803b15610223576116f75f93918492604051958680948193630b9dfbed60e11b835260048301612361565b03925af19182156104f4576104af92611711575b5061167d565b806108c55f61171f93611e06565b5f61170b565b6116cb93945061173e903d805f833e6108e48183611e06565b93926116bf565b7fb927fe5e000000000000000000000000000000000000000000000000000000005f523360045260245ffd5b346102235760203660031901126102235760043577ffffffffffffffffffffffffffffffffffffffffffffffff811680910361022357604051907f35567e1a00000000000000000000000000000000000000000000000000000000825230600483015260248201526020816044816001600160a01b037f0000000000000000000000000000000000000000000000000000000000000000165afa80156104f4576104af915f9161182c57506040519081529081906020820190565b611845915060203d6020116104ed576104df8183611e06565b5f61049e565b61185436610314565b906118896001600160a01b037f0000000000000000000000000000000000000000000000000000000000000000163314611f47565b6001600160a01b036118af6001600160a01b035f5160206161075f395f51905f52541690565b16806118bf57506106fa92612979565b90916040519263d68f602560e01b84525f84806118e13634336004850161233b565b038183875af19384156104f4575f94611901575b5061087c929394612979565b61087c93945061191a903d805f833e6108e48183611e06565b93926118f5565b9181601f840112156102235782359167ffffffffffffffff8311610223576020808501948460051b01011161022357565b60203660031901126102235760043567ffffffffffffffff81116102235761197e903690600401611921565b6119b26001600160a01b037f0000000000000000000000000000000000000000000000000000000000000000163314611f47565b6001600160a01b036119d86001600160a01b035f5160206161075f395f51905f52541690565b16806119e857506106fa9161448f565b906040519263d68f602560e01b84525f8480611a093634336004850161233b565b038183875af19384156104f4575f94611a28575b509061087c9161448f565b61087c92919450611a42903d805f833e6108e48183611e06565b939091611a1d565b3461022357604036600319011261022357600435611a6781610262565b6024359060016001600160a01b038216141580611b34575b610e59578115610e315790611a9381614818565b611abe610d3b5f946001600160a01b03165f525f5160206161275f395f51905f5260205260405f2090565b6001600160a01b0381168015159081611b28575b5080611b1f575b15610dbd57610db1610d3b82611af6611b1994610d80898861416d565b6001600160a01b03165f525f5160206161275f395f51905f5260205260405f2090565b92611abe565b50828410611ad9565b6001915014155f611ad2565b50611b4161058b82613e10565b611a7f565b606036600319011261022357600435611b5e81610262565b60243567ffffffffffffffff811161022357611b7e903690600401611921565b90916044359260ff8416840361022357611b99303314611f47565b611ba283612a8c565b92611bb06040519485611e06565b808452602084019060051b82019136831161022357905b828210611cd2575050506001600160a01b031691611c39836001600160a01b03166001600160a01b03197f0bb70095b32b9671358306b0339b4c06e7cbd8cb82505941fba30d1eb5b82f085416177f0bb70095b32b9671358306b0339b4c06e7cbd8cb82505941fba30d1eb5b82f0855565b82611c66575b827ff98c8404c5b1bfef2e6ba9233c6e88845aedfd36eea8b192725d8c199571cf325f80a2005b823b1561022357611ca7915f9160405193849283927ff05c04e100000000000000000000000000000000000000000000000000000000845260048401614544565b038183865af180156104f457611cbe575b80611c3f565b806108c55f611ccc93611e06565b5f611cb8565b602080918335611ce181610262565b815201910190611bc7565b3461022357602036600319011261022357602061030a600435612aa4565b634e487b7160e01b5f52601160045260245ffd5b906177398202918083046177391490151715611d3657565b611d0a565b906014116102235790601490565b909291928360141161022357831161022357601401916013190190565b906004116102235790600490565b909291928360051161022357831161022357600501916004190190565b356bffffffffffffffffffffffff19811692919060148210611db1575050565b6bffffffffffffffffffffffff1960149290920360031b82901b16169150565b634e487b7160e01b5f52604160045260245ffd5b6040810190811067ffffffffffffffff821117611e0157604052565b611dd1565b90601f8019910116810190811067ffffffffffffffff821117611e0157604052565b908160209103126102235751611e3d816105dc565b90565b611e3d93926001600160a01b0360609316825260208201528160408201520190610e86565b6040513d5f823e3d90fd5b918015611f29575b90611eb2611ed993611eac8480611ea661042f611ea0611e9a60209a8a611d3b565b90611d91565b60601c90565b95611d49565b91612f2d565b91906001600160a01b03604051809681958294637aa8f17760e11b84523360048501611e40565b0392165afa5f9181611ef8575b50611e3d57506001600160e01b031990565b611f1b91925060203d602011611f22575b611f138183611e06565b810190611e28565b905f611ee6565b503d611f09565b611f3761ffff821904611d1e565b8303611e785790611e3d9261274c565b15611f4e57565b7fac52ccbe000000000000000000000000000000000000000000000000000000005f5260045ffd5b6040519061027e61012083611e06565b6040519061027e604083611e06565b67ffffffffffffffff8111611e0157601f01601f191660200190565b929192611fbd82611f95565b91611fcb6040519384611e06565b829481845281830111610223578281602093845f960137010152565b9080601f8301121561022357816020611e3d93359101611fb1565b9190916101208184031261022357612018611f76565b9261202282610273565b845260208201356020850152604082013567ffffffffffffffff8111610223578161204e918401611fe7565b6040850152606082013567ffffffffffffffff81116102235781612073918401611fe7565b60608501526080820135608085015260a082013560a085015260c082013560c085015260e082013567ffffffffffffffff811161022357816120b6918401611fe7565b60e085015261010082013567ffffffffffffffff8111610223576120da9201611fe7565b610100830152565b156120e957565b7fae4edb1b000000000000000000000000000000000000000000000000000000005f5260045ffd5b903590601e1981360301821215610223570180359067ffffffffffffffff82116102235760200191813603831361022357565b90816020910312610223575190565b80516001600160a01b03168252611e3d91602082015160208201526101006121d46121a461219260408601516101206040870152610120860190610e86565b60608601518582036060870152610e86565b6080850151608085015260a085015160a085015260c085015160c085015260e085015184820360e0860152610e86565b92015190610100818403910152610e86565b9291906121fd602091604086526040860190612153565b930152565b90816020910312610223575180151581036102235790565b60405163d60b347f60e01b81523060048201526020816024816001600160a01b037f0000000000000000000000000000000000000000000000000000000000000000165afa9081156104f4575f91612280575b5080156122775790565b50611e3d6133bf565b6122a2915060203d6020116122a8575b61229a8183611e06565b810190612202565b5f61226d565b503d612290565b81601f82011215610223578051906122c682611f95565b926122d46040519485611e06565b8284526020838301011161022357815f9260208093018386015e8301015290565b9060208282031261022357815167ffffffffffffffff811161022357611e3d92016122af565b908060209392818452848401375f828201840152601f01601f1916010190565b611e3d93926001600160a01b03606093168252602082015281604082015201905f61231b565b906020611e3d928181520190610e86565b1561237957565b7fc970156c000000000000000000000000000000000000000000000000000000005f5260045ffd5b9190916001600160a01b038116906123ba821515612372565b6123c6813b1515612372565b30556123f1307f00000000000000000000000000000000000000000000000000000000000000001490565b610954576001600160a01b037f00000000000000000000000000000000000000000000000000000000000000001633148015612518575b61243190611f47565b612439613784565b6124f0573d5f526352d1902d6001527f360894a13ba1a3210667c828492db98dca3e2076cc3735a920a3ca505d382bbc602060016004601d855afa51036124e257807fbc7cd75a20ee27fd9adebab32041f755214dbc6bffa90cc0225b39da2e5c2d3b5f80a281817f360894a13ba1a3210667c828492db98dca3e2076cc3735a920a3ca505d382bbc556124cc57505050565b815f926040519485378338925af4156107ba5750565b6355299b496001526004601dfd5b7fdc3b8379000000000000000000000000000000000000000000000000000000005f5260045ffd5b50333014612428565b35611e3d81610262565b156125335750565b7f41c38b30000000000000000000000000000000000000000000000000000000005f5260045260245ffd5b15612567575050565b6001600160a01b0392507fbe601672000000000000000000000000000000000000000000000000000000005f526004521660245260445ffd5b90620151808201809211611d3657565b91908201809211611d3657565b908092918237015f815290565b3d156125f4573d906125db82611f95565b916125e96040519384611e06565b82523d5f602084013e565b606090565b612607906060810190612111565b80600411610223576040515f9283929060031982019060040183378101826003198201528160031991030190305af461263e6125ca565b501561264657565b7facfdb444000000000000000000000000000000000000000000000000000000005f5260045ffd5b90917f341347516a9de374859dfda710fa4828b2d48cb57d4fbe4c1149612b8e02276e936126a38484610a4c84868484612da0565b600183036126df576126b59184613a1b565b6126bd613b15565b604080519182526001600160a01b03909216602082015290819081015b0390a1565b600283036126f6576126f191846138a6565b6126bd565b60038303612708576126f191846137a6565b600483148015612742575b8015612738575b612726575b50506126bd565b61273191838561360f565b5f8061271f565b506009831461271a565b5060088314612713565b60015f9081525f5160206160e75f395f51905f526020527ffe44ceacbf4f03c6ac19f86826dd265fa9ec25125e8b1766c207f24cd3bc73c7546001600160a01b031694939291905b6001600160a01b0386168015159081612812575b50156127ca576127be8484846127c4948a613cb3565b95613d8b565b94612794565b6127f69495507f0000000000000000000000000000000000000000000000000000000000000000613cb3565b6001600160e01b03198116611e3d57506001600160e01b031990565b6001915014155f6127a8565b919061282933613e50565b8260081b92612840816001600160f81b0319161590565b15612851575090611e3d929161426e565b6001600160f81b03198116600160f81b03612872575090611e3d92916141a7565b6001600160f81b03198082160361295c57509061288e9161538a565b90916128986140c4565b936001600160f81b031981166128ca5750916128b3926153c9565b6128bc8261415b565b526128c68161415b565b5090565b6001600160f81b03198116600160f81b03612940575081836128eb926153a4565b6128f48561415b565b52156128ff57505090565b7f5bd4c60b4b38b664d8fb5944eb974e3d85083d79afe5ce934ccabcc913707c109161293a61292d8561415b565b5160405193849384614181565b0390a190565b6308c3ee0360e11b5f526001600160f81b03191660045260245ffd5b6001600160f81b031990632e5bf3f960e21b5f521660045260245ffd5b91908260081b92612992816001600160f81b0319161590565b156129a357509061027e92916143a1565b6001600160f81b03198116600160f81b036129c457509061027e9291614318565b6001600160f81b03198082160361295c5750906129e09161538a565b929091906001600160f81b03198116612a0e57505f9083604051938437838338925af4156107ba5701604052565b9192916001600160f81b03198116600160f81b03612a6f57508183612a32926153a4565b929015612a3e57505050565b6126da7f5bd4c60b4b38b664d8fb5944eb974e3d85083d79afe5ce934ccabcc913707c109360405193849384614181565b6001600160f81b0319906308c3ee0360e11b5f521660045260245ffd5b67ffffffffffffffff8111611e015760051b60200190565b60018114908115612b16575b8115612b0b575b8115612b00575b8115612af5575b8115612aea575b8115612ae1575b50612adc575f90565b600190565b9050155f612ad3565b600981149150612acc565b600881149150612ac5565b600481149150612abe565b600381149150612ab7565b600281149150612ab0565b5f356001600160e01b0319811690612b6a826001600160e01b0319165f527f0bb70095b32b9671358306b0339b4c06e7cbd8cb82505941fba30d1eb5b82f0260205260405f2090565b54612b896001600160a01b0382169160581b6001600160f81b03191690565b906001600160a01b038116612bf857505060e01c9063bc197c81821463f23a6e6183141763150b7a02831417612bee577f08c63e27000000000000000000000000000000000000000000000000000000005f526001600160e01b03191660045260245ffd5b506020526020603cf35b5f5160206161075f395f51905f52546001600160a01b0316801515926060929084612d14575b6001600160f81b03198116607f60f91b03612cc257505f8091612c3f6157cf565b90602082519201905afa92612c526125ca565b935b15612cba57612c66575b825160208401f35b803b1561022357612c915f92918392604051948580948193630b9dfbed60e11b835260048301612361565b03925af180156104f457612ca6575b80612c5e565b806108c55f612cb493611e06565b81612ca0565b835160208501fd5b6001600160f81b03198116612cf857505f8091612cdd6157cf565b906020825192019034905af192612cf26125ca565b93612c54565b632e5bf3f960e21b5f526001600160f81b03191660045260245ffd5b925060405163d68f602560e01b81525f8180612d353634336004850161233b565b038183875af19081156104f4575f91612d50575b5092612c1e565b612d6491503d805f833e6108e48183611e06565b85612d49565b919091356001600160e01b031981169260048110612d86575050565b6001600160e01b0319929350829060040360031b1b161690565b92909160018403612db7575050611e3d9150613dd0565b60028403612dcb575050611e3d9150613e10565b60038403612e0057611e3d935060048210612df857612df391612ded91611d66565b90612d6a565b6145c1565b50505f6145c1565b505090600481145f14612e2e57505f5160206161075f395f51905f52546001600160a01b0391821691161490565b600881148015612e5e575b15612e58576001600160a01b03612e50819261455e565b921691161490565b50505f90565b5060098114612e39565b6001600160a01b03811680612e9d5750507f000000000000000000000000000000000000000000000000000000000000000090565b612ea682613dd0565b15612eaf575090565b7f6859e01e000000000000000000000000000000000000000000000000000000005f5260045260245ffd5b91909160408184031261022357805192602082015167ffffffffffffffff811161022357611e3d92016122af565b611e3d94926001600160a01b036060931682526020820152816040820152019161231b565b7f0bb70095b32b9671358306b0339b4c06e7cbd8cb82505941fba30d1eb5b82f06549293926001600160a01b031680612f6e575090611e3d91933691611fb1565b6040517f7a0468b7000000000000000000000000000000000000000000000000000000008152945f93869384928392612fab923360048601612f08565b03915afa9182156104f4575f905f93612fc357509190565b90506102ea9192503d805f833e612fda8183611e06565b810190612eda565b9060f911610723578035906020810135810190602082019135906040810135019360208501943593613015368486611fb1565b602081519101205f528060a01c6020526001600160a01b0360405f201690815f526001600160a01b0360205f2091608060205216601f526305d78094600b52601960272090604051915f52601b602052826040526060526020604060805f60015afa505f6060526130a461058b3d606018518360405261309c30916001600160a01b031690565b143015151690565b613106575b81156130de579081527f4f058962bce244bca6c9be42f256083afc66f1f63a1f9a04e31a3042311af38d9080602081016126da565b7fe483bbcb000000000000000000000000000000000000000000000000000000005f5260045ffd5b5f91506130a9565b906018116131b3575f8160208083940135820180358060405193849301833781018481520391355af461313f6125ca565b501561318b5761314d613784565b1561315457565b61315c61221a565b1561316357565b7f7556034e000000000000000000000000000000000000000000000000000000005f5260045ffd5b7f315927c5000000000000000000000000000000000000000000000000000000005f5260045ffd5b7ff9c42c60000000000000000000000000000000000000000000000000000000005f5260045ffd5b6001600160a01b03611e3d95936060938352166020820152816040820152019161231b565b92909192823560601c601484013590603485013560e01c91603886019383870196603888013560e01c976038828a603c840193010301998060048c011161022357613289936132848861327a8b948f60049061058b9901019f6003199103019d8061327461042f611ea0611e9a848c611d3b565b97611d49565b949093898b61460d565b614681565b6132ee57303b15610223576132cd5f9360405195869485947f9517e29f000000000000000000000000000000000000000000000000000000008652600486016131db565b038183305af180156104f4576132e05750565b806108c55f61027e93611e06565b7f46fdc333000000000000000000000000000000000000000000000000000000005f5260045ffd5b92916001600160a01b037f0bb70095b32b9671358306b0339b4c06e7cbd8cb82505941fba30d1eb5b82f05541680155f14613355575050610100015190565b60405f80948297949751978895869485937fe24f8f9300000000000000000000000000000000000000000000000000000000855261339f6004860191606083526060830190612153565b936020820152015203925af19182156104f4575f905f93612fc357509190565b60015f525f5160206160e75f395f51905f526020527ffe44ceacbf4f03c6ac19f86826dd265fa9ec25125e8b1766c207f24cd3bc73c7546001600160a01b03161515806134095790565b5060015f525f5160206161275f395f51905f526020527fbdfeb076d903611fa58576955630d640569633049bcf40ad9c22db9251b54a13546001600160a01b0316151590565b1561345657565b7f756688fe000000000000000000000000000000000000000000000000000000005f5260045ffd5b1561348557565b7fbf6b5843000000000000000000000000000000000000000000000000000000005f5260045ffd5b6020916001600160a01b039161358e6135af95806134d461042f611ea0611e9a8489611d3b565b9461358961357c6135086134e788612521565b60608c8a0135996134fb6040820182612111565b92909101359a8b93614706565b9661354f61354a61058b613543845f527f0bb70095b32b9671358306b0339b4c06e7cbd8cb82505941fba30d1eb5b82f0760205260405f2090565b5460ff1690565b61344f565b5f527f0bb70095b32b9671358306b0339b4c06e7cbd8cb82505941fba30d1eb5b82f0760205260405f2090565b805460ff19166001179055565b611d49565b93909160405196879586948593637aa8f17760e11b85523060048601612f08565b0392165afa80156104f4576001600160e01b0319630b135d3f60e11b9161027e935f916135df575b50161461347e565b6135f8915060203d602011611f2257611f138183611e06565b5f6135d7565b916020611e3d93818152019161231b565b6136729392916004810361367657505f5160206161075f395f51905f5280546001600160a01b03191690555b61366d5a9261365f604051958692638a91b0e360e01b6020850152602484016135fe565b03601f198101855284611e06565b6147c0565b5050565b60088114808015613706575b61368e575b505061363b565b156136cb57507f0bb70095b32b9671358306b0339b4c06e7cbd8cb82505941fba30d1eb5b82f0680546001600160a01b03191690555b5f80613687565b6009036136c4577f0bb70095b32b9671358306b0339b4c06e7cbd8cb82505941fba30d1eb5b82f0580546001600160a01b03191690556136c4565b5060098214613682565b60405161371e604082611e06565b600581527f4e65787573000000000000000000000000000000000000000000000000000000602082015290604051613757604082611e06565b600581527f312e322e30000000000000000000000000000000000000000000000000000000602082015290565b5f906017303b1461379157565b905060035f80303c5f5160e81c62ef01001490565b9190916138306040516137b881611de5565b5f81525f60208201526137d1610612612ded8688611d66565b8151815460209093015174ff000000000000000000000000000000000000000060589190911c167fffffffffffffffffffffff0000000000000000000000000000000000000000009093166001600160a01b0390911617919091179055565b5a90826004116102235761366d60046136729501936003190161365f604051958692638a91b0e360e01b6020850152602060248501818152019161231b565b91909160408184031261022357803561388781610262565b92602082013567ffffffffffffffff811161022357611e3d9201611fe7565b906138bc906001600160a01b039381019061386f565b92166001600160a01b03821680158015613a11575b6139fe576001600160a01b03613905835f5160206161275f395f51905f52906001600160a01b03165f5260205260405f2090565b5416036139e25791816139866136729461396b613946610d3b61365f975f5160206161275f395f51905f52906001600160a01b03165f5260205260405f2090565b915f5160206161275f395f51905f52906001600160a01b03165f5260205260405f2090565b906001600160a01b03166001600160a01b0319825416179055565b6139c16139b1825f5160206161275f395f51905f52906001600160a01b03165f5260205260405f2090565b6001600160a01b03198154169055565b61366d5a92604051948591638a91b0e360e01b602084015260248301612361565b637c84ecfb60e01b5f526001600160a01b03821660045260245ffd5b50637c84ecfb60e01b5f5260045260245ffd5b50600181146138d1565b90613a31906001600160a01b039381019061386f565b92166001600160a01b03821680158015613b0b575b6139fe576001600160a01b03613a7a835f5160206160e75f395f51905f52906001600160a01b03165f5260205260405f2090565b5416036139e2579181613ae06136729461396b613abb610d3b61365f975f5160206160e75f395f51905f52906001600160a01b03165f5260205260405f2090565b915f5160206160e75f395f51905f52906001600160a01b03165f5260205260405f2090565b6139c16139b1825f5160206160e75f395f51905f52906001600160a01b03165f5260205260405f2090565b5060018114613a46565b613b2061058b613784565b80613c39575b613b2c57565b60015f525f5160206160e75f395f51905f52602052613b6a7ffe44ceacbf4f03c6ac19f86826dd265fa9ec25125e8b1766c207f24cd3bc73c7610d3b565b6001600160a01b03811680151580613c2e575b15613c1d5760405163d60b347f60e01b815230600482015290602090829060249082905afa9081156104f4575f91613bff575b50613bc357613bbe90613d8b565b613b6a565b6001600160a01b036001915b1614613bd757565b7fcc319d84000000000000000000000000000000000000000000000000000000005f5260045ffd5b613c17915060203d81116122a85761229a8183611e06565b5f613bb0565b506001600160a01b03600191613bcf565b506001811415613b7d565b5060405163d60b347f60e01b81523060048201526020816024817f00000000000000000000000000000000000000000000000000000000000000006001600160a01b03165afa9081156104f4575f91613c94575b5015613b26565b613cad915060203d6020116122a85761229a8183611e06565b5f613c8d565b613ce3936001600160a01b0360209496939660405196879586948593637aa8f17760e11b85523360048601612f08565b0392165afa9081156104f4575f91613d6c575b507f77390000000000000000000000000000000000000000000000000000000000007fffff00000000000000000000000000000000000000000000000000000000000082161480613d4f575b613d4a575090565b905090565b506001600160e01b031982166001600160e01b0319821611613d42565b613d85915060203d602011611f2257611f138183611e06565b5f613cf6565b6001600160a01b03168015613dbe575f525f5160206160e75f395f51905f526020526001600160a01b0360405f20541690565b637c84ecfb60e01b5f5260045260245ffd5b6001600160a01b031680600114159081613de8575090565b90505f525f5160206160e75f395f51905f526020526001600160a01b0360405f205416151590565b6001600160a01b031680600114159081613e28575090565b90505f525f5160206161275f395f51905f526020526001600160a01b0360405f205416151590565b6001600160a01b037f0bb70095b32b9671358306b0339b4c06e7cbd8cb82505941fba30d1eb5b82f0854169081613e85575050565b813b15610223576040516396fb721760e01b81526001600160a01b03909116600482015260026024820152905f90829060449082905afa80156104f457613eca575b50565b80613ed65f8093611e06565b80031261022357565b6001600160a01b037f0bb70095b32b9671358306b0339b4c06e7cbd8cb82505941fba30d1eb5b82f0854169081613f14575050565b813b15610223575f9060405192838080936396fb721760e01b8252600460208184016001600160a01b036040820194168152015203915afa80156104f457613eca5750565b6001600160a01b037f0bb70095b32b9671358306b0339b4c06e7cbd8cb82505941fba30d1eb5b82f0854169081613f8e575050565b813b15610223576040516396fb721760e01b81526001600160a01b03909116600482015260036024820152905f90829060449082905afa80156104f457613eca5750565b6001600160a01b037f0bb70095b32b9671358306b0339b4c06e7cbd8cb82505941fba30d1eb5b82f0854169081614007575050565b813b15610223576040516396fb721760e01b81526001600160a01b03909116600482015260016024820152905f90829060449082905afa80156104f457613eca5750565b6001600160a01b037f0bb70095b32b9671358306b0339b4c06e7cbd8cb82505941fba30d1eb5b82f085416918261408157505050565b823b15610223576040516396fb721760e01b81526001600160a01b039290921660048301526024820152905f90829060449082905afa80156104f457613eca5750565b604080519091906140d58382611e06565b6001815291601f1901825f5b8281106140ed57505050565b8060606020809385010152016140e1565b9061410882612a8c565b6141156040519182611e06565b8281528092614126601f1991612a8c565b01905f5b82811061413657505050565b80606060208093850101520161412a565b634e487b7160e01b5f52603260045260245ffd5b8051156141685760200190565b614147565b80518210156141685760209160051b010190565b91611e3d93916141999160408552604085019161231b565b916020818403910152610e86565b906141b1916153fc565b916001600160f81b0319811661422e57506141cb826140fe565b915f5b8181106141db5750505090565b806142126141ec600193858761547c565b80356141f781610262565b61420a6020830135926040810190612111565b92909161559d565b61421c828761416d565b52614227818661416d565b50016141ce565b9291906001600160f81b03198416600160f81b0361425157611e3d92935061549e565b6001600160f81b0319846308c3ee0360e11b5f521660045260245ffd5b9061427b9193929361554e565b9190926142866140c4565b956001600160f81b031981166142b55750906142a2939161559d565b6142ab8361415b565b52613ec78261415b565b6001600160f81b03198116600160f81b03612a6f5750836142d7928492615576565b6142e08661415b565b52156142ea575050565b7fb5282692b8c578af7fb880895d599035496b5e64d1f14bf428a1ed3bc406f662916126da61292d8661415b565b90614322916153fc565b90916001600160f81b0319811661437f57505f5b81811061434257505050565b80614379614353600193858761547c565b803561435e81610262565b6143716020830135926040810190612111565b9290916155ca565b01614336565b92916001600160f81b03198416600160f81b0361425157613ec792935061549e565b6001600160f81b0319916143b49161554e565b9094909391929116806143cd57509061027e93916155ca565b600160f81b81036144225750836143e5928492615576565b9290156143f157505050565b6126da7fb5282692b8c578af7fb880895d599035496b5e64d1f14bf428a1ed3bc406f6629360405193849384614181565b6308c3ee0360e11b5f5260045260245ffd5b903590601e1981360301821215610223570180359067ffffffffffffffff821161022357602001918160051b3603831361022357565b35611e3d816105dc565b60405190614483602083611e06565b5f808352366020840137565b915f5b8281101561453e578060051b84013590609e19853603018212156102235761452660019286016144da6144c86060830183614434565b6144d46040850161446a565b916155f8565b6144f26144e683612521565b6001600160a01b031690565b1561452c5761451261451e9161450784612521565b602085013590615d8e565b915b6080810190614434565b30929161569d565b01614492565b5061451e614538614474565b91614514565b50915050565b60409060ff611e3d94931681528160208201520190610c64565b600803614593576001600160a01b037f0bb70095b32b9671358306b0339b4c06e7cbd8cb82505941fba30d1eb5b82f06541690565b6001600160a01b037f0bb70095b32b9671358306b0339b4c06e7cbd8cb82505941fba30d1eb5b82f05541690565b6001600160a01b0361460581926001600160e01b0319165f527f0bb70095b32b9671358306b0339b4c06e7cbd8cb82505941fba30d1eb5b82f0260205260405f2090565b541691161490565b939261461b91933691611fb1565b6020815191012090604051926001600160a01b0360208501957ff6c866c1cd985ce61f030431e576c0e82887de0643dfa8a2e6efc3463e638ed087521660408501526060840152608083015260a082015260a0815261467b60c082611e06565b51902090565b92602092916001600160a01b0361469a6146b8966157fc565b60405196879586948593637aa8f17760e11b85523060048601612f08565b0392165afa5f91816146e5575b506146cf57505f90565b6001600160e01b031916630b135d3f60e11b1490565b6146ff91925060203d602011611f2257611f138183611e06565b905f6146c5565b92611e3d949192614718913691611fb1565b60208151910120604051926001600160a01b0360208501957fd3ddfc12654178cc44d4a7b6b969cfdce7ffe6342326ba37825314cffa0fba9c87521660408501526060840152608083015260a082015260a0815261477760c082611e06565b5190206157fc565b6001600160a01b0361027e91166001600160a01b03166001600160a01b03195f5160206161075f395f51905f525416175f5160206161075f395f51905f5255565b92915f91908291826147d181611f95565b966147df6040519889611e06565b818852601f196147ee83611f95565b013660208a013760208451940192f13d80614811575b8084525f602085013e9190565b505f614804565b9061482282612a8c565b61482f6040519182611e06565b8281528092614840601f1991612a8c565b0190602036910137565b5f198114611d365760010190565b5f19810191908211611d3657565b60015f525f5160206161275f395f51905f526020527fbdfeb076d903611fa58576955630d640569633049bcf40ad9c22db9251b54a13546001600160a01b031661494c5760015f525f5160206161275f395f51905f526020526148d960405f2060016001600160a01b0319825416179055565b60015f525f5160206160e75f395f51905f526020526001600160a01b037ffe44ceacbf4f03c6ac19f86826dd265fa9ec25125e8b1766c207f24cd3bc73c7541661494c5760015f525f5160206160e75f395f51905f5260205261027e60405f2060016001600160a01b0319825416179055565b7f53c85e66000000000000000000000000000000000000000000000000000000005f5260045ffd5b91908110156141685760051b0190565b90821015614168576102ea9160051b810190612111565b91506149bd908035810191602083019235916020810135019060208201913590565b929391808403614aab575f5b8181106149d857505050505050565b806149e66001928489614974565b35828103614a0a5750614a046149fd828887614984565b9087615229565b016149c9565b60028103614a2f5750614a2a614a24610527838988614984565b86615122565b614a04565b60038103614a4d5750614a2a614a46828887614984565b9087614e3f565b60048103614a6b5750614a2a614a64828887614984565b9087614cc9565b85600882148015614aa1575b614a83575b5050614a04565b614a9a91614a92848a89614984565b929091614ad3565b5f85614a7c565b5060098214614a77565b7fb4fa3fb3000000000000000000000000000000000000000000000000000000005f5260045ffd5b9291906001600160a01b03614afc6001600160a01b035f5160206161075f395f51905f52541690565b1680614b0c575061027e93614bac565b916040939193519363d68f602560e01b85525f8580614b303634336004850161233b565b038183885af19485156104f4575f95614b8c575b50614b50939495614bac565b803b1561022357614b7b5f92918392604051948580948193630b9dfbed60e11b835260048301612361565b03925af180156104f4576132e05750565b614b50949550614ba5903d805f833e6108e48183611e06565b9493614b44565b929092614bb9818561404b565b60405163ecd0596160e01b8152600481018290526001600160a01b0385169490602081602481895afa9081156104f4575f91614c6d575b5015614c455781614c16614c06614c1b9461455e565b6001600160a01b03811615614c8c565b61590e565b823b1561022357614b7b925f92836040518096819582946306d61fe760e41b8452600484016135fe565b7fe27c1dd8000000000000000000000000000000000000000000000000000000005f5260045ffd5b614c86915060203d6020116122a85761229a8183611e06565b5f614bf0565b15614c945750565b6001600160a01b03907fc689cd97000000000000000000000000000000000000000000000000000000005f521660045260245ffd5b91906001600160a01b03614cf16001600160a01b035f5160206161075f395f51905f52541690565b1680614d01575061027e92614d63565b90916040519263d68f602560e01b84525f8480614d233634336004850161233b565b038183875af19384156104f4575f94614d43575b50614b50929394614d63565b614b50939450614d5c903d805f833e6108e48183611e06565b9392614d37565b91614d6d83613edf565b60405163ecd0596160e01b81526004808201526001600160a01b0384169390602081602481885afa9081156104f4575f91614de3575b5015614c4557614c1b90614dde614dce6001600160a01b035f5160206161075f395f51905f52541690565b6001600160a01b03811615614e02565b61477f565b614dfc915060203d6020116122a85761229a8183611e06565b5f614da3565b15614e0a5750565b6001600160a01b03907f741cbe03000000000000000000000000000000000000000000000000000000005f521660045260245ffd5b91906001600160a01b03614e676001600160a01b035f5160206161075f395f51905f52541690565b1680614e77575061027e92614ed9565b90916040519263d68f602560e01b84525f8480614e993634336004850161233b565b038183875af19384156104f4575f94614eb9575b50614b50929394614ed9565b614b50939450614ed2903d805f833e6108e48183611e06565b9392614ead565b9091614ee482613f59565b60405163ecd0596160e01b8152600360048201526001600160a01b0383169290602081602481875afa9081156104f4575f91615058575b5015614c45576137d184610612614f8d6105278680614f6b614f5e614f5083614f4a612ded614ffc9e8c611d66565b99615077565b356001600160f81b03191690565b6001600160f81b03191690565b9a6001600160f81b03198c16158015615041575b614f8890615086565b611d74565b96614fbc6001600160e01b031984166306d61fe760e41b8114908115615030575b8115615027575b50156150b5565b614fd183614fcc61058b826159ef565b6150e4565b614feb614fdc611f86565b6001600160a01b039096168652565b6001600160f81b0319166020850152565b803b1561022357614b7b5f929183926040519485809481936306d61fe760e41b835260048301612361565b9050155f614fb5565b638a91b0e360e01b81149150614fae565b50607f60f91b6001600160f81b03198d1614614f7f565b615071915060203d6020116122a85761229a8183611e06565b5f614f1b565b90600410156141685760040190565b1561508d57565b7f867a1dcf000000000000000000000000000000000000000000000000000000005f5260045ffd5b156150bc57565b7fc001660b000000000000000000000000000000000000000000000000000000005f5260045ffd5b156150ec5750565b6001600160e01b0319907fa56a04dd000000000000000000000000000000000000000000000000000000005f521660045260245ffd5b906001600160a01b036151496001600160a01b035f5160206161075f395f51905f52541690565b1680615159575061027e916151bb565b906040519263d68f602560e01b84525f848061517a3634336004850161233b565b038183875af19384156104f4575f94615199575b5090614b50916151bb565b614b50929194506151b3903d805f833e6108e48183611e06565b93909161518e565b6151c481613e50565b60405163ecd0596160e01b8152600260048201526001600160a01b0382169190602081602481865afa9081156104f4575f9161520a575b5015614c4557614ffc90615a39565b615223915060203d6020116122a85761229a8183611e06565b5f6151fb565b91906001600160a01b036152516001600160a01b035f5160206161075f395f51905f52541690565b1680615261575061027e926152c3565b90916040519263d68f602560e01b84525f84806152833634336004850161233b565b038183875af19384156104f4575f946152a3575b50614b509293946152c3565b614b509394506152bc903d805f833e6108e48183611e06565b9392615297565b916152cd83613fd2565b60405163ecd0596160e01b8152600160048201526001600160a01b0384169390602081602481885afa9081156104f4575f9161536b575b5015614c45576001600160a01b037f000000000000000000000000000000000000000000000000000000000000000016841461534357614c1b90615b5d565b7fabc3af79000000000000000000000000000000000000000000000000000000005f5260045ffd5b615384915060203d6020116122a85761229a8183611e06565b5f615304565b918160141161022357823560601c92601401916013190190565b5f9192806040519485378338925af4913d82523d5f602084013e60203d830101604052565b5f919392806040519586378438925af4156153f3573d82523d5f602084013e60203d830101604052565b503d5f823e3d90fd5b909181359182810193601f199101016020840193803593828560051b8301119060401c1761546f578361542d575050565b835b5f190160208160051b8301013580830160608101908135809101918680602080860135809601011191111792171760401c1761546f578061542f57505050565b63ba597e7e5f526004601cfd5b91908110156141685760051b81013590605e1981360301821215610223570190565b9190916154aa836140fe565b925f5b8181106154b957505050565b806154c7600192848661547c565b8035906154d382610262565b6154f2602082013560408301936154ea8585612111565b929091615576565b6154fc858b61416d565b521561550b575b5050016154ad565b7fb5282692b8c578af7fb880895d599035496b5e64d1f14bf428a1ed3bc406f6629161553691612111565b9061554461292d858b61416d565b0390a15f80615503565b908060141161022357813560601c926034821061022357601483013592603401916033190190565b905f928491604051958692833738935af1913d82523d5f602084013e60203d830101604052565b90925f92819594604051968792833738935af1156153f3573d82523d5f602084013e60203d830101604052565b8380935f93604051958692833738935af1156107ba5701604052565b805191908290602001825e015f815290565b916001600160e01b0319604051911660208201526004815261561b602482611e06565b915f915b80831061562c5750505090565b90919261565e61567260019261566461564e61564989888a61547c565b615c7d565b60405194859360208501906155e6565b906155e6565b03601f198101835282611e06565b9301919061561f565b91908110156141685760051b81013590603e1981360301821215610223570190565b91905f5b8181106156af575050505050565b6156ba81838661567b565b90856156c583615c70565b6156ce81615c61565b615700576156fa906156e68460206001960190612111565b506040810135908760208201359135616012565b016156a1565b5090600161570d82615c70565b61571681615c61565b036157a757806020615729920190612111565b50905f8061574960408501358501604051918282602082943591016125bd565b039060208601355afa61575a6125ca565b901561577f578661577a9184608060019601359160608201359135616012565b6156fa565b7f6e47f619000000000000000000000000000000000000000000000000000000005f5260045ffd5b7fe2121978000000000000000000000000000000000000000000000000000000005f5260045ffd5b60405190602036830101604052816014360181525f602036920137604051601481016040523360601b9052565b7f00000000000000000000000000000000000000000000000000000000000000007f000000000000000000000000000000000000000000000000000000000000000030147f000000000000000000000000000000000000000000000000000000000000000046141615615887575b6719010000000000005f52601a52603a526042601820905f603a52565b5060a06040517f8b73c3c69bb8fe3d512ecc4cf759cc79239f7b179b0ffacaa9a75d522b39400f81527f000000000000000000000000000000000000000000000000000000000000000060208201527f000000000000000000000000000000000000000000000000000000000000000060408201524660608201523060808201522061586a565b6008810361597e57506001600160a01b0361027e91166001600160a01b03166001600160a01b03197f0bb70095b32b9671358306b0339b4c06e7cbd8cb82505941fba30d1eb5b82f065416177f0bb70095b32b9671358306b0339b4c06e7cbd8cb82505941fba30d1eb5b82f0655565b6009146159885750565b6001600160a01b0361027e91166001600160a01b03166001600160a01b03197f0bb70095b32b9671358306b0339b4c06e7cbd8cb82505941fba30d1eb5b82f055416177f0bb70095b32b9671358306b0339b4c06e7cbd8cb82505941fba30d1eb5b82f0555565b615a326001600160a01b03916001600160e01b0319165f527f0bb70095b32b9671358306b0339b4c06e7cbd8cb82505941fba30d1eb5b82f0260205260405f2090565b5416151590565b6001600160a01b03811680158015615b53575b613dbe575f9081525f5160206161275f395f51905f5260205260409020546001600160a01b0316615b1f5760015f525f5160206161275f395f51905f5260205261027e90615ae4615abc7fbdfeb076d903611fa58576955630d640569633049bcf40ad9c22db9251b54a13610d3b565b61396b835f5160206161275f395f51905f52906001600160a01b03165f5260205260405f2090565b60015f525f5160206161275f395f51905f526020527fbdfeb076d903611fa58576955630d640569633049bcf40ad9c22db9251b54a1361396b565b7f40d3d1a4000000000000000000000000000000000000000000000000000000005f526001600160a01b031660045260245ffd5b5060018114615a4c565b6001600160a01b03811680158015615c43575b613dbe575f9081525f5160206160e75f395f51905f5260205260409020546001600160a01b0316615b1f5760015f525f5160206160e75f395f51905f5260205261027e90615c08615be07ffe44ceacbf4f03c6ac19f86826dd265fa9ec25125e8b1766c207f24cd3bc73c7610d3b565b61396b835f5160206160e75f395f51905f52906001600160a01b03165f5260205260405f2090565b60015f525f5160206160e75f395f51905f526020527ffe44ceacbf4f03c6ac19f86826dd265fa9ec25125e8b1766c207f24cd3bc73c761396b565b5060018114615b70565b634e487b7160e01b5f52602160045260245ffd5b60021115615c6b57565b615c4d565b3560028110156102235790565b615c8681615c70565b615c8f81615c61565b615cd057610527816020611e3d930190615ccb615cac8383612111565b615cc6615cbc6040860186614434565b9390923691611fb1565b615eb6565b612111565b6001615cdb82615c70565b615ce481615c61565b03615d66575f80615cf86020840184612111565b5060405180615d12816020858101358601803591016125bd565b0391355afa90615d206125ca565b9115615d3e57615d37816040611e3d930190614434565b9083615eb6565b7f6533cc8d000000000000000000000000000000000000000000000000000000005f5260045ffd5b7f94857955000000000000000000000000000000000000000000000000000000005f5260045ffd5b9291905f91604051943892602083519301915af1156153f3573d82523d5f602084013e60203d830101604052565b6040813603126102235760405190615dd382611de5565b8035600481101561022357825260208101359067ffffffffffffffff821161022357615e0191369101611fe7565b602082015290565b60041115615c6b57565b9190826040910312610223576020825192015190565b15615e3057565b630a31844b60e41b5f52600360045260245ffd5b15615e4b57565b630a31844b60e41b5f52600260045260245ffd5b15615e6657565b630a31844b60e41b5f52600160045260245ffd5b15615e8157565b630a31844b60e41b5f525f60045260245ffd5b602081519101519060208110615ea8575090565b5f199060200360031b1b1690565b9180615ec157505050565b5f5b818110615ed05750505050565b615ee3615ede82848661567b565b615dbc565b9060208160051b86010151918051615efa81615e09565b615f0381615e09565b615f2657600192615f1a6020615f20930151615e94565b14615e7a565b01615ec3565b60018151615f3381615e09565b615f3c81615e09565b03615f6057600192615f546020615f5b930151615e94565b1115615e5f565b615f20565b60028151615f6d81615e09565b615f7681615e09565b03615f9557600192615f8e6020615f5b930151615e94565b1015615e44565b60038151615fa281615e09565b615fab81615e09565b03615fea57600192615fcd6020615f5b93015160208082518301019101615e13565b908210159182615fdf575b5050615e29565b111590505f80615fd8565b7f2c50c45e000000000000000000000000000000000000000000000000000000005f5260045ffd5b929193905f5b84811061602757505050505050565b60208160051b83010151906001600160a01b03871691604051602081019061605f81615664868b869091604092825260208201520190565b519020833b15610223576040517fa39e0787000000000000000000000000000000000000000000000000000000008152600481019190915260248101919091526001600160a01b0385166044820152915f908390606490829084905af19182156104f4576001926160d2575b5001616018565b806108c55f6160e093611e06565b5f6160cb56fe0bb70095b32b9671358306b0339b4c06e7cbd8cb82505941fba30d1eb5b82f000bb70095b32b9671358306b0339b4c06e7cbd8cb82505941fba30d1eb5b82f030bb70095b32b9671358306b0339b4c06e7cbd8cb82505941fba30d1eb5b82f01a2646970667358221220ad9c091c05427fda1f0ebc2cf9b2096f0697b105e5deb41a4c3adfa3138d0c0c64736f6c634300081b00330bb70095b32b9671358306b0339b4c06e7cbd8cb82505941fba30d1eb5b82f01",
  "linkReferences": {},
  "deployedLinkReferences": {}
}