{
  "_format": "hh-sol-artifact-1",
  "contractName": "BondModule",
  "sourceName": "contracts/modules/executors/BondModule.sol",
  "abi": [
    {
      "inputs": [
        {
          "internalType": "address",
          "name": "_bondModuleTeeServer",
          "type": "address"
        },
        {
          "internalType": "address",
          "name": "_owner",
          "type": "address"
        }
      ],
      "stateMutability": "nonpayable",
      "type": "constructor"
    },
    {
      "inputs": [],
      "name": "AgentModeNotActivated",
      "type": "error"
    },
    {
      "inputs": [],
      "name": "ArrayLengthMismatch",
      "type": "error"
    },
    {
      "inputs": [],
      "name": "AttestationAlreadyUsed",
      "type": "error"
    },
    {
      "inputs": [],
      "name": "ECDSAInvalidSignature",
      "type": "error"
    },
    {
      "inputs": [
        {
          "internalType": "uint256",
          "name": "length",
          "type": "uint256"
        }
      ],
      "name": "ECDSAInvalidSignatureLength",
      "type": "error"
    },
    {
      "inputs": [
        {
          "internalType": "bytes32",
          "name": "s",
          "type": "bytes32"
        }
      ],
      "name": "ECDSAInvalidSignatureS",
      "type": "error"
    },
    {
      "inputs": [],
      "name": "ExceededAllowedPercentage",
      "type": "error"
    },
    {
      "inputs": [],
      "name": "ExecutionFailed",
      "type": "error"
    },
    {
      "inputs": [],
      "name": "InsufficientAllowance",
      "type": "error"
    },
    {
      "inputs": [],
      "name": "InvalidAmount",
      "type": "error"
    },
    {
      "inputs": [],
      "name": "InvalidAttestation",
      "type": "error"
    },
    {
      "inputs": [],
      "name": "InvalidPercentage",
      "type": "error"
    },
    {
      "inputs": [
        {
          "internalType": "address",
          "name": "account",
          "type": "address"
        }
      ],
      "name": "ModuleAlreadyInitialized",
      "type": "error"
    },
    {
      "inputs": [
        {
          "internalType": "address",
          "name": "account",
          "type": "address"
        }
      ],
      "name": "ModuleNotInitialized",
      "type": "error"
    },
    {
      "inputs": [
        {
          "internalType": "address",
          "name": "tee",
          "type": "address"
        }
      ],
      "name": "NotAuthorized",
      "type": "error"
    },
    {
      "inputs": [
        {
          "internalType": "address",
          "name": "owner",
          "type": "address"
        }
      ],
      "name": "OwnableInvalidOwner",
      "type": "error"
    },
    {
      "inputs": [
        {
          "internalType": "address",
          "name": "account",
          "type": "address"
        }
      ],
      "name": "OwnableUnauthorizedAccount",
      "type": "error"
    },
    {
      "anonymous": false,
      "inputs": [
        {
          "indexed": true,
          "internalType": "address",
          "name": "account",
          "type": "address"
        },
        {
          "indexed": false,
          "internalType": "address[]",
          "name": "tokenAddresses",
          "type": "address[]"
        },
        {
          "indexed": false,
          "internalType": "uint256[]",
          "name": "totalAmounts",
          "type": "uint256[]"
        },
        {
          "indexed": false,
          "internalType": "uint256",
          "name": "nonce",
          "type": "uint256"
        },
        {
          "indexed": false,
          "internalType": "address",
          "name": "activatedBy",
          "type": "address"
        },
        {
          "indexed": false,
          "internalType": "uint256",
          "name": "timestamp",
          "type": "uint256"
        }
      ],
      "name": "AgentModeActivated",
      "type": "event"
    },
    {
      "anonymous": false,
      "inputs": [
        {
          "indexed": true,
          "internalType": "address",
          "name": "account",
          "type": "address"
        },
        {
          "indexed": false,
          "internalType": "uint256",
          "name": "timestamp",
          "type": "uint256"
        }
      ],
      "name": "AgentModeDisabled",
      "type": "event"
    },
    {
      "anonymous": false,
      "inputs": [
        {
          "indexed": true,
          "internalType": "address",
          "name": "account",
          "type": "address"
        },
        {
          "indexed": false,
          "internalType": "uint256",
          "name": "timestamp",
          "type": "uint256"
        }
      ],
      "name": "AgentModeEnabled",
      "type": "event"
    },
    {
      "anonymous": false,
      "inputs": [
        {
          "indexed": true,
          "internalType": "address",
          "name": "account",
          "type": "address"
        },
        {
          "indexed": true,
          "internalType": "address",
          "name": "token",
          "type": "address"
        },
        {
          "indexed": false,
          "internalType": "uint256",
          "name": "amount",
          "type": "uint256"
        },
        {
          "indexed": false,
          "internalType": "uint256",
          "name": "percentageBps",
          "type": "uint256"
        },
        {
          "indexed": false,
          "internalType": "uint256",
          "name": "balanceBefore",
          "type": "uint256"
        },
        {
          "indexed": false,
          "internalType": "uint256",
          "name": "balanceAfter",
          "type": "uint256"
        },
        {
          "indexed": false,
          "internalType": "uint256",
          "name": "nonce",
          "type": "uint256"
        },
        {
          "indexed": false,
          "internalType": "bytes32",
          "name": "attestationHash",
          "type": "bytes32"
        },
        {
          "indexed": false,
          "internalType": "uint256",
          "name": "timestamp",
          "type": "uint256"
        }
      ],
      "name": "FundsExecuted",
      "type": "event"
    },
    {
      "anonymous": false,
      "inputs": [
        {
          "indexed": true,
          "internalType": "address",
          "name": "account",
          "type": "address"
        },
        {
          "indexed": false,
          "internalType": "address[]",
          "name": "tokenAddresses",
          "type": "address[]"
        },
        {
          "indexed": false,
          "internalType": "uint256[]",
          "name": "allowances",
          "type": "uint256[]"
        },
        {
          "indexed": false,
          "internalType": "uint256",
          "name": "timestamp",
          "type": "uint256"
        }
      ],
      "name": "ModuleInitialized",
      "type": "event"
    },
    {
      "anonymous": false,
      "inputs": [
        {
          "indexed": true,
          "internalType": "address",
          "name": "account",
          "type": "address"
        },
        {
          "indexed": false,
          "internalType": "address[]",
          "name": "tokenAddresses",
          "type": "address[]"
        },
        {
          "indexed": false,
          "internalType": "uint256",
          "name": "timestamp",
          "type": "uint256"
        }
      ],
      "name": "ModuleUninitialized",
      "type": "event"
    },
    {
      "anonymous": false,
      "inputs": [
        {
          "indexed": true,
          "internalType": "address",
          "name": "previousOwner",
          "type": "address"
        },
        {
          "indexed": true,
          "internalType": "address",
          "name": "newOwner",
          "type": "address"
        }
      ],
      "name": "OwnershipTransferred",
      "type": "event"
    },
    {
      "anonymous": false,
      "inputs": [
        {
          "indexed": true,
          "internalType": "address",
          "name": "account",
          "type": "address"
        },
        {
          "indexed": false,
          "internalType": "address[]",
          "name": "tokenAddresses",
          "type": "address[]"
        },
        {
          "indexed": false,
          "internalType": "uint256[]",
          "name": "previousAllowances",
          "type": "uint256[]"
        },
        {
          "indexed": false,
          "internalType": "uint256",
          "name": "timestamp",
          "type": "uint256"
        }
      ],
      "name": "TokenAllowancesCleared",
      "type": "event"
    },
    {
      "inputs": [],
      "name": "MODULE_TYPE_EXECUTOR",
      "outputs": [
        {
          "internalType": "uint256",
          "name": "",
          "type": "uint256"
        }
      ],
      "stateMutability": "view",
      "type": "function"
    },
    {
      "inputs": [
        {
          "internalType": "address",
          "name": "nexusAccount",
          "type": "address"
        },
        {
          "internalType": "address[]",
          "name": "tokenAddresses",
          "type": "address[]"
        },
        {
          "internalType": "uint256[]",
          "name": "totalAmounts",
          "type": "uint256[]"
        },
        {
          "internalType": "uint256",
          "name": "nonce",
          "type": "uint256"
        },
        {
          "internalType": "bytes",
          "name": "bondModuleTeeSignature",
          "type": "bytes"
        }
      ],
      "name": "activateAgentMode",
      "outputs": [],
      "stateMutability": "nonpayable",
      "type": "function"
    },
    {
      "inputs": [
        {
          "internalType": "address",
          "name": "",
          "type": "address"
        }
      ],
      "name": "agentModeActivated",
      "outputs": [
        {
          "internalType": "bool",
          "name": "",
          "type": "bool"
        }
      ],
      "stateMutability": "view",
      "type": "function"
    },
    {
      "inputs": [],
      "name": "bondModuleTeeServer",
      "outputs": [
        {
          "internalType": "address",
          "name": "",
          "type": "address"
        }
      ],
      "stateMutability": "view",
      "type": "function"
    },
    {
      "inputs": [
        {
          "internalType": "address[]",
          "name": "tokenAddresses",
          "type": "address[]"
        }
      ],
      "name": "clearTokenAllowances",
      "outputs": [],
      "stateMutability": "nonpayable",
      "type": "function"
    },
    {
      "inputs": [],
      "name": "disableAgentMode",
      "outputs": [],
      "stateMutability": "nonpayable",
      "type": "function"
    },
    {
      "inputs": [],
      "name": "enableAgentMode",
      "outputs": [],
      "stateMutability": "nonpayable",
      "type": "function"
    },
    {
      "inputs": [
        {
          "internalType": "address",
          "name": "nexusAccount",
          "type": "address"
        },
        {
          "internalType": "bytes",
          "name": "executionBatch",
          "type": "bytes"
        },
        {
          "internalType": "address",
          "name": "token",
          "type": "address"
        },
        {
          "internalType": "uint256",
          "name": "allowedPercentageBps",
          "type": "uint256"
        },
        {
          "internalType": "uint256",
          "name": "nonce",
          "type": "uint256"
        },
        {
          "internalType": "bytes",
          "name": "bondModuleTeeSignature",
          "type": "bytes"
        }
      ],
      "name": "executeBatchWithAttestation",
      "outputs": [],
      "stateMutability": "nonpayable",
      "type": "function"
    },
    {
      "inputs": [],
      "name": "getConfigInputTypeData",
      "outputs": [
        {
          "internalType": "string",
          "name": "configInputTypeData",
          "type": "string"
        }
      ],
      "stateMutability": "pure",
      "type": "function"
    },
    {
      "inputs": [
        {
          "internalType": "address",
          "name": "account",
          "type": "address"
        },
        {
          "internalType": "address",
          "name": "token",
          "type": "address"
        }
      ],
      "name": "getTokenAllowance",
      "outputs": [
        {
          "internalType": "uint256",
          "name": "",
          "type": "uint256"
        }
      ],
      "stateMutability": "view",
      "type": "function"
    },
    {
      "inputs": [
        {
          "internalType": "address",
          "name": "",
          "type": "address"
        }
      ],
      "name": "initializedAccounts",
      "outputs": [
        {
          "internalType": "bool",
          "name": "",
          "type": "bool"
        }
      ],
      "stateMutability": "view",
      "type": "function"
    },
    {
      "inputs": [
        {
          "internalType": "address",
          "name": "account",
          "type": "address"
        }
      ],
      "name": "isAgentModeActivated",
      "outputs": [
        {
          "internalType": "bool",
          "name": "",
          "type": "bool"
        }
      ],
      "stateMutability": "view",
      "type": "function"
    },
    {
      "inputs": [
        {
          "internalType": "bytes32",
          "name": "attestationHash",
          "type": "bytes32"
        }
      ],
      "name": "isAttestationUsed",
      "outputs": [
        {
          "internalType": "bool",
          "name": "",
          "type": "bool"
        }
      ],
      "stateMutability": "view",
      "type": "function"
    },
    {
      "inputs": [
        {
          "internalType": "address",
          "name": "smartAccount",
          "type": "address"
        }
      ],
      "name": "isInitialized",
      "outputs": [
        {
          "internalType": "bool",
          "name": "",
          "type": "bool"
        }
      ],
      "stateMutability": "view",
      "type": "function"
    },
    {
      "inputs": [
        {
          "internalType": "uint256",
          "name": "moduleTypeId",
          "type": "uint256"
        }
      ],
      "name": "isModuleType",
      "outputs": [
        {
          "internalType": "bool",
          "name": "",
          "type": "bool"
        }
      ],
      "stateMutability": "pure",
      "type": "function"
    },
    {
      "inputs": [
        {
          "internalType": "bytes",
          "name": "data",
          "type": "bytes"
        }
      ],
      "name": "onInstall",
      "outputs": [],
      "stateMutability": "nonpayable",
      "type": "function"
    },
    {
      "inputs": [
        {
          "internalType": "bytes",
          "name": "data",
          "type": "bytes"
        }
      ],
      "name": "onUninstall",
      "outputs": [],
      "stateMutability": "nonpayable",
      "type": "function"
    },
    {
      "inputs": [],
      "name": "owner",
      "outputs": [
        {
          "internalType": "address",
          "name": "",
          "type": "address"
        }
      ],
      "stateMutability": "view",
      "type": "function"
    },
    {
      "inputs": [],
      "name": "renounceOwnership",
      "outputs": [],
      "stateMutability": "nonpayable",
      "type": "function"
    },
    {
      "inputs": [
        {
          "internalType": "address",
          "name": "",
          "type": "address"
        },
        {
          "internalType": "address",
          "name": "",
          "type": "address"
        }
      ],
      "name": "tokenAllowances",
      "outputs": [
        {
          "internalType": "uint256",
          "name": "",
          "type": "uint256"
        }
      ],
      "stateMutability": "view",
      "type": "function"
    },
    {
      "inputs": [
        {
          "internalType": "address",
          "name": "newOwner",
          "type": "address"
        }
      ],
      "name": "transferOwnership",
      "outputs": [],
      "stateMutability": "nonpayable",
      "type": "function"
    },
    {
      "inputs": [
        {
          "internalType": "bytes32",
          "name": "",
          "type": "bytes32"
        }
      ],
      "name": "usedAttestations",
      "outputs": [
        {
          "internalType": "bool",
          "name": "",
          "type": "bool"
        }
      ],
      "stateMutability": "view",
      "type": "function"
    }
  ],
  "bytecode": "0x60a0346100e457601f6118f938819003918201601f19168301916001600160401b038311848410176100e85780849260409485528339810103126100e457610046816100fc565b906001600160a01b039061005c906020016100fc565b169081156100d1575f80546001600160a01b031981168417825560405193916001600160a01b03909116907f8be0079c531659141344cd1fd0a4f28419497f9722a3daafe3b4186f6b6457e09080a36080526117e8908161011182396080518181816101da015281816104f4015261117d0152f35b631e4fbdf760e01b5f525f60045260245ffd5b5f80fd5b634e487b7160e01b5f52604160045260245ffd5b51906001600160a01b03821682036100e45756fe6080806040526004361015610012575f80fd5b5f3560e01c9081631c16aafc146112f7575080632f6c8ea9146112dc5780633594f7e414610e195780633be7aa24146110285780633e7e373214610fc15780634ad4108414610e485780634e627ae6146102ef5780635a55357214610e195780636d61fe7014610bac578063715018a614610b485780638a91b0e314610a1e5780638da5cb5b146109f9578063a4f4b0dd1461095d578063b1ae36d314610369578063b220aef21461032c578063d60b347f146102ef578063d68bda7c1461021e578063dd50bfd114610272578063ea7ee0101461021e578063ecd05961146101fe578063f1974ff9146101bb5763f2fde38b1461010e575f80fd5b346101b75760203660031901126101b7576001600160a01b0361012f611330565b6101376115f8565b16801561018b576001600160a01b035f548273ffffffffffffffffffffffffffffffffffffffff198216175f55167f8be0079c531659141344cd1fd0a4f28419497f9722a3daafe3b4186f6b6457e05f80a3005b7f1e4fbdf7000000000000000000000000000000000000000000000000000000005f525f60045260245ffd5b5f80fd5b346101b7575f3660031901126101b75760206040516001600160a01b037f0000000000000000000000000000000000000000000000000000000000000000168152f35b346101b75760203660031901126101b75760206040516002600435148152f35b346101b75760403660031901126101b757610237611330565b6001600160a01b03610247611346565b91165f5260036020526001600160a01b0360405f2091165f52602052602060405f2054604051908152f35b346101b7575f3660031901126101b757335f52600160205260ff60405f205416156102dc57335f52600460205260405f20600160ff198254161790556040514281527f080ebdd14509e68f40cb107f7ae3528c61e3ac12b215cd10ab4f275b03996f4960203392a2005b632ed28b2160e11b5f523360045260245ffd5b346101b75760203660031901126101b7576001600160a01b03610310611330565b165f526001602052602060ff60405f2054166040519015158152f35b346101b75760203660031901126101b7576001600160a01b0361034d611330565b165f526004602052602060ff60405f2054166040519015158152f35b346101b75760c03660031901126101b757610382611330565b60243567ffffffffffffffff81116101b7576103a2903690600401611439565b9190604435916001600160a01b038316938484036101b757606435916084359160a43567ffffffffffffffff81116101b7576103e29036906004016113f3565b916001600160a01b03811696875f52600160205260ff60405f2054161561094a57875f52600460205260ff60405f205416156109225785158015610917575b6108ef576040519060208201924684526bffffffffffffffffffffffff199060601b1660408301526bffffffffffffffffffffffff199060601b166054820152856068820152846088820152828760a883013761049160a8828581015f838201520301601f1981018352826113a1565b5190207f19457468657265756d205369676e6564204d6573736167653a0a3332000000005f52601c52603c5f2091825f52600260205260ff60405f2054166108c7576104e06104e99184611637565b90929192611671565b6001600160a01b03807f00000000000000000000000000000000000000000000000000000000000000001691160361089f57815f52600260205260405f20600160ff19825416179055604051946370a0823160e01b86528660048701526020866024818b5afa95861561073a575f9661086b575b505f90606460405160208101907f01000000000000000000000000000000000000000000000000000000000000008252846021820152846022820152846026820152601c81526105ae603c826113a1565b519051906020811061085a575b508460405195869485937fd691c964000000000000000000000000000000000000000000000000000000008552600485015260406024850152816044850152848401378181018301859052601f01601f19168101030181838a5af190811561073a575f9161076d575b50511561074557604051916370a0823160e01b83528560048401526020836024818a5afa92831561073a575f93610706575b50828503928584116106f2578486028681048614871517156106f257612710900484116106ca577fbfb1cf66cf3061ba98749cc04519adcf421fa5b476af184ac9d1705fed8eb1de9560e095604051958652602086015260408501526060840152608083015260a08201524260c0820152a3005b7f40a8b414000000000000000000000000000000000000000000000000000000005f5260045ffd5b634e487b7160e01b5f52601160045260245ffd5b9092506020813d602011610732575b81610722602093836113a1565b810103126101b757519187610656565b3d9150610715565b6040513d5f823e3d90fd5b7facfdb444000000000000000000000000000000000000000000000000000000005f5260045ffd5b90503d805f833e61077e81836113a1565b8101906020818303126101b75780519067ffffffffffffffff82116101b757019080601f830112156101b7578151916107b683611467565b926107c460405194856113a1565b80845260208085019160051b830101918383116101b75760208101915b8383106107f357505050505087610624565b825167ffffffffffffffff81116101b757820185603f820112156101b757602081015191610820836113d7565b61082d60405191826113a1565b83815260408385010188106101b7575f602085819660408397018386015e830101528152019201916107e1565b84199060200360031b1b168b6105bb565b9095506020813d602011610897575b81610887602093836113a1565b810103126101b75751945f61055d565b3d915061087a565b7fbd8ba84d000000000000000000000000000000000000000000000000000000005f5260045ffd5b7f17ee279c000000000000000000000000000000000000000000000000000000005f5260045ffd5b7f1f3b85d3000000000000000000000000000000000000000000000000000000005f5260045ffd5b506127108611610421565b7fb2fc88a9000000000000000000000000000000000000000000000000000000005f5260045ffd5b87632ed28b2160e11b5f5260045260245ffd5b346101b7575f3660031901126101b75760405161097b6060826113a1565b60368152604060208201917f7475706c6528616464726573735b5d20746f6b656e4164647265737365732c7583527f696e743235365b5d20746f74616c416d6f756e74732900000000000000000000828201528151928391602083525180918160208501528484015e5f828201840152601f01601f19168101030190f35b346101b7575f3660031901126101b75760206001600160a01b035f5416604051908152f35b346101b75760203660031901126101b75760043567ffffffffffffffff81116101b757610a4f903690600401611439565b8015610b2c5781016020828203126101b757813567ffffffffffffffff81116101b757610a7c920161159e565b5f5b8151811015610abd57600190335f52600360205260405f206001600160a01b0380610aa98487611557565b5116165f526020525f604081205501610a7e565b505b335f52600160205260405f2060ff198154169055335f52600460205260405f2060ff1981541690557f39dcb51185350b02808629040a3a79a6d9413abef919fd007a204cc8ee071ad7610b1d604051926040845260408401906115bc565b914260208201528033930390a2005b5050604051610b3c6020826113a1565b5f81525f368137610abf565b346101b7575f3660031901126101b757610b606115f8565b5f6001600160a01b03815473ffffffffffffffffffffffffffffffffffffffff1981168355167f8be0079c531659141344cd1fd0a4f28419497f9722a3daafe3b4186f6b6457e08280a3005b346101b75760203660031901126101b75760043567ffffffffffffffff81116101b757610bdd903690600401611439565b335f52600160205260ff60405f205416610ded5781016040828203126101b757813567ffffffffffffffff81116101b75781610c1a91840161159e565b9160208101359067ffffffffffffffff82116101b757019080601f830112156101b757816020610c4c933591016114d3565b90335f52600160205260405f20600160ff19825416179055604051606081527f37f8e70664b34d61c21ca3c87cbf62d4da74604df356b8f6b15047f26349f277610caa610c9c60608401856115bc565b83810360208501528561156b565b914260408201528033930390a28051825103610dc557805115610d22575f5b8151811015610d4a57610cdc8184611557565b5115610d225780610cef60019285611557565b51335f52600360205260405f206001600160a01b0380610d0f8588611557565b5116165f5260205260405f205501610cc9565b7f2c5211c6000000000000000000000000000000000000000000000000000000005f5260045ffd5b507fa5b1dada75404a3b3629e03d8cc14288d785999fc7f9b03643da11c1980c4d3c610daa83335f52600460205260405f20600160ff19825416179055610d9c6040519460a0865260a08601906115bc565b90848203602086015261156b565b915f60408201523360608201524260808201528033930390a2005b7fa24a13a6000000000000000000000000000000000000000000000000000000005f5260045ffd5b7f4d6b9dd3000000000000000000000000000000000000000000000000000000005f523360045260245ffd5b346101b75760203660031901126101b7576004355f526002602052602060ff60405f2054166040519015158152f35b346101b75760203660031901126101b75760043567ffffffffffffffff81116101b757610e79903690600401611370565b90335f52600160205260ff60405f205416156102dc57610e9882611467565b610ea560405191826113a1565b828152601f19610eb484611467565b013660208301375f5b838110610f4d575060405192806060850160608652526080840192905f5b818110610f2557857f744c3fc85f3a4040011886737c4cc7b46297a5b25d1e563f9444b7501b4e218d610f168787848203602086015261156b565b914260408201528033930390a2005b9091936020806001926001600160a01b03610f3f8961135c565b168152019501929101610edb565b600190335f52600360205260405f206001600160a01b03610f77610f7284898961151f565b611543565b165f5260205260405f2054610f8c8285611557565b52335f52600360205260405f206001600160a01b03610faf610f7284898961151f565b165f526020525f604081205501610ebd565b346101b7575f3660031901126101b757335f52600160205260ff60405f205416156102dc57335f52600460205260405f2060ff1981541690556040514281527f0bfc3f1654e00deb722f9dd926a5be23196b365b596be487595670a64d92c63260203392a2005b346101b75760a03660031901126101b757611041611330565b60243567ffffffffffffffff81116101b757611061903690600401611370565b919060443567ffffffffffffffff81116101b757611083903690600401611370565b93906064359260843567ffffffffffffffff81116101b7576110a99036906004016113f3565b9060405160208101904682526bffffffffffffffffffffffff198860601b16604082015260548101835f5b8881106112b65750507f07ffffffffffffffffffffffffffffffffffffffffffffffffffffffffffffff8a116101b757602082611123928c60051b90818a8237018a81520380845201826113a1565b5190207f19457468657265756d205369676e6564204d6573736167653a0a3332000000005f52601c52603c5f2091825f52600260205260ff60405f2054166108c7576104e06111729184611637565b6001600160a01b03807f00000000000000000000000000000000000000000000000000000000000000001691160361089f576111d1936111c9925f52600260205260405f20600160ff19825416179055369161147f565b9436916114d3565b928051845103610dc557805115610d225790916001600160a01b0316905f5b8151811015611249576112038186611557565b5115610d22578061121660019287611557565b51845f52600360205260405f206001600160a01b03806112368588611557565b5116165f5260205260405f2055016111f0565b507fa5b1dada75404a3b3629e03d8cc14288d785999fc7f9b03643da11c1980c4d3c9261129f610d9c9395865f52600460205260405f20600160ff1982541617905560405194859460a0865260a08601906115bc565b9060408301523360608301524260808301520390a2005b90916020806001926001600160a01b036112cf8761135c565b16815201930191016110d4565b346101b7575f3660031901126101b757602060405160028152f35b346101b75760203660031901126101b7576020906001600160a01b0361131b611330565b165f526004825260ff60405f20541615158152f35b600435906001600160a01b03821682036101b757565b602435906001600160a01b03821682036101b757565b35906001600160a01b03821682036101b757565b9181601f840112156101b75782359167ffffffffffffffff83116101b7576020808501948460051b0101116101b757565b90601f8019910116810190811067ffffffffffffffff8211176113c357604052565b634e487b7160e01b5f52604160045260245ffd5b67ffffffffffffffff81116113c357601f01601f191660200190565b81601f820112156101b75780359061140a826113d7565b9261141860405194856113a1565b828452602083830101116101b757815f926020809301838601378301015290565b9181601f840112156101b75782359167ffffffffffffffff83116101b757602083818601950101116101b757565b67ffffffffffffffff81116113c35760051b60200190565b92919061148b81611467565b9361149960405195866113a1565b602085838152019160051b81019283116101b757905b8282106114bb57505050565b602080916114c88461135c565b8152019101906114af565b9291906114df81611467565b936114ed60405195866113a1565b602085838152019160051b81019283116101b757905b82821061150f57505050565b8135815260209182019101611503565b919081101561152f5760051b0190565b634e487b7160e01b5f52603260045260245ffd5b356001600160a01b03811681036101b75790565b805182101561152f5760209160051b010190565b90602080835192838152019201905f5b8181106115885750505090565b825184526020938401939092019160010161157b565b9080601f830112156101b7578160206115b99335910161147f565b90565b90602080835192838152019201905f5b8181106115d95750505090565b82516001600160a01b03168452602093840193909201916001016115cc565b6001600160a01b035f5416330361160b57565b7f118cdaa7000000000000000000000000000000000000000000000000000000005f523360045260245ffd5b8151919060418303611667576116609250602082015190606060408401519301515f1a90611730565b9192909190565b50505f9160029190565b600481101561171c5780611683575050565b600181036116b3577ff645eedf000000000000000000000000000000000000000000000000000000005f5260045ffd5b600281036116e757507ffce698f7000000000000000000000000000000000000000000000000000000005f5260045260245ffd5b6003146116f15750565b7fd78bce0c000000000000000000000000000000000000000000000000000000005f5260045260245ffd5b634e487b7160e01b5f52602160045260245ffd5b91907f7fffffffffffffffffffffffffffffff5d576e7357a4501ddfe92f46681b20a084116117a7579160209360809260ff5f9560405194855216868401526040830152606082015282805260015afa1561073a575f516001600160a01b0381161561179d57905f905f90565b505f906001905f90565b5050505f916003919056fea26469706673582212200172e30b3ddf513780d5e33eb99538660f702b23c0a49ef843eb276283cdfd9c64736f6c634300081b0033",
  "linkReferences": {},
  "deployedLinkReferences": {}
}