{
  "_format": "hh-sol-artifact-1",
  "contractName": "K1Validator",
  "sourceName": "contracts/modules/validators/K1Validator.sol",
  "abi": [
    {
      "inputs": [],
      "name": "InvalidDataLength",
      "type": "error"
    },
    {
      "inputs": [],
      "name": "InvalidSafeSendersLength",
      "type": "error"
    },
    {
      "inputs": [],
      "name": "InvalidSignature",
      "type": "error"
    },
    {
      "inputs": [],
      "name": "ModuleAlreadyInitialized",
      "type": "error"
    },
    {
      "inputs": [],
      "name": "NoOwnerProvided",
      "type": "error"
    },
    {
      "inputs": [],
      "name": "OwnerCannotBeZeroAddress",
      "type": "error"
    },
    {
      "inputs": [],
      "name": "ZeroAddressNotAllowed",
      "type": "error"
    },
    {
      "anonymous": false,
      "inputs": [
        {
          "indexed": true,
          "internalType": "address",
          "name": "smartAccount",
          "type": "address"
        },
        {
          "indexed": true,
          "internalType": "address",
          "name": "owner",
          "type": "address"
        }
      ],
      "name": "OwnerSet",
      "type": "event"
    },
    {
      "inputs": [
        {
          "internalType": "address",
          "name": "sender",
          "type": "address"
        }
      ],
      "name": "addSafeSender",
      "outputs": [],
      "stateMutability": "nonpayable",
      "type": "function"
    },
    {
      "inputs": [
        {
          "internalType": "address",
          "name": "smartAccount",
          "type": "address"
        }
      ],
      "name": "getOwner",
      "outputs": [
        {
          "internalType": "address",
          "name": "",
          "type": "address"
        }
      ],
      "stateMutability": "view",
      "type": "function"
    },
    {
      "inputs": [
        {
          "internalType": "address",
          "name": "smartAccount",
          "type": "address"
        }
      ],
      "name": "isInitialized",
      "outputs": [
        {
          "internalType": "bool",
          "name": "",
          "type": "bool"
        }
      ],
      "stateMutability": "view",
      "type": "function"
    },
    {
      "inputs": [
        {
          "internalType": "uint256",
          "name": "typeId",
          "type": "uint256"
        }
      ],
      "name": "isModuleType",
      "outputs": [
        {
          "internalType": "bool",
          "name": "",
          "type": "bool"
        }
      ],
      "stateMutability": "pure",
      "type": "function"
    },
    {
      "inputs": [
        {
          "internalType": "address",
          "name": "sender",
          "type": "address"
        },
        {
          "internalType": "address",
          "name": "smartAccount",
          "type": "address"
        }
      ],
      "name": "isSafeSender",
      "outputs": [
        {
          "internalType": "bool",
          "name": "",
          "type": "bool"
        }
      ],
      "stateMutability": "view",
      "type": "function"
    },
    {
      "inputs": [
        {
          "internalType": "address",
          "name": "sender",
          "type": "address"
        },
        {
          "internalType": "bytes32",
          "name": "hash",
          "type": "bytes32"
        },
        {
          "internalType": "bytes",
          "name": "signature",
          "type": "bytes"
        }
      ],
      "name": "isValidSignatureWithSender",
      "outputs": [
        {
          "internalType": "bytes4",
          "name": "",
          "type": "bytes4"
        }
      ],
      "stateMutability": "view",
      "type": "function"
    },
    {
      "inputs": [],
      "name": "name",
      "outputs": [
        {
          "internalType": "string",
          "name": "",
          "type": "string"
        }
      ],
      "stateMutability": "pure",
      "type": "function"
    },
    {
      "inputs": [
        {
          "internalType": "bytes",
          "name": "data",
          "type": "bytes"
        }
      ],
      "name": "onInstall",
      "outputs": [],
      "stateMutability": "nonpayable",
      "type": "function"
    },
    {
      "inputs": [
        {
          "internalType": "bytes",
          "name": "",
          "type": "bytes"
        }
      ],
      "name": "onUninstall",
      "outputs": [],
      "stateMutability": "nonpayable",
      "type": "function"
    },
    {
      "inputs": [
        {
          "internalType": "address",
          "name": "sender",
          "type": "address"
        }
      ],
      "name": "removeSafeSender",
      "outputs": [],
      "stateMutability": "nonpayable",
      "type": "function"
    },
    {
      "inputs": [],
      "name": "supportsNestedTypedDataSign",
      "outputs": [
        {
          "internalType": "bytes32",
          "name": "result",
          "type": "bytes32"
        }
      ],
      "stateMutability": "view",
      "type": "function"
    },
    {
      "inputs": [
        {
          "internalType": "address",
          "name": "newOwner",
          "type": "address"
        }
      ],
      "name": "transferOwnership",
      "outputs": [],
      "stateMutability": "nonpayable",
      "type": "function"
    },
    {
      "inputs": [
        {
          "internalType": "bytes32",
          "name": "hash",
          "type": "bytes32"
        },
        {
          "internalType": "bytes",
          "name": "sig",
          "type": "bytes"
        },
        {
          "internalType": "bytes",
          "name": "data",
          "type": "bytes"
        }
      ],
      "name": "validateSignatureWithData",
      "outputs": [
        {
          "internalType": "bool",
          "name": "validSig",
          "type": "bool"
        }
      ],
      "stateMutability": "view",
      "type": "function"
    },
    {
      "inputs": [
        {
          "components": [
            {
              "internalType": "address",
              "name": "sender",
              "type": "address"
            },
            {
              "internalType": "uint256",
              "name": "nonce",
              "type": "uint256"
            },
            {
              "internalType": "bytes",
              "name": "initCode",
              "type": "bytes"
            },
            {
              "internalType": "bytes",
              "name": "callData",
              "type": "bytes"
            },
            {
              "internalType": "bytes32",
              "name": "accountGasLimits",
              "type": "bytes32"
            },
            {
              "internalType": "uint256",
              "name": "preVerificationGas",
              "type": "uint256"
            },
            {
              "internalType": "bytes32",
              "name": "gasFees",
              "type": "bytes32"
            },
            {
              "internalType": "bytes",
              "name": "paymasterAndData",
              "type": "bytes"
            },
            {
              "internalType": "bytes",
              "name": "signature",
              "type": "bytes"
            }
          ],
          "internalType": "struct PackedUserOperation",
          "name": "userOp",
          "type": "tuple"
        },
        {
          "internalType": "bytes32",
          "name": "userOpHash",
          "type": "bytes32"
        }
      ],
      "name": "validateUserOp",
      "outputs": [
        {
          "internalType": "uint256",
          "name": "",
          "type": "uint256"
        }
      ],
      "stateMutability": "view",
      "type": "function"
    },
    {
      "inputs": [],
      "name": "version",
      "outputs": [
        {
          "internalType": "string",
          "name": "",
          "type": "string"
        }
      ],
      "stateMutability": "pure",
      "type": "function"
    }
  ],
  "bytecode": "0x6080806040523460155761157d908161001a8239f35b5f80fdfe60806040526004361015610011575f80fd5b5f3560e01c806306fdde03146101045780630807dbc1146100ff57806354fd4d50146100fa5780635c81ca68146100f55780636d61fe70146100f05780638a91b0e3146100eb578063940d3840146100e657806397003203146100e1578063d60b347f146100dc578063d620c85a146100d7578063e824b568146100d2578063ecd05961146100cd578063f2fde38b146100c8578063f551e2ee146100c35763fa544161146100be575f80fd5b61087d565b6107ca565b610716565b6106f6565b6106c7565b61068d565b61063f565b61058e565b6104dd565b610434565b6102eb565b61025d565b610206565b6101a3565b610133565b602060409281835280519182918282860152018484015e5f828201840152601f01601f1916010190565b3461018e575f36600319011261018e5761018a6040516101546040826108c4565b600b81527f4b3156616c696461746f72000000000000000000000000000000000000000000602082015260405191829182610109565b0390f35b5f80fd5b6001600160a01b0381160361018e57565b3461018e57604036600319011261018e5760206101fb6004356101c581610192565b6001600160a01b03602435916101da83610192565b165f526002835260405f20906001600160a01b03165f5260205260405f2090565b541515604051908152f35b3461018e575f36600319011261018e5761018a6040516102276040826108c4565b600581527f312e322e30000000000000000000000000000000000000000000000000000000602082015260405191829182610109565b3461018e57602036600319011261018e5761028c6001600160a01b0360043561028581610192565b1633610c89565b005b9181601f8401121561018e5782359167ffffffffffffffff831161018e576020838186019501011161018e57565b602060031982011261018e576004359067ffffffffffffffff821161018e576102e79160040161028e565b9091565b3461018e576102f9366102bc565b90811561040c57610326336001600160a01b03165f525f6020526001600160a01b0360405f205416151590565b6103e4578160141161018e57610346610340601483610920565b60601c90565b6103a16001600160a01b0382169161035f831515610960565b610379336001600160a01b03165f525f60205260405f2090565b906001600160a01b031673ffffffffffffffffffffffffffffffffffffffff19825416179055565b337f342827c97908e5e2f71151c08502a66d44b6f758e3ac2f1de95f02eb95f0a7355f80a3601482116103d057005b8161028c926103de926108eb565b906109fb565b7fe72ce85e000000000000000000000000000000000000000000000000000000005f5260045ffd5b7f1f2a381c000000000000000000000000000000000000000000000000000000005f5260045ffd5b3461018e57610442366102bc565b5050335f525f60205260405f2073ffffffffffffffffffffffffffffffffffffffff198154169055335f52600160205260405f205460015b818111156104aa575f337f342827c97908e5e2f71151c08502a66d44b6f758e3ac2f1de95f02eb95f0a7358280a3005b8082038281116104d8576104c16104c79133611492565b33610d70565b505f1981146104d85760010161047a565b6109d6565b3461018e57606036600319011261018e5760043560243567ffffffffffffffff811161018e5761051190369060040161028e565b60443567ffffffffffffffff811161018e5761053190369060040161028e565b601481949294036105665760141161018e5761018a93610554933560601c610a8a565b60405190151581529081906020820190565b7fdfe93090000000000000000000000000000000000000000000000000000000005f5260045ffd5b3461018e57604036600319011261018e5760043567ffffffffffffffff811161018e5780360361012060031982011261018e57602435906105db83600401356105d681610192565b61098f565b92610104810135916022190182121561018e57019060048201359167ffffffffffffffff831161018e5760240190823603821361018e5761061b93610a8a565b156106355761018a5f5b6040519081529081906020820190565b61018a6001610625565b3461018e57602036600319011261018e57602061068360043561066181610192565b6001600160a01b03165f525f6020526001600160a01b0360405f205416151590565b6040519015158152f35b3461018e575f36600319011261018e5760206040517fd620c85a000000000000000000000000000000000000000000000000000000008152f35b3461018e57602036600319011261018e5761028c6001600160a01b036004356106ef81610192565b1633610d70565b3461018e57602036600319011261018e5760206040516001600435148152f35b3461018e57602036600319011261018e5760043561073381610192565b6001600160a01b0381169081156107a25761077b90335f525f60205260405f20906001600160a01b031673ffffffffffffffffffffffffffffffffffffffff19825416179055565b337f342827c97908e5e2f71151c08502a66d44b6f758e3ac2f1de95f02eb95f0a7355f80a3005b7f8579befe000000000000000000000000000000000000000000000000000000005f5260045ffd5b3461018e57606036600319011261018e576004356107e781610192565b60443560243567ffffffffffffffff821161018e5761018a9261081161083593369060040161028e565b92909182808501601f19013561649261ffff30801c19040214610868575b50610afb565b6040517fffffffff0000000000000000000000000000000000000000000000000000000090911681529081906020820190565b6040810135018035945060200192505f61082f565b3461018e57602036600319011261018e57602061089f6004356105d681610192565b6001600160a01b0360405191168152f35b634e487b7160e01b5f52604160045260245ffd5b90601f8019910116810190811067ffffffffffffffff8211176108e657604052565b6108b0565b909291928360141161018e57831161018e57601401916013190190565b9093929384831161018e57841161018e578101920390565b356bffffffffffffffffffffffff19811692919060148210610940575050565b6bffffffffffffffffffffffff1960149290920360031b82901b16169150565b1561096757565b7fc81abf60000000000000000000000000000000000000000000000000000000005f5260045ffd5b6001600160a01b0381165f525f6020526001600160a01b0360405f20541680155f146109b9575090565b905090565b6001600160a01b036109d39216906001610d10565b90565b634e487b7160e01b5f52601160045260245ffd5b90816014029160148304036104d857565b60148206610a62575f5b601483048110610a1457505050565b80601402906014820481036104d85760018101918282116104d857610a55610340610a4f610a5b93610a476001976109ea565b908989610908565b90610920565b336109be565b5001610a05565b7f7c148cd9000000000000000000000000000000000000000000000000000000005f5260045ffd5b926001600160a01b039384610aa0838686611341565b911694168414610af2576001600160a01b0392610ae3926020527b19457468657265756d205369676e6564204d6573736167653a0a33325f52603c600420611341565b1614610aed575f90565b600190565b50505050600190565b9291908215610c24575b7f7fffffffffffffffffffffffffffffff5d576e7357a4501ddfe92f46681b20a0602083013511610bfc576001600160a01b035f94166dd9ecebf3c23529de49815dac1c4c8114908115610bf2575b8115610bc2575b50610ba6575b8315610b93575b8315610b81575b505050155f03631626ba7e1760e01b90565b610b8b935061129d565b5f8080610b6f565b9250610ba0828285610fbc565b92610b68565b9250610bbc828285610bb73361098f565b610a8a565b92610b61565b90505f526002602052610be93360405f20906001600160a01b03165f5260205260405f2090565b5415155f610b5b565b3381149150610b54565b7f8baa579f000000000000000000000000000000000000000000000000000000005f5260045ffd5b61773961ffff841904028103610b0557505050507f773900010000000000000000000000000000000000000000000000000000000090565b600190610c83935f520160205260405f20906001600160a01b03165f5260205260405f2090565b54151590565b815f5260018001602052610cb18160405f20906001600160a01b03165f5260205260405f2090565b54610d0a5780610d04915f52600160205260405f20600181540190848260051b82015555805f52600160205260405f2054925f52600260205260405f20906001600160a01b03165f5260205260405f2090565b55600190565b50505f90565b90610d1c838284610c5c565b610d69575f81815260208390526040902080546001908101600581901b830186905591829055610d04939091945f520160205260405f20906001600160a01b03165f5260205260405f2090565b5050505f90565b90805f526002602052610d978260405f20906001600160a01b03165f5260205260405f2090565b54918215610d69575f198301918383116104d8575f828152600160205260409020545f198101919082116104d8575f94848484610df695610d049803610e0c575b509050610de7915060016114ff565b6002905f5260205260405f2090565b906001600160a01b03165f5260205260405f2090565b610e2c92610de7610e22610df6938560016114c2565b80928560016114e1565b555f808481610dd8565b81601f8201121561018e5780519067ffffffffffffffff82116108e65760405192610e6b601f8401601f1916602001856108c4565b8284526020838301011161018e57815f9260208093018386015e8301015290565b5190610e9782610192565b565b9080601f8301121561018e5781519167ffffffffffffffff83116108e6578260051b9060405193610ecd60208401866108c4565b845260208085019282010192831161018e57602001905b828210610ef15750505090565b8151815260209182019101610ee4565b9060e08282031261018e5781517fff000000000000000000000000000000000000000000000000000000000000008116810361018e5792602083015167ffffffffffffffff811161018e5782610f58918501610e36565b92604081015167ffffffffffffffff811161018e5783610f79918301610e36565b92606082015192610f8c60808401610e8c565b9260a08101519260c082015167ffffffffffffffff811161018e576109d39201610e99565b6040513d5f823e3d90fd5b90923093306111f0575b60405190600119858201013560f01c94600e830196869187810384016041198101976119015f5260408960203789158a604201841017816042601e2018176111b057507f5479706564446174615369676e2800000000000000000000000000000000000086526001198101999889818c82378188016028600e8201526029600d8201515f1a0361115a575b506f07fffffe000000000000010000000000919250999899515f1a1c5b88515f1a6028811461108f5790651201000000016001921c1798019761106e565b509294969990869860406109d39b83605c96989a957f20636f6e74656e74732c737472696e67206e616d652c737472696e670000000085527f2076657273696f6e2c75696e7432353620636861696e49642c61646472657373601c8601527f20766572696679696e67436f6e74726163742c627974657333322073616c7429603c8601528785013788370103018620835260e08320604052600116604201601e2092604119910301935b6040521561114b575b610bb73361098f565b61115590336113cf565b611142565b60015f5b016029600d82840301515f1a14848210111561117c5760019061115e565b6028915080806040600e936f07fffffe000000000000010000000000970397886041199101010185378a0101538291611051565b9496995050955050506109d394505f907f983e65e5148e570cd828ead231ee759a8d7958721a768f93bc4483ba005c32de5f5260205260405f2091611139565b6040516342580cb760e11b815294505f85600481335afa8015611298575f955f5f905f925f9461125f575b50906001600160a01b039291604051996020815191012060408b01526020815191012060608a015260808901521660a087015260c086015260e08501604052610fc6565b925050506001600160a01b03965061128991503d805f833e61128181836108c4565b810190610f01565b5093999394509290919061121b565b610fb1565b9092915f933a156112ad57505050565b90919293503a3a5260203a3a386d378edcd5b5b0a24f5342d8c1048561fffffa503a51156112e3575b6109d392610bb73361098f565b60405192631626ba7e3a526d378edcd5b5b0a24f5342d8c1048560205260408052454561ffff011793845a106d378edcd5b5b0a24f5342d8c1048583141761133f576109d3943a906064601c3a923090fa5060405292506112d6565bfe5b604080515f9594909391811461138c5760411461135d57505050565b604080929395508101355f1a60205281375b5f526020604060805f60015afa505f6060523d6060185191604052565b507f7fffffffffffffffffffffffffffffffffffffffffffffffffffffffffffffff91929450602081013590601b8260ff1c01602052356040521660605261136f565b5f6001600160a01b03916004604051809481936342580cb760e11b8352165afa9081156112985760a0915f915f5f915f9361146d575b50604051937f8b73c3c69bb8fe3d512ecc4cf759cc79239f7b179b0ffacaa9a75d522b39400f855260208151910120602085015260208151910120604084015260608301526080820152206719010000000000005f52601a52603a526042601820905f603a52565b9250505061148591503d805f833e61128181836108c4565b509394509250905f611405565b5f52600160205260405f209081548110156114b25760010160051b015490565b638277484f5f526020526024601cfd5b905f5260205260405f209081548110156114b25760010160051b015490565b905f5260205260405f209081548110156114b25760010160051b0155565b905f5260205260405f208054908115611543575f198201918083116104d8578154831015611532575f9060051b82015555565b82638277484f5f526020526024601cfd5b505056fea2646970667358221220ee3d6a2f2c4846c6ea5b6e09742b798f978faa0ba78c944f73ed00ae9cf85a2164736f6c634300081b0033",
  "linkReferences": {},
  "deployedLinkReferences": {}
}