{
  "_format": "hh-sol-artifact-1",
  "contractName": "MockHandler",
  "sourceName": "contracts/mocks/MockHandler.sol",
  "abi": [
    {
      "inputs": [
        {
          "internalType": "bytes4",
          "name": "selector",
          "type": "bytes4"
        }
      ],
      "name": "NonExistingMethodCalled",
      "type": "error"
    },
    {
      "anonymous": false,
      "inputs": [
        {
          "indexed": false,
          "internalType": "address",
          "name": "sender",
          "type": "address"
        },
        {
          "indexed": false,
          "internalType": "uint256",
          "name": "value",
          "type": "uint256"
        },
        {
          "indexed": false,
          "internalType": "bytes",
          "name": "data",
          "type": "bytes"
        }
      ],
      "name": "GenericFallbackCalled",
      "type": "event"
    },
    {
      "anonymous": false,
      "inputs": [
        {
          "indexed": false,
          "internalType": "bytes32",
          "name": "dataFirstWord",
          "type": "bytes32"
        }
      ],
      "name": "HandlerOnInstallCalled",
      "type": "event"
    },
    {
      "stateMutability": "nonpayable",
      "type": "fallback"
    },
    {
      "inputs": [
        {
          "internalType": "string",
          "name": "input",
          "type": "string"
        },
        {
          "internalType": "bytes4",
          "name": "selector",
          "type": "bytes4"
        }
      ],
      "name": "complexReturnData",
      "outputs": [
        {
          "internalType": "uint256",
          "name": "",
          "type": "uint256"
        },
        {
          "internalType": "bytes",
          "name": "",
          "type": "bytes"
        },
        {
          "internalType": "address",
          "name": "",
          "type": "address"
        },
        {
          "internalType": "uint64",
          "name": "",
          "type": "uint64"
        },
        {
          "internalType": "address",
          "name": "",
          "type": "address"
        }
      ],
      "stateMutability": "view",
      "type": "function"
    },
    {
      "inputs": [],
      "name": "count",
      "outputs": [
        {
          "internalType": "uint256",
          "name": "",
          "type": "uint256"
        }
      ],
      "stateMutability": "view",
      "type": "function"
    },
    {
      "inputs": [],
      "name": "getName",
      "outputs": [
        {
          "internalType": "string",
          "name": "",
          "type": "string"
        }
      ],
      "stateMutability": "pure",
      "type": "function"
    },
    {
      "inputs": [],
      "name": "getState",
      "outputs": [
        {
          "internalType": "uint256",
          "name": "",
          "type": "uint256"
        }
      ],
      "stateMutability": "view",
      "type": "function"
    },
    {
      "inputs": [],
      "name": "getVersion",
      "outputs": [
        {
          "internalType": "string",
          "name": "",
          "type": "string"
        }
      ],
      "stateMutability": "pure",
      "type": "function"
    },
    {
      "inputs": [
        {
          "internalType": "address",
          "name": "",
          "type": "address"
        }
      ],
      "name": "isInitialized",
      "outputs": [
        {
          "internalType": "bool",
          "name": "",
          "type": "bool"
        }
      ],
      "stateMutability": "pure",
      "type": "function"
    },
    {
      "inputs": [
        {
          "internalType": "uint256",
          "name": "moduleTypeId",
          "type": "uint256"
        }
      ],
      "name": "isModuleType",
      "outputs": [
        {
          "internalType": "bool",
          "name": "",
          "type": "bool"
        }
      ],
      "stateMutability": "pure",
      "type": "function"
    },
    {
      "inputs": [
        {
          "internalType": "address",
          "name": "sender",
          "type": "address"
        },
        {
          "internalType": "uint256",
          "name": "value",
          "type": "uint256"
        },
        {
          "internalType": "bytes",
          "name": "data",
          "type": "bytes"
        }
      ],
      "name": "onGenericFallback",
      "outputs": [
        {
          "internalType": "bytes4",
          "name": "",
          "type": "bytes4"
        }
      ],
      "stateMutability": "nonpayable",
      "type": "function"
    },
    {
      "inputs": [
        {
          "internalType": "bytes",
          "name": "data",
          "type": "bytes"
        }
      ],
      "name": "onInstall",
      "outputs": [],
      "stateMutability": "nonpayable",
      "type": "function"
    },
    {
      "inputs": [
        {
          "internalType": "bytes",
          "name": "data",
          "type": "bytes"
        }
      ],
      "name": "onUninstall",
      "outputs": [],
      "stateMutability": "nonpayable",
      "type": "function"
    },
    {
      "inputs": [],
      "name": "returnBytes",
      "outputs": [
        {
          "internalType": "bytes",
          "name": "",
          "type": "bytes"
        }
      ],
      "stateMutability": "view",
      "type": "function"
    },
    {
      "inputs": [],
      "name": "revertingFunction",
      "outputs": [],
      "stateMutability": "pure",
      "type": "function"
    },
    {
      "inputs": [],
      "name": "stateChangingFunction",
      "outputs": [],
      "stateMutability": "nonpayable",
      "type": "function"
    },
    {
      "inputs": [],
      "name": "successFunction",
      "outputs": [
        {
          "internalType": "bytes32",
          "name": "",
          "type": "bytes32"
        }
      ],
      "stateMutability": "pure",
      "type": "function"
    }
  ],
  "bytecode": "0x6080806040523460155761073b908161001a8239f35b5f80fdfe6080806040526004361015610068575b5034610064577f62390046000000000000000000000000000000000000000000000000000000005f527fffffffff000000000000000000000000000000000000000000000000000000005f351660045260245ffd5b5f80fd5b5f3560e01c90816306661abd146105df575080630d8e6e2c146105c457806317d7de7c146105a95780631865c57d1461058d578063671bd39d146105535780636d61fe70146104e25780638588f7bc146103735780638a91b0e314610340578063c214267a1461030b578063c84f59b41461029d578063cb5baf0f146101c8578063cde9ed7914610152578063d60b347f1461012e5763ecd059611461010e575f61000f565b346100645760203660031901126100645760206040516003600435148152f35b346100645760203660031901126100645761014761066c565b5060206040515f8152f35b34610064575f366003190112610064576101c460206101b06101726106ca565b828061017c61068f565b6040519584879551918291018487015e8401908282015f8152815193849201905e01015f815203601f19810183528261064a565b6040519182916020835260208301906105f8565b0390f35b34610064576060366003190112610064576101e161066c565b6044359067ffffffffffffffff821161006457608073ffffffffffffffffffffffffffffffffffffffff9161023b7f55ab15748247cb8144eef0ae68299026fbac7516b53ac596f1c767b9e61c0d3594369060040161061c565b8091604051958694168452602435602085015260606040850152816060850152848401375f828201840152601f01601f19168101030190a160206040517fcb5baf0f000000000000000000000000000000000000000000000000000000008152f35b34610064575f3660031901126100645760646040517f08c379a000000000000000000000000000000000000000000000000000000000815260206004820152600660248201527f52455645525400000000000000000000000000000000000000000000000000006044820152fd5b34610064575f366003190112610064575f545f19811461032c576001015f55005b634e487b7160e01b5f52601160045260245ffd5b346100645760203660031901126100645760043567ffffffffffffffff81116100645761037190369060040161061c565b005b346100645760403660031901126100645760043567ffffffffffffffff8111610064573660238201121561006457806004013567ffffffffffffffff81116104ce57604051916103cd601f8301601f19166020018461064a565b818352366024838301011161006457815f926024602093018386013783010152602435907fffffffff0000000000000000000000000000000000000000000000000000000082168092036100645761048c610454916104a6936104786104316106ca565b61046661043c61068f565b916040519788966080602089015260a08801906105f8565b868103601f19016040880152906105f8565b848103601f19016060860152906105f8565b90608083015203601f19810183528261064a565b60405191829142835260a0602084015260a08301906105f8565b30604083015267ffffffffffffffff4616606083015260131936013560601c60808301520390f35b634e487b7160e01b5f52604160045260245ffd5b346100645760203660031901126100645760043567ffffffffffffffff81116100645761051390369060040161061c565b602081101561051e57005b6020116100645760207fc238a57f4049d38354151e09931543bd1e6b91ac24f1155d597ebeb207232d5c9160405190358152a1005b34610064575f3660031901126100645760206040517f39bf027dd97f3bae0cf8cfb909695ec63313a9bd61ad52fc7f52cf565b141da88152f35b34610064575f3660031901126100645760205f54604051908152f35b34610064575f366003190112610064576101c46101b06106ca565b34610064575f366003190112610064576101c46101b061068f565b34610064575f366003190112610064576020905f548152f35b805180835260209291819084018484015e5f828201840152601f01601f1916010190565b9181601f840112156100645782359167ffffffffffffffff8311610064576020838186019501011161006457565b90601f8019910116810190811067ffffffffffffffff8211176104ce57604052565b6004359073ffffffffffffffffffffffffffffffffffffffff8216820361006457565b6040519061069e60408361064a565b600582527f312e302e300000000000000000000000000000000000000000000000000000006020830152565b604051906106d960408361064a565b600f82527f44656661756c742048616e646c65720000000000000000000000000000000000602083015256fea264697066735822122075f4da0cf6a66d0dff4c33f411f79abcc26e53c01a904abec684a52a926f64c064736f6c634300081b0033",
  "linkReferences": {},
  "deployedLinkReferences": {}
}