{
  "_format": "hh-sol-artifact-1",
  "contractName": "TokenWithPermit",
  "sourceName": "contracts/mocks/TokenWithPermit.sol",
  "abi": [
    {
      "inputs": [
        {
          "internalType": "string",
          "name": "name",
          "type": "string"
        },
        {
          "internalType": "string",
          "name": "symbol",
          "type": "string"
        }
      ],
      "stateMutability": "nonpayable",
      "type": "constructor"
    },
    {
      "inputs": [],
      "name": "ECDSAInvalidSignature",
      "type": "error"
    },
    {
      "inputs": [
        {
          "internalType": "uint256",
          "name": "length",
          "type": "uint256"
        }
      ],
      "name": "ECDSAInvalidSignatureLength",
      "type": "error"
    },
    {
      "inputs": [
        {
          "internalType": "bytes32",
          "name": "s",
          "type": "bytes32"
        }
      ],
      "name": "ECDSAInvalidSignatureS",
      "type": "error"
    },
    {
      "inputs": [
        {
          "internalType": "address",
          "name": "signer",
          "type": "address"
        }
      ],
      "name": "ERC1271InvalidSigner",
      "type": "error"
    },
    {
      "inputs": [
        {
          "internalType": "address",
          "name": "spender",
          "type": "address"
        },
        {
          "internalType": "uint256",
          "name": "allowance",
          "type": "uint256"
        },
        {
          "internalType": "uint256",
          "name": "needed",
          "type": "uint256"
        }
      ],
      "name": "ERC20InsufficientAllowance",
      "type": "error"
    },
    {
      "inputs": [
        {
          "internalType": "address",
          "name": "sender",
          "type": "address"
        },
        {
          "internalType": "uint256",
          "name": "balance",
          "type": "uint256"
        },
        {
          "internalType": "uint256",
          "name": "needed",
          "type": "uint256"
        }
      ],
      "name": "ERC20InsufficientBalance",
      "type": "error"
    },
    {
      "inputs": [
        {
          "internalType": "address",
          "name": "approver",
          "type": "address"
        }
      ],
      "name": "ERC20InvalidApprover",
      "type": "error"
    },
    {
      "inputs": [
        {
          "internalType": "address",
          "name": "receiver",
          "type": "address"
        }
      ],
      "name": "ERC20InvalidReceiver",
      "type": "error"
    },
    {
      "inputs": [
        {
          "internalType": "address",
          "name": "sender",
          "type": "address"
        }
      ],
      "name": "ERC20InvalidSender",
      "type": "error"
    },
    {
      "inputs": [
        {
          "internalType": "address",
          "name": "spender",
          "type": "address"
        }
      ],
      "name": "ERC20InvalidSpender",
      "type": "error"
    },
    {
      "inputs": [
        {
          "internalType": "uint256",
          "name": "deadline",
          "type": "uint256"
        }
      ],
      "name": "ERC2612ExpiredSignature",
      "type": "error"
    },
    {
      "inputs": [
        {
          "internalType": "address",
          "name": "signer",
          "type": "address"
        },
        {
          "internalType": "address",
          "name": "owner",
          "type": "address"
        }
      ],
      "name": "ERC2612InvalidSigner",
      "type": "error"
    },
    {
      "inputs": [
        {
          "internalType": "address",
          "name": "account",
          "type": "address"
        },
        {
          "internalType": "uint256",
          "name": "currentNonce",
          "type": "uint256"
        }
      ],
      "name": "InvalidAccountNonce",
      "type": "error"
    },
    {
      "inputs": [],
      "name": "InvalidShortString",
      "type": "error"
    },
    {
      "inputs": [
        {
          "internalType": "string",
          "name": "str",
          "type": "string"
        }
      ],
      "name": "StringTooLong",
      "type": "error"
    },
    {
      "anonymous": false,
      "inputs": [
        {
          "indexed": true,
          "internalType": "address",
          "name": "owner",
          "type": "address"
        },
        {
          "indexed": true,
          "internalType": "address",
          "name": "spender",
          "type": "address"
        },
        {
          "indexed": false,
          "internalType": "uint256",
          "name": "value",
          "type": "uint256"
        }
      ],
      "name": "Approval",
      "type": "event"
    },
    {
      "anonymous": false,
      "inputs": [],
      "name": "EIP712DomainChanged",
      "type": "event"
    },
    {
      "anonymous": false,
      "inputs": [
        {
          "indexed": true,
          "internalType": "address",
          "name": "from",
          "type": "address"
        },
        {
          "indexed": true,
          "internalType": "address",
          "name": "to",
          "type": "address"
        },
        {
          "indexed": false,
          "internalType": "uint256",
          "name": "value",
          "type": "uint256"
        }
      ],
      "name": "Transfer",
      "type": "event"
    },
    {
      "inputs": [],
      "name": "DOMAIN_SEPARATOR",
      "outputs": [
        {
          "internalType": "bytes32",
          "name": "",
          "type": "bytes32"
        }
      ],
      "stateMutability": "view",
      "type": "function"
    },
    {
      "inputs": [],
      "name": "PERMIT_TYPEHASH_LOCAL",
      "outputs": [
        {
          "internalType": "bytes32",
          "name": "",
          "type": "bytes32"
        }
      ],
      "stateMutability": "view",
      "type": "function"
    },
    {
      "inputs": [
        {
          "internalType": "address",
          "name": "owner",
          "type": "address"
        },
        {
          "internalType": "address",
          "name": "spender",
          "type": "address"
        }
      ],
      "name": "allowance",
      "outputs": [
        {
          "internalType": "uint256",
          "name": "",
          "type": "uint256"
        }
      ],
      "stateMutability": "view",
      "type": "function"
    },
    {
      "inputs": [
        {
          "internalType": "address",
          "name": "spender",
          "type": "address"
        },
        {
          "internalType": "uint256",
          "name": "value",
          "type": "uint256"
        }
      ],
      "name": "approve",
      "outputs": [
        {
          "internalType": "bool",
          "name": "",
          "type": "bool"
        }
      ],
      "stateMutability": "nonpayable",
      "type": "function"
    },
    {
      "inputs": [
        {
          "internalType": "address",
          "name": "account",
          "type": "address"
        }
      ],
      "name": "balanceOf",
      "outputs": [
        {
          "internalType": "uint256",
          "name": "",
          "type": "uint256"
        }
      ],
      "stateMutability": "view",
      "type": "function"
    },
    {
      "inputs": [],
      "name": "decimals",
      "outputs": [
        {
          "internalType": "uint8",
          "name": "",
          "type": "uint8"
        }
      ],
      "stateMutability": "view",
      "type": "function"
    },
    {
      "inputs": [],
      "name": "eip712Domain",
      "outputs": [
        {
          "internalType": "bytes1",
          "name": "fields",
          "type": "bytes1"
        },
        {
          "internalType": "string",
          "name": "name",
          "type": "string"
        },
        {
          "internalType": "string",
          "name": "version",
          "type": "string"
        },
        {
          "internalType": "uint256",
          "name": "chainId",
          "type": "uint256"
        },
        {
          "internalType": "address",
          "name": "verifyingContract",
          "type": "address"
        },
        {
          "internalType": "bytes32",
          "name": "salt",
          "type": "bytes32"
        },
        {
          "internalType": "uint256[]",
          "name": "extensions",
          "type": "uint256[]"
        }
      ],
      "stateMutability": "view",
      "type": "function"
    },
    {
      "inputs": [
        {
          "internalType": "address",
          "name": "sender",
          "type": "address"
        },
        {
          "internalType": "uint256",
          "name": "amount",
          "type": "uint256"
        }
      ],
      "name": "mint",
      "outputs": [],
      "stateMutability": "nonpayable",
      "type": "function"
    },
    {
      "inputs": [],
      "name": "name",
      "outputs": [
        {
          "internalType": "string",
          "name": "",
          "type": "string"
        }
      ],
      "stateMutability": "view",
      "type": "function"
    },
    {
      "inputs": [
        {
          "internalType": "address",
          "name": "owner",
          "type": "address"
        }
      ],
      "name": "nonces",
      "outputs": [
        {
          "internalType": "uint256",
          "name": "",
          "type": "uint256"
        }
      ],
      "stateMutability": "view",
      "type": "function"
    },
    {
      "inputs": [
        {
          "internalType": "address",
          "name": "owner",
          "type": "address"
        },
        {
          "internalType": "address",
          "name": "spender",
          "type": "address"
        },
        {
          "internalType": "uint256",
          "name": "value",
          "type": "uint256"
        },
        {
          "internalType": "uint256",
          "name": "deadline",
          "type": "uint256"
        },
        {
          "internalType": "uint8",
          "name": "v",
          "type": "uint8"
        },
        {
          "internalType": "bytes32",
          "name": "r",
          "type": "bytes32"
        },
        {
          "internalType": "bytes32",
          "name": "s",
          "type": "bytes32"
        }
      ],
      "name": "permit",
      "outputs": [],
      "stateMutability": "nonpayable",
      "type": "function"
    },
    {
      "inputs": [
        {
          "internalType": "address",
          "name": "owner",
          "type": "address"
        },
        {
          "internalType": "address",
          "name": "spender",
          "type": "address"
        },
        {
          "internalType": "uint256",
          "name": "value",
          "type": "uint256"
        },
        {
          "internalType": "uint256",
          "name": "deadline",
          "type": "uint256"
        },
        {
          "internalType": "bytes",
          "name": "signature",
          "type": "bytes"
        }
      ],
      "name": "permitWith1271",
      "outputs": [],
      "stateMutability": "nonpayable",
      "type": "function"
    },
    {
      "inputs": [],
      "name": "symbol",
      "outputs": [
        {
          "internalType": "string",
          "name": "",
          "type": "string"
        }
      ],
      "stateMutability": "view",
      "type": "function"
    },
    {
      "inputs": [],
      "name": "totalSupply",
      "outputs": [
        {
          "internalType": "uint256",
          "name": "",
          "type": "uint256"
        }
      ],
      "stateMutability": "view",
      "type": "function"
    },
    {
      "inputs": [
        {
          "internalType": "address",
          "name": "to",
          "type": "address"
        },
        {
          "internalType": "uint256",
          "name": "value",
          "type": "uint256"
        }
      ],
      "name": "transfer",
      "outputs": [
        {
          "internalType": "bool",
          "name": "",
          "type": "bool"
        }
      ],
      "stateMutability": "nonpayable",
      "type": "function"
    },
    {
      "inputs": [
        {
          "internalType": "address",
          "name": "from",
          "type": "address"
        },
        {
          "internalType": "address",
          "name": "to",
          "type": "address"
        },
        {
          "internalType": "uint256",
          "name": "value",
          "type": "uint256"
        }
      ],
      "name": "transferFrom",
      "outputs": [
        {
          "internalType": "bool",
          "name": "",
          "type": "bool"
        }
      ],
      "stateMutability": "nonpayable",
      "type": "function"
    }
  ],
  "bytecode": "0x61016080604052346104ac57611944803803809161001d82856104b0565b83398101906040818303126104ac5780516001600160401b0381116104ac57826100489183016104d3565b60208201519092906001600160401b0381116104ac5761006892016104d3565b9060409182519161007984846104b0565b60018352603160f81b6020840190815281519092906001600160401b0381116103bc57600354600181811c911680156104a2575b602082101461039e57601f811161043f575b50806020601f82116001146103db575f916103d0575b508160011b915f199060031b1c1916176003555b8051906001600160401b0382116103bc5760045490600182811c921680156103b2575b602083101461039e5781601f849311610330575b50602090601f83116001146102ca575f926102bf575b50508160011b915f199060031b1c1916176004555b61015481610528565b61012052610161836106af565b6101405260208151910120918260e05251902080610100524660a05282519060208201927f8b73c3c69bb8fe3d512ecc4cf759cc79239f7b179b0ffacaa9a75d522b39400f84528483015260608201524660808201523060a082015260a081526101cc60c0826104b0565b5190206080523060c05233156102ac576002546a084595161401484a000000810180911161029857600255335f525f602052805f206a084595161401484a000000815401905580516a084595161401484a00000081525f7fddf252ad1be2c89b69c2b068fc378daa952ba7f163c4a11628f55a4df523b3ef60203393a35161115c90816107e8823960805181610db2015260a05181610e6f015260c05181610d83015260e05181610e0101526101005181610e27015261012051816103f0015261014051816104190152f35b634e487b7160e01b5f52601160045260245ffd5b63ec442f0560e01b5f525f60045260245ffd5b015190505f80610136565b60045f9081528281209350601f198516905b8181106103185750908460019594939210610300575b505050811b0160045561014b565b01515f1960f88460031b161c191690555f80806102f2565b929360206001819287860151815501950193016102dc565b60045f529091507f8a35acfbc15ff81a39ae7d344fd709f28e8600b4aa8c65c6b64bfe7fe36bd19b601f840160051c81019160208510610394575b90601f859493920160051c01905b8181106103865750610120565b5f8155849350600101610379565b909150819061036b565b634e487b7160e01b5f52602260045260245ffd5b91607f169161010c565b634e487b7160e01b5f52604160045260245ffd5b90508301515f6100d5565b60035f9081528181209250601f198416905b8181106104275750908360019493921061040f575b5050811b016003556100e9565b8501515f1960f88460031b161c191690555f80610402565b9192602060018192868a0151815501940192016103ed565b60035f527fc2575a0e9e593c00f959f8c92f12db2869c3395a3b0502d05e2516446f71f85b601f830160051c81019160208410610498575b601f0160051c01905b81811061048d57506100bf565b5f8155600101610480565b9091508190610477565b90607f16906100ad565b5f80fd5b601f909101601f19168101906001600160401b038211908210176103bc57604052565b81601f820112156104ac578051906001600160401b0382116103bc5760405192610507601f8401601f1916602001856104b0565b828452602083830101116104ac57815f9260208093018386015e8301015290565b908151602081105f146105a2575090601f815111610562576020815191015160208210610553571790565b5f198260200360031b1b161790565b604460209160405192839163305a27a960e01b83528160048401528051918291826024860152018484015e5f828201840152601f01601f19168101030190fd5b6001600160401b0381116103bc57600554600181811c911680156106a5575b602082101461039e57601f8111610672575b50602092601f821160011461061157928192935f92610606575b50508160011b915f199060031b1c19161760055560ff90565b015190505f806105ed565b601f1982169360055f52805f20915f5b86811061065a5750836001959610610642575b505050811b0160055560ff90565b01515f1960f88460031b161c191690555f8080610634565b91926020600181928685015181550194019201610621565b60055f52601f60205f20910160051c810190601f830160051c015b81811061069a57506105d3565b5f815560010161068d565b90607f16906105c1565b908151602081105f146106da575090601f815111610562576020815191015160208210610553571790565b6001600160401b0381116103bc57600654600181811c911680156107dd575b602082101461039e57601f81116107aa575b50602092601f821160011461074957928192935f9261073e575b50508160011b915f199060031b1c19161760065560ff90565b015190505f80610725565b601f1982169360065f52805f20915f5b868110610792575083600195961061077a575b505050811b0160065560ff90565b01515f1960f88460031b161c191690555f808061076c565b91926020600181928685015181550194019201610759565b60065f52601f60205f20910160051c810190601f830160051c015b8181106107d2575061070b565b5f81556001016107c5565b90607f16906106f956fe6080806040526004361015610012575f80fd5b5f3560e01c90816306fdde0314610a7b57508063095ea7b314610a5557806318160ddd14610a3857806323b872dd14610908578063292e09e314610653578063313ce567146106385780633644e5151461061657806340c10f191461055b57806370a08231146105245780637ecebe00146104ec57806384b0196e146103d8578063924dc57b1461039e57806395d89b41146102bc578063a9059cbb1461028b578063d505accf146101245763dd62ed3e146100cc575f80fd5b34610120576040366003190112610120576100e5610b41565b6001600160a01b036100f5610b57565b91165f5260016020526001600160a01b0360405f2091165f52602052602060405f2054604051908152f35b5f80fd5b346101205760e03660031901126101205761013d610b41565b610145610b57565b604435906064359260843560ff811681036101205784421161027857610227946101f861021e92610206610193866001600160a01b03165f52600760205260405f2080549060018201905590565b9360405193849160208301968b8b8b8a91926001600160a01b0360a09497969592978160c08601997f6e71edae12b1b97f4d1f60370fef10105fa2faae0126114a169c64845d6126c98752166020860152166040840152606083015260808201520152565b03601f198101845283610c26565b61021960c4359360a43593519020610d38565b6110a4565b90959195610f32565b6001600160a01b03808216941684810361024857506102469350610e95565b005b84907f4b800e46000000000000000000000000000000000000000000000000000000005f5260045260245260445ffd5b8463313c898160e11b5f5260045260245ffd5b34610120576040366003190112610120576102b16102a7610b41565b6024359033610c5c565b602060405160018152f35b34610120575f366003190112610120576040515f6004546102dc81610b6d565b808452906001811690811561037a575060011461031c575b6103188361030481850382610c26565b604051918291602083526020830190610b1d565b0390f35b60045f9081527f8a35acfbc15ff81a39ae7d344fd709f28e8600b4aa8c65c6b64bfe7fe36bd19b939250905b808210610360575090915081016020016103046102f4565b919260018160209254838588010152019101909291610348565b60ff191660208086019190915291151560051b8401909101915061030490506102f4565b34610120575f3660031901126101205760206040517f6e71edae12b1b97f4d1f60370fef10105fa2faae0126114a169c64845d6126c98152f35b34610120575f366003190112610120576104906104147f0000000000000000000000000000000000000000000000000000000000000000610ff1565b61043d7f000000000000000000000000000000000000000000000000000000000000000061106d565b602061049e604051926104508385610c26565b5f84525f3681376040519586957f0f00000000000000000000000000000000000000000000000000000000000000875260e08588015260e0870190610b1d565b908582036040870152610b1d565b4660608501523060808501525f60a085015283810360c08501528180845192838152019301915f5b8281106104d557505050500390f35b8351855286955093810193928101926001016104c6565b34610120576020366003190112610120576001600160a01b0361050d610b41565b165f526007602052602060405f2054604051908152f35b34610120576020366003190112610120576001600160a01b03610545610b41565b165f525f602052602060405f2054604051908152f35b3461012057604036600319011261012057610574610b41565b6001600160a01b031660243581156105ea57600254908082018092116105d65760207fddf252ad1be2c89b69c2b068fc378daa952ba7f163c4a11628f55a4df523b3ef915f9360025584845283825260408420818154019055604051908152a3005b634e487b7160e01b5f52601160045260245ffd5b7fec442f05000000000000000000000000000000000000000000000000000000005f525f60045260245ffd5b34610120575f366003190112610120576020610630610d79565b604051908152f35b34610120575f36600319011261012057602060405160128152f35b346101205760a03660031901126101205761066c610b41565b610674610b57565b60443590606435926084359367ffffffffffffffff851161012057366023860112156101205784600401359067ffffffffffffffff82116101205760248601956024833692010111610120578042116108f6576107709061075a6107686106f5866001600160a01b03165f52600760205260405f2080549060018201905590565b9260405192839160208301958b8b8b8991926001600160a01b0360a09497969592978160c08601997f6e71edae12b1b97f4d1f60370fef10105fa2faae0126114a169c64845d6126c98752166020860152166040840152606083015260808201520152565b03601f198101835282610c26565b519020610d38565b94823b156108c25760209060646001600160a01b03851697846040519586948593630b135d3f60e11b8552600485015260406024850152816044850152848401375f828201840152601f01601f19168101030181885afa9081156108b7575f9161083c575b507fffffffff00000000000000000000000000000000000000000000000000000000630b135d3f60e11b911603610810576102469350610e95565b837f4a912f81000000000000000000000000000000000000000000000000000000005f5260045260245ffd5b90506020813d6020116108af575b8161085760209383610c26565b8101031261012057517fffffffff0000000000000000000000000000000000000000000000000000000081168103610120577fffffffff000000000000000000000000000000000000000000000000000000006107d5565b3d915061084a565b6040513d5f823e3d90fd5b610227955f602061021e948082601f19601f83011601956108e66040519788610c26565b8187528387013784010152610ef8565b63313c898160e11b5f5260045260245ffd5b3461012057606036600319011261012057610921610b41565b610929610b57565b604435906001600160a01b03831692835f52600160205260405f206001600160a01b0333165f5260205260405f20545f19811061096c575b506102b19350610c5c565b838110610a045784156109d85733156109ac576102b1945f52600160205260405f206001600160a01b0333165f526020528360405f209103905584610961565b7f94280d62000000000000000000000000000000000000000000000000000000005f525f60045260245ffd5b7fe602df05000000000000000000000000000000000000000000000000000000005f525f60045260245ffd5b83907ffb8f41b2000000000000000000000000000000000000000000000000000000005f523360045260245260445260645ffd5b34610120575f366003190112610120576020600254604051908152f35b34610120576040366003190112610120576102b1610a71610b41565b6024359033610e95565b34610120575f366003190112610120575f600354610a9881610b6d565b808452906001811690811561037a5750600114610abf576103188361030481850382610c26565b60035f9081527fc2575a0e9e593c00f959f8c92f12db2869c3395a3b0502d05e2516446f71f85b939250905b808210610b03575090915081016020016103046102f4565b919260018160209254838588010152019101909291610aeb565b805180835260209291819084018484015e5f828201840152601f01601f1916010190565b600435906001600160a01b038216820361012057565b602435906001600160a01b038216820361012057565b90600182811c92168015610b9b575b6020831014610b8757565b634e487b7160e01b5f52602260045260245ffd5b91607f1691610b7c565b5f9291815491610bb483610b6d565b8083529260018116908115610c095750600114610bd057505050565b5f9081526020812093945091925b838310610bef575060209250010190565b600181602092949394548385870101520191019190610bde565b915050602093945060ff929192191683830152151560051b010190565b90601f8019910116810190811067ffffffffffffffff821117610c4857604052565b634e487b7160e01b5f52604160045260245ffd5b6001600160a01b0316908115610d0c576001600160a01b03169182156105ea57815f525f60205260405f2054818110610cda57817fddf252ad1be2c89b69c2b068fc378daa952ba7f163c4a11628f55a4df523b3ef92602092855f525f84520360405f2055845f525f825260405f20818154019055604051908152a3565b827fe450d38c000000000000000000000000000000000000000000000000000000005f5260045260245260445260645ffd5b7f96c6fd1e000000000000000000000000000000000000000000000000000000005f525f60045260245ffd5b604290610d43610d79565b90604051917f19010000000000000000000000000000000000000000000000000000000000008352600283015260228201522090565b6001600160a01b037f000000000000000000000000000000000000000000000000000000000000000016301480610e6c575b15610dd4577f000000000000000000000000000000000000000000000000000000000000000090565b60405160208101907f8b73c3c69bb8fe3d512ecc4cf759cc79239f7b179b0ffacaa9a75d522b39400f82527f000000000000000000000000000000000000000000000000000000000000000060408201527f000000000000000000000000000000000000000000000000000000000000000060608201524660808201523060a082015260a08152610e6660c082610c26565b51902090565b507f00000000000000000000000000000000000000000000000000000000000000004614610dab565b6001600160a01b03169081156109d8576001600160a01b03169182156109ac5760207f8c5be1e5ebec7d5bd14f71427d1e84f3dd0314c0f7b2291e5b200ac8c7c3b92591835f526001825260405f20855f5282528060405f2055604051908152a3565b8151919060418303610f2857610f219250602082015190606060408401519301515f1a906110a4565b9192909190565b50505f9160029190565b6004811015610fdd5780610f44575050565b60018103610f74577ff645eedf000000000000000000000000000000000000000000000000000000005f5260045ffd5b60028103610fa857507ffce698f7000000000000000000000000000000000000000000000000000000005f5260045260245ffd5b600314610fb25750565b7fd78bce0c000000000000000000000000000000000000000000000000000000005f5260045260245ffd5b634e487b7160e01b5f52602160045260245ffd5b60ff81146110505760ff811690601f82116110285760405191611015604084610c26565b6020808452838101919036833783525290565b7fb3512b0c000000000000000000000000000000000000000000000000000000005f5260045ffd5b5060405161106a81611063816005610ba5565b0382610c26565b90565b60ff81146110915760ff811690601f82116110285760405191611015604084610c26565b5060405161106a81611063816006610ba5565b91907f7fffffffffffffffffffffffffffffff5d576e7357a4501ddfe92f46681b20a0841161111b579160209360809260ff5f9560405194855216868401526040830152606082015282805260015afa156108b7575f516001600160a01b0381161561111157905f905f90565b505f906001905f90565b5050505f916003919056fea2646970667358221220e28bb930435289f454c03a9ac93469ea1189d76ca5a7b455e23e70cdba72132764736f6c634300081b0033",
  "linkReferences": {},
  "deployedLinkReferences": {}
}