{
  "_format": "hh-sol-artifact-1",
  "contractName": "MockSimpleValidator",
  "sourceName": "contracts/mocks/MockSimpleValidator.sol",
  "abi": [
    {
      "inputs": [
        {
          "internalType": "address",
          "name": "",
          "type": "address"
        }
      ],
      "name": "isInitialized",
      "outputs": [
        {
          "internalType": "bool",
          "name": "",
          "type": "bool"
        }
      ],
      "stateMutability": "pure",
      "type": "function"
    },
    {
      "inputs": [
        {
          "internalType": "uint256",
          "name": "moduleTypeId",
          "type": "uint256"
        }
      ],
      "name": "isModuleType",
      "outputs": [
        {
          "internalType": "bool",
          "name": "",
          "type": "bool"
        }
      ],
      "stateMutability": "pure",
      "type": "function"
    },
    {
      "inputs": [
        {
          "internalType": "address",
          "name": "",
          "type": "address"
        },
        {
          "internalType": "bytes32",
          "name": "hash",
          "type": "bytes32"
        },
        {
          "internalType": "bytes",
          "name": "signature",
          "type": "bytes"
        }
      ],
      "name": "isValidSignatureWithSender",
      "outputs": [
        {
          "internalType": "bytes4",
          "name": "",
          "type": "bytes4"
        }
      ],
      "stateMutability": "view",
      "type": "function"
    },
    {
      "inputs": [
        {
          "internalType": "bytes",
          "name": "data",
          "type": "bytes"
        }
      ],
      "name": "onInstall",
      "outputs": [],
      "stateMutability": "nonpayable",
      "type": "function"
    },
    {
      "inputs": [
        {
          "internalType": "bytes",
          "name": "",
          "type": "bytes"
        }
      ],
      "name": "onUninstall",
      "outputs": [],
      "stateMutability": "nonpayable",
      "type": "function"
    },
    {
      "inputs": [
        {
          "internalType": "address",
          "name": "",
          "type": "address"
        }
      ],
      "name": "smartAccountOwners",
      "outputs": [
        {
          "internalType": "address",
          "name": "",
          "type": "address"
        }
      ],
      "stateMutability": "view",
      "type": "function"
    },
    {
      "inputs": [
        {
          "components": [
            {
              "internalType": "address",
              "name": "sender",
              "type": "address"
            },
            {
              "internalType": "uint256",
              "name": "nonce",
              "type": "uint256"
            },
            {
              "internalType": "bytes",
              "name": "initCode",
              "type": "bytes"
            },
            {
              "internalType": "bytes",
              "name": "callData",
              "type": "bytes"
            },
            {
              "internalType": "bytes32",
              "name": "accountGasLimits",
              "type": "bytes32"
            },
            {
              "internalType": "uint256",
              "name": "preVerificationGas",
              "type": "uint256"
            },
            {
              "internalType": "bytes32",
              "name": "gasFees",
              "type": "bytes32"
            },
            {
              "internalType": "bytes",
              "name": "paymasterAndData",
              "type": "bytes"
            },
            {
              "internalType": "bytes",
              "name": "signature",
              "type": "bytes"
            }
          ],
          "internalType": "struct PackedUserOperation",
          "name": "userOp",
          "type": "tuple"
        },
        {
          "internalType": "bytes32",
          "name": "userOpHash",
          "type": "bytes32"
        }
      ],
      "name": "validateUserOp",
      "outputs": [
        {
          "internalType": "uint256",
          "name": "",
          "type": "uint256"
        }
      ],
      "stateMutability": "view",
      "type": "function"
    }
  ],
  "bytecode": "0x60808060405234601557610591908161001a8239f35b5f80fdfe6080806040526004361015610012575f80fd5b5f3560e01c9081632e5b63a61461032b575080636d61fe70146102885780638a91b0e31461022b5780639700320314610187578063d60b347f14610163578063ecd05961146101435763f551e2ee14610069575f80fd5b3461013f57606036600319011261013f57610082610367565b5060443567ffffffffffffffff811161013f576100a66100c491369060040161037d565b90335f525f6020526024356001600160a01b0360405f205416610430565b156101175760207f1626ba7e000000000000000000000000000000000000000000000000000000005b7fffffffff0000000000000000000000000000000000000000000000000000000060405191168152f35b60207fffffffff000000000000000000000000000000000000000000000000000000006100ed565b5f80fd5b3461013f57602036600319011261013f5760206040516001600435148152f35b3461013f57602036600319011261013f5761017c610367565b5060206040515f8152f35b3461013f57604036600319011261013f5760043567ffffffffffffffff811161013f5780360361012060031982011261013f57335f525f6020526001600160a01b0360405f20541691610104810135916022190182121561013f570160048101359067ffffffffffffffff821161013f57602401813603811361013f576102119260243590610430565b156102225760205f5b604051908152f35b6020600161021a565b3461013f57602036600319011261013f5760043567ffffffffffffffff811161013f5761025c90369060040161037d565b5050335f525f60205260405f2073ffffffffffffffffffffffffffffffffffffffff1981541690555f80f35b3461013f57602036600319011261013f5760043567ffffffffffffffff811161013f576102b990369060040161037d565b6bffffffffffffffffffffffff1991359182169160148210610306575b82335f525f60205260405f209060601c73ffffffffffffffffffffffffffffffffffffffff198254161790555f80f35b6bffffffffffffffffffffffff1960149290920360031b82901b1616905081806102d6565b3461013f57602036600319011261013f576020906001600160a01b0361034f610367565b165f525f82526001600160a01b0360405f2054168152f35b600435906001600160a01b038216820361013f57565b9181601f8401121561013f5782359167ffffffffffffffff831161013f576020838186019501011161013f57565b92919267ffffffffffffffff82116104035760405191601f8101601f19908116603f0116830167ffffffffffffffff8111848210176104035760405282948184528183011161013f578281602093845f960137010152565b7f4e487b71000000000000000000000000000000000000000000000000000000005f52604160045260245ffd5b929190916001600160a01b038061045161044b3685876103ab565b866104b8565b1694169384146104af5761049a6104a0926001600160a01b03946020527b19457468657265756d205369676e6564204d6573736167653a0a33325f52603c6004209236916103ab565b906104b8565b16146104aa575f90565b600190565b50505050600190565b9190916040519280518060401461051f576041146104e257505050505b638baa579f5f526004601cfd5b60209160608201515f1a835260408201516060525b5f5201516040526020600160805f825afa51915f6060526040523d61051d5750506104d5565b565b506020917f7fffffffffffffffffffffffffffffffffffffffffffffffffffffffffffffff6040830151601b8160ff1c018552166060526104f756fea264697066735822122069d11612c0022dee75c3ec9ce80751736c761b6d8771686673b2bb98c3e7dede64736f6c634300081b0033",
  "linkReferences": {},
  "deployedLinkReferences": {}
}