{
  "_format": "hh-sol-artifact-1",
  "contractName": "AutoSwapModule",
  "sourceName": "contracts/modules/executors/AutoSwap.sol",
  "abi": [
    {
      "inputs": [
        {
          "internalType": "address",
          "name": "_authorizedRelayer",
          "type": "address"
        },
        {
          "internalType": "address",
          "name": "_swapRouter",
          "type": "address"
        },
        {
          "internalType": "address",
          "name": "_quoter",
          "type": "address"
        },
        {
          "internalType": "address",
          "name": "_wrappedNative",
          "type": "address"
        },
        {
          "internalType": "address",
          "name": "_owner",
          "type": "address"
        }
      ],
      "stateMutability": "nonpayable",
      "type": "constructor"
    },
    {
      "inputs": [],
      "name": "CannotRemoveSelf",
      "type": "error"
    },
    {
      "inputs": [
        {
          "internalType": "uint256",
          "name": "chainId",
          "type": "uint256"
        }
      ],
      "name": "ConfigNotFound",
      "type": "error"
    },
    {
      "inputs": [],
      "name": "ECDSAInvalidSignature",
      "type": "error"
    },
    {
      "inputs": [
        {
          "internalType": "uint256",
          "name": "length",
          "type": "uint256"
        }
      ],
      "name": "ECDSAInvalidSignatureLength",
      "type": "error"
    },
    {
      "inputs": [
        {
          "internalType": "bytes32",
          "name": "s",
          "type": "bytes32"
        }
      ],
      "name": "ECDSAInvalidSignatureS",
      "type": "error"
    },
    {
      "inputs": [],
      "name": "EmptyConfigList",
      "type": "error"
    },
    {
      "inputs": [],
      "name": "ExecutionFailed",
      "type": "error"
    },
    {
      "inputs": [],
      "name": "InsufficientBalance",
      "type": "error"
    },
    {
      "inputs": [],
      "name": "InvalidConfigHash",
      "type": "error"
    },
    {
      "inputs": [],
      "name": "InvalidQuoter",
      "type": "error"
    },
    {
      "inputs": [],
      "name": "InvalidRouter",
      "type": "error"
    },
    {
      "inputs": [],
      "name": "InvalidSwap",
      "type": "error"
    },
    {
      "inputs": [
        {
          "internalType": "address",
          "name": "account",
          "type": "address"
        }
      ],
      "name": "ModuleAlreadyInitialized",
      "type": "error"
    },
    {
      "inputs": [
        {
          "internalType": "address",
          "name": "account",
          "type": "address"
        }
      ],
      "name": "ModuleNotInitialized",
      "type": "error"
    },
    {
      "inputs": [
        {
          "internalType": "address",
          "name": "relayer",
          "type": "address"
        }
      ],
      "name": "NotAuthorized",
      "type": "error"
    },
    {
      "inputs": [
        {
          "internalType": "address",
          "name": "owner",
          "type": "address"
        }
      ],
      "name": "OwnableInvalidOwner",
      "type": "error"
    },
    {
      "inputs": [
        {
          "internalType": "address",
          "name": "account",
          "type": "address"
        }
      ],
      "name": "OwnableUnauthorizedAccount",
      "type": "error"
    },
    {
      "inputs": [],
      "name": "SignatureAlreadyUsed",
      "type": "error"
    },
    {
      "inputs": [],
      "name": "SlippageExceeded",
      "type": "error"
    },
    {
      "anonymous": false,
      "inputs": [
        {
          "indexed": true,
          "internalType": "address",
          "name": "relayer",
          "type": "address"
        }
      ],
      "name": "AddAuthorizedRelayer",
      "type": "event"
    },
    {
      "anonymous": false,
      "inputs": [
        {
          "indexed": true,
          "internalType": "address",
          "name": "account",
          "type": "address"
        },
        {
          "indexed": false,
          "internalType": "uint256",
          "name": "oldConfigHash",
          "type": "uint256"
        },
        {
          "indexed": false,
          "internalType": "uint256",
          "name": "newConfigHash",
          "type": "uint256"
        }
      ],
      "name": "ConfigHashChanged",
      "type": "event"
    },
    {
      "anonymous": false,
      "inputs": [
        {
          "indexed": true,
          "internalType": "uint256",
          "name": "configHash",
          "type": "uint256"
        },
        {
          "indexed": true,
          "internalType": "uint256",
          "name": "chainId",
          "type": "uint256"
        },
        {
          "indexed": false,
          "internalType": "address",
          "name": "defaultOutputToken",
          "type": "address"
        }
      ],
      "name": "ConfigSet",
      "type": "event"
    },
    {
      "anonymous": false,
      "inputs": [
        {
          "indexed": true,
          "internalType": "address",
          "name": "account",
          "type": "address"
        }
      ],
      "name": "ModuleInitialized",
      "type": "event"
    },
    {
      "anonymous": false,
      "inputs": [
        {
          "indexed": true,
          "internalType": "address",
          "name": "account",
          "type": "address"
        }
      ],
      "name": "ModuleUninitialized",
      "type": "event"
    },
    {
      "anonymous": false,
      "inputs": [
        {
          "indexed": true,
          "internalType": "address",
          "name": "previousOwner",
          "type": "address"
        },
        {
          "indexed": true,
          "internalType": "address",
          "name": "newOwner",
          "type": "address"
        }
      ],
      "name": "OwnershipTransferred",
      "type": "event"
    },
    {
      "anonymous": false,
      "inputs": [
        {
          "indexed": true,
          "internalType": "address",
          "name": "relayer",
          "type": "address"
        }
      ],
      "name": "RemoveAuthorizedRelayer",
      "type": "event"
    },
    {
      "anonymous": false,
      "inputs": [
        {
          "indexed": true,
          "internalType": "address",
          "name": "smartAccount",
          "type": "address"
        },
        {
          "indexed": true,
          "internalType": "address",
          "name": "inputToken",
          "type": "address"
        },
        {
          "indexed": true,
          "internalType": "address",
          "name": "outputToken",
          "type": "address"
        },
        {
          "indexed": false,
          "internalType": "uint256",
          "name": "amountIn",
          "type": "uint256"
        },
        {
          "indexed": false,
          "internalType": "uint256",
          "name": "amountOut",
          "type": "uint256"
        }
      ],
      "name": "SwapExecuted",
      "type": "event"
    },
    {
      "inputs": [],
      "name": "MODULE_TYPE_EXECUTOR",
      "outputs": [
        {
          "internalType": "uint256",
          "name": "",
          "type": "uint256"
        }
      ],
      "stateMutability": "view",
      "type": "function"
    },
    {
      "inputs": [],
      "name": "NATIVE_TOKEN",
      "outputs": [
        {
          "internalType": "address",
          "name": "",
          "type": "address"
        }
      ],
      "stateMutability": "view",
      "type": "function"
    },
    {
      "inputs": [
        {
          "internalType": "address",
          "name": "",
          "type": "address"
        }
      ],
      "name": "accountConfig",
      "outputs": [
        {
          "internalType": "uint256",
          "name": "",
          "type": "uint256"
        }
      ],
      "stateMutability": "view",
      "type": "function"
    },
    {
      "inputs": [
        {
          "internalType": "address",
          "name": "newRelayer",
          "type": "address"
        }
      ],
      "name": "addAuthorizedRelayer",
      "outputs": [],
      "stateMutability": "nonpayable",
      "type": "function"
    },
    {
      "inputs": [
        {
          "internalType": "address",
          "name": "",
          "type": "address"
        }
      ],
      "name": "authorizedRelayers",
      "outputs": [
        {
          "internalType": "bool",
          "name": "",
          "type": "bool"
        }
      ],
      "stateMutability": "view",
      "type": "function"
    },
    {
      "inputs": [
        {
          "internalType": "uint256",
          "name": "newConfigHash",
          "type": "uint256"
        }
      ],
      "name": "changeConfigHash",
      "outputs": [],
      "stateMutability": "nonpayable",
      "type": "function"
    },
    {
      "inputs": [
        {
          "internalType": "uint256",
          "name": "",
          "type": "uint256"
        },
        {
          "internalType": "uint256",
          "name": "",
          "type": "uint256"
        }
      ],
      "name": "config",
      "outputs": [
        {
          "internalType": "address",
          "name": "defaultOutputToken",
          "type": "address"
        },
        {
          "internalType": "uint24",
          "name": "defaultPoolFee",
          "type": "uint24"
        },
        {
          "internalType": "uint256",
          "name": "slippageBps",
          "type": "uint256"
        }
      ],
      "stateMutability": "view",
      "type": "function"
    },
    {
      "inputs": [
        {
          "internalType": "bytes32",
          "name": "",
          "type": "bytes32"
        }
      ],
      "name": "executedHashes",
      "outputs": [
        {
          "internalType": "bool",
          "name": "",
          "type": "bool"
        }
      ],
      "stateMutability": "view",
      "type": "function"
    },
    {
      "inputs": [
        {
          "internalType": "address",
          "name": "account",
          "type": "address"
        }
      ],
      "name": "getConfig",
      "outputs": [
        {
          "internalType": "address",
          "name": "defaultOutputToken",
          "type": "address"
        },
        {
          "internalType": "uint24",
          "name": "defaultPoolFee",
          "type": "uint24"
        },
        {
          "internalType": "uint256",
          "name": "slippageBps",
          "type": "uint256"
        }
      ],
      "stateMutability": "view",
      "type": "function"
    },
    {
      "inputs": [
        {
          "internalType": "uint256",
          "name": "configHash_",
          "type": "uint256"
        },
        {
          "internalType": "uint256",
          "name": "chainId_",
          "type": "uint256"
        }
      ],
      "name": "getConfigForChain",
      "outputs": [
        {
          "internalType": "address",
          "name": "defaultOutputToken",
          "type": "address"
        },
        {
          "internalType": "uint24",
          "name": "defaultPoolFee",
          "type": "uint24"
        },
        {
          "internalType": "uint256",
          "name": "slippageBps",
          "type": "uint256"
        }
      ],
      "stateMutability": "view",
      "type": "function"
    },
    {
      "inputs": [],
      "name": "getConfigInputTypeData",
      "outputs": [
        {
          "internalType": "string",
          "name": "configInputTypeData",
          "type": "string"
        }
      ],
      "stateMutability": "pure",
      "type": "function"
    },
    {
      "inputs": [
        {
          "internalType": "address",
          "name": "smartAccount",
          "type": "address"
        }
      ],
      "name": "isInitialized",
      "outputs": [
        {
          "internalType": "bool",
          "name": "",
          "type": "bool"
        }
      ],
      "stateMutability": "view",
      "type": "function"
    },
    {
      "inputs": [
        {
          "internalType": "uint256",
          "name": "moduleTypeId",
          "type": "uint256"
        }
      ],
      "name": "isModuleType",
      "outputs": [
        {
          "internalType": "bool",
          "name": "",
          "type": "bool"
        }
      ],
      "stateMutability": "pure",
      "type": "function"
    },
    {
      "inputs": [
        {
          "internalType": "bytes",
          "name": "data",
          "type": "bytes"
        }
      ],
      "name": "onInstall",
      "outputs": [],
      "stateMutability": "nonpayable",
      "type": "function"
    },
    {
      "inputs": [
        {
          "internalType": "bytes",
          "name": "data",
          "type": "bytes"
        }
      ],
      "name": "onUninstall",
      "outputs": [],
      "stateMutability": "nonpayable",
      "type": "function"
    },
    {
      "inputs": [],
      "name": "owner",
      "outputs": [
        {
          "internalType": "address",
          "name": "",
          "type": "address"
        }
      ],
      "stateMutability": "view",
      "type": "function"
    },
    {
      "inputs": [],
      "name": "quoter",
      "outputs": [
        {
          "internalType": "address",
          "name": "",
          "type": "address"
        }
      ],
      "stateMutability": "view",
      "type": "function"
    },
    {
      "inputs": [
        {
          "internalType": "address",
          "name": "relayer",
          "type": "address"
        }
      ],
      "name": "removeAuthorizedRelayer",
      "outputs": [],
      "stateMutability": "nonpayable",
      "type": "function"
    },
    {
      "inputs": [],
      "name": "renounceOwnership",
      "outputs": [],
      "stateMutability": "nonpayable",
      "type": "function"
    },
    {
      "inputs": [
        {
          "components": [
            {
              "internalType": "uint256",
              "name": "sourceChainId",
              "type": "uint256"
            },
            {
              "internalType": "address",
              "name": "destinationTokenAddress",
              "type": "address"
            },
            {
              "internalType": "uint24",
              "name": "defaultPoolFee",
              "type": "uint24"
            },
            {
              "internalType": "uint256",
              "name": "slippageBps",
              "type": "uint256"
            }
          ],
          "internalType": "struct AutoSwapModule.ConfigInput[]",
          "name": "newConfigs",
          "type": "tuple[]"
        }
      ],
      "name": "setConfig",
      "outputs": [],
      "stateMutability": "nonpayable",
      "type": "function"
    },
    {
      "inputs": [
        {
          "internalType": "address",
          "name": "inputToken",
          "type": "address"
        },
        {
          "internalType": "uint256",
          "name": "amountIn",
          "type": "uint256"
        },
        {
          "internalType": "address",
          "name": "nexusAccount",
          "type": "address"
        },
        {
          "internalType": "uint256",
          "name": "nonce",
          "type": "uint256"
        },
        {
          "internalType": "bytes",
          "name": "signature",
          "type": "bytes"
        }
      ],
      "name": "swap",
      "outputs": [],
      "stateMutability": "payable",
      "type": "function"
    },
    {
      "inputs": [],
      "name": "swapRouter",
      "outputs": [
        {
          "internalType": "address",
          "name": "",
          "type": "address"
        }
      ],
      "stateMutability": "view",
      "type": "function"
    },
    {
      "inputs": [
        {
          "internalType": "address",
          "name": "newOwner",
          "type": "address"
        }
      ],
      "name": "transferOwnership",
      "outputs": [],
      "stateMutability": "nonpayable",
      "type": "function"
    },
    {
      "inputs": [],
      "name": "wrappedNative",
      "outputs": [
        {
          "internalType": "address",
          "name": "",
          "type": "address"
        }
      ],
      "stateMutability": "view",
      "type": "function"
    },
    {
      "stateMutability": "payable",
      "type": "receive"
    }
  ],
  "bytecode": "0x60e0346101bb57601f611c8a38819003918201601f19168301916001600160401b038311848410176101bf5780849260a0946040528339810103126101bb57610047816101d3565b90610054602082016101d3565b610060604083016101d3565b9061006d606084016101d3565b926001600160a01b0390610083906080016101d3565b169384156101a8575f80546001600160a01b031981168717825560405196916001600160a01b03909116907f8be0079c531659141344cd1fd0a4f28419497f9722a3daafe3b4186f6b6457e09080a36001600160a01b03821615610199576001600160a01b0383161561018a576001600160a01b03165f8181526001602081905260408220805460ff191690911790557fa44ff6e0d94169d67f70222d68cf4f729cfce4da3b9c9224da7e2fa51e70de0d9080a260805260a05260c052611aa290816101e8823960805181818161032d0152610a1b015260a0518181816102ea015261099b015260c051818181610212015281816108210152818161090c0152610c8c0152f35b63c3a9778760e01b5f5260045ffd5b63466d7fef60e01b5f5260045ffd5b631e4fbdf760e01b5f525f60045260245ffd5b5f80fd5b634e487b7160e01b5f52604160045260245ffd5b51906001600160a01b03821682036101bb5756fe6080604052600436101561001a575b3615610018575f80fd5b005b5f3560e01c8063086533da146114eb5780630e13942b146114b3578063260d711e1461148457806329e295c5146114475780632f6c8ea91461142c57806331f7d964146113fe578063349a96d6146111a45780634fbd06dc1461112f5780635a71e2f81461108e5780636d61fe7014610fc7578063715018a614610f6357806384422d71146105c05780638a546426146104f95780638a91b0e3146104b45780638da5cb5b1461048f578063a4f4b0dd146103be578063b0771ab014610351578063c31c9c071461030e578063c6bbd5a7146102cb578063d60b347f14610289578063e48a5f7b14610236578063eb6d3a11146101f3578063ecd05961146101d35763f2fde38b0361000e57346101cf5760203660031901126101cf576001600160a01b036101476115a5565b61014f611724565b1680156101a3576001600160a01b035f548273ffffffffffffffffffffffffffffffffffffffff198216175f55167f8be0079c531659141344cd1fd0a4f28419497f9722a3daafe3b4186f6b6457e05f80a3005b7f1e4fbdf7000000000000000000000000000000000000000000000000000000005f525f60045260245ffd5b5f80fd5b346101cf5760203660031901126101cf5760206040516002600435148152f35b346101cf575f3660031901126101cf5760206040516001600160a01b037f0000000000000000000000000000000000000000000000000000000000000000168152f35b346101cf5760203660031901126101cf5761028561025a6102556115a5565b6116b0565b604080516001600160a01b03909416845262ffffff9092166020840152908201529081906060820190565b0390f35b346101cf5760203660031901126101cf5760206102c16102a76115a5565b6001600160a01b03165f52600360205260405f2054151590565b6040519015158152f35b346101cf575f3660031901126101cf5760206040516001600160a01b037f0000000000000000000000000000000000000000000000000000000000000000168152f35b346101cf575f3660031901126101cf5760206040516001600160a01b037f0000000000000000000000000000000000000000000000000000000000000000168152f35b346101cf5761035f366115bb565b905f52600260205260405f20905f5260205260405f20600181549101549061028560405192826001600160a01b0362ffffff869560a01c1691168462ffffff6040929594936001600160a01b0360608401971683521660208201520152565b346101cf575f3660031901126101cf576102856040516103df60a08261163e565b606881527f7475706c655b5d2875696e7432353620736f75726365436861696e49642c616460208201527f64726573732064657374696e6174696f6e546f6b656e416464726573732c756960408201527f6e7432342064656661756c74506f6f6c4665652c75696e7432353620736c697060608201527f7061676542707329000000000000000000000000000000000000000000000000608082015260405191829160208352602083019061167c565b346101cf575f3660031901126101cf5760206001600160a01b035f5416604051908152f35b346101cf576104c2366115d1565b5050335f5260036020525f6040812055337f9d00629762554452d03c3b45626436df6ca1c3795d05d04df882f6db481b1be05f80a2005b346101cf5760203660031901126101cf5760043561052b336001600160a01b03165f52600360205260405f2054151590565b156105ad57801561058557335f52600360205260405f205490335f5260036020528060405f205560405191825260208201527f393c6beb5756a944b2967f15f31ff671e312e945d7a84fd3bdcfd6b408b2dc7960403392a2005b7fb39d5b51000000000000000000000000000000000000000000000000000000005f5260045ffd5b632ed28b2160e11b5f523360045260245ffd5b60a03660031901126101cf576105d46115a5565b6044356001600160a01b0381166024358183036101cf576084359267ffffffffffffffff84116101cf57366023850112156101cf57836004013561061781611660565b94610625604051968761163e565b81865236602483830101116101cf57815f92602460209301838901378601015260405193602085014681526001600160a01b038716956bffffffffffffffffffffffff198860601b1660408201528460548201526bffffffffffffffffffffffff198460601b1660748201526064356088820152608881526106a860a88261163e565b5190207f19457468657265756d205369676e6564204d6573736167653a0a3332000000005f52601c52603c5f2090815f52600460205260ff60405f205416610f3b576107086106ff6001600160a01b03928461185c565b90929192611896565b16805f52600160205260ff60405f20541615610f2957505f52600460205260405f20600160ff19825416179055610753816001600160a01b03165f52600360205260405f2054151590565b15610f1657825f52600360205260405f20545f52600260205260405f20465f5260205260405f20906040519561078887611622565b82549160016001600160a01b03841694858a5262ffffff60208b019560a01c1685520154936040890194855215610eea57849173eeeeeeeeeeeeeeeeeeeeeeeeeeeeeeeeeeeeeeee8803610e6257503110610e3a576040516108be5f602083017fd0e30db00000000000000000000000000000000000000000000000000000000081526004845261081a60248561163e565b61088260547f0000000000000000000000000000000000000000000000000000000000000000956040519384916bffffffffffffffffffffffff198960601b1660208401528b60348401525180918484015e810185838201520301601f19810183528261163e565b61088a6119a0565b60405193849283927fd691c96400000000000000000000000000000000000000000000000000000000845260048401611842565b0381888a5af1908115610d15575f91610e20575b505115610ccb57915b86516001600160a01b031673eeeeeeeeeeeeeeeeeeeeeeeeeeeeeeeeeeeeeeee8103610e1257506001600160a01b037f00000000000000000000000000000000000000000000000000000000000000005b166001600160a01b03841692818414610dea5762ffffff815116604051907f1296323f00000000000000000000000000000000000000000000000000000000825285600483015283602483015287604483015260648201525f608482015260808160a4815f6001600160a01b037f0000000000000000000000000000000000000000000000000000000000000000165af15f9181610d90575b506109f2577f8199f5f3000000000000000000000000000000000000000000000000000000005f5260045ffd5b925161271003926127108411610d6257838102938185041490151715610d6257610a8e5f6108827f000000000000000000000000000000000000000000000000000000000000000097604051907f095ea7b30000000000000000000000000000000000000000000000000000000060208301526001600160a01b038a1660248301528a604483015260448252610a8960648361163e565b611955565b0381838c5af1908115610d15575f91610d76575b505115610ccb5762ffffff9051169361012c420193844211610d625760405161010081019481861067ffffffffffffffff871117610d4e57885f976001600160a01b038c62ffffff610ba59c83809b819a6108829e6040528a5260208a0190815260408a0192835260608a0194855260808a0196875260a08a0197885261271060c08b019904895260e08a01998f8b5260246040519e8f927f414bf3890000000000000000000000000000000000000000000000000000000060208501525116910152511660448c0152511660648a0152511660848801525160a48701525160c48601525160e485015251166101048301526101048252610a896101248361163e565b038183875af1908115610d15575f91610d34575b50805115610ccb57805115610d205760200151602081519181808201938492010103126101cf57519373eeeeeeeeeeeeeeeeeeeeeeeeeeeeeeeeeeeeeeee6001600160a01b0382511614610c45575b7f764f0dc063c06f32d89a3f3af80c0db4be8a090901f589a478b447e0a51f09f1916001600160a01b0360409251169582519182526020820152a4005b610cb05f6108826040517f2e1a7d4d00000000000000000000000000000000000000000000000000000000602082015288602482015260248152610c8a60448261163e565b7f0000000000000000000000000000000000000000000000000000000000000000611955565b038183885af1908115610d15575f91610cf3575b5051610c08575b7facfdb444000000000000000000000000000000000000000000000000000000005f5260045ffd5b610d0f91503d805f833e610d07818361163e565b810190611763565b86610cc4565b6040513d5f823e3d90fd5b634e487b7160e01b5f52603260045260245ffd5b610d4891503d805f833e610d07818361163e565b85610bb9565b634e487b7160e01b5f52604160045260245ffd5b634e487b7160e01b5f52601160045260245ffd5b610d8a91503d805f833e610d07818361163e565b8a610aa2565b9091506080813d608011610de2575b81610dac6080938361163e565b810103126101cf5780519060208101516001600160a01b038116036101cf576040015163ffffffff8116036101cf57908b6109c5565b3d9150610d9f565b7f11157667000000000000000000000000000000000000000000000000000000005f5260045ffd5b6001600160a01b039061092c565b610e3491503d805f833e610d07818361163e565b886108d2565b7ff4d678b8000000000000000000000000000000000000000000000000000000005f5260045ffd5b9150506040517f70a082310000000000000000000000000000000000000000000000000000000081528560048201526020816024818a5afa8015610d155785915f91610eb5575b5010610e3a57916108db565b9150506020813d602011610ee2575b81610ed16020938361163e565b810103126101cf5784905189610ea9565b3d9150610ec4565b7f0effdae4000000000000000000000000000000000000000000000000000000005f524660045260245ffd5b82632ed28b2160e11b5f5260045260245ffd5b634a0bfec160e01b5f5260045260245ffd5b7f900bb2c9000000000000000000000000000000000000000000000000000000005f5260045ffd5b346101cf575f3660031901126101cf57610f7b611724565b5f6001600160a01b03815473ffffffffffffffffffffffffffffffffffffffff1981168355167f8be0079c531659141344cd1fd0a4f28419497f9722a3daafe3b4186f6b6457e08280a3005b346101cf57610fd5366115d1565b335f908152600360205260409020546110625781602091810103126101cf5735801561058557335f5260036020528060405f205560405190337f27b541a16df0902e262f34789782092ab25125513b8ed73608e802951771b9285f80a25f825260208201527f393c6beb5756a944b2967f15f31ff671e312e945d7a84fd3bdcfd6b408b2dc7960403392a2005b7f4d6b9dd3000000000000000000000000000000000000000000000000000000005f523360045260245ffd5b346101cf5760203660031901126101cf576110a76115a5565b335f52600160205260ff60405f205416158061111b575b611108576001600160a01b0316805f52600160205260405f20600160ff198254161790557fa44ff6e0d94169d67f70222d68cf4f729cfce4da3b9c9224da7e2fa51e70de0d5f80a2005b634a0bfec160e01b5f523360045260245ffd5b506001600160a01b035f54163314156110be565b346101cf5761113d366115bb565b905f52600260205260405f20905f5260205260405f2060405161115f81611622565b81546001600160a01b03811680835260a09190911c62ffffff166020808401829052600190940154604093840181905283519283529382015290810191909152606090f35b346101cf5760203660031901126101cf5760043567ffffffffffffffff81116101cf57366023820112156101cf57806004013567ffffffffffffffff81116101cf576024820191602436918360071b0101116101cf57611202611724565b80156113d657604051602081019082604082016020845252606081018185915f5b86811061137e575061123e925003601f19810183528261163e565b519020905f5b81811061124d57005b6112588183866116a0565b359060206112678285886116a0565b0135916001600160a01b0383168093036101cf5760406112888386896116a0565b013562ffffff81168091036101cf577f8afe5b0053da90e2d483e2804013f04f0d0f254cb0a9b5ee676d3fae01f09936602060019588938760606112cd898c8f6116a0565b0135604051926112dc84611622565b84845285840190815260408401918252875f526002865260405f20895f5286526001600160a01b0360405f2094511673ffffffffffffffffffffffffffffffffffffffff19855416178455517fffffffffffffffffff000000ffffffffffffffffffffffffffffffffffffffff76ffffff000000000000000000000000000000000000000085549260a01b16911617835551910155604051908152a301611244565b91508235815260208301356001600160a01b0381168091036101cf57602082015260408301359062ffffff82168092036101cf5760808160019360408394015260608601356060820152019301910191839192611223565b7fcf4739d6000000000000000000000000000000000000000000000000000000005f5260045ffd5b346101cf575f3660031901126101cf57602060405173eeeeeeeeeeeeeeeeeeeeeeeeeeeeeeeeeeeeeeee8152f35b346101cf575f3660031901126101cf57602060405160028152f35b346101cf5760203660031901126101cf576001600160a01b036114686115a5565b165f526001602052602060ff60405f2054166040519015158152f35b346101cf5760203660031901126101cf576004355f526004602052602060ff60405f2054166040519015158152f35b346101cf5760203660031901126101cf576001600160a01b036114d46115a5565b165f526003602052602060405f2054604051908152f35b346101cf5760203660031901126101cf576115046115a5565b335f52600160205260ff60405f2054161580611591575b611108576001600160a01b031633811461156957805f52600160205260405f2060ff1981541690557f65beca40474fc223df158326daebfa4f3508869a6cf95dec7beb00b27af20adb5f80a2005b7f5e03d55f000000000000000000000000000000000000000000000000000000005f5260045ffd5b506001600160a01b035f541633141561151b565b600435906001600160a01b03821682036101cf57565b60409060031901126101cf576004359060243590565b9060206003198301126101cf5760043567ffffffffffffffff81116101cf57826023820112156101cf5780600401359267ffffffffffffffff84116101cf57602484830101116101cf576024019190565b6060810190811067ffffffffffffffff821117610d4e57604052565b90601f8019910116810190811067ffffffffffffffff821117610d4e57604052565b67ffffffffffffffff8111610d4e57601f01601f191660200190565b805180835260209291819084018484015e5f828201840152601f01601f1916010190565b9190811015610d205760071b0190565b6001600160a01b03165f52600360205260405f2054801561171b575f52600260205260405f20465f526020526040805f209181516116ed81611622565b835490600162ffffff6001600160a01b0384169384845260a01c169586602084015201549384910152929190565b505f905f905f90565b6001600160a01b035f5416330361173757565b7f118cdaa7000000000000000000000000000000000000000000000000000000005f523360045260245ffd5b6020818303126101cf5780519067ffffffffffffffff82116101cf57019080601f830112156101cf5781519167ffffffffffffffff8311610d4e578260051b604051936117b3602083018661163e565b8452602080850191830101918383116101cf5760208101915b8383106117db57505050505090565b825167ffffffffffffffff81116101cf57820185603f820112156101cf5760208101519161180883611660565b611815604051918261163e565b83815260408385010188106101cf575f602085819660408397018386015e830101528152019201916117cc565b60409061185993928152816020820152019061167c565b90565b815191906041830361188c576118859250602082015190606060408401519301515f1a906119ea565b9192909190565b50505f9160029190565b600481101561194157806118a8575050565b600181036118d8577ff645eedf000000000000000000000000000000000000000000000000000000005f5260045ffd5b6002810361190c57507ffce698f7000000000000000000000000000000000000000000000000000000005f5260045260245ffd5b6003146119165750565b7fd78bce0c000000000000000000000000000000000000000000000000000000005f5260045260245ffd5b634e487b7160e01b5f52602160045260245ffd5b60546118599160206040519485926bffffffffffffffffffffffff199060601b16828401525f60348401528051918291018484015e81015f838201520301601f19810183528261163e565b60405160208101905f82525f60218201525f60228201525f6026820152601c81526119cc603c8261163e565b51905190602081106119dc575090565b5f199060200360031b1b1690565b91907f7fffffffffffffffffffffffffffffff5d576e7357a4501ddfe92f46681b20a08411611a61579160209360809260ff5f9560405194855216868401526040830152606082015282805260015afa15610d15575f516001600160a01b03811615611a5757905f905f90565b505f906001905f90565b5050505f916003919056fea2646970667358221220e6a2f10b0b95c5707fa78303f1d6be638be57e4235471250743bbbec7c514d7164736f6c634300081b0033",
  "linkReferences": {},
  "deployedLinkReferences": {}
}