{
  "_format": "hh-sol-artifact-1",
  "contractName": "AutoEarn",
  "sourceName": "contracts/modules/executors/AutoEarn.sol",
  "abi": [
    {
      "inputs": [
        {
          "internalType": "address",
          "name": "_authorizedRelayer",
          "type": "address"
        },
        {
          "internalType": "address",
          "name": "_wrappedNative",
          "type": "address"
        },
        {
          "internalType": "address",
          "name": "_owner",
          "type": "address"
        }
      ],
      "stateMutability": "nonpayable",
      "type": "constructor"
    },
    {
      "inputs": [],
      "name": "CannotRemoveSelf",
      "type": "error"
    },
    {
      "inputs": [
        {
          "internalType": "address",
          "name": "token",
          "type": "address"
        }
      ],
      "name": "ConfigNotFound",
      "type": "error"
    },
    {
      "inputs": [],
      "name": "ECDSAInvalidSignature",
      "type": "error"
    },
    {
      "inputs": [
        {
          "internalType": "uint256",
          "name": "length",
          "type": "uint256"
        }
      ],
      "name": "ECDSAInvalidSignatureLength",
      "type": "error"
    },
    {
      "inputs": [
        {
          "internalType": "bytes32",
          "name": "s",
          "type": "bytes32"
        }
      ],
      "name": "ECDSAInvalidSignatureS",
      "type": "error"
    },
    {
      "inputs": [],
      "name": "EmptyConfigList",
      "type": "error"
    },
    {
      "inputs": [],
      "name": "ExecutionFailed",
      "type": "error"
    },
    {
      "inputs": [],
      "name": "InvalidConfigHash",
      "type": "error"
    },
    {
      "inputs": [],
      "name": "LinkedList_AlreadyInitialized",
      "type": "error"
    },
    {
      "inputs": [
        {
          "internalType": "address",
          "name": "entry",
          "type": "address"
        }
      ],
      "name": "LinkedList_EntryAlreadyInList",
      "type": "error"
    },
    {
      "inputs": [
        {
          "internalType": "address",
          "name": "entry",
          "type": "address"
        }
      ],
      "name": "LinkedList_InvalidEntry",
      "type": "error"
    },
    {
      "inputs": [],
      "name": "LinkedList_InvalidPage",
      "type": "error"
    },
    {
      "inputs": [
        {
          "internalType": "address",
          "name": "account",
          "type": "address"
        }
      ],
      "name": "ModuleAlreadyInitialized",
      "type": "error"
    },
    {
      "inputs": [
        {
          "internalType": "address",
          "name": "account",
          "type": "address"
        }
      ],
      "name": "ModuleNotInitialized",
      "type": "error"
    },
    {
      "inputs": [
        {
          "internalType": "address",
          "name": "relayer",
          "type": "address"
        }
      ],
      "name": "NotAuthorized",
      "type": "error"
    },
    {
      "inputs": [
        {
          "internalType": "address",
          "name": "owner",
          "type": "address"
        }
      ],
      "name": "OwnableInvalidOwner",
      "type": "error"
    },
    {
      "inputs": [
        {
          "internalType": "address",
          "name": "account",
          "type": "address"
        }
      ],
      "name": "OwnableUnauthorizedAccount",
      "type": "error"
    },
    {
      "inputs": [],
      "name": "SignatureAlreadyUsed",
      "type": "error"
    },
    {
      "inputs": [],
      "name": "TooManyTokens",
      "type": "error"
    },
    {
      "anonymous": false,
      "inputs": [
        {
          "indexed": true,
          "internalType": "address",
          "name": "relayer",
          "type": "address"
        }
      ],
      "name": "AddAuthorizedRelayer",
      "type": "event"
    },
    {
      "anonymous": false,
      "inputs": [
        {
          "indexed": true,
          "internalType": "address",
          "name": "smartAccount",
          "type": "address"
        },
        {
          "indexed": true,
          "internalType": "address",
          "name": "token",
          "type": "address"
        },
        {
          "indexed": false,
          "internalType": "uint256",
          "name": "amountIn",
          "type": "uint256"
        }
      ],
      "name": "AutoEarnExecuted",
      "type": "event"
    },
    {
      "anonymous": false,
      "inputs": [
        {
          "indexed": true,
          "internalType": "address",
          "name": "account",
          "type": "address"
        },
        {
          "indexed": false,
          "internalType": "uint256",
          "name": "oldConfigHash",
          "type": "uint256"
        },
        {
          "indexed": false,
          "internalType": "uint256",
          "name": "newConfigHash",
          "type": "uint256"
        }
      ],
      "name": "ConfigHashChanged",
      "type": "event"
    },
    {
      "anonymous": false,
      "inputs": [
        {
          "indexed": true,
          "internalType": "uint256",
          "name": "configHash",
          "type": "uint256"
        },
        {
          "indexed": true,
          "internalType": "uint256",
          "name": "chainId",
          "type": "uint256"
        },
        {
          "indexed": false,
          "internalType": "address",
          "name": "token",
          "type": "address"
        }
      ],
      "name": "ConfigSet",
      "type": "event"
    },
    {
      "anonymous": false,
      "inputs": [
        {
          "indexed": true,
          "internalType": "address",
          "name": "account",
          "type": "address"
        }
      ],
      "name": "ModuleInitialized",
      "type": "event"
    },
    {
      "anonymous": false,
      "inputs": [
        {
          "indexed": true,
          "internalType": "address",
          "name": "account",
          "type": "address"
        }
      ],
      "name": "ModuleUninitialized",
      "type": "event"
    },
    {
      "anonymous": false,
      "inputs": [
        {
          "indexed": true,
          "internalType": "address",
          "name": "previousOwner",
          "type": "address"
        },
        {
          "indexed": true,
          "internalType": "address",
          "name": "newOwner",
          "type": "address"
        }
      ],
      "name": "OwnershipTransferred",
      "type": "event"
    },
    {
      "anonymous": false,
      "inputs": [
        {
          "indexed": true,
          "internalType": "address",
          "name": "relayer",
          "type": "address"
        }
      ],
      "name": "RemoveAuthorizedRelayer",
      "type": "event"
    },
    {
      "inputs": [],
      "name": "MODULE_TYPE_EXECUTOR",
      "outputs": [
        {
          "internalType": "uint256",
          "name": "",
          "type": "uint256"
        }
      ],
      "stateMutability": "view",
      "type": "function"
    },
    {
      "inputs": [],
      "name": "NATIVE_TOKEN",
      "outputs": [
        {
          "internalType": "address",
          "name": "",
          "type": "address"
        }
      ],
      "stateMutability": "view",
      "type": "function"
    },
    {
      "inputs": [
        {
          "internalType": "address",
          "name": "",
          "type": "address"
        }
      ],
      "name": "accountConfig",
      "outputs": [
        {
          "internalType": "uint256",
          "name": "",
          "type": "uint256"
        }
      ],
      "stateMutability": "view",
      "type": "function"
    },
    {
      "inputs": [
        {
          "internalType": "address",
          "name": "newRelayer",
          "type": "address"
        }
      ],
      "name": "addAuthorizedRelayer",
      "outputs": [],
      "stateMutability": "nonpayable",
      "type": "function"
    },
    {
      "inputs": [
        {
          "internalType": "address",
          "name": "",
          "type": "address"
        }
      ],
      "name": "authorizedRelayers",
      "outputs": [
        {
          "internalType": "bool",
          "name": "",
          "type": "bool"
        }
      ],
      "stateMutability": "view",
      "type": "function"
    },
    {
      "inputs": [
        {
          "internalType": "address",
          "name": "token",
          "type": "address"
        },
        {
          "internalType": "uint256",
          "name": "amountToSave",
          "type": "uint256"
        },
        {
          "internalType": "address",
          "name": "nexusAccount",
          "type": "address"
        },
        {
          "internalType": "uint256",
          "name": "nonce",
          "type": "uint256"
        },
        {
          "internalType": "bytes",
          "name": "signature",
          "type": "bytes"
        }
      ],
      "name": "autoEarn",
      "outputs": [],
      "stateMutability": "nonpayable",
      "type": "function"
    },
    {
      "inputs": [
        {
          "internalType": "uint256",
          "name": "newConfigHash",
          "type": "uint256"
        }
      ],
      "name": "changeConfigHash",
      "outputs": [],
      "stateMutability": "nonpayable",
      "type": "function"
    },
    {
      "inputs": [
        {
          "internalType": "uint256",
          "name": "",
          "type": "uint256"
        },
        {
          "internalType": "uint256",
          "name": "",
          "type": "uint256"
        },
        {
          "internalType": "address",
          "name": "",
          "type": "address"
        }
      ],
      "name": "config",
      "outputs": [
        {
          "internalType": "address",
          "name": "",
          "type": "address"
        }
      ],
      "stateMutability": "view",
      "type": "function"
    },
    {
      "inputs": [
        {
          "internalType": "bytes32",
          "name": "",
          "type": "bytes32"
        }
      ],
      "name": "executedHashes",
      "outputs": [
        {
          "internalType": "bool",
          "name": "",
          "type": "bool"
        }
      ],
      "stateMutability": "view",
      "type": "function"
    },
    {
      "inputs": [
        {
          "internalType": "address",
          "name": "account",
          "type": "address"
        }
      ],
      "name": "getAllConfigs",
      "outputs": [
        {
          "components": [
            {
              "internalType": "address",
              "name": "token",
              "type": "address"
            },
            {
              "internalType": "address",
              "name": "vault",
              "type": "address"
            }
          ],
          "internalType": "struct AutoEarn.ConfigWithToken[]",
          "name": "",
          "type": "tuple[]"
        }
      ],
      "stateMutability": "view",
      "type": "function"
    },
    {
      "inputs": [],
      "name": "getConfigInputTypeData",
      "outputs": [
        {
          "internalType": "string",
          "name": "configInputTypeData",
          "type": "string"
        }
      ],
      "stateMutability": "pure",
      "type": "function"
    },
    {
      "inputs": [
        {
          "internalType": "uint256",
          "name": "configHash_",
          "type": "uint256"
        },
        {
          "internalType": "uint256",
          "name": "chainId_",
          "type": "uint256"
        }
      ],
      "name": "getTokens",
      "outputs": [
        {
          "internalType": "address[]",
          "name": "tokensArray",
          "type": "address[]"
        }
      ],
      "stateMutability": "view",
      "type": "function"
    },
    {
      "inputs": [
        {
          "internalType": "address",
          "name": "smartAccount",
          "type": "address"
        }
      ],
      "name": "isInitialized",
      "outputs": [
        {
          "internalType": "bool",
          "name": "",
          "type": "bool"
        }
      ],
      "stateMutability": "view",
      "type": "function"
    },
    {
      "inputs": [
        {
          "internalType": "uint256",
          "name": "moduleTypeId",
          "type": "uint256"
        }
      ],
      "name": "isModuleType",
      "outputs": [
        {
          "internalType": "bool",
          "name": "",
          "type": "bool"
        }
      ],
      "stateMutability": "pure",
      "type": "function"
    },
    {
      "inputs": [
        {
          "internalType": "bytes",
          "name": "data",
          "type": "bytes"
        }
      ],
      "name": "onInstall",
      "outputs": [],
      "stateMutability": "nonpayable",
      "type": "function"
    },
    {
      "inputs": [
        {
          "internalType": "bytes",
          "name": "data",
          "type": "bytes"
        }
      ],
      "name": "onUninstall",
      "outputs": [],
      "stateMutability": "nonpayable",
      "type": "function"
    },
    {
      "inputs": [],
      "name": "owner",
      "outputs": [
        {
          "internalType": "address",
          "name": "",
          "type": "address"
        }
      ],
      "stateMutability": "view",
      "type": "function"
    },
    {
      "inputs": [
        {
          "internalType": "address",
          "name": "relayer",
          "type": "address"
        }
      ],
      "name": "removeAuthorizedRelayer",
      "outputs": [],
      "stateMutability": "nonpayable",
      "type": "function"
    },
    {
      "inputs": [],
      "name": "renounceOwnership",
      "outputs": [],
      "stateMutability": "nonpayable",
      "type": "function"
    },
    {
      "inputs": [
        {
          "components": [
            {
              "internalType": "uint256",
              "name": "sourceChainId",
              "type": "uint256"
            },
            {
              "internalType": "address",
              "name": "sourceTokenAddress",
              "type": "address"
            },
            {
              "internalType": "address",
              "name": "vaultAddress",
              "type": "address"
            }
          ],
          "internalType": "struct AutoEarn.ConfigInput[]",
          "name": "newConfigs",
          "type": "tuple[]"
        }
      ],
      "name": "setConfig",
      "outputs": [],
      "stateMutability": "nonpayable",
      "type": "function"
    },
    {
      "inputs": [
        {
          "internalType": "address",
          "name": "newOwner",
          "type": "address"
        }
      ],
      "name": "transferOwnership",
      "outputs": [],
      "stateMutability": "nonpayable",
      "type": "function"
    },
    {
      "inputs": [
        {
          "internalType": "address",
          "name": "token",
          "type": "address"
        },
        {
          "internalType": "uint256",
          "name": "amount",
          "type": "uint256"
        },
        {
          "internalType": "address",
          "name": "to",
          "type": "address"
        }
      ],
      "name": "withdrawFromVault",
      "outputs": [],
      "stateMutability": "nonpayable",
      "type": "function"
    },
    {
      "inputs": [],
      "name": "wrappedNative",
      "outputs": [
        {
          "internalType": "address",
          "name": "",
          "type": "address"
        }
      ],
      "stateMutability": "view",
      "type": "function"
    }
  ],
  "bytecode": "0x60a03461013257601f611c6638819003918201601f19168301916001600160401b0383118484101761013657808492606094604052833981010312610132576100478161014a565b906100546020820161014a565b906001600160a01b039061006a9060400161014a565b1691821561011f575f80546001600160a01b031981168517825560405194916001600160a01b03909116907f8be0079c531659141344cd1fd0a4f28419497f9722a3daafe3b4186f6b6457e09080a36001600160a01b03165f8181526001602081905260408220805460ff191690911790557fa44ff6e0d94169d67f70222d68cf4f729cfce4da3b9c9224da7e2fa51e70de0d9080a2608052611b07908161015f82396080518181816103ef0152610cc10152f35b631e4fbdf760e01b5f525f60045260245ffd5b5f80fd5b634e487b7160e01b5f52604160045260245ffd5b51906001600160a01b03821682036101325756fe60806040526004361015610011575f80fd5b5f3560e01c8063086533da146112d55780630e13942b1461129d578063260d711e1461126e57806329e295c5146112315780632f6c8ea91461121657806331f7d964146111e857806339b154481461116b578063494cfc6c146110d25780635a71e2f8146110315780636d61fe7014610f6a578063715018a614610f135780638473ac5c14610a885780638a546426146109d45780638a91b0e31461098f5780638da5cb5b1461096a578063a4f4b0dd146108bb578063ac44680e14610861578063d60b347f1461081f578063d9725cf714610413578063eb6d3a11146103d0578063ecd05961146103b0578063ed44b7e1146101b65763f2fde38b14610116575f80fd5b346101b25760203660031901126101b2576001600160a01b0361013761138f565b61013f611882565b168015610186576001600160a01b035f54826001600160a01b03198216175f55167f8be0079c531659141344cd1fd0a4f28419497f9722a3daafe3b4186f6b6457e05f80a3005b7f1e4fbdf7000000000000000000000000000000000000000000000000000000005f525f60045260245ffd5b5f80fd5b346101b25760603660031901126101b2576101cf61138f565b6024356101da6113a5565b916101f9336001600160a01b03165f52600460205260405f2054151590565b1561039d57335f52600460205260405f20545f52600260205260405f20465f5260205260405f206001600160a01b0382165f526020526001600160a01b0360405f2054168015610381576102a76102e3925f926001600160a01b0380604051937f69328dec0000000000000000000000000000000000000000000000000000000060208601521697886024850152876044850152166064830152606482526102a2608483611450565b6118c1565b6102af61190c565b60405193849283927fd691c96400000000000000000000000000000000000000000000000000000000845260048401611766565b038183335af1908115610376575f91610354575b50511561032c576040519081527f6eb4f86d9b70dde0ea388657092a7ccbbe4eca43b4d14335b15045259acae01160203392a3005b7facfdb444000000000000000000000000000000000000000000000000000000005f5260045ffd5b61037091503d805f833e6103688183611450565b810190611690565b836102f7565b6040513d5f823e3d90fd5b6001600160a01b038263f5cd4cf960e01b5f521660045260245ffd5b632ed28b2160e11b5f523360045260245ffd5b346101b25760203660031901126101b25760206040516002600435148152f35b346101b2575f3660031901126101b25760206040516001600160a01b037f0000000000000000000000000000000000000000000000000000000000000000168152f35b346101b25760203660031901126101b25760043567ffffffffffffffff81116101b257366023820112156101b25780600401359067ffffffffffffffff82116101b257602481019060243691606085020101116101b257610472611882565b81156107f757604051602081019083604082016020845252606081018184915f5b8781106107a957506104ae925003601f198101835282611450565b519020905f5b8381106104bd57005b6104d360206104cd83878661166c565b0161167c565b906104e460406104cd83888761166c565b91846104f183888761166c565b3591604051602081019083825284604082015260408152610513606082611450565b519020805f52600360205260405f2060015f526020526001600160a01b0360405f20541615610735575b805f5260036020526001600160a01b0360405f2092169182600114159081610717575b50156105d2575b5060207f8afe5b0053da90e2d483e2804013f04f0d0f254cb0a9b5ee676d3fae01f0993691600196845f526002835260405f20865f52835260405f20825f5283526001600160a01b0360405f2091166001600160a01b0319825416179055604051908152a3016104b4565b809193949592505f5260036020526001600160a01b036105f460405f20611780565b9050166001811415908161070d575b506106e5575f52600360205260405f20821580156106db575b6106af57825f52806020526001600160a01b0360405f2054166106835760015f81815260209283526040808220805487845291832080546001600160a01b039093166001600160a01b03199384161790559290915281541684179055909392918691610567565b827f40d3d1a4000000000000000000000000000000000000000000000000000000005f5260045260245ffd5b827f7c84ecfb000000000000000000000000000000000000000000000000000000005f5260045260245ffd5b506001831461061c565b7f748e67b2000000000000000000000000000000000000000000000000000000005f5260045ffd5b9050151589610603565b9050825f526020526001600160a01b0360405f20541615158a610560565b8092505f52600360205260405f209160015f52826020526001600160a01b0360405f20541661078157879260015f5260205260405f2060016001600160a01b031982541617905561053d565b7f53c85e66000000000000000000000000000000000000000000000000000000005f5260045ffd5b9150606080600192853581526001600160a01b036107c9602088016113bb565b1660208201526001600160a01b036107e3604088016113bb565b166040820152019301910191839192610493565b7fcf4739d6000000000000000000000000000000000000000000000000000000005f5260045ffd5b346101b25760203660031901126101b257602061085761083d61138f565b6001600160a01b03165f52600460205260405f2054151590565b6040519015158152f35b346101b25760603660031901126101b25761087a6113a5565b6004355f52600260205260405f206024355f526020526001600160a01b0360405f2091165f5260205260206001600160a01b0360405f205416604051908152f35b346101b2575f3660031901126101b2576109666040516108dc608082611450565b604e81527f7475706c655b5d2875696e7432353620736f75726365436861696e49642c616460208201527f647265737320736f75726365546f6b656e416464726573732c6164647265737360408201527f207661756c744164647265737329000000000000000000000000000000000000606082015260405191829160208352602083019061148e565b0390f35b346101b2575f3660031901126101b25760206001600160a01b035f5416604051908152f35b346101b25761099d366113cf565b5050335f5260046020525f6040812055337f9d00629762554452d03c3b45626436df6ca1c3795d05d04df882f6db481b1be05f80a2005b346101b25760203660031901126101b257600435610a06336001600160a01b03165f52600460205260405f2054151590565b1561039d578015610a6057335f52600460205260405f205490335f5260046020528060405f205560405191825260208201527f393c6beb5756a944b2967f15f31ff671e312e945d7a84fd3bdcfd6b408b2dc7960403392a2005b7fb39d5b51000000000000000000000000000000000000000000000000000000005f5260045ffd5b346101b25760a03660031901126101b257610aa161138f565b602435610aac6113a5565b906084359167ffffffffffffffff83116101b257366023840112156101b2578260040135610ad981611472565b93610ae76040519586611450565b81855236602483830101116101b257815f92602460209301838801378501015260405192602084014681526001600160a01b038616956bffffffffffffffffffffffff199060601b1660408601528360548601526001600160a01b038316946bffffffffffffffffffffffff198460601b166074820152606435608882015260888152610b7560a882611450565b5190207f19457468657265756d205369676e6564204d6573736167653a0a3332000000005f52601c52603c5f2090815f52600560205260ff60405f205416610eeb57610bd5610bcc6001600160a01b039284611956565b90929192611990565b16805f52600160205260ff60405f20541615610ed9575090610c21915f52600560205260405f20600160ff198254161790556001600160a01b03165f52600460205260405f2054151590565b15610ec657815f52600460205260405f20545f52600260205260405f20465f5260205260405f20835f526020526001600160a01b0360405f2054168015610eb35773eeeeeeeeeeeeeeeeeeeeeeeeeeeeeeeeeeeeeeee8403610ead57604051610d225f602083017fd0e30db000000000000000000000000000000000000000000000000000000000815260048452610cba602485611450565b6102a760547f0000000000000000000000000000000000000000000000000000000000000000956040519384916bffffffffffffffffffffffff198960601b1660208401528a60348401525180918484015e810185838201520301601f198101835282611450565b038187895af1908115610376575f91610e93575b50511561032c576001600160a01b03165b610da35f6102a76001600160a01b03604051947f095ea7b300000000000000000000000000000000000000000000000000000000602087015286602487015287604487015260448652610d9b606487611450565b1693846118c1565b038183895af1908115610376575f91610e79575b50511561032c576102a75f91610e1793604051917f617ba0370000000000000000000000000000000000000000000000000000000060208401526024830152856044830152866064830152836084830152608482526102a260a483611450565b038183875af1908115610376575f91610e5f575b50511561032c5760207f6eb4f86d9b70dde0ea388657092a7ccbbe4eca43b4d14335b15045259acae01191604051908152a3005b610e7391503d805f833e6103688183611450565b84610e2b565b610e8d91503d805f833e6103688183611450565b86610db7565b610ea791503d805f833e6103688183611450565b86610d36565b83610d47565b8363f5cd4cf960e01b5f5260045260245ffd5b50632ed28b2160e11b5f5260045260245ffd5b634a0bfec160e01b5f5260045260245ffd5b7f900bb2c9000000000000000000000000000000000000000000000000000000005f5260045ffd5b346101b2575f3660031901126101b257610f2b611882565b5f6001600160a01b0381546001600160a01b031981168355167f8be0079c531659141344cd1fd0a4f28419497f9722a3daafe3b4186f6b6457e08280a3005b346101b257610f78366113cf565b335f908152600460205260409020546110055781602091810103126101b257358015610a6057335f5260046020528060405f205560405190337f27b541a16df0902e262f34789782092ab25125513b8ed73608e802951771b9285f80a25f825260208201527f393c6beb5756a944b2967f15f31ff671e312e945d7a84fd3bdcfd6b408b2dc7960403392a2005b7f4d6b9dd3000000000000000000000000000000000000000000000000000000005f523360045260245ffd5b346101b25760203660031901126101b25761104a61138f565b335f52600160205260ff60405f20541615806110be575b6110ab576001600160a01b0316805f52600160205260405f20600160ff198254161790557fa44ff6e0d94169d67f70222d68cf4f729cfce4da3b9c9224da7e2fa51e70de0d5f80a2005b634a0bfec160e01b5f523360045260245ffd5b506001600160a01b035f5416331415611061565b346101b25760403660031901126101b25760405160208101906004358252602435604082015260408152611107606082611450565b5190205f52600360205261111d60405f20611780565b506040518091602082016020835281518091526020604084019201905f5b818110611149575050500390f35b82516001600160a01b031684528594506020938401939092019160010161113b565b346101b25760203660031901126101b25761118c61118761138f565b6114f2565b6040518091602082016020835281518091526020604084019201905f5b8181106111b7575050500390f35b91935091602060406001926001600160a01b03838851828151168452015116838201520194019101918493926111a9565b346101b2575f3660031901126101b257602060405173eeeeeeeeeeeeeeeeeeeeeeeeeeeeeeeeeeeeeeee8152f35b346101b2575f3660031901126101b257602060405160028152f35b346101b25760203660031901126101b2576001600160a01b0361125261138f565b165f526001602052602060ff60405f2054166040519015158152f35b346101b25760203660031901126101b2576004355f526005602052602060ff60405f2054166040519015158152f35b346101b25760203660031901126101b2576001600160a01b036112be61138f565b165f526004602052602060405f2054604051908152f35b346101b25760203660031901126101b2576112ee61138f565b335f52600160205260ff60405f205416158061137b575b6110ab576001600160a01b031633811461135357805f52600160205260405f2060ff1981541690557f65beca40474fc223df158326daebfa4f3508869a6cf95dec7beb00b27af20adb5f80a2005b7f5e03d55f000000000000000000000000000000000000000000000000000000005f5260045ffd5b506001600160a01b035f5416331415611305565b600435906001600160a01b03821682036101b257565b604435906001600160a01b03821682036101b257565b35906001600160a01b03821682036101b257565b9060206003198301126101b25760043567ffffffffffffffff81116101b257826023820112156101b25780600401359267ffffffffffffffff84116101b257602484830101116101b2576024019190565b6040810190811067ffffffffffffffff82111761143c57604052565b634e487b7160e01b5f52604160045260245ffd5b90601f8019910116810190811067ffffffffffffffff82111761143c57604052565b67ffffffffffffffff811161143c57601f01601f191660200190565b805180835260209291819084018484015e5f828201840152601f01601f1916010190565b67ffffffffffffffff811161143c5760051b60200190565b80518210156114de5760209160051b010190565b634e487b7160e01b5f52603260045260245ffd5b6001600160a01b03165f52600460205260405f205480156116285760405160208101908282524660408201526040815261152d606082611450565b5190205f52600360205261154360405f20611780565b5090815191611551836114b2565b9261155f6040519485611450565b80845261156e601f19916114b2565b015f5b8181106116055750505f5b81518110156115ff57806001600160a01b0361159a600193856114ca565b5116845f52600260205260405f20465f5260205260405f206001600160a01b0382165f526020526001600160a01b0360405f205416604051916115dc83611420565b825260208201526115ed82876114ca565b526115f881866114ca565b500161157c565b50505090565b60209060405161161481611420565b5f81525f8382015282828801015201611571565b50604051611637602082611450565b5f81525f805b81811061164957505090565b60209060405161165881611420565b5f81525f838201528282860101520161163d565b91908110156114de576060020190565b356001600160a01b03811681036101b25790565b6020818303126101b25780519067ffffffffffffffff82116101b257019080601f830112156101b2578151916116c5836114b2565b926116d36040519485611450565b80845260208085019160051b830101918383116101b25760208101915b8383106116ff57505050505090565b825167ffffffffffffffff81116101b257820185603f820112156101b25760208101519161172c83611472565b6117396040519182611450565b83815260408385010188106101b2575f602085819660408397018386015e830101528152019201916116f0565b60409061177d93928152816020820152019061148e565b90565b60405191610ca06117918185611450565b60648452601f1901366020850137825f9360015f52836020526001600160a01b0360405f2054165b6001600160a01b0381169081151580611877575b8061186d575b1561181f5750806117e487856114ca565b525f52836020526001600160a01b0360405f205416945f19811461180b57600101946117b9565b634e487b7160e01b5f52601160045260245ffd5b945050939060016001600160a01b038516141580611864575b61183f5752565b92505f19810181811161180b5761185e6001600160a01b0391856114ca565b51169252565b50811515611838565b50606487106117d3565b5060018214156117cd565b6001600160a01b035f5416330361189557565b7f118cdaa7000000000000000000000000000000000000000000000000000000005f523360045260245ffd5b605461177d9160206040519485926bffffffffffffffffffffffff199060601b16828401525f60348401528051918291018484015e81015f838201520301601f198101835282611450565b60405160208101905f82525f60218201525f60228201525f6026820152601c8152611938603c82611450565b5190519060208110611948575090565b5f199060200360031b1b1690565b81519190604183036119865761197f9250602082015190606060408401519301515f1a90611a4f565b9192909190565b50505f9160029190565b6004811015611a3b57806119a2575050565b600181036119d2577ff645eedf000000000000000000000000000000000000000000000000000000005f5260045ffd5b60028103611a0657507ffce698f7000000000000000000000000000000000000000000000000000000005f5260045260245ffd5b600314611a105750565b7fd78bce0c000000000000000000000000000000000000000000000000000000005f5260045260245ffd5b634e487b7160e01b5f52602160045260245ffd5b91907f7fffffffffffffffffffffffffffffff5d576e7357a4501ddfe92f46681b20a08411611ac6579160209360809260ff5f9560405194855216868401526040830152606082015282805260015afa15610376575f516001600160a01b03811615611abc57905f905f90565b505f906001905f90565b5050505f916003919056fea2646970667358221220dccb197f4567b4f8bfa156e0b3dfc65b552fcf81be45542a296c17a7e210fcb064736f6c634300081b0033",
  "linkReferences": {},
  "deployedLinkReferences": {}
}