{
  "_format": "hh-sol-artifact-1",
  "contractName": "MockDelegateTarget",
  "sourceName": "contracts/mocks/MockDelegateTarget.sol",
  "abi": [
    {
      "inputs": [
        {
          "internalType": "address",
          "name": "target",
          "type": "address"
        },
        {
          "internalType": "uint256",
          "name": "_value",
          "type": "uint256"
        }
      ],
      "name": "sendValue",
      "outputs": [],
      "stateMutability": "nonpayable",
      "type": "function"
    }
  ],
  "bytecode": "0x6080806040523460155761010d908161001a8239f35b5f80fdfe608060405260043610156010575f80fd5b5f3560e01c6324a084df146022575f80fd5b3460d357604036600319011260d35760043573ffffffffffffffffffffffffffffffffffffffff8116810360d3575f80808093602435905af1503d1560d1573d67ffffffffffffffff811160a45760405190601f8101601f19908116603f0116820167ffffffffffffffff81118382101760a45760405281525f60203d92013e005b7f4e487b71000000000000000000000000000000000000000000000000000000005f52604160045260245ffd5b005b5f80fdfea26469706673582212201651f67b58f7b53f1a7ff093b136012dc7dfb7ff87ede48b8a9d6b98c5bd5ee264736f6c634300081b0033",
  "linkReferences": {},
  "deployedLinkReferences": {}
}