{
  "_format": "hh-sol-artifact-1",
  "contractName": "K1ValidatorFactory",
  "sourceName": "contracts/factory/K1ValidatorFactory.sol",
  "abi": [
    {
      "inputs": [
        {
          "internalType": "address",
          "name": "implementation",
          "type": "address"
        },
        {
          "internalType": "address",
          "name": "factoryOwner",
          "type": "address"
        },
        {
          "internalType": "address",
          "name": "k1Validator",
          "type": "address"
        },
        {
          "internalType": "contract NexusBootstrap",
          "name": "bootstrapper",
          "type": "address"
        },
        {
          "internalType": "contract IERC7484",
          "name": "registry",
          "type": "address"
        }
      ],
      "stateMutability": "nonpayable",
      "type": "constructor"
    },
    {
      "inputs": [],
      "name": "AlreadyInitialized",
      "type": "error"
    },
    {
      "inputs": [],
      "name": "EthTransferFailed",
      "type": "error"
    },
    {
      "inputs": [],
      "name": "InvalidEntryPointAddress",
      "type": "error"
    },
    {
      "inputs": [],
      "name": "NewOwnerIsZeroAddress",
      "type": "error"
    },
    {
      "inputs": [],
      "name": "NoHandoverRequest",
      "type": "error"
    },
    {
      "inputs": [],
      "name": "Unauthorized",
      "type": "error"
    },
    {
      "inputs": [],
      "name": "ZeroAddressNotAllowed",
      "type": "error"
    },
    {
      "anonymous": false,
      "inputs": [
        {
          "indexed": true,
          "internalType": "address",
          "name": "account",
          "type": "address"
        },
        {
          "indexed": true,
          "internalType": "address",
          "name": "owner",
          "type": "address"
        },
        {
          "indexed": true,
          "internalType": "uint256",
          "name": "index",
          "type": "uint256"
        }
      ],
      "name": "AccountCreated",
      "type": "event"
    },
    {
      "anonymous": false,
      "inputs": [
        {
          "indexed": true,
          "internalType": "address",
          "name": "pendingOwner",
          "type": "address"
        }
      ],
      "name": "OwnershipHandoverCanceled",
      "type": "event"
    },
    {
      "anonymous": false,
      "inputs": [
        {
          "indexed": true,
          "internalType": "address",
          "name": "pendingOwner",
          "type": "address"
        }
      ],
      "name": "OwnershipHandoverRequested",
      "type": "event"
    },
    {
      "anonymous": false,
      "inputs": [
        {
          "indexed": true,
          "internalType": "address",
          "name": "oldOwner",
          "type": "address"
        },
        {
          "indexed": true,
          "internalType": "address",
          "name": "newOwner",
          "type": "address"
        }
      ],
      "name": "OwnershipTransferred",
      "type": "event"
    },
    {
      "inputs": [],
      "name": "ACCOUNT_IMPLEMENTATION",
      "outputs": [
        {
          "internalType": "address",
          "name": "",
          "type": "address"
        }
      ],
      "stateMutability": "view",
      "type": "function"
    },
    {
      "inputs": [],
      "name": "BOOTSTRAPPER",
      "outputs": [
        {
          "internalType": "contract NexusBootstrap",
          "name": "",
          "type": "address"
        }
      ],
      "stateMutability": "view",
      "type": "function"
    },
    {
      "inputs": [],
      "name": "K1_VALIDATOR",
      "outputs": [
        {
          "internalType": "address",
          "name": "",
          "type": "address"
        }
      ],
      "stateMutability": "view",
      "type": "function"
    },
    {
      "inputs": [],
      "name": "REGISTRY",
      "outputs": [
        {
          "internalType": "contract IERC7484",
          "name": "",
          "type": "address"
        }
      ],
      "stateMutability": "view",
      "type": "function"
    },
    {
      "inputs": [
        {
          "internalType": "address",
          "name": "epAddress",
          "type": "address"
        },
        {
          "internalType": "uint32",
          "name": "unstakeDelaySec",
          "type": "uint32"
        }
      ],
      "name": "addStake",
      "outputs": [],
      "stateMutability": "payable",
      "type": "function"
    },
    {
      "inputs": [],
      "name": "cancelOwnershipHandover",
      "outputs": [],
      "stateMutability": "payable",
      "type": "function"
    },
    {
      "inputs": [
        {
          "internalType": "address",
          "name": "pendingOwner",
          "type": "address"
        }
      ],
      "name": "completeOwnershipHandover",
      "outputs": [],
      "stateMutability": "payable",
      "type": "function"
    },
    {
      "inputs": [
        {
          "internalType": "address",
          "name": "eoaOwner",
          "type": "address"
        },
        {
          "internalType": "uint256",
          "name": "index",
          "type": "uint256"
        },
        {
          "internalType": "address[]",
          "name": "attesters",
          "type": "address[]"
        },
        {
          "internalType": "uint8",
          "name": "threshold",
          "type": "uint8"
        }
      ],
      "name": "computeAccountAddress",
      "outputs": [
        {
          "internalType": "address payable",
          "name": "expectedAddress",
          "type": "address"
        }
      ],
      "stateMutability": "view",
      "type": "function"
    },
    {
      "inputs": [
        {
          "internalType": "address",
          "name": "eoaOwner",
          "type": "address"
        },
        {
          "internalType": "uint256",
          "name": "index",
          "type": "uint256"
        },
        {
          "internalType": "address[]",
          "name": "attesters",
          "type": "address[]"
        },
        {
          "internalType": "uint8",
          "name": "threshold",
          "type": "uint8"
        }
      ],
      "name": "createAccount",
      "outputs": [
        {
          "internalType": "address payable",
          "name": "",
          "type": "address"
        }
      ],
      "stateMutability": "payable",
      "type": "function"
    },
    {
      "inputs": [],
      "name": "owner",
      "outputs": [
        {
          "internalType": "address",
          "name": "result",
          "type": "address"
        }
      ],
      "stateMutability": "view",
      "type": "function"
    },
    {
      "inputs": [
        {
          "internalType": "address",
          "name": "pendingOwner",
          "type": "address"
        }
      ],
      "name": "ownershipHandoverExpiresAt",
      "outputs": [
        {
          "internalType": "uint256",
          "name": "result",
          "type": "uint256"
        }
      ],
      "stateMutability": "view",
      "type": "function"
    },
    {
      "inputs": [],
      "name": "renounceOwnership",
      "outputs": [],
      "stateMutability": "payable",
      "type": "function"
    },
    {
      "inputs": [],
      "name": "requestOwnershipHandover",
      "outputs": [],
      "stateMutability": "payable",
      "type": "function"
    },
    {
      "inputs": [
        {
          "internalType": "address",
          "name": "newOwner",
          "type": "address"
        }
      ],
      "name": "transferOwnership",
      "outputs": [],
      "stateMutability": "payable",
      "type": "function"
    },
    {
      "inputs": [
        {
          "internalType": "address",
          "name": "epAddress",
          "type": "address"
        }
      ],
      "name": "unlockStake",
      "outputs": [],
      "stateMutability": "nonpayable",
      "type": "function"
    },
    {
      "inputs": [
        {
          "internalType": "address",
          "name": "epAddress",
          "type": "address"
        },
        {
          "internalType": "address payable",
          "name": "withdrawAddress",
          "type": "address"
        }
      ],
      "name": "withdrawStake",
      "outputs": [],
      "stateMutability": "nonpayable",
      "type": "function"
    }
  ],
  "bytecode": "0x6101003461019957601f61128038819003918201601f19168301916001600160401b0383118484101761019d5780849260a09460405283398101031261019957610048816101b1565b90610055602082016101b1565b91610062604083016101b1565b6060830151929091906001600160a01b038416908185036101995760800151946001600160a01b03861686036101995760018060a01b031680638b78c6d819547f8be0079c531659141344cd1fd0a4f28419497f9722a3daafe3b4186f6b6457e05f80a3638b78c6d8198190556001600160a01b03831615918215610187575b821561017e575b508115610175575b506101665760805260a05260c05260e0526040516110ba90816101c682396080518181816106200152818161067401526107dc015260a0518181816101b0015281816105b0015261076b015260c051818181610333015281816105e801526107a3015260e051818181610566015261098e0152f35b6342bcdf7f60e11b5f5260045ffd5b9050155f6100f1565b1591505f6100e9565b6001600160a01b0385161592506100e2565b5f80fd5b634e487b7160e01b5f52604160045260245ffd5b51906001600160a01b03821682036101995756fe6080806040526004361015610012575f80fd5b5f905f3560e01c90816306433b1b14610971575080630d51f0b7146106e15780632569296214610698578063290ab98414610655578063322cc8ca146104d057806345171159146104185780634a1ce5991461039d57806354d1f13d1461035757806367d2d1c914610313578063715018a6146102c85780638da5cb5b1461029d578063b36f9705146101d4578063d0733b3b14610190578063f04e283e14610142578063f2fde38b146101035763fee81cf4146100ce575f80fd5b34610100576020366003190112610100576100e76109b2565b9063389a75e1600c5252602080600c2054604051908152f35b80fd5b506020366003190112610100576101186109b2565b610120610d57565b8060601b156101355761013290610d73565b80f35b637448fbae82526004601cfd5b506020366003190112610100576101576109b2565b61015f610d57565b63389a75e1600c528082526020600c20805442116101835790826101329255610d73565b636f5e881883526004601cfd5b503461010057806003193601126101005760206040516001600160a01b037f0000000000000000000000000000000000000000000000000000000000000000168152f35b5034610100576040366003190112610100576101ee6109b2565b90602435916001600160a01b038316809303610299576001600160a01b0390610215610d57565b16801561028a578192813b156102865782916024839260405194859384927fc23a5cea00000000000000000000000000000000000000000000000000000000845260048401525af1801561027b5761026a5750f35b8161027491610afb565b6101005780f35b6040513d84823e3d90fd5b5050fd5b6004826391fdf19160e01b8152fd5b5080fd5b50346101005780600319360112610100576020638b78c6d819546001600160a01b0360405191168152f35b5080600319360112610100576102dc610d57565b80638b78c6d819547f8be0079c531659141344cd1fd0a4f28419497f9722a3daafe3b4186f6b6457e08280a380638b78c6d8195580f35b503461010057806003193601126101005760206040516001600160a01b037f0000000000000000000000000000000000000000000000000000000000000000168152f35b50806003193601126101005763389a75e1600c52338152806020600c2055337ffa7b8eab7da67f412cc9575ed43464468f9bfbae89d1675917346ca6d8fe3c928280a280f35b5034610100576020366003190112610100576001600160a01b036103bf6109b2565b6103c7610d57565b16801561028a578082913b15610415578180916004604051809481937fbb9fe6bf0000000000000000000000000000000000000000000000000000000083525af1801561027b5761026a5750f35b50fd5b5060403660031901126104bd5761042d6109b2565b6024359063ffffffff82168092036104bd576001600160a01b0390610450610d57565b169081156104c157813b156104bd575f906024604051809481937f0396cb60000000000000000000000000000000000000000000000000000000008352600483015234905af180156104b2576104a4575080f35b6104b091505f90610afb565b005b6040513d5f823e3d90fd5b5f80fd5b6391fdf19160e01b5f5260045ffd5b346104bd57602061064461061060ff61061e61058f6105d86104f1366109dc565b919792816105218a6105138660409b969b519460209386948501978c89610a56565b03601f198101835282610afb565b51902097604051946bffffffffffffffffffffffff199060601b168c8601526014855261054f603486610afb565b6040519661055c88610adf565b6001600160a01b037f00000000000000000000000000000000000000000000000000000000000000001688523691610b1d565b8a860152166040840152610513604051938492639afb7c8d60e01b8b8501527f000000000000000000000000000000000000000000000000000000000000000060248501610b9f565b6040519384916001600160a01b037f000000000000000000000000000000000000000000000000000000000000000016888401610c30565b03601f198101845283610afb565b7f0000000000000000000000000000000000000000000000000000000000000000610c53565b6001600160a01b0360405191168152f35b346104bd575f3660031901126104bd5760206040516001600160a01b037f0000000000000000000000000000000000000000000000000000000000000000168152f35b5f3660031901126104bd5763389a75e1600c52335f526202a30042016020600c2055337fdbf36a107da19e49527a7176a1babf963b4b0ff8cde35ee35d6cd8f1f9ac7e1d5f80a2005b6107da6107cc6107936106f3366109dc565b969294909160ff8582610716896105138d89604051958694602086019889610a56565b51902098610748604051936bffffffffffffffffffffffff198960601b1660208601526014855261054f603486610afb565b6020860152166040840152610513604051938492639afb7c8d60e01b60208501527f000000000000000000000000000000000000000000000000000000000000000060248501610b9f565b6040519485916001600160a01b037f00000000000000000000000000000000000000000000000000000000000000001660208401610c30565b03601f198101855284610afb565b7f0000000000000000000000000000000000000000000000000000000000000000936001600160a01b0361080f858388610c53565b1693843b1595865f146108f45761084761061092604051938491634b6a141960e01b6020840152602060248401526044830190610b7b565b604051916102d3908184019284841067ffffffffffffffff8511176108c757849361087693610db28639610c30565b039034f5156104b2576020935b610892575b5050604051908152f35b6001600160a01b0316827f33310a89c32d8cc00057ad6ef6274d2f8fe22389a992cf89983e09fc84f6cfff5f80a48280610888565b7f4e487b71000000000000000000000000000000000000000000000000000000005f52604160045260245ffd5b5050505f80808034875af13d1561096c573d67ffffffffffffffff81116108c7576040519061092d601f8201601f191660200183610afb565b81525f60203d92013e5b1561094457602093610883565b7f6d963f88000000000000000000000000000000000000000000000000000000005f5260045ffd5b610937565b346104bd575f3660031901126104bd576020906001600160a01b037f0000000000000000000000000000000000000000000000000000000000000000168152f35b600435906001600160a01b03821682036104bd57565b35906001600160a01b03821682036104bd57565b9060806003198301126104bd576004356001600160a01b03811681036104bd57916024359160443567ffffffffffffffff81116104bd57826023820112156104bd5780600401359267ffffffffffffffff84116104bd5760248460051b830101116104bd57602401919060643560ff811681036104bd5790565b60609190911b6bffffffffffffffffffffffff191681526014810191909152929392603401915f5b818110610ab7575050507fff000000000000000000000000000000000000000000000000000000000000006001929360f81b1681520190565b9091926020806001926001600160a01b03610ad1886109c8565b168152019401929101610a7e565b6060810190811067ffffffffffffffff8211176108c757604052565b90601f8019910116810190811067ffffffffffffffff8211176108c757604052565b9291909267ffffffffffffffff84116108c7578360051b906020604051610b4682850182610afb565b80968152019181019283116104bd57905b828210610b6357505050565b60208091610b70846109c8565b815201910190610b57565b805180835260209291819084018484015e5f828201840152601f01601f1916010190565b916001600160a01b03610bc092168352606060208401526060830190610b7b565b90604081830391015260608101916001600160a01b0381511682526020810151926060602084015283518091526020608084019401905f5b818110610c115750505060ff6040809201511691015290565b82516001600160a01b0316865260209586019590920191600101610bf8565b6040906001600160a01b03610c5094931681528160208201520190610b7b565b90565b91610cc0610cff6001600160a01b039460206102d391610cce610513610cb060405198610c828688018b610afb565b868a52858a0196610db28839604051928391634b6a141960e01b888401528760248401526044830190610b7b565b6040519687918583019485610c30565b03601f198101875286610afb565b60405194859383850197518091895e840190838201905f8252519283915e01015f815203601f198101835282610afb565b5190206040519060208201927fff0000000000000000000000000000000000000000000000000000000000000084523060601b60218401526035830152605582015260558152610d50607582610afb565b5190201690565b638b78c6d819543303610d6657565b6382b429005f526004601cfd5b6001600160a01b031680638b78c6d819547f8be0079c531659141344cd1fd0a4f28419497f9722a3daafe3b4186f6b6457e05f80a3638b78c6d8195556fe60806040526102d3803803806100148161018c565b92833981016040828203126101885781516001600160a01b03811692909190838303610188576020810151906001600160401b03821161018857019281601f8501121561018857835161006e610069826101c5565b61018c565b9481865260208601936020838301011161018857815f926020809301865e8601015260017f90b772c2cb8a51aa7a8a65fc23543c6d022d5b3f8e2b92eed79fba7eef8293005d823b15610176577f360894a13ba1a3210667c828492db98dca3e2076cc3735a920a3ca505d382bbc80546001600160a01b031916821790557fbc7cd75a20ee27fd9adebab32041f755214dbc6bffa90cc0225b39da2e5c2d3b5f80a282511561015e575f8091610146945190845af43d15610156573d91610137610069846101c5565b9283523d5f602085013e6101e0565b505b6040516094908161023f8239f35b6060916101e0565b50505034156101485763b398979f60e01b5f5260045ffd5b634c9c8ce360e01b5f5260045260245ffd5b5f80fd5b6040519190601f01601f191682016001600160401b038111838210176101b157604052565b634e487b7160e01b5f52604160045260245ffd5b6001600160401b0381116101b157601f01601f191660200190565b9061020457508051156101f557602081519101fd5b63d6bda27560e01b5f5260045ffd5b81511580610235575b610215575090565b639996b31560e01b5f9081526001600160a01b0391909116600452602490fd5b50803b1561020d56fe60806040523615605c575f8073ffffffffffffffffffffffffffffffffffffffff7f360894a13ba1a3210667c828492db98dca3e2076cc3735a920a3ca505d382bbc5416368280378136915af43d5f803e156058573d5ff35b3d5ffd5b00fea26469706673582212207d13258da780c7b2dd26d421b2064a79730021923fdac3ac3b5a3e2d81dd52e664736f6c634300081b0033a26469706673582212200d4362c330fbbaa152164eaa8a191bc20a0b1d414652a57f036e3a93d3dc6dcb64736f6c634300081b0033",
  "linkReferences": {},
  "deployedLinkReferences": {}
}