{
  "_format": "hh-sol-artifact-1",
  "contractName": "NexusBootstrap",
  "sourceName": "contracts/utils/NexusBootstrap.sol",
  "abi": [
    {
      "inputs": [
        {
          "internalType": "address",
          "name": "defaultValidator",
          "type": "address"
        },
        {
          "internalType": "bytes",
          "name": "initData",
          "type": "bytes"
        }
      ],
      "stateMutability": "nonpayable",
      "type": "constructor"
    },
    {
      "inputs": [],
      "name": "CanNotRemoveLastValidator",
      "type": "error"
    },
    {
      "inputs": [],
      "name": "DefaultValidatorAlreadyInstalled",
      "type": "error"
    },
    {
      "inputs": [],
      "name": "EmergencyUninstallSigError",
      "type": "error"
    },
    {
      "inputs": [],
      "name": "EnableModeSigError",
      "type": "error"
    },
    {
      "inputs": [
        {
          "internalType": "bytes4",
          "name": "selector",
          "type": "bytes4"
        }
      ],
      "name": "FallbackAlreadyInstalledForSelector",
      "type": "error"
    },
    {
      "inputs": [],
      "name": "FallbackCallTypeInvalid",
      "type": "error"
    },
    {
      "inputs": [],
      "name": "FallbackHandlerUninstallFailed",
      "type": "error"
    },
    {
      "inputs": [
        {
          "internalType": "bytes4",
          "name": "selector",
          "type": "bytes4"
        }
      ],
      "name": "FallbackNotInstalledForSelector",
      "type": "error"
    },
    {
      "inputs": [],
      "name": "FallbackSelectorForbidden",
      "type": "error"
    },
    {
      "inputs": [
        {
          "internalType": "address",
          "name": "currentHook",
          "type": "address"
        }
      ],
      "name": "HookAlreadyInstalled",
      "type": "error"
    },
    {
      "inputs": [],
      "name": "HookPostCheckFailed",
      "type": "error"
    },
    {
      "inputs": [],
      "name": "InvalidInput",
      "type": "error"
    },
    {
      "inputs": [
        {
          "internalType": "address",
          "name": "module",
          "type": "address"
        }
      ],
      "name": "InvalidModule",
      "type": "error"
    },
    {
      "inputs": [
        {
          "internalType": "uint256",
          "name": "moduleTypeId",
          "type": "uint256"
        }
      ],
      "name": "InvalidModuleTypeId",
      "type": "error"
    },
    {
      "inputs": [],
      "name": "InvalidNonce",
      "type": "error"
    },
    {
      "inputs": [],
      "name": "LinkedList_AlreadyInitialized",
      "type": "error"
    },
    {
      "inputs": [
        {
          "internalType": "address",
          "name": "entry",
          "type": "address"
        }
      ],
      "name": "LinkedList_EntryAlreadyInList",
      "type": "error"
    },
    {
      "inputs": [
        {
          "internalType": "address",
          "name": "entry",
          "type": "address"
        }
      ],
      "name": "LinkedList_InvalidEntry",
      "type": "error"
    },
    {
      "inputs": [],
      "name": "LinkedList_InvalidPage",
      "type": "error"
    },
    {
      "inputs": [],
      "name": "MismatchModuleTypeId",
      "type": "error"
    },
    {
      "inputs": [
        {
          "internalType": "bytes4",
          "name": "selector",
          "type": "bytes4"
        }
      ],
      "name": "MissingFallbackHandler",
      "type": "error"
    },
    {
      "inputs": [],
      "name": "ModuleAddressCanNotBeZero",
      "type": "error"
    },
    {
      "inputs": [
        {
          "internalType": "uint256",
          "name": "moduleTypeId",
          "type": "uint256"
        },
        {
          "internalType": "address",
          "name": "module",
          "type": "address"
        }
      ],
      "name": "ModuleAlreadyInstalled",
      "type": "error"
    },
    {
      "inputs": [
        {
          "internalType": "uint256",
          "name": "moduleTypeId",
          "type": "uint256"
        },
        {
          "internalType": "address",
          "name": "module",
          "type": "address"
        }
      ],
      "name": "ModuleNotInstalled",
      "type": "error"
    },
    {
      "inputs": [],
      "name": "NoValidatorInstalled",
      "type": "error"
    },
    {
      "inputs": [
        {
          "internalType": "address",
          "name": "currentPreValidationHook",
          "type": "address"
        }
      ],
      "name": "PrevalidationHookAlreadyInstalled",
      "type": "error"
    },
    {
      "inputs": [
        {
          "internalType": "address",
          "name": "operator",
          "type": "address"
        }
      ],
      "name": "UnauthorizedOperation",
      "type": "error"
    },
    {
      "inputs": [
        {
          "internalType": "CallType",
          "name": "callType",
          "type": "bytes1"
        }
      ],
      "name": "UnsupportedCallType",
      "type": "error"
    },
    {
      "inputs": [
        {
          "internalType": "address",
          "name": "module",
          "type": "address"
        }
      ],
      "name": "ValidatorNotInstalled",
      "type": "error"
    },
    {
      "anonymous": false,
      "inputs": [
        {
          "indexed": true,
          "internalType": "contract IERC7484",
          "name": "registry",
          "type": "address"
        }
      ],
      "name": "ERC7484RegistryConfigured",
      "type": "event"
    },
    {
      "anonymous": false,
      "inputs": [
        {
          "indexed": false,
          "internalType": "uint256",
          "name": "moduleTypeId",
          "type": "uint256"
        },
        {
          "indexed": false,
          "internalType": "address",
          "name": "module",
          "type": "address"
        }
      ],
      "name": "ModuleInstalled",
      "type": "event"
    },
    {
      "anonymous": false,
      "inputs": [
        {
          "indexed": false,
          "internalType": "uint256",
          "name": "moduleTypeId",
          "type": "uint256"
        },
        {
          "indexed": false,
          "internalType": "address",
          "name": "module",
          "type": "address"
        }
      ],
      "name": "ModuleUninstalled",
      "type": "event"
    },
    {
      "stateMutability": "payable",
      "type": "fallback"
    },
    {
      "inputs": [],
      "name": "eip712Domain",
      "outputs": [
        {
          "internalType": "bytes1",
          "name": "fields",
          "type": "bytes1"
        },
        {
          "internalType": "string",
          "name": "name",
          "type": "string"
        },
        {
          "internalType": "string",
          "name": "version",
          "type": "string"
        },
        {
          "internalType": "uint256",
          "name": "chainId",
          "type": "uint256"
        },
        {
          "internalType": "address",
          "name": "verifyingContract",
          "type": "address"
        },
        {
          "internalType": "bytes32",
          "name": "salt",
          "type": "bytes32"
        },
        {
          "internalType": "uint256[]",
          "name": "extensions",
          "type": "uint256[]"
        }
      ],
      "stateMutability": "view",
      "type": "function"
    },
    {
      "inputs": [],
      "name": "getActiveHook",
      "outputs": [
        {
          "internalType": "address",
          "name": "hook",
          "type": "address"
        }
      ],
      "stateMutability": "view",
      "type": "function"
    },
    {
      "inputs": [
        {
          "internalType": "address",
          "name": "cursor",
          "type": "address"
        },
        {
          "internalType": "uint256",
          "name": "size",
          "type": "uint256"
        }
      ],
      "name": "getExecutorsPaginated",
      "outputs": [
        {
          "internalType": "address[]",
          "name": "array",
          "type": "address[]"
        },
        {
          "internalType": "address",
          "name": "next",
          "type": "address"
        }
      ],
      "stateMutability": "view",
      "type": "function"
    },
    {
      "inputs": [
        {
          "internalType": "bytes4",
          "name": "selector",
          "type": "bytes4"
        }
      ],
      "name": "getFallbackHandlerBySelector",
      "outputs": [
        {
          "internalType": "CallType",
          "name": "",
          "type": "bytes1"
        },
        {
          "internalType": "address",
          "name": "",
          "type": "address"
        }
      ],
      "stateMutability": "view",
      "type": "function"
    },
    {
      "inputs": [],
      "name": "getRegistry",
      "outputs": [
        {
          "internalType": "contract IERC7484",
          "name": "",
          "type": "address"
        }
      ],
      "stateMutability": "view",
      "type": "function"
    },
    {
      "inputs": [
        {
          "internalType": "address",
          "name": "cursor",
          "type": "address"
        },
        {
          "internalType": "uint256",
          "name": "size",
          "type": "uint256"
        }
      ],
      "name": "getValidatorsPaginated",
      "outputs": [
        {
          "internalType": "address[]",
          "name": "array",
          "type": "address[]"
        },
        {
          "internalType": "address",
          "name": "next",
          "type": "address"
        }
      ],
      "stateMutability": "view",
      "type": "function"
    },
    {
      "inputs": [
        {
          "components": [
            {
              "internalType": "address",
              "name": "module",
              "type": "address"
            },
            {
              "internalType": "bytes",
              "name": "data",
              "type": "bytes"
            }
          ],
          "internalType": "struct BootstrapConfig[]",
          "name": "validators",
          "type": "tuple[]"
        },
        {
          "components": [
            {
              "internalType": "address",
              "name": "module",
              "type": "address"
            },
            {
              "internalType": "bytes",
              "name": "data",
              "type": "bytes"
            }
          ],
          "internalType": "struct BootstrapConfig[]",
          "name": "executors",
          "type": "tuple[]"
        },
        {
          "components": [
            {
              "internalType": "address",
              "name": "module",
              "type": "address"
            },
            {
              "internalType": "bytes",
              "name": "data",
              "type": "bytes"
            }
          ],
          "internalType": "struct BootstrapConfig",
          "name": "hook",
          "type": "tuple"
        },
        {
          "components": [
            {
              "internalType": "address",
              "name": "module",
              "type": "address"
            },
            {
              "internalType": "bytes",
              "name": "data",
              "type": "bytes"
            }
          ],
          "internalType": "struct BootstrapConfig[]",
          "name": "fallbacks",
          "type": "tuple[]"
        },
        {
          "components": [
            {
              "internalType": "uint256",
              "name": "hookType",
              "type": "uint256"
            },
            {
              "internalType": "address",
              "name": "module",
              "type": "address"
            },
            {
              "internalType": "bytes",
              "name": "data",
              "type": "bytes"
            }
          ],
          "internalType": "struct BootstrapPreValidationHookConfig[]",
          "name": "preValidationHooks",
          "type": "tuple[]"
        },
        {
          "components": [
            {
              "internalType": "contract IERC7484",
              "name": "registry",
              "type": "address"
            },
            {
              "internalType": "address[]",
              "name": "attesters",
              "type": "address[]"
            },
            {
              "internalType": "uint8",
              "name": "threshold",
              "type": "uint8"
            }
          ],
          "internalType": "struct RegistryConfig",
          "name": "registryConfig",
          "type": "tuple"
        }
      ],
      "name": "initNexus",
      "outputs": [],
      "stateMutability": "payable",
      "type": "function"
    },
    {
      "inputs": [
        {
          "components": [
            {
              "internalType": "address",
              "name": "module",
              "type": "address"
            },
            {
              "internalType": "bytes",
              "name": "data",
              "type": "bytes"
            }
          ],
          "internalType": "struct BootstrapConfig[]",
          "name": "validators",
          "type": "tuple[]"
        },
        {
          "components": [
            {
              "internalType": "address",
              "name": "module",
              "type": "address"
            },
            {
              "internalType": "bytes",
              "name": "data",
              "type": "bytes"
            }
          ],
          "internalType": "struct BootstrapConfig[]",
          "name": "executors",
          "type": "tuple[]"
        },
        {
          "components": [
            {
              "internalType": "address",
              "name": "module",
              "type": "address"
            },
            {
              "internalType": "bytes",
              "name": "data",
              "type": "bytes"
            }
          ],
          "internalType": "struct BootstrapConfig",
          "name": "hook",
          "type": "tuple"
        },
        {
          "components": [
            {
              "internalType": "address",
              "name": "module",
              "type": "address"
            },
            {
              "internalType": "bytes",
              "name": "data",
              "type": "bytes"
            }
          ],
          "internalType": "struct BootstrapConfig[]",
          "name": "fallbacks",
          "type": "tuple[]"
        },
        {
          "components": [
            {
              "internalType": "uint256",
              "name": "hookType",
              "type": "uint256"
            },
            {
              "internalType": "address",
              "name": "module",
              "type": "address"
            },
            {
              "internalType": "bytes",
              "name": "data",
              "type": "bytes"
            }
          ],
          "internalType": "struct BootstrapPreValidationHookConfig[]",
          "name": "preValidationHooks",
          "type": "tuple[]"
        }
      ],
      "name": "initNexusNoRegistry",
      "outputs": [],
      "stateMutability": "payable",
      "type": "function"
    },
    {
      "inputs": [
        {
          "components": [
            {
              "internalType": "address",
              "name": "module",
              "type": "address"
            },
            {
              "internalType": "bytes",
              "name": "data",
              "type": "bytes"
            }
          ],
          "internalType": "struct BootstrapConfig[]",
          "name": "validators",
          "type": "tuple[]"
        },
        {
          "components": [
            {
              "internalType": "address",
              "name": "module",
              "type": "address"
            },
            {
              "internalType": "bytes",
              "name": "data",
              "type": "bytes"
            }
          ],
          "internalType": "struct BootstrapConfig",
          "name": "hook",
          "type": "tuple"
        },
        {
          "components": [
            {
              "internalType": "contract IERC7484",
              "name": "registry",
              "type": "address"
            },
            {
              "internalType": "address[]",
              "name": "attesters",
              "type": "address[]"
            },
            {
              "internalType": "uint8",
              "name": "threshold",
              "type": "uint8"
            }
          ],
          "internalType": "struct RegistryConfig",
          "name": "registryConfig",
          "type": "tuple"
        }
      ],
      "name": "initNexusScoped",
      "outputs": [],
      "stateMutability": "payable",
      "type": "function"
    },
    {
      "inputs": [
        {
          "components": [
            {
              "internalType": "address",
              "name": "module",
              "type": "address"
            },
            {
              "internalType": "bytes",
              "name": "data",
              "type": "bytes"
            }
          ],
          "internalType": "struct BootstrapConfig[]",
          "name": "validators",
          "type": "tuple[]"
        },
        {
          "components": [
            {
              "internalType": "address",
              "name": "module",
              "type": "address"
            },
            {
              "internalType": "bytes",
              "name": "data",
              "type": "bytes"
            }
          ],
          "internalType": "struct BootstrapConfig",
          "name": "hook",
          "type": "tuple"
        }
      ],
      "name": "initNexusScopedNoRegistry",
      "outputs": [],
      "stateMutability": "payable",
      "type": "function"
    },
    {
      "inputs": [
        {
          "internalType": "bytes",
          "name": "data",
          "type": "bytes"
        }
      ],
      "name": "initNexusWithDefaultValidator",
      "outputs": [],
      "stateMutability": "payable",
      "type": "function"
    },
    {
      "inputs": [
        {
          "internalType": "bytes",
          "name": "defaultValidatorInitData",
          "type": "bytes"
        },
        {
          "components": [
            {
              "internalType": "address",
              "name": "module",
              "type": "address"
            },
            {
              "internalType": "bytes",
              "name": "data",
              "type": "bytes"
            }
          ],
          "internalType": "struct BootstrapConfig[]",
          "name": "validators",
          "type": "tuple[]"
        },
        {
          "components": [
            {
              "internalType": "address",
              "name": "module",
              "type": "address"
            },
            {
              "internalType": "bytes",
              "name": "data",
              "type": "bytes"
            }
          ],
          "internalType": "struct BootstrapConfig[]",
          "name": "executors",
          "type": "tuple[]"
        },
        {
          "components": [
            {
              "internalType": "address",
              "name": "module",
              "type": "address"
            },
            {
              "internalType": "bytes",
              "name": "data",
              "type": "bytes"
            }
          ],
          "internalType": "struct BootstrapConfig",
          "name": "hook",
          "type": "tuple"
        },
        {
          "components": [
            {
              "internalType": "address",
              "name": "module",
              "type": "address"
            },
            {
              "internalType": "bytes",
              "name": "data",
              "type": "bytes"
            }
          ],
          "internalType": "struct BootstrapConfig[]",
          "name": "fallbacks",
          "type": "tuple[]"
        },
        {
          "components": [
            {
              "internalType": "uint256",
              "name": "hookType",
              "type": "uint256"
            },
            {
              "internalType": "address",
              "name": "module",
              "type": "address"
            },
            {
              "internalType": "bytes",
              "name": "data",
              "type": "bytes"
            }
          ],
          "internalType": "struct BootstrapPreValidationHookConfig[]",
          "name": "preValidationHooks",
          "type": "tuple[]"
        },
        {
          "components": [
            {
              "internalType": "contract IERC7484",
              "name": "registry",
              "type": "address"
            },
            {
              "internalType": "address[]",
              "name": "attesters",
              "type": "address[]"
            },
            {
              "internalType": "uint8",
              "name": "threshold",
              "type": "uint8"
            }
          ],
          "internalType": "struct RegistryConfig",
          "name": "registryConfig",
          "type": "tuple"
        }
      ],
      "name": "initNexusWithDefaultValidatorAndOtherModules",
      "outputs": [],
      "stateMutability": "payable",
      "type": "function"
    },
    {
      "inputs": [
        {
          "internalType": "bytes",
          "name": "defaultValidatorInitData",
          "type": "bytes"
        },
        {
          "components": [
            {
              "internalType": "address",
              "name": "module",
              "type": "address"
            },
            {
              "internalType": "bytes",
              "name": "data",
              "type": "bytes"
            }
          ],
          "internalType": "struct BootstrapConfig[]",
          "name": "validators",
          "type": "tuple[]"
        },
        {
          "components": [
            {
              "internalType": "address",
              "name": "module",
              "type": "address"
            },
            {
              "internalType": "bytes",
              "name": "data",
              "type": "bytes"
            }
          ],
          "internalType": "struct BootstrapConfig[]",
          "name": "executors",
          "type": "tuple[]"
        },
        {
          "components": [
            {
              "internalType": "address",
              "name": "module",
              "type": "address"
            },
            {
              "internalType": "bytes",
              "name": "data",
              "type": "bytes"
            }
          ],
          "internalType": "struct BootstrapConfig",
          "name": "hook",
          "type": "tuple"
        },
        {
          "components": [
            {
              "internalType": "address",
              "name": "module",
              "type": "address"
            },
            {
              "internalType": "bytes",
              "name": "data",
              "type": "bytes"
            }
          ],
          "internalType": "struct BootstrapConfig[]",
          "name": "fallbacks",
          "type": "tuple[]"
        },
        {
          "components": [
            {
              "internalType": "uint256",
              "name": "hookType",
              "type": "uint256"
            },
            {
              "internalType": "address",
              "name": "module",
              "type": "address"
            },
            {
              "internalType": "bytes",
              "name": "data",
              "type": "bytes"
            }
          ],
          "internalType": "struct BootstrapPreValidationHookConfig[]",
          "name": "preValidationHooks",
          "type": "tuple[]"
        }
      ],
      "name": "initNexusWithDefaultValidatorAndOtherModulesNoRegistry",
      "outputs": [],
      "stateMutability": "payable",
      "type": "function"
    },
    {
      "inputs": [
        {
          "internalType": "address",
          "name": "validator",
          "type": "address"
        },
        {
          "internalType": "bytes",
          "name": "data",
          "type": "bytes"
        },
        {
          "components": [
            {
              "internalType": "contract IERC7484",
              "name": "registry",
              "type": "address"
            },
            {
              "internalType": "address[]",
              "name": "attesters",
              "type": "address[]"
            },
            {
              "internalType": "uint8",
              "name": "threshold",
              "type": "uint8"
            }
          ],
          "internalType": "struct RegistryConfig",
          "name": "registryConfig",
          "type": "tuple"
        }
      ],
      "name": "initNexusWithSingleValidator",
      "outputs": [],
      "stateMutability": "payable",
      "type": "function"
    },
    {
      "inputs": [
        {
          "internalType": "address",
          "name": "validator",
          "type": "address"
        },
        {
          "internalType": "bytes",
          "name": "data",
          "type": "bytes"
        }
      ],
      "name": "initNexusWithSingleValidatorNoRegistry",
      "outputs": [],
      "stateMutability": "payable",
      "type": "function"
    },
    {
      "inputs": [
        {
          "internalType": "uint256",
          "name": "moduleTypeId",
          "type": "uint256"
        },
        {
          "internalType": "address",
          "name": "module",
          "type": "address"
        },
        {
          "internalType": "bytes",
          "name": "initData",
          "type": "bytes"
        }
      ],
      "name": "installModule",
      "outputs": [],
      "stateMutability": "payable",
      "type": "function"
    },
    {
      "inputs": [
        {
          "internalType": "uint256",
          "name": "moduleTypeId",
          "type": "uint256"
        },
        {
          "internalType": "address",
          "name": "module",
          "type": "address"
        },
        {
          "internalType": "bytes",
          "name": "additionalContext",
          "type": "bytes"
        }
      ],
      "name": "isModuleInstalled",
      "outputs": [
        {
          "internalType": "bool",
          "name": "installed",
          "type": "bool"
        }
      ],
      "stateMutability": "view",
      "type": "function"
    },
    {
      "inputs": [
        {
          "internalType": "uint256",
          "name": "moduleTypeId",
          "type": "uint256"
        },
        {
          "internalType": "address",
          "name": "module",
          "type": "address"
        },
        {
          "internalType": "bytes",
          "name": "deInitData",
          "type": "bytes"
        }
      ],
      "name": "uninstallModule",
      "outputs": [],
      "stateMutability": "payable",
      "type": "function"
    },
    {
      "stateMutability": "payable",
      "type": "receive"
    }
  ],
  "bytecode": "0x610140806040523461023e57613700803803809161001d82856102aa565b833981019060408183031261023e578051906001600160a01b0382169081830361023e576020810151906001600160401b03821161023e570183601f8201121561023e5780516001600160401b0381116102965760405191610089601f8301601f1916602001846102aa565b81835260208301956020838301011161023e57815f926020809301885e83010152306080524660a05260409360a085516100c387826102aa565b600e815260208101906d04e65787573426f6f7473747261760941b82528751916100ed89846102aa565b60058352602083019164312e322e3160d81b8352519020915190208160c0528060e0528751917f8b73c3c69bb8fe3d512ecc4cf759cc79239f7b179b0ffacaa9a75d522b39400f83526020830152878201524660608201523060808201522061010052845163ecd0596160e01b815260016004820152602081602481875afa90811561028c575f91610251575b501561024257823b1561023e576044925f928387519586809581946306d61fe760e41b8352602060048401525180918160248501528484015e8181018301849052601f01601f191681010301925af1801561023457610224575b50610120525161343290816102ce823960805181505060a05181505060c05181505060e05181505061010051815050610120518181816104280152818161129a01528181611a2401526122530152f35b5f61022e916102aa565b5f6101d4565b83513d5f823e3d90fd5b5f80fd5b631c4f83bb60e31b5f5260045ffd5b90506020813d602011610284575b8161026c602093836102aa565b8101031261023e5751801515810361023e575f61017a565b3d915061025f565b86513d5f823e3d90fd5b634e487b7160e01b5f52604160045260245ffd5b601f909101601f19168101906001600160401b038211908210176102965760405256fe60806040526004361015610015575b366117a157005b5f3560e01c80630a664dba1461012f57806310b7fca91461012a578063112d3a7d14610125578063310259841461012057806341bede031461011b578063481ddd2314610116578063544d58601461011157806354ed06d51461010c5780635ab1bd53146101075780635faac46b1461010257806377182ae6146100fd57806384b0196e146100f857806386437876146100f35780638cc8ff1d146100ee5780639517e29f146100e45780639afb7c8d146100e9578063a71763a8146100e45763ea5f61d00361000e576110fd565b611067565b611070565b610f70565b610eb1565b610d95565b610c72565b610abc565b610a14565b610894565b6107b8565b6105bb565b6104d9565b6103f1565b6103d5565b6101bc565b610142565b5f91031261013e57565b5f80fd5b3461013e575f36600319011261013e5760206001600160a01b035f5160206133bd5f395f51905f5254166001600160a01b0360405191168152f35b6001600160a01b0381160361013e57565b9181601f8401121561013e5782359167ffffffffffffffff831161013e576020838186019501011161013e57565b604036600319011261013e576004356101d48161017d565b60243567ffffffffffffffff811161013e576101f490369060040161018e565b6102476102029392936111f9565b60405161020e81610688565b5f81526020810191825260ff6001600160a01b0360408301925f8452610232612bc6565b61023a612c61565b511692519151169161201c565b6001600160a01b0361026d6001600160a01b035f5160206133bd5f395f51905f52541690565b16806102b75750906102916102b2925f51602061337d5f395f51905f529483612202565b60408051600181526001600160a01b03909216602083015290918291820190565b0390a1005b906040519363d68f602560e01b85525f85806102d836343360048501611fb6565b038183875af1948515610366575f9561036b575b50906102f89184612202565b803b1561013e576103235f93918492604051958680948193630b9dfbed60e11b83526004830161200b565b03925af1908115610366575f51602061337d5f395f51905f52926102b29261034c575b50610291565b8061035a5f610360936106a4565b80610134565b5f610346565b61127a565b6102f89291955061038d903d805f833e61038581836106a4565b810190611f53565b9490916102ec565b606060031982011261013e57600435916024356103b18161017d565b916044359067ffffffffffffffff821161013e576103d19160040161018e565b9091565b3461013e576103e336610395565b5050505060206040515f8152f35b5f602036600319011261013e5760043567ffffffffffffffff811161013e5761041e90369060040161018e565b6001600160a01b037f00000000000000000000000000000000000000000000000000000000000000001691823b1561013e5761047a925f92836040518096819582946306d61fe760e41b84526020600485018181520191611246565b03925af180156103665761048c575080f35b61049891505f906106a4565b005b9181601f8401121561013e5782359167ffffffffffffffff831161013e576020808501948460051b01011161013e57565b9081604091031261013e5790565b60c036600319011261013e5760043567ffffffffffffffff811161013e5761050590369060040161018e565b60243567ffffffffffffffff811161013e5761052590369060040161049a565b60449391933567ffffffffffffffff811161013e5761054890369060040161049a565b60649291923567ffffffffffffffff811161013e5761056b9036906004016104cb565b9060843567ffffffffffffffff811161013e5761058c90369060040161049a565b94909360a4359867ffffffffffffffff8a1161013e576105b36104989a369060040161049a565b999098611285565b3461013e57602036600319011261013e576004356001600160e01b03198116810361013e5761061b906001600160e01b0319165f527f0bb70095b32b9671358306b0339b4c06e7cbd8cb82505941fba30d1eb5b82f0260205260405f2090565b60405190604082019082821067ffffffffffffffff831117610674576040918252546001600160a01b03811680845260589190911b6001600160f81b0319166020938401819052825190815292830152819081015b0390f35b634e487b7160e01b5f52604160045260245ffd5b6060810190811067ffffffffffffffff82111761067457604052565b90601f8019910116810190811067ffffffffffffffff82111761067457604052565b604051906106d56040836106a4565b565b67ffffffffffffffff81116106745760051b60200190565b359060ff8216820361013e57565b91909160608184031261013e576040519061071782610688565b819381356107248161017d565b8352602082013567ffffffffffffffff811161013e5782019080601f8301121561013e578135610753816106d7565b9261076160405194856106a4565b81845260208085019260051b82010192831161013e57602001905b82821061079e5750505060408092610799926020860152016106ef565b910152565b6020809183356107ad8161017d565b81520191019061077c565b60c036600319011261013e5760043567ffffffffffffffff811161013e576107e490369060040161049a565b9060243567ffffffffffffffff811161013e5761080590369060040161049a565b9060443567ffffffffffffffff811161013e576108269036906004016104cb565b60643567ffffffffffffffff811161013e5761084690369060040161049a565b9160843567ffffffffffffffff811161013e5761086790369060040161049a565b95909460a4359867ffffffffffffffff8a1161013e5761088e6104989a36906004016106fd565b98611d6e565b604036600319011261013e5760043567ffffffffffffffff811161013e576108c090369060040161049a565b9060243567ffffffffffffffff811161013e576108e19036906004016104cb565b9161093e6108ed6111f9565b6040516108f981610688565b5f81526020810191825261093861092e60408301925f8452610919612bc6565b610921612c61565b516001600160a01b031690565b9251915160ff1690565b9161201c565b5f5b8181106109ba57836001600160a01b0361095982611cbd565b1661096057005b6102b2610999826109946109815f51602061337d5f395f51905f5295611cbd565b61098e6020840184611cc7565b91612475565b611cbd565b60408051600481526001600160a01b03909216602083015290918291820190565b806109ec6109ce6109946001948688611c96565b6109e66109dc848789611c96565b6020810190611cc7565b9161211e565b5f51602061337d5f395f51905f52610a0b610291610994848789611c96565b0390a101610940565b3461013e575f36600319011261013e5760206001600160a01b037f0bb70095b32b9671358306b0339b4c06e7cbd8cb82505941fba30d1eb5b82f085416604051908152f35b90602080835192838152019201905f5b818110610a765750505090565b82516001600160a01b0316845260209384019390920191600101610a69565b906001600160a01b03610ab5602092959495604085526040850190610a59565b9416910152565b3461013e57604036600319011261013e57600435610ad98161017d565b6024359060016001600160a01b038216141580610c5c575b610c41578115610c195790610b0581611214565b610b3d610b305f946001600160a01b03165f525f51602061339d5f395f51905f5260205260405f2090565b546001600160a01b031690565b6001600160a01b0381168015159081610c0d575b5080610c04575b15610bb257610ba6610b3082610b83610bac94610b758988612b50565b906001600160a01b03169052565b6001600160a01b03165f525f51602061339d5f395f51905f5260205260405f2090565b93612b78565b92610b3d565b908360016001600160a01b038416141580610bfb575b610bde575b815261067060405192839283610a95565b9150610bf5610921610bef84612b8b565b83612b50565b91610bcd565b50801515610bc8565b50828410610b58565b6001915014155f610b51565b7ff7250817000000000000000000000000000000000000000000000000000000005f5260045ffd5b637c84ecfb60e01b5f526001600160a01b031660045260245ffd5b50610c6d610c69826132fc565b1590565b610af1565b60e036600319011261013e5760043567ffffffffffffffff811161013e57610c9e90369060040161018e565b9060243567ffffffffffffffff811161013e57610cbf90369060040161049a565b9060443567ffffffffffffffff811161013e57610ce090369060040161049a565b9060643567ffffffffffffffff811161013e57610d019036906004016104cb565b60843567ffffffffffffffff811161013e57610d2190369060040161049a565b93909260a43567ffffffffffffffff811161013e57610d4490369060040161049a565b97909660c4359a67ffffffffffffffff8c1161013e57610d6b6104989c36906004016106fd565b9a611a03565b805180835260209291819084018484015e5f828201840152601f01601f1916010190565b3461013e575f36600319011261013e57610e536040610e60815191610dba81846106a4565b600e83527f4e65787573426f6f74737472617000000000000000000000000000000000000060208401528051610df082826106a4565b600581527f312e322e31000000000000000000000000000000000000000000000000000000602082015281519485947f0f00000000000000000000000000000000000000000000000000000000000000865260e0602087015260e0860190610d71565b9184830390850152610d71565b4660608301523060808301525f60a083015281810360c083015260206060519182815201906080905f5b818110610e98575050500390f35b8251845285945060209384019390920191600101610e8a565b60a036600319011261013e5760043567ffffffffffffffff811161013e57610edd90369060040161049a565b60243567ffffffffffffffff811161013e57610efd90369060040161049a565b60449391933567ffffffffffffffff811161013e57610f209036906004016104cb565b9060643567ffffffffffffffff811161013e57610f4190369060040161049a565b9290916084359667ffffffffffffffff881161013e57610f6861049898369060040161049a565b9790966115be565b606036600319011261013e5760043567ffffffffffffffff811161013e57610f9c90369060040161049a565b9060243567ffffffffffffffff811161013e57610fbd9036906004016104cb565b9160443567ffffffffffffffff811161013e57610fe16110109136906004016106fd565b610fe9612bc6565b610ff1612c61565b80516001600160a01b0316906109386040602083015192015160ff1690565b5f5b81811061102b57836001600160a01b0361095982611cbd565b8061103f6109ce6109946001948688611c96565b5f51602061337d5f395f51905f5261105e610291610994848789611c96565b0390a101611012565b61049836610395565b606036600319011261013e576004356110888161017d565b60243567ffffffffffffffff811161013e576110a890369060040161018e565b60449291923567ffffffffffffffff811161013e576110ce6102479136906004016106fd565b6110d6612bc6565b6110de612c61565b6001600160a01b038151169060ff60406020830151920151169161201c565b3461013e57604036600319011261013e5760043561111a8161017d565b6024359060016001600160a01b0382161415806111e7575b610c41578115610c19579061114681611214565b611171610b305f946001600160a01b03165f525f5160206133dd5f395f51905f5260205260405f2090565b6001600160a01b03811680151590816111db575b50806111d2575b15610bb257610ba6610b30826111a96111cc94610b758988612b50565b6001600160a01b03165f525f5160206133dd5f395f51905f5260205260405f2090565b92611171565b5082841061118c565b6001915014155f611185565b506111f4610c698261333c565b611132565b604051906112086020836106a4565b5f808352366020840137565b9061121e826106d7565b61122b60405191826106a4565b828152809261123c601f19916106d7565b0190602036910137565b908060209392818452848401375f828201840152601f01601f1916010190565b916020611277938181520191611246565b90565b6040513d5f823e3d90fd5b6112906108ed6111f9565b6001600160a01b037f00000000000000000000000000000000000000000000000000000000000000001691823b1561013e576112e5925f92836040518096819582946306d61fe760e41b845260048401611266565b03925af18015610366576115aa575b505f5b828110611544575050505f5b8281106114ad5750505061132561131982611cbd565b6001600160a01b031690565b611483575b505f5b8281106113f6575050505f5b82811061134557505050565b80611361611319602061135b6001958888611d4c565b01611cbd565b156113f1576113a6611374828686611d4c565b35611385602061135b858989611d4c565b9061139e611394858989611d4c565b6040810190611cc7565b9290916129e8565b5f51602061337d5f395f51905f526113bf828686611d4c565b356113d0602061135b858989611d4c565b604080519283526001600160a01b0391909116602083015290a15b01611339565b6113eb565b8061140a6113196109946001948787611c96565b1561147e57611434611420610994838787611c96565b61142e6109dc848888611c96565b9161261a565b5f51602061337d5f395f51905f52611474611453610994848888611c96565b60408051600381526001600160a01b03909216602083015290918291820190565b0390a15b0161132d565b611478565b6114a4610999826109946109815f51602061337d5f395f51905f5295611cbd565b0390a15f61132a565b806114c16113196109946001948787611c96565b1561153f576114f56114d7610994838787611c96565b6114ef6114e86109dc858989611c96565b3691611d16565b90612343565b5f51602061337d5f395f51905f52611535611514610994848888611c96565b60408051600281526001600160a01b03909216602083015290918291820190565b0390a15b01611303565b611539565b806115586113196109946001948787611c96565b156115a55761157c61156e610994838787611c96565b6109e66109dc848888611c96565b5f51602061337d5f395f51905f5261159b610291610994848888611c96565b0390a15b016112f7565b61159f565b8061035a5f6115b8936106a4565b5f6112f4565b90959493956115ce6108ed6111f9565b5f5b818110611765575050505f5b82811061170d575050505f5b8281106116b5575050506115fe61131982611cbd565b61168b575b505f5b82811061161257505050565b80611628611319602061135b6001958888611d4c565b156116865761163b611374828686611d4c565b5f51602061337d5f395f51905f52611654828686611d4c565b35611665602061135b858989611d4c565b604080519283526001600160a01b0391909116602083015290a15b01611606565b611680565b6116ac610999826109946109815f51602061337d5f395f51905f5295611cbd565b0390a15f611603565b806116c96113196109946001948787611c96565b15611708576116df611420610994838787611c96565b5f51602061337d5f395f51905f526116fe611453610994848888611c96565b0390a15b016115e8565b611702565b806117216113196109946001948787611c96565b15611760576117376114d7610994838787611c96565b5f51602061337d5f395f51905f52611756611514610994848888611c96565b0390a15b016115dc565b61175a565b806117796109ce6109946001948688611c96565b5f51602061337d5f395f51905f52611798610291610994848789611c96565b0390a1016115d0565b5f356001600160e01b03198116906117ea826001600160e01b0319165f527f0bb70095b32b9671358306b0339b4c06e7cbd8cb82505941fba30d1eb5b82f0260205260405f2090565b546118096001600160a01b0382169160581b6001600160f81b03191690565b906001600160a01b03811661187857505060e01c9063bc197c81821463f23a6e6183141763150b7a0283141761186e577f08c63e27000000000000000000000000000000000000000000000000000000005f526001600160e01b03191660045260245ffd5b506020526020603cf35b5f5160206133bd5f395f51905f52546001600160a01b03168015159260609290846119ad575b6001600160f81b03198116607f60f91b0361194257505f80916118bf612b99565b90602082519201905afa926118d2611fdc565b935b1561193a576118e6575b825160208401f35b803b1561013e576119115f92918392604051948580948193630b9dfbed60e11b83526004830161200b565b03925af1801561036657611926575b806118de565b8061035a5f611934936106a4565b81611920565b835160208501fd5b6001600160f81b0319811661197857505f809161195d612b99565b906020825192019034905af192611972611fdc565b936118d4565b7fb96fcfe4000000000000000000000000000000000000000000000000000000005f526001600160f81b03191660045260245ffd5b925060405163d68f602560e01b81525f81806119ce36343360048501611fb6565b038183875af1908115610366575f916119e9575b509261189e565b6119fd91503d805f833e61038581836106a4565b856119e2565b909192939495969798999a611a1a90610fe9612bc6565b6001600160a01b037f00000000000000000000000000000000000000000000000000000000000000001691823b1561013e57611a6f925f92836040518096819582946306d61fe760e41b845260048401611266565b03925af1801561036657611c6e575b505f5b828110611c16575050505f5b828110611bbe57505050611aa361131982611cbd565b611b94575b505f5b828110611b3c575050505f5b828110611ac357505050565b80611ad9611319602061135b6001958888611d4c565b15611b3757611aec611374828686611d4c565b5f51602061337d5f395f51905f52611b05828686611d4c565b35611b16602061135b858989611d4c565b604080519283526001600160a01b0391909116602083015290a15b01611ab7565b611b31565b80611b506113196109946001948787611c96565b15611b8f57611b66611420610994838787611c96565b5f51602061337d5f395f51905f52611b85611453610994848888611c96565b0390a15b01611aab565b611b89565b611bb5610999826109946109815f51602061337d5f395f51905f5295611cbd565b0390a15f611aa8565b80611bd26113196109946001948787611c96565b15611c1157611be86114d7610994838787611c96565b5f51602061337d5f395f51905f52611c07611514610994848888611c96565b0390a15b01611a8d565b611c0b565b80611c2a6113196109946001948787611c96565b15611c6957611c4061156e610994838787611c96565b5f51602061337d5f395f51905f52611c5f610291610994848888611c96565b0390a15b01611a81565b611c63565b8061035a5f611c7c936106a4565b5f611a7e565b634e487b7160e01b5f52603260045260245ffd5b9190811015611cb85760051b81013590603e198136030182121561013e570190565b611c82565b356112778161017d565b903590601e198136030182121561013e570180359067ffffffffffffffff821161013e5760200191813603831361013e57565b67ffffffffffffffff811161067457601f01601f191660200190565b929192611d2282611cfa565b91611d3060405193846106a4565b82948184528183011161013e578281602093845f960137010152565b9190811015611cb85760051b81013590605e198136030182121561013e570190565b919293969798611d8090610fe9612bc6565b5f5b818110611f17575050505f5b828110611ebf575050505f5b828110611e6757505050611db061131982611cbd565b611e3d575b505f5b828110611dc457505050565b80611dda611319602061135b6001958888611d4c565b15611e3857611ded611374828686611d4c565b5f51602061337d5f395f51905f52611e06828686611d4c565b35611e17602061135b858989611d4c565b604080519283526001600160a01b0391909116602083015290a15b01611db8565b611e32565b611e5e610999826109946109815f51602061337d5f395f51905f5295611cbd565b0390a15f611db5565b80611e7b6113196109946001948787611c96565b15611eba57611e91611420610994838787611c96565b5f51602061337d5f395f51905f52611eb0611453610994848888611c96565b0390a15b01611d9a565b611eb4565b80611ed36113196109946001948787611c96565b15611f1257611ee96114d7610994838787611c96565b5f51602061337d5f395f51905f52611f08611514610994848888611c96565b0390a15b01611d8e565b611f0c565b80611f2b6109ce6109946001948688611c96565b5f51602061337d5f395f51905f52611f4a610291610994848789611c96565b0390a101611d82565b60208183031261013e5780519067ffffffffffffffff821161013e570181601f8201121561013e57805190611f8782611cfa565b92611f9560405194856106a4565b8284526020838301011161013e57815f9260208093018386015e8301015290565b61127793926001600160a01b03606093168252602082015281604082015201905f611246565b3d15612006573d90611fed82611cfa565b91611ffb60405193846106a4565b82523d5f602084013e565b606090565b906020611277928181520190610d71565b6001600160a01b031691826001600160a01b03197f0bb70095b32b9671358306b0339b4c06e7cbd8cb82505941fba30d1eb5b82f085416177f0bb70095b32b9671358306b0339b4c06e7cbd8cb82505941fba30d1eb5b82f0855826120a4575b50507ff98c8404c5b1bfef2e6ba9233c6e88845aedfd36eea8b192725d8c199571cf325f80a2565b823b1561013e5760405f916120f3825194859384937ff05c04e100000000000000000000000000000000000000000000000000000000855260ff60048601911681528160208201520190610a59565b038183865af180156103665761210a575b8061207c565b8061035a5f612118936106a4565b5f612104565b91906001600160a01b036121466001600160a01b035f5160206133bd5f395f51905f52541690565b168061215657506106d592612202565b90916040519263d68f602560e01b84525f848061217836343360048501611fb6565b038183875af1938415610366575f946121e2575b50612198929394612202565b803b1561013e576121c35f92918392604051948580948193630b9dfbed60e11b83526004830161200b565b03925af18015610366576121d45750565b8061035a5f6106d5936106a4565b6121989394506121fb903d805f833e61038581836106a4565b939261218c565b9161220c83612cd4565b60405163ecd0596160e01b8152600160048201526001600160a01b0384169390602081602481885afa908115610366575f916122fc575b50156122d4576001600160a01b037f00000000000000000000000000000000000000000000000000000000000000001684146122ac5761228290612f47565b823b1561013e576121c3925f92836040518096819582946306d61fe760e41b845260048401611266565b7fabc3af79000000000000000000000000000000000000000000000000000000005f5260045ffd5b7fe27c1dd8000000000000000000000000000000000000000000000000000000005f5260045ffd5b61231e915060203d602011612324575b61231681836106a4565b81019061232b565b5f612243565b503d61230c565b9081602091031261013e5751801515810361013e5790565b906001600160a01b0361236a6001600160a01b035f5160206133bd5f395f51905f52541690565b168061237a57506106d5916123dc565b906040519263d68f602560e01b84525f848061239b36343360048501611fb6565b038183875af1938415610366575f946123ba575b5090612198916123dc565b612198929194506123d4903d805f833e61038581836106a4565b9390916123af565b6123e581612d62565b60405163ecd0596160e01b8152600260048201526001600160a01b0382169190602081602481865afa908115610366575f91612456575b50156122d45761242b90613098565b803b1561013e576121c35f929183926040519485809481936306d61fe760e41b83526004830161200b565b61246f915060203d6020116123245761231681836106a4565b5f61241c565b91906001600160a01b0361249d6001600160a01b035f5160206133bd5f395f51905f52541690565b16806124ad57506106d59261250f565b90916040519263d68f602560e01b84525f84806124cf36343360048501611fb6565b038183875af1938415610366575f946124ef575b5061219892939461250f565b612198939450612508903d805f833e61038581836106a4565b93926124e3565b9161251983612ddb565b60405163ecd0596160e01b81526004808201526001600160a01b0384169390602081602481885afa908115610366575f916125be575b50156122d4576122829061258a61257a6001600160a01b035f5160206133bd5f395f51905f52541690565b6001600160a01b038116156125dd565b6001600160a01b03166001600160a01b03195f5160206133bd5f395f51905f525416175f5160206133bd5f395f51905f5255565b6125d7915060203d6020116123245761231681836106a4565b5f61254f565b156125e55750565b6001600160a01b03907f741cbe03000000000000000000000000000000000000000000000000000000005f521660045260245ffd5b91906001600160a01b036126426001600160a01b035f5160206133bd5f395f51905f52541690565b168061265257506106d5926126b4565b90916040519263d68f602560e01b84525f848061267436343360048501611fb6565b038183875af1938415610366575f94612694575b506121989293946126b4565b6121989394506126ad903d805f833e61038581836106a4565b9392612688565b90916126bf82612e55565b60405163ecd0596160e01b8152600360048201526001600160a01b0383169290602081602481875afa908115610366575f916128bd575b50156122d457612814846127dd61276e6114e8868061274c61273f6127318361272b61272561242b9e8c6128dc565b90612907565b9961293d565b356001600160f81b03191690565b6001600160f81b03191690565b9a6001600160f81b03198c161580156128a6575b6127699061294c565b6128ea565b9661279d6001600160e01b031984166306d61fe760e41b811490811561287c575b8115612873575b501561297b565b6127b2836127ad610c6982613188565b6129aa565b6127cc6127bd6106c6565b6001600160a01b039096168652565b6001600160f81b0319166020850152565b6001600160e01b0319165f527f0bb70095b32b9671358306b0339b4c06e7cbd8cb82505941fba30d1eb5b82f0260205260405f2090565b8151815460209093015174ff000000000000000000000000000000000000000060589190911c167fffffffffffffffffffffff0000000000000000000000000000000000000000009093166001600160a01b0390911617919091179055565b9050155f612796565b7f8a91b0e3000000000000000000000000000000000000000000000000000000008114915061278f565b50607f60f91b6001600160f81b03198d1614612760565b6128d6915060203d6020116123245761231681836106a4565b5f6126f6565b9060041161013e5790600490565b909291928360051161013e57831161013e57600501916004190190565b919091356001600160e01b031981169260048110612923575050565b6001600160e01b0319929350829060040360031b1b161690565b9060041015611cb85760040190565b1561295357565b7f867a1dcf000000000000000000000000000000000000000000000000000000005f5260045ffd5b1561298257565b7fc001660b000000000000000000000000000000000000000000000000000000005f5260045ffd5b156129b25750565b6001600160e01b0319907fa56a04dd000000000000000000000000000000000000000000000000000000005f521660045260245ffd5b9291906001600160a01b03612a116001600160a01b035f5160206133bd5f395f51905f52541690565b1680612a2157506106d593612a85565b916040939193519363d68f602560e01b85525f8580612a4536343360048501611fb6565b038183885af1948515610366575f95612a65575b50612198939495612a85565b612198949550612a7e903d805f833e61038581836106a4565b9493612a59565b929092612a928185612ece565b60405163ecd0596160e01b8152600481018290526001600160a01b0385169490602081602481895afa908115610366575f91612af4575b50156122d45781612aef612adf612282946131d2565b6001600160a01b03811615612b13565b613235565b612b0d915060203d6020116123245761231681836106a4565b5f612ac9565b15612b1b5750565b6001600160a01b03907fc689cd97000000000000000000000000000000000000000000000000000000005f521660045260245ffd5b8051821015611cb85760209160051b010190565b634e487b7160e01b5f52601160045260245ffd5b5f198114612b865760010190565b612b64565b5f19810191908211612b8657565b60405190602036830101604052816014360181525f602036920137604051601481016040523360601b9052565b60015f525f5160206133dd5f395f51905f526020527fbdfeb076d903611fa58576955630d640569633049bcf40ad9c22db9251b54a13546001600160a01b0316612c395760015f525f5160206133dd5f395f51905f526020526106d560405f2060016001600160a01b0319825416179055565b7f53c85e66000000000000000000000000000000000000000000000000000000005f5260045ffd5b60015f525f51602061339d5f395f51905f526020527ffe44ceacbf4f03c6ac19f86826dd265fa9ec25125e8b1766c207f24cd3bc73c7546001600160a01b0316612c395760015f525f51602061339d5f395f51905f526020526106d560405f2060016001600160a01b0319825416179055565b6001600160a01b037f0bb70095b32b9671358306b0339b4c06e7cbd8cb82505941fba30d1eb5b82f0854169081612d09575050565b813b1561013e576040516396fb721760e01b81526001600160a01b03909116600482015260016024820152905f90829060449082905afa801561036657612d4d5750565b80612d595f80936106a4565b80031261013e57565b6001600160a01b037f0bb70095b32b9671358306b0339b4c06e7cbd8cb82505941fba30d1eb5b82f0854169081612d97575050565b813b1561013e576040516396fb721760e01b81526001600160a01b03909116600482015260026024820152905f90829060449082905afa801561036657612d4d5750565b6001600160a01b037f0bb70095b32b9671358306b0339b4c06e7cbd8cb82505941fba30d1eb5b82f0854169081612e10575050565b813b1561013e575f9060405192838080936396fb721760e01b8252600460208184016001600160a01b036040820194168152015203915afa801561036657612d4d5750565b6001600160a01b037f0bb70095b32b9671358306b0339b4c06e7cbd8cb82505941fba30d1eb5b82f0854169081612e8a575050565b813b1561013e576040516396fb721760e01b81526001600160a01b03909116600482015260036024820152905f90829060449082905afa801561036657612d4d5750565b6001600160a01b037f0bb70095b32b9671358306b0339b4c06e7cbd8cb82505941fba30d1eb5b82f0854169182612f0457505050565b823b1561013e576040516396fb721760e01b81526001600160a01b039290921660048301526024820152905f90829060449082905afa801561036657612d4d5750565b6001600160a01b0381168015801561308e575b61307c575f9081525f51602061339d5f395f51905f5260205260409020546001600160a01b03166130485760015f525f51602061339d5f395f51905f526020526106d59061300d612fca7ffe44ceacbf4f03c6ac19f86826dd265fa9ec25125e8b1766c207f24cd3bc73c7610b30565b612ff2835f51602061339d5f395f51905f52906001600160a01b03165f5260205260405f2090565b906001600160a01b03166001600160a01b0319825416179055565b60015f525f51602061339d5f395f51905f526020527ffe44ceacbf4f03c6ac19f86826dd265fa9ec25125e8b1766c207f24cd3bc73c7612ff2565b7f40d3d1a4000000000000000000000000000000000000000000000000000000005f526001600160a01b031660045260245ffd5b637c84ecfb60e01b5f5260045260245ffd5b5060018114612f5a565b6001600160a01b0381168015801561317e575b61307c575f9081525f5160206133dd5f395f51905f5260205260409020546001600160a01b03166130485760015f525f5160206133dd5f395f51905f526020526106d59061314361311b7fbdfeb076d903611fa58576955630d640569633049bcf40ad9c22db9251b54a13610b30565b612ff2835f5160206133dd5f395f51905f52906001600160a01b03165f5260205260405f2090565b60015f525f5160206133dd5f395f51905f526020527fbdfeb076d903611fa58576955630d640569633049bcf40ad9c22db9251b54a13612ff2565b50600181146130ab565b6131cb6001600160a01b03916001600160e01b0319165f527f0bb70095b32b9671358306b0339b4c06e7cbd8cb82505941fba30d1eb5b82f0260205260405f2090565b5416151590565b600803613207576001600160a01b037f0bb70095b32b9671358306b0339b4c06e7cbd8cb82505941fba30d1eb5b82f06541690565b6001600160a01b037f0bb70095b32b9671358306b0339b4c06e7cbd8cb82505941fba30d1eb5b82f05541690565b6008810361329857506001600160a01b03166001600160a01b03197f0bb70095b32b9671358306b0339b4c06e7cbd8cb82505941fba30d1eb5b82f065416177f0bb70095b32b9671358306b0339b4c06e7cbd8cb82505941fba30d1eb5b82f0655565b6009146132a25750565b6001600160a01b03166001600160a01b03197f0bb70095b32b9671358306b0339b4c06e7cbd8cb82505941fba30d1eb5b82f055416177f0bb70095b32b9671358306b0339b4c06e7cbd8cb82505941fba30d1eb5b82f0555565b6001600160a01b031680600114159081613314575090565b90505f525f51602061339d5f395f51905f526020526001600160a01b0360405f205416151590565b6001600160a01b031680600114159081613354575090565b90505f525f5160206133dd5f395f51905f526020526001600160a01b0360405f20541615159056fed21d0b289f126c4b473ea641963e766833c2f13866e4ff480abd787c100ef1230bb70095b32b9671358306b0339b4c06e7cbd8cb82505941fba30d1eb5b82f000bb70095b32b9671358306b0339b4c06e7cbd8cb82505941fba30d1eb5b82f030bb70095b32b9671358306b0339b4c06e7cbd8cb82505941fba30d1eb5b82f01a2646970667358221220cf45255a5fcda6a3ac99e10f3866646ab3670b73caa4af98365c2ba9016932af64736f6c634300081b0033",
  "linkReferences": {},
  "deployedLinkReferences": {}
}