{
  "_format": "hh-sol-artifact-1",
  "contractName": "MockResourceLockPreValidationHook",
  "sourceName": "contracts/mocks/MockResourceLockPreValidationHook.sol",
  "abi": [
    {
      "inputs": [
        {
          "internalType": "address",
          "name": "_resourceLocker",
          "type": "address"
        },
        {
          "internalType": "address",
          "name": "_prevalidationHookMultiplexer",
          "type": "address"
        }
      ],
      "stateMutability": "nonpayable",
      "type": "constructor"
    },
    {
      "inputs": [
        {
          "internalType": "uint256",
          "name": "required",
          "type": "uint256"
        }
      ],
      "name": "InsufficientUnlockedETH",
      "type": "error"
    },
    {
      "inputs": [],
      "name": "ResourceLockerInstalled",
      "type": "error"
    },
    {
      "inputs": [],
      "name": "ResourceLockerNotInstalled",
      "type": "error"
    },
    {
      "inputs": [],
      "name": "SenderIsResourceLocked",
      "type": "error"
    },
    {
      "inputs": [
        {
          "internalType": "address",
          "name": "",
          "type": "address"
        }
      ],
      "name": "isInitialized",
      "outputs": [
        {
          "internalType": "bool",
          "name": "",
          "type": "bool"
        }
      ],
      "stateMutability": "pure",
      "type": "function"
    },
    {
      "inputs": [
        {
          "internalType": "uint256",
          "name": "moduleTypeId",
          "type": "uint256"
        }
      ],
      "name": "isModuleType",
      "outputs": [
        {
          "internalType": "bool",
          "name": "",
          "type": "bool"
        }
      ],
      "stateMutability": "pure",
      "type": "function"
    },
    {
      "inputs": [
        {
          "internalType": "address",
          "name": "forwarder",
          "type": "address"
        }
      ],
      "name": "isTrustedForwarder",
      "outputs": [
        {
          "internalType": "bool",
          "name": "",
          "type": "bool"
        }
      ],
      "stateMutability": "view",
      "type": "function"
    },
    {
      "inputs": [
        {
          "internalType": "bytes",
          "name": "",
          "type": "bytes"
        }
      ],
      "name": "onInstall",
      "outputs": [],
      "stateMutability": "view",
      "type": "function"
    },
    {
      "inputs": [
        {
          "internalType": "bytes",
          "name": "",
          "type": "bytes"
        }
      ],
      "name": "onUninstall",
      "outputs": [],
      "stateMutability": "view",
      "type": "function"
    },
    {
      "inputs": [
        {
          "internalType": "address",
          "name": "sender",
          "type": "address"
        },
        {
          "internalType": "bytes32",
          "name": "hash",
          "type": "bytes32"
        },
        {
          "internalType": "bytes",
          "name": "data",
          "type": "bytes"
        }
      ],
      "name": "preValidationHookERC1271",
      "outputs": [
        {
          "internalType": "bytes32",
          "name": "hookHash",
          "type": "bytes32"
        },
        {
          "internalType": "bytes",
          "name": "hookSignature",
          "type": "bytes"
        }
      ],
      "stateMutability": "view",
      "type": "function"
    },
    {
      "inputs": [
        {
          "components": [
            {
              "internalType": "address",
              "name": "sender",
              "type": "address"
            },
            {
              "internalType": "uint256",
              "name": "nonce",
              "type": "uint256"
            },
            {
              "internalType": "bytes",
              "name": "initCode",
              "type": "bytes"
            },
            {
              "internalType": "bytes",
              "name": "callData",
              "type": "bytes"
            },
            {
              "internalType": "bytes32",
              "name": "accountGasLimits",
              "type": "bytes32"
            },
            {
              "internalType": "uint256",
              "name": "preVerificationGas",
              "type": "uint256"
            },
            {
              "internalType": "bytes32",
              "name": "gasFees",
              "type": "bytes32"
            },
            {
              "internalType": "bytes",
              "name": "paymasterAndData",
              "type": "bytes"
            },
            {
              "internalType": "bytes",
              "name": "signature",
              "type": "bytes"
            }
          ],
          "internalType": "struct PackedUserOperation",
          "name": "userOp",
          "type": "tuple"
        },
        {
          "internalType": "uint256",
          "name": "missingAccountFunds",
          "type": "uint256"
        },
        {
          "internalType": "bytes32",
          "name": "userOpHash",
          "type": "bytes32"
        }
      ],
      "name": "preValidationHookERC4337",
      "outputs": [
        {
          "internalType": "bytes32",
          "name": "hookHash",
          "type": "bytes32"
        },
        {
          "internalType": "bytes",
          "name": "hookSignature",
          "type": "bytes"
        }
      ],
      "stateMutability": "view",
      "type": "function"
    },
    {
      "inputs": [],
      "name": "prevalidationHookMultiplexer",
      "outputs": [
        {
          "internalType": "address",
          "name": "",
          "type": "address"
        }
      ],
      "stateMutability": "view",
      "type": "function"
    },
    {
      "inputs": [],
      "name": "resourceLocker",
      "outputs": [
        {
          "internalType": "contract IAccountLocker",
          "name": "",
          "type": "address"
        }
      ],
      "stateMutability": "view",
      "type": "function"
    }
  ],
  "bytecode": "0x60c0346100ae57601f61090738819003918201601f19168301916001600160401b038311848410176100b25780849260409485528339810103126100ae57610052602061004b836100c6565b92016100c6565b6001600160a01b0390911660805260a05260405161082c90816100db82396080518181816102100152818161033e0152818161044b015281816105990152610766015260a0518181816105120152818161055801526106d10152f35b5f80fd5b634e487b7160e01b5f52604160045260245ffd5b51906001600160a01b03821682036100ae5756fe6080806040526004361015610012575f80fd5b5f3560e01c90816305e6174c1461057c575080630c85c42114610539578063572b6c05146104e85780636d61fe70146103eb5780637a0468b7146102c75780638a91b0e3146101b0578063d60b347f1461018b578063e24f8f93146100bb5763ecd059611461007f575f80fd5b346100b75760203660031901126100b7576020600435600981149081156100ac575b506040519015158152f35b60089150145f6100a1565b5f80fd5b346100b75760603660031901126100b75760043567ffffffffffffffff81116100b757803603906101206003198301126100b757602435610103816100fe6106c7565b610719565b15610160575061010481013591602219018212156100b7570160048101359067ffffffffffffffff82116100b7576024019080360382136100b75761015c9161014d913691610681565b60405191829160443583610601565b0390f35b7fc27ea9fe000000000000000000000000000000000000000000000000000000005f5260045260245ffd5b346100b75760203660031901126100b7576101a46105bd565b50602060405160018152f35b346100b75760203660031901126100b75760043567ffffffffffffffff81116100b7576101e19036906004016105d3565b50506001600160a01b036101f36106c7565b60405163112d3a7d60e01b81526004808201526001600160a01b037f0000000000000000000000000000000000000000000000000000000000000000166024820152606060448201525f60648201529160209183916084918391165afa9081156102bc575f9161028d575b5061026557005b7f67a96795000000000000000000000000000000000000000000000000000000005f5260045ffd5b6102af915060203d6020116102b5575b6102a78183610633565b810190610669565b8161025e565b503d61029d565b6040513d5f823e3d90fd5b346100b75760603660031901126100b7576102e06105bd565b60443567ffffffffffffffff81116100b7576103009036906004016105d3565b90916001600160a01b036103126106c7565b9181604051936314fb122d60e31b85521660048401521660248201526020816044816001600160a01b037f0000000000000000000000000000000000000000000000000000000000000000165afa9081156102bc575f916103b9575b506103915761015c91610382913691610681565b60405191829160243583610601565b7f572ba9a5000000000000000000000000000000000000000000000000000000005f5260045ffd5b90506020813d6020116103e3575b816103d460209383610633565b810103126100b757518361036e565b3d91506103c7565b346100b75760203660031901126100b75760043567ffffffffffffffff81116100b75761041c9036906004016105d3565b50506001600160a01b0361042e6106c7565b60405163112d3a7d60e01b81526004808201526001600160a01b037f0000000000000000000000000000000000000000000000000000000000000000166024820152606060448201525f60648201529160209183916084918391165afa9081156102bc575f916104c9575b50156104a157005b7fd830d7f9000000000000000000000000000000000000000000000000000000005f5260045ffd5b6104e2915060203d6020116102b5576102a78183610633565b81610499565b346100b75760203660031901126100b75760206105036105bd565b604051906001600160a01b03807f0000000000000000000000000000000000000000000000000000000000000000169116148152f35b346100b7575f3660031901126100b75760206040516001600160a01b037f0000000000000000000000000000000000000000000000000000000000000000168152f35b346100b7575f3660031901126100b7576020906001600160a01b037f0000000000000000000000000000000000000000000000000000000000000000168152f35b600435906001600160a01b03821682036100b757565b9181601f840112156100b75782359167ffffffffffffffff83116100b757602083818601950101116100b757565b9060609260209183526040828401528051918291826040860152018484015e5f828201840152601f01601f1916010190565b90601f8019910116810190811067ffffffffffffffff82111761065557604052565b634e487b7160e01b5f52604160045260245ffd5b908160209103126100b7575180151581036100b75790565b92919267ffffffffffffffff821161065557604051916106ab601f8201601f191660200184610633565b8294818452818301116100b7578281602093845f960137010152565b6001600160a01b037f00000000000000000000000000000000000000000000000000000000000000001633148061070e575b1561070a5736601319013560601c90565b3390565b5060143610156106f9565b81156107ef57604051906314fb122d60e31b82526001600160a01b038116600483015273eeeeeeeeeeeeeeeeeeeeeeeeeeeeeeeeeeeeeeee60248301526020826044816001600160a01b037f0000000000000000000000000000000000000000000000000000000000000000165afa9182156102bc575f926107bb575b50319081039081116107a757101590565b634e487b7160e01b5f52601160045260245ffd5b9091506020813d6020116107e7575b816107d760209383610633565b810103126100b75751905f610796565b3d91506107ca565b505060019056fea2646970667358221220430c2a92ff889e5aa1b8bb15489177ad7b3ba47197d738a423704eeb49bdb06464736f6c634300081b0033",
  "linkReferences": {},
  "deployedLinkReferences": {}
}