{
  "_format": "hh-sol-artifact-1",
  "contractName": "MockHook",
  "sourceName": "contracts/mocks/MockHook.sol",
  "abi": [
    {
      "anonymous": false,
      "inputs": [
        {
          "indexed": false,
          "internalType": "bytes32",
          "name": "dataFirstWord",
          "type": "bytes32"
        }
      ],
      "name": "HookOnInstallCalled",
      "type": "event"
    },
    {
      "anonymous": false,
      "inputs": [],
      "name": "PostCheckCalled",
      "type": "event"
    },
    {
      "anonymous": false,
      "inputs": [],
      "name": "PreCheckCalled",
      "type": "event"
    },
    {
      "inputs": [],
      "name": "a",
      "outputs": [
        {
          "internalType": "uint256",
          "name": "",
          "type": "uint256"
        }
      ],
      "stateMutability": "view",
      "type": "function"
    },
    {
      "inputs": [],
      "name": "cleanA",
      "outputs": [],
      "stateMutability": "nonpayable",
      "type": "function"
    },
    {
      "inputs": [],
      "name": "getA",
      "outputs": [
        {
          "internalType": "uint256",
          "name": "",
          "type": "uint256"
        }
      ],
      "stateMutability": "view",
      "type": "function"
    },
    {
      "inputs": [
        {
          "internalType": "address",
          "name": "",
          "type": "address"
        }
      ],
      "name": "isInitialized",
      "outputs": [
        {
          "internalType": "bool",
          "name": "",
          "type": "bool"
        }
      ],
      "stateMutability": "pure",
      "type": "function"
    },
    {
      "inputs": [
        {
          "internalType": "uint256",
          "name": "moduleTypeId",
          "type": "uint256"
        }
      ],
      "name": "isModuleType",
      "outputs": [
        {
          "internalType": "bool",
          "name": "",
          "type": "bool"
        }
      ],
      "stateMutability": "pure",
      "type": "function"
    },
    {
      "inputs": [
        {
          "internalType": "bytes",
          "name": "data",
          "type": "bytes"
        }
      ],
      "name": "onInstall",
      "outputs": [],
      "stateMutability": "nonpayable",
      "type": "function"
    },
    {
      "inputs": [
        {
          "internalType": "bytes",
          "name": "",
          "type": "bytes"
        }
      ],
      "name": "onUninstall",
      "outputs": [],
      "stateMutability": "nonpayable",
      "type": "function"
    },
    {
      "inputs": [
        {
          "internalType": "bytes",
          "name": "hookData",
          "type": "bytes"
        }
      ],
      "name": "postCheck",
      "outputs": [],
      "stateMutability": "nonpayable",
      "type": "function"
    },
    {
      "inputs": [
        {
          "internalType": "address",
          "name": "sender",
          "type": "address"
        },
        {
          "internalType": "uint256",
          "name": "value",
          "type": "uint256"
        },
        {
          "internalType": "bytes",
          "name": "data",
          "type": "bytes"
        }
      ],
      "name": "preCheck",
      "outputs": [
        {
          "internalType": "bytes",
          "name": "",
          "type": "bytes"
        }
      ],
      "stateMutability": "nonpayable",
      "type": "function"
    }
  ],
  "bytecode": "0x608080604052346015576103b7908161001a8239f35b5f80fdfe6080806040526004361015610012575f80fd5b5f3560e01c9081630dbe671f1461031757508063173bf7da1461024d5780636d61fe70146102a65780638a91b0e31461024d578063a6ebc25b14610238578063d46300fd1461021c578063d60b347f146101f8578063d68f6025146100a25763ecd059611461007f575f80fd5b3461009e57602036600319011261009e57602060405160048035148152f35b5f80fd5b3461009e57606036600319011261009e576100bb61035e565b5060443567ffffffffffffffff811161009e576100dc903690600401610330565b50506040517f9cfcecc93749ff1f68fdcbc9d06f1e4b649fe26c0f3b7eb28f812853952df89e5f80a15f545f1981146101e4576001015f55670de0b6b3a76400006024351461018857604051602081019080821067ffffffffffffffff831117610174576040908282525f81528151928391602083525180918160208501528484015e5f828201840152601f01601f19168101030190f35b634e487b7160e01b5f52604160045260245ffd5b807f08c379a0000000000000000000000000000000000000000000000000000000006064925260206004820152600e60248201527f507265436865636b4661696c65640000000000000000000000000000000000006044820152fd5b634e487b7160e01b5f52601160045260245ffd5b3461009e57602036600319011261009e5761021161035e565b5060206040515f8152f35b3461009e575f36600319011261009e5760205f54604051908152f35b3461009e575f36600319011261009e575f8055005b3461009e57602036600319011261009e5760043567ffffffffffffffff811161009e5761027e903690600401610330565b50507f4fe6b98bcb5f3f4e11f2cb49cfe134ffdd4a18546f6a3bdc15d6503645e144ac5f80a1005b3461009e57602036600319011261009e5760043567ffffffffffffffff811161009e576102d7903690600401610330565b60208110156102e257005b60201161009e5760207f14e90641f423866d7177454e587228d86b9edce2f3a3323e7b2c70598df176b19160405190358152a1005b3461009e575f36600319011261009e576020905f548152f35b9181601f8401121561009e5782359167ffffffffffffffff831161009e576020838186019501011161009e57565b6004359073ffffffffffffffffffffffffffffffffffffffff8216820361009e5756fea2646970667358221220798d571da54dfc63252c5b5afacef062c579a8ea0c2974aaf6a0cda718657c3c64736f6c634300081b0033",
  "linkReferences": {},
  "deployedLinkReferences": {}
}