{
  "_format": "hh-sol-artifact-1",
  "contractName": "MockMultiModule",
  "sourceName": "contracts/mocks/MockMultiModule.sol",
  "abi": [
    {
      "inputs": [
        {
          "internalType": "address",
          "name": "smartAccount",
          "type": "address"
        },
        {
          "internalType": "uint256",
          "name": "moduleTypeId",
          "type": "uint256"
        }
      ],
      "name": "getConfig",
      "outputs": [
        {
          "internalType": "bytes32",
          "name": "",
          "type": "bytes32"
        }
      ],
      "stateMutability": "view",
      "type": "function"
    },
    {
      "inputs": [
        {
          "internalType": "address",
          "name": "smartAccount",
          "type": "address"
        }
      ],
      "name": "isInitialized",
      "outputs": [
        {
          "internalType": "bool",
          "name": "",
          "type": "bool"
        }
      ],
      "stateMutability": "view",
      "type": "function"
    },
    {
      "inputs": [
        {
          "internalType": "uint256",
          "name": "moduleTypeId",
          "type": "uint256"
        }
      ],
      "name": "isModuleType",
      "outputs": [
        {
          "internalType": "bool",
          "name": "",
          "type": "bool"
        }
      ],
      "stateMutability": "pure",
      "type": "function"
    },
    {
      "inputs": [
        {
          "internalType": "bytes",
          "name": "data",
          "type": "bytes"
        }
      ],
      "name": "onInstall",
      "outputs": [],
      "stateMutability": "nonpayable",
      "type": "function"
    },
    {
      "inputs": [
        {
          "internalType": "bytes",
          "name": "data",
          "type": "bytes"
        }
      ],
      "name": "onUninstall",
      "outputs": [],
      "stateMutability": "nonpayable",
      "type": "function"
    },
    {
      "inputs": [
        {
          "internalType": "bytes",
          "name": "hookData",
          "type": "bytes"
        }
      ],
      "name": "postCheck",
      "outputs": [],
      "stateMutability": "nonpayable",
      "type": "function"
    },
    {
      "inputs": [
        {
          "internalType": "address",
          "name": "",
          "type": "address"
        },
        {
          "internalType": "uint256",
          "name": "",
          "type": "uint256"
        },
        {
          "internalType": "bytes",
          "name": "",
          "type": "bytes"
        }
      ],
      "name": "preCheck",
      "outputs": [
        {
          "internalType": "bytes",
          "name": "",
          "type": "bytes"
        }
      ],
      "stateMutability": "nonpayable",
      "type": "function"
    },
    {
      "inputs": [
        {
          "components": [
            {
              "internalType": "address",
              "name": "target",
              "type": "address"
            },
            {
              "internalType": "uint256",
              "name": "value",
              "type": "uint256"
            },
            {
              "internalType": "bytes",
              "name": "callData",
              "type": "bytes"
            }
          ],
          "internalType": "struct Execution",
          "name": "execution",
          "type": "tuple"
        }
      ],
      "name": "someFallbackFunction",
      "outputs": [],
      "stateMutability": "nonpayable",
      "type": "function"
    },
    {
      "inputs": [
        {
          "components": [
            {
              "internalType": "address",
              "name": "sender",
              "type": "address"
            },
            {
              "internalType": "uint256",
              "name": "nonce",
              "type": "uint256"
            },
            {
              "internalType": "bytes",
              "name": "initCode",
              "type": "bytes"
            },
            {
              "internalType": "bytes",
              "name": "callData",
              "type": "bytes"
            },
            {
              "internalType": "bytes32",
              "name": "accountGasLimits",
              "type": "bytes32"
            },
            {
              "internalType": "uint256",
              "name": "preVerificationGas",
              "type": "uint256"
            },
            {
              "internalType": "bytes32",
              "name": "gasFees",
              "type": "bytes32"
            },
            {
              "internalType": "bytes",
              "name": "paymasterAndData",
              "type": "bytes"
            },
            {
              "internalType": "bytes",
              "name": "signature",
              "type": "bytes"
            }
          ],
          "internalType": "struct PackedUserOperation",
          "name": "userOp",
          "type": "tuple"
        },
        {
          "internalType": "bytes32",
          "name": "userOpHash",
          "type": "bytes32"
        }
      ],
      "name": "validateUserOp",
      "outputs": [
        {
          "internalType": "uint256",
          "name": "validation",
          "type": "uint256"
        }
      ],
      "stateMutability": "view",
      "type": "function"
    }
  ],
  "bytecode": "0x60808060405234601557610969908161001a8239f35b5f80fdfe6080806040526004361015610012575f80fd5b5f3560e01c9081630d50031f146105bb57508063173bf7da1461058a578063530f451a146105465780636d61fe70146104d65780638a91b0e3146103f55780639700320314610281578063d60b347f1461014e578063d68f6025146100df5763ecd059611461007f575f80fd5b346100db5760203660031901126100db576020600435600481149081156100d0575b81156100c5575b81156100ba575b506040519015158152f35b60039150145f6100af565b6001811491506100a8565b6002811491506100a1565b5f80fd5b346100db5760603660031901126100db576100f8610876565b5060443567ffffffffffffffff81116100db57610119903690600401610848565b505060405160208152602081816060518082840152806080604085015e5f8382018301830152601f01601f1916820101030190f35b346100db5760203660031901126100db57610167610876565b6001600160a01b0381165f9081527fada5013122d395ba3c54772283fb069b10426056ef8ca54750cb9bb552a59e7d602052604090205415801590610242575b8015610203575b80156101c2575b6020906040519015158152f35b506001600160a01b03165f9081527f101e368776582e57ab3d116ffe2517c0a585cd5b23174b01e275c2d8329c3d83602090815260409091205415156101b5565b506001600160a01b0381165f9081527f52d75039926638d3c558b2bdefb945d5be8dae29dedd1c313212a4d472d9fde5602052604090205415156101ae565b506001600160a01b0381165f9081527fabbb5caa7dda850e60932de0934eb1f9d0f59695050f761dc64e443e5030a569602052604090205415156101a7565b346100db5760403660031901126100db5760043567ffffffffffffffff81116100db5761012060031982360301126100db57335f9081527fada5013122d395ba3c54772283fb069b10426056ef8ca54750cb9bb552a59e7d60205260408120547f19457468657265756d205369676e6564204d6573736167653a0a3332000000008252602435601c52603c90912060609190911c916103339061032c9061010481019060040161088c565b36916108fd565b6040519160208201918051806040146103bb576041146103605750505050505b638baa579f5f526004601cfd5b80606060409201515f1a60205201516060525b5f52516040526020600160805f825afa51905f6060526040523d610398575050610353565b6001600160a01b0316036103b25760205f5b604051908152f35b602060016103aa565b5060407f7fffffffffffffffffffffffffffffffffffffffffffffffffffffffffffffff910151601b8160ff1c0160205216606052610373565b346100db5760203660031901126100db5760043567ffffffffffffffff81116100db57610426903690600401610848565b60018110610452576001116100db573560f81c5f90815260208181526040808320338452909152812055005b60846040517f08c379a000000000000000000000000000000000000000000000000000000000815260206004820152602160248201527f4d756c74694d6f64756c653a2057726f6e6720756e696e7374616c6c2044617460448201527f61000000000000000000000000000000000000000000000000000000000000006064820152fd5b346100db5760203660031901126100db5760043567ffffffffffffffff81116100db57610507903690600401610848565b6021811061054457806001116100db578135906021116100db5760f81c5f9081526020818152604080832033845290915290206001919091013590555b005b346100db5760403660031901126100db5761055f610876565b6024355f525f6020526001600160a01b0360405f2091165f52602052602060405f2054604051908152f35b346100db5760203660031901126100db5760043567ffffffffffffffff81116100db57610544903690600401610848565b346100db5760203660031901126100db576004359067ffffffffffffffff82116100db5781600401606060031984360301126100db57602483013560208301925f84525f60218201525f60228201525f60268201525f602a820152602081526106256040826108bf565b5192519260208110610833575b508135916001600160a01b03831683036100db5760205f946106a7605461066261032c85966044809c019061088c565b604051958691818301996bffffffffffffffffffffffff199060601b168a528860348401528051918291018484015e810189838201520301601f1981018552846108bf565b604051968795869485937fd691c9640000000000000000000000000000000000000000000000000000000085526004850152604060248501525180918184860152606485015e82810182018401889052601f01601f1916820101030191335af180156108285761071357005b3d805f833e61072281836108bf565b8101906020818303126100db5780519067ffffffffffffffff82116100db570181601f820112156100db57805167ffffffffffffffff81116107fb576020808260051b9260405190610776838601836108bf565b81520191830101918383116100db5760208101915b83831061079457005b825167ffffffffffffffff81116100db57820185603f820112156100db576020810151916107c1836108e1565b6107ce60405191826108bf565b83815260408385010188106100db575f602085819660408397018386015e8301015281520192019161078b565b7f4e487b71000000000000000000000000000000000000000000000000000000005f52604160045260245ffd5b6040513d5f823e3d90fd5b5f939193199060200360031b1b169184610632565b9181601f840112156100db5782359167ffffffffffffffff83116100db57602083818601950101116100db57565b600435906001600160a01b03821682036100db57565b903590601e19813603018212156100db570180359067ffffffffffffffff82116100db576020019181360383136100db57565b90601f8019910116810190811067ffffffffffffffff8211176107fb57604052565b67ffffffffffffffff81116107fb57601f01601f191660200190565b929192610909826108e1565b9161091760405193846108bf565b8294818452818301116100db578281602093845f96013701015256fea264697066735822122064830f4db165a1d16b184dbb2b3f2d0fd4d6bfaac7bfca176cefea590acbed5764736f6c634300081b0033",
  "linkReferences": {},
  "deployedLinkReferences": {}
}