{
  "_format": "hh-sol-artifact-1",
  "contractName": "Nexus",
  "sourceName": "contracts/Nexus.sol",
  "abi": [
    {
      "inputs": [
        {
          "internalType": "address",
          "name": "anEntryPoint",
          "type": "address"
        },
        {
          "internalType": "address",
          "name": "defaultValidator",
          "type": "address"
        },
        {
          "internalType": "bytes",
          "name": "initData",
          "type": "bytes"
        },
        {
          "internalType": "address[]",
          "name": "executorModules",
          "type": "address[]"
        },
        {
          "internalType": "bytes[]",
          "name": "executorInitData",
          "type": "bytes[]"
        }
      ],
      "stateMutability": "nonpayable",
      "type": "constructor"
    },
    {
      "inputs": [],
      "name": "AccountAccessUnauthorized",
      "type": "error"
    },
    {
      "inputs": [],
      "name": "AccountAlreadyInitialized",
      "type": "error"
    },
    {
      "inputs": [],
      "name": "AccountNotInitialized",
      "type": "error"
    },
    {
      "inputs": [],
      "name": "CanNotRemoveLastValidator",
      "type": "error"
    },
    {
      "inputs": [],
      "name": "ComposableExecutionFailed",
      "type": "error"
    },
    {
      "inputs": [
        {
          "internalType": "enum ConstraintType",
          "name": "constraintType",
          "type": "uint8"
        }
      ],
      "name": "ConstraintNotMet",
      "type": "error"
    },
    {
      "inputs": [],
      "name": "DefaultValidatorAlreadyInstalled",
      "type": "error"
    },
    {
      "inputs": [],
      "name": "ERC7702AccountCannotBeUpgradedThisWay",
      "type": "error"
    },
    {
      "inputs": [],
      "name": "EmergencyTimeLockNotExpired",
      "type": "error"
    },
    {
      "inputs": [],
      "name": "EmergencyUninstallSigError",
      "type": "error"
    },
    {
      "inputs": [],
      "name": "EnableModeSigError",
      "type": "error"
    },
    {
      "inputs": [],
      "name": "EntryPointCanNotBeZero",
      "type": "error"
    },
    {
      "inputs": [],
      "name": "ExecutionFailed",
      "type": "error"
    },
    {
      "inputs": [
        {
          "internalType": "bytes4",
          "name": "selector",
          "type": "bytes4"
        }
      ],
      "name": "FallbackAlreadyInstalledForSelector",
      "type": "error"
    },
    {
      "inputs": [],
      "name": "FallbackCallTypeInvalid",
      "type": "error"
    },
    {
      "inputs": [],
      "name": "FallbackHandlerUninstallFailed",
      "type": "error"
    },
    {
      "inputs": [
        {
          "internalType": "bytes4",
          "name": "selector",
          "type": "bytes4"
        }
      ],
      "name": "FallbackNotInstalledForSelector",
      "type": "error"
    },
    {
      "inputs": [],
      "name": "FallbackSelectorForbidden",
      "type": "error"
    },
    {
      "inputs": [
        {
          "internalType": "address",
          "name": "currentHook",
          "type": "address"
        }
      ],
      "name": "HookAlreadyInstalled",
      "type": "error"
    },
    {
      "inputs": [],
      "name": "HookPostCheckFailed",
      "type": "error"
    },
    {
      "inputs": [],
      "name": "ImplementationIsNotAContract",
      "type": "error"
    },
    {
      "inputs": [],
      "name": "InnerCallFailed",
      "type": "error"
    },
    {
      "inputs": [],
      "name": "InvalidConstraintType",
      "type": "error"
    },
    {
      "inputs": [],
      "name": "InvalidImplementationAddress",
      "type": "error"
    },
    {
      "inputs": [],
      "name": "InvalidInitData",
      "type": "error"
    },
    {
      "inputs": [],
      "name": "InvalidInput",
      "type": "error"
    },
    {
      "inputs": [
        {
          "internalType": "address",
          "name": "module",
          "type": "address"
        }
      ],
      "name": "InvalidModule",
      "type": "error"
    },
    {
      "inputs": [
        {
          "internalType": "uint256",
          "name": "moduleTypeId",
          "type": "uint256"
        }
      ],
      "name": "InvalidModuleTypeId",
      "type": "error"
    },
    {
      "inputs": [],
      "name": "InvalidNonce",
      "type": "error"
    },
    {
      "inputs": [],
      "name": "InvalidOutputParamFetcherType",
      "type": "error"
    },
    {
      "inputs": [],
      "name": "InvalidPREP",
      "type": "error"
    },
    {
      "inputs": [],
      "name": "InvalidParameterEncoding",
      "type": "error"
    },
    {
      "inputs": [],
      "name": "LinkedList_AlreadyInitialized",
      "type": "error"
    },
    {
      "inputs": [
        {
          "internalType": "address",
          "name": "entry",
          "type": "address"
        }
      ],
      "name": "LinkedList_EntryAlreadyInList",
      "type": "error"
    },
    {
      "inputs": [
        {
          "internalType": "address",
          "name": "entry",
          "type": "address"
        }
      ],
      "name": "LinkedList_InvalidEntry",
      "type": "error"
    },
    {
      "inputs": [],
      "name": "LinkedList_InvalidPage",
      "type": "error"
    },
    {
      "inputs": [],
      "name": "MismatchModuleTypeId",
      "type": "error"
    },
    {
      "inputs": [
        {
          "internalType": "bytes4",
          "name": "selector",
          "type": "bytes4"
        }
      ],
      "name": "MissingFallbackHandler",
      "type": "error"
    },
    {
      "inputs": [],
      "name": "ModuleAddressCanNotBeZero",
      "type": "error"
    },
    {
      "inputs": [
        {
          "internalType": "uint256",
          "name": "moduleTypeId",
          "type": "uint256"
        },
        {
          "internalType": "address",
          "name": "module",
          "type": "address"
        }
      ],
      "name": "ModuleAlreadyInstalled",
      "type": "error"
    },
    {
      "inputs": [
        {
          "internalType": "uint256",
          "name": "moduleTypeId",
          "type": "uint256"
        },
        {
          "internalType": "address",
          "name": "module",
          "type": "address"
        }
      ],
      "name": "ModuleNotInstalled",
      "type": "error"
    },
    {
      "inputs": [],
      "name": "NexusInitializationFailed",
      "type": "error"
    },
    {
      "inputs": [],
      "name": "NoValidatorInstalled",
      "type": "error"
    },
    {
      "inputs": [],
      "name": "Output_StaticCallFailed",
      "type": "error"
    },
    {
      "inputs": [
        {
          "internalType": "address",
          "name": "currentPreValidationHook",
          "type": "address"
        }
      ],
      "name": "PrevalidationHookAlreadyInstalled",
      "type": "error"
    },
    {
      "inputs": [],
      "name": "UnauthorizedCallContext",
      "type": "error"
    },
    {
      "inputs": [
        {
          "internalType": "address",
          "name": "operator",
          "type": "address"
        }
      ],
      "name": "UnauthorizedOperation",
      "type": "error"
    },
    {
      "inputs": [
        {
          "internalType": "CallType",
          "name": "callType",
          "type": "bytes1"
        }
      ],
      "name": "UnsupportedCallType",
      "type": "error"
    },
    {
      "inputs": [
        {
          "internalType": "ExecType",
          "name": "execType",
          "type": "bytes1"
        }
      ],
      "name": "UnsupportedExecType",
      "type": "error"
    },
    {
      "inputs": [
        {
          "internalType": "uint256",
          "name": "moduleTypeId",
          "type": "uint256"
        }
      ],
      "name": "UnsupportedModuleType",
      "type": "error"
    },
    {
      "inputs": [],
      "name": "UpgradeFailed",
      "type": "error"
    },
    {
      "inputs": [
        {
          "internalType": "address",
          "name": "module",
          "type": "address"
        }
      ],
      "name": "ValidatorNotInstalled",
      "type": "error"
    },
    {
      "anonymous": false,
      "inputs": [
        {
          "indexed": true,
          "internalType": "contract IERC7484",
          "name": "registry",
          "type": "address"
        }
      ],
      "name": "ERC7484RegistryConfigured",
      "type": "event"
    },
    {
      "anonymous": false,
      "inputs": [
        {
          "indexed": false,
          "internalType": "address",
          "name": "hook",
          "type": "address"
        },
        {
          "indexed": false,
          "internalType": "uint256",
          "name": "timestamp",
          "type": "uint256"
        }
      ],
      "name": "EmergencyHookUninstallRequest",
      "type": "event"
    },
    {
      "anonymous": false,
      "inputs": [
        {
          "indexed": false,
          "internalType": "address",
          "name": "hook",
          "type": "address"
        },
        {
          "indexed": false,
          "internalType": "uint256",
          "name": "timestamp",
          "type": "uint256"
        }
      ],
      "name": "EmergencyHookUninstallRequestReset",
      "type": "event"
    },
    {
      "anonymous": false,
      "inputs": [
        {
          "indexed": false,
          "internalType": "uint256",
          "name": "moduleTypeId",
          "type": "uint256"
        },
        {
          "indexed": false,
          "internalType": "address",
          "name": "module",
          "type": "address"
        }
      ],
      "name": "ModuleInstalled",
      "type": "event"
    },
    {
      "anonymous": false,
      "inputs": [
        {
          "indexed": false,
          "internalType": "uint256",
          "name": "moduleTypeId",
          "type": "uint256"
        },
        {
          "indexed": false,
          "internalType": "address",
          "name": "module",
          "type": "address"
        }
      ],
      "name": "ModuleUninstalled",
      "type": "event"
    },
    {
      "anonymous": false,
      "inputs": [
        {
          "indexed": false,
          "internalType": "bytes32",
          "name": "r",
          "type": "bytes32"
        }
      ],
      "name": "PREPInitialized",
      "type": "event"
    },
    {
      "anonymous": false,
      "inputs": [
        {
          "indexed": false,
          "internalType": "bytes",
          "name": "callData",
          "type": "bytes"
        },
        {
          "indexed": false,
          "internalType": "bytes",
          "name": "result",
          "type": "bytes"
        }
      ],
      "name": "TryDelegateCallUnsuccessful",
      "type": "event"
    },
    {
      "anonymous": false,
      "inputs": [
        {
          "indexed": false,
          "internalType": "bytes",
          "name": "callData",
          "type": "bytes"
        },
        {
          "indexed": false,
          "internalType": "bytes",
          "name": "result",
          "type": "bytes"
        }
      ],
      "name": "TryExecuteUnsuccessful",
      "type": "event"
    },
    {
      "anonymous": false,
      "inputs": [
        {
          "indexed": true,
          "internalType": "address",
          "name": "implementation",
          "type": "address"
        }
      ],
      "name": "Upgraded",
      "type": "event"
    },
    {
      "stateMutability": "payable",
      "type": "fallback"
    },
    {
      "inputs": [],
      "name": "accountId",
      "outputs": [
        {
          "internalType": "string",
          "name": "",
          "type": "string"
        }
      ],
      "stateMutability": "pure",
      "type": "function"
    },
    {
      "inputs": [],
      "name": "addDeposit",
      "outputs": [],
      "stateMutability": "payable",
      "type": "function"
    },
    {
      "inputs": [
        {
          "internalType": "bytes32",
          "name": "hash",
          "type": "bytes32"
        },
        {
          "internalType": "bytes",
          "name": "signature",
          "type": "bytes"
        }
      ],
      "name": "checkERC7739Support",
      "outputs": [
        {
          "internalType": "bytes4",
          "name": "",
          "type": "bytes4"
        }
      ],
      "stateMutability": "view",
      "type": "function"
    },
    {
      "inputs": [],
      "name": "eip712Domain",
      "outputs": [
        {
          "internalType": "bytes1",
          "name": "fields",
          "type": "bytes1"
        },
        {
          "internalType": "string",
          "name": "name",
          "type": "string"
        },
        {
          "internalType": "string",
          "name": "version",
          "type": "string"
        },
        {
          "internalType": "uint256",
          "name": "chainId",
          "type": "uint256"
        },
        {
          "internalType": "address",
          "name": "verifyingContract",
          "type": "address"
        },
        {
          "internalType": "bytes32",
          "name": "salt",
          "type": "bytes32"
        },
        {
          "internalType": "uint256[]",
          "name": "extensions",
          "type": "uint256[]"
        }
      ],
      "stateMutability": "view",
      "type": "function"
    },
    {
      "inputs": [
        {
          "components": [
            {
              "internalType": "address",
              "name": "hook",
              "type": "address"
            },
            {
              "internalType": "uint256",
              "name": "hookType",
              "type": "uint256"
            },
            {
              "internalType": "bytes",
              "name": "deInitData",
              "type": "bytes"
            },
            {
              "internalType": "uint256",
              "name": "nonce",
              "type": "uint256"
            }
          ],
          "internalType": "struct EmergencyUninstall",
          "name": "data",
          "type": "tuple"
        },
        {
          "internalType": "bytes",
          "name": "signature",
          "type": "bytes"
        }
      ],
      "name": "emergencyUninstallHook",
      "outputs": [],
      "stateMutability": "payable",
      "type": "function"
    },
    {
      "inputs": [],
      "name": "entryPoint",
      "outputs": [
        {
          "internalType": "address",
          "name": "",
          "type": "address"
        }
      ],
      "stateMutability": "view",
      "type": "function"
    },
    {
      "inputs": [
        {
          "internalType": "ExecutionMode",
          "name": "mode",
          "type": "bytes32"
        },
        {
          "internalType": "bytes",
          "name": "executionCalldata",
          "type": "bytes"
        }
      ],
      "name": "execute",
      "outputs": [],
      "stateMutability": "payable",
      "type": "function"
    },
    {
      "inputs": [
        {
          "components": [
            {
              "internalType": "address",
              "name": "to",
              "type": "address"
            },
            {
              "internalType": "uint256",
              "name": "value",
              "type": "uint256"
            },
            {
              "internalType": "bytes4",
              "name": "functionSig",
              "type": "bytes4"
            },
            {
              "components": [
                {
                  "internalType": "enum InputParamFetcherType",
                  "name": "fetcherType",
                  "type": "uint8"
                },
                {
                  "internalType": "bytes",
                  "name": "paramData",
                  "type": "bytes"
                },
                {
                  "components": [
                    {
                      "internalType": "enum ConstraintType",
                      "name": "constraintType",
                      "type": "uint8"
                    },
                    {
                      "internalType": "bytes",
                      "name": "referenceData",
                      "type": "bytes"
                    }
                  ],
                  "internalType": "struct Constraint[]",
                  "name": "constraints",
                  "type": "tuple[]"
                }
              ],
              "internalType": "struct InputParam[]",
              "name": "inputParams",
              "type": "tuple[]"
            },
            {
              "components": [
                {
                  "internalType": "enum OutputParamFetcherType",
                  "name": "fetcherType",
                  "type": "uint8"
                },
                {
                  "internalType": "bytes",
                  "name": "paramData",
                  "type": "bytes"
                }
              ],
              "internalType": "struct OutputParam[]",
              "name": "outputParams",
              "type": "tuple[]"
            }
          ],
          "internalType": "struct ComposableExecution[]",
          "name": "executions",
          "type": "tuple[]"
        }
      ],
      "name": "executeComposable",
      "outputs": [],
      "stateMutability": "payable",
      "type": "function"
    },
    {
      "inputs": [
        {
          "internalType": "ExecutionMode",
          "name": "mode",
          "type": "bytes32"
        },
        {
          "internalType": "bytes",
          "name": "executionCalldata",
          "type": "bytes"
        }
      ],
      "name": "executeFromExecutor",
      "outputs": [
        {
          "internalType": "bytes[]",
          "name": "returnData",
          "type": "bytes[]"
        }
      ],
      "stateMutability": "payable",
      "type": "function"
    },
    {
      "inputs": [
        {
          "components": [
            {
              "internalType": "address",
              "name": "sender",
              "type": "address"
            },
            {
              "internalType": "uint256",
              "name": "nonce",
              "type": "uint256"
            },
            {
              "internalType": "bytes",
              "name": "initCode",
              "type": "bytes"
            },
            {
              "internalType": "bytes",
              "name": "callData",
              "type": "bytes"
            },
            {
              "internalType": "bytes32",
              "name": "accountGasLimits",
              "type": "bytes32"
            },
            {
              "internalType": "uint256",
              "name": "preVerificationGas",
              "type": "uint256"
            },
            {
              "internalType": "bytes32",
              "name": "gasFees",
              "type": "bytes32"
            },
            {
              "internalType": "bytes",
              "name": "paymasterAndData",
              "type": "bytes"
            },
            {
              "internalType": "bytes",
              "name": "signature",
              "type": "bytes"
            }
          ],
          "internalType": "struct PackedUserOperation",
          "name": "userOp",
          "type": "tuple"
        },
        {
          "internalType": "bytes32",
          "name": "",
          "type": "bytes32"
        }
      ],
      "name": "executeUserOp",
      "outputs": [],
      "stateMutability": "payable",
      "type": "function"
    },
    {
      "inputs": [],
      "name": "getActiveHook",
      "outputs": [
        {
          "internalType": "address",
          "name": "hook",
          "type": "address"
        }
      ],
      "stateMutability": "view",
      "type": "function"
    },
    {
      "inputs": [],
      "name": "getDeposit",
      "outputs": [
        {
          "internalType": "uint256",
          "name": "result",
          "type": "uint256"
        }
      ],
      "stateMutability": "view",
      "type": "function"
    },
    {
      "inputs": [
        {
          "internalType": "address",
          "name": "cursor",
          "type": "address"
        },
        {
          "internalType": "uint256",
          "name": "size",
          "type": "uint256"
        }
      ],
      "name": "getExecutorsPaginated",
      "outputs": [
        {
          "internalType": "address[]",
          "name": "array",
          "type": "address[]"
        },
        {
          "internalType": "address",
          "name": "next",
          "type": "address"
        }
      ],
      "stateMutability": "view",
      "type": "function"
    },
    {
      "inputs": [
        {
          "internalType": "bytes4",
          "name": "selector",
          "type": "bytes4"
        }
      ],
      "name": "getFallbackHandlerBySelector",
      "outputs": [
        {
          "internalType": "CallType",
          "name": "",
          "type": "bytes1"
        },
        {
          "internalType": "address",
          "name": "",
          "type": "address"
        }
      ],
      "stateMutability": "view",
      "type": "function"
    },
    {
      "inputs": [],
      "name": "getImplementation",
      "outputs": [
        {
          "internalType": "address",
          "name": "implementation",
          "type": "address"
        }
      ],
      "stateMutability": "view",
      "type": "function"
    },
    {
      "inputs": [],
      "name": "getRegistry",
      "outputs": [
        {
          "internalType": "contract IERC7484",
          "name": "",
          "type": "address"
        }
      ],
      "stateMutability": "view",
      "type": "function"
    },
    {
      "inputs": [
        {
          "internalType": "address",
          "name": "cursor",
          "type": "address"
        },
        {
          "internalType": "uint256",
          "name": "size",
          "type": "uint256"
        }
      ],
      "name": "getValidatorsPaginated",
      "outputs": [
        {
          "internalType": "address[]",
          "name": "array",
          "type": "address[]"
        },
        {
          "internalType": "address",
          "name": "next",
          "type": "address"
        }
      ],
      "stateMutability": "view",
      "type": "function"
    },
    {
      "inputs": [
        {
          "internalType": "bytes",
          "name": "initData",
          "type": "bytes"
        }
      ],
      "name": "initializeAccount",
      "outputs": [],
      "stateMutability": "payable",
      "type": "function"
    },
    {
      "inputs": [
        {
          "internalType": "uint256",
          "name": "moduleTypeId",
          "type": "uint256"
        },
        {
          "internalType": "address",
          "name": "module",
          "type": "address"
        },
        {
          "internalType": "bytes",
          "name": "initData",
          "type": "bytes"
        }
      ],
      "name": "installModule",
      "outputs": [],
      "stateMutability": "payable",
      "type": "function"
    },
    {
      "inputs": [],
      "name": "isInitialized",
      "outputs": [
        {
          "internalType": "bool",
          "name": "",
          "type": "bool"
        }
      ],
      "stateMutability": "view",
      "type": "function"
    },
    {
      "inputs": [
        {
          "internalType": "uint256",
          "name": "moduleTypeId",
          "type": "uint256"
        },
        {
          "internalType": "address",
          "name": "module",
          "type": "address"
        },
        {
          "internalType": "bytes",
          "name": "additionalContext",
          "type": "bytes"
        }
      ],
      "name": "isModuleInstalled",
      "outputs": [
        {
          "internalType": "bool",
          "name": "",
          "type": "bool"
        }
      ],
      "stateMutability": "view",
      "type": "function"
    },
    {
      "inputs": [
        {
          "internalType": "bytes32",
          "name": "hash",
          "type": "bytes32"
        },
        {
          "internalType": "bytes",
          "name": "signature",
          "type": "bytes"
        }
      ],
      "name": "isValidSignature",
      "outputs": [
        {
          "internalType": "bytes4",
          "name": "",
          "type": "bytes4"
        }
      ],
      "stateMutability": "view",
      "type": "function"
    },
    {
      "inputs": [
        {
          "internalType": "uint192",
          "name": "key",
          "type": "uint192"
        }
      ],
      "name": "nonce",
      "outputs": [
        {
          "internalType": "uint256",
          "name": "",
          "type": "uint256"
        }
      ],
      "stateMutability": "view",
      "type": "function"
    },
    {
      "inputs": [],
      "name": "proxiableUUID",
      "outputs": [
        {
          "internalType": "bytes32",
          "name": "",
          "type": "bytes32"
        }
      ],
      "stateMutability": "view",
      "type": "function"
    },
    {
      "inputs": [
        {
          "internalType": "contract IERC7484",
          "name": "newRegistry",
          "type": "address"
        },
        {
          "internalType": "address[]",
          "name": "attesters",
          "type": "address[]"
        },
        {
          "internalType": "uint8",
          "name": "threshold",
          "type": "uint8"
        }
      ],
      "name": "setRegistry",
      "outputs": [],
      "stateMutability": "payable",
      "type": "function"
    },
    {
      "inputs": [
        {
          "internalType": "ExecutionMode",
          "name": "mode",
          "type": "bytes32"
        }
      ],
      "name": "supportsExecutionMode",
      "outputs": [
        {
          "internalType": "bool",
          "name": "isSupported",
          "type": "bool"
        }
      ],
      "stateMutability": "view",
      "type": "function"
    },
    {
      "inputs": [
        {
          "internalType": "uint256",
          "name": "moduleTypeId",
          "type": "uint256"
        }
      ],
      "name": "supportsModule",
      "outputs": [
        {
          "internalType": "bool",
          "name": "",
          "type": "bool"
        }
      ],
      "stateMutability": "view",
      "type": "function"
    },
    {
      "inputs": [
        {
          "internalType": "uint256",
          "name": "moduleTypeId",
          "type": "uint256"
        },
        {
          "internalType": "address",
          "name": "module",
          "type": "address"
        },
        {
          "internalType": "bytes",
          "name": "deInitData",
          "type": "bytes"
        }
      ],
      "name": "uninstallModule",
      "outputs": [],
      "stateMutability": "payable",
      "type": "function"
    },
    {
      "inputs": [
        {
          "internalType": "address",
          "name": "newImplementation",
          "type": "address"
        },
        {
          "internalType": "bytes",
          "name": "data",
          "type": "bytes"
        }
      ],
      "name": "upgradeToAndCall",
      "outputs": [],
      "stateMutability": "payable",
      "type": "function"
    },
    {
      "inputs": [
        {
          "components": [
            {
              "internalType": "address",
              "name": "sender",
              "type": "address"
            },
            {
              "internalType": "uint256",
              "name": "nonce",
              "type": "uint256"
            },
            {
              "internalType": "bytes",
              "name": "initCode",
              "type": "bytes"
            },
            {
              "internalType": "bytes",
              "name": "callData",
              "type": "bytes"
            },
            {
              "internalType": "bytes32",
              "name": "accountGasLimits",
              "type": "bytes32"
            },
            {
              "internalType": "uint256",
              "name": "preVerificationGas",
              "type": "uint256"
            },
            {
              "internalType": "bytes32",
              "name": "gasFees",
              "type": "bytes32"
            },
            {
              "internalType": "bytes",
              "name": "paymasterAndData",
              "type": "bytes"
            },
            {
              "internalType": "bytes",
              "name": "signature",
              "type": "bytes"
            }
          ],
          "internalType": "struct PackedUserOperation",
          "name": "op",
          "type": "tuple"
        },
        {
          "internalType": "bytes32",
          "name": "userOpHash",
          "type": "bytes32"
        },
        {
          "internalType": "uint256",
          "name": "missingAccountFunds",
          "type": "uint256"
        }
      ],
      "name": "validateUserOp",
      "outputs": [
        {
          "internalType": "uint256",
          "name": "validationData",
          "type": "uint256"
        }
      ],
      "stateMutability": "nonpayable",
      "type": "function"
    },
    {
      "inputs": [
        {
          "internalType": "address",
          "name": "to",
          "type": "address"
        },
        {
          "internalType": "uint256",
          "name": "amount",
          "type": "uint256"
        }
      ],
      "name": "withdrawDepositTo",
      "outputs": [],
      "stateMutability": "payable",
      "type": "function"
    },
    {
      "stateMutability": "payable",
      "type": "receive"
    }
  ],
  "bytecode": "0x61018080604052346103a857616a4b803803809161001d8285610578565b8339810160a0828203126103a857610034826105af565b90610041602084016105af565b60408401519093906001600160401b0381116103a857826100639183016105c3565b60608201519094906001600160401b0381116103a85782019183601f840112156103a85782519261009384610618565b936100a16040519586610578565b80855260208086019160051b830101918683116103a857602001905b828210610560575050506080810151906001600160401b0382116103a857019280601f850112156103a85783516100f381610618565b946101016040519687610578565b81865260208087019260051b820101918383116103a85760208201905b8382106105335750505050503060a0524660c05260409460a086516101438882610578565b600581526020810190644e6578757360d81b82528851916101648a84610578565b60058352640312e322e360dc1b6020938401529051902060e08190527fe374587661e69268352d25204d81b23ce801573f4b09f3545e69536dc085a37a61010081905289517f8b73c3c69bb8fe3d512ecc4cf759cc79239f7b179b0ffacaa9a75d522b39400f815280840192909252818a01524660608201523060808201529190912061012052865163ecd0596160e01b8152600160048201526001600160a01b0384169181602481855afa908115610529575f916104fa575b50156104eb57803b156103a85786516306d61fe760e41b8152915f91839182908490829061024f906004830161066f565b03925af1801561039e576104db575b506101405230610160526001600160a01b038316156104cc575f5b81518110156103fd576001600160a01b03610294828461062f565b5116906102a1818561062f565b517f0bb70095b32b9671358306b0339b4c06e7cbd8cb82505941fba30d1eb5b82f03546001600160a01b0316806102e557506102df90600193610699565b01610279565b9087519363d68f602560e01b85523360048601525f602486015260606044860152366064860152365f60848701375f608436870101525f85608481601f19601f360116810103018183875af19485156103f3575f956103ac575b509061034a91610699565b803b156103a8578651630b9dfbed60e11b8152925f918491829084908290610375906004830161066f565b03925af191821561039e5760019261038e575b506102df565b5f61039891610578565b5f610388565b86513d5f823e3d90fd5b5f80fd5b919094503d805f843e6103bf8184610578565b8201916020818403126103a8578051926001600160401b0384116103a85761034a936103eb92016105c3565b94909161033f565b89513d5f823e3d90fd5b5050506080525161615290816108d982396080518181816103bf015281816106850152818161073b01528181610f8d0152818161105c0152818161130b0152818161145d015281816114bf015281816117bf015281816118380152818161196101526123d5015260a051816157f5015260c05181615818015260e05181615888015261010051816158ae015261012051816157d4015261014051818181612213015281816127a801528181612e5101528181613c0901526152ea0152610160518181816108f601526123a40152f35b6307e355bf60e31b5f5260045ffd5b5f6104e591610578565b5f61025e565b631c4f83bb60e31b5f5260045ffd5b61051c915060203d602011610522575b6105148183610578565b810190610657565b5f61021e565b503d61050a565b88513d5f823e3d90fd5b81516001600160401b0381116103a857602091610555878480948801016105c3565b81520191019061011e565b6020809161056d846105af565b8152019101906100bd565b601f909101601f19168101906001600160401b0382119082101761059b57604052565b634e487b7160e01b5f52604160045260245ffd5b51906001600160a01b03821682036103a857565b81601f820112156103a8578051906001600160401b03821161059b57604051926105f7601f8401601f191660200185610578565b828452602083830101116103a857815f9260208093018386015e8301015290565b6001600160401b03811161059b5760051b60200190565b80518210156106435760209160051b010190565b634e487b7160e01b5f52603260045260245ffd5b908160209103126103a8575180151581036103a85790565b602060409281835280519182918282860152018484015e5f828201840152601f01601f1916010190565b7f0bb70095b32b9671358306b0339b4c06e7cbd8cb82505941fba30d1eb5b82f08545f92906001600160a01b031680610877575b5060405163ecd0596160e01b8152600260048201526001600160a01b0383169290602081602481875afa90811561086c57859161084d575b501561083e5782158015610834575b610820576001600160a01b038181165f9081525f516020616a2b5f395f51905f5260205260409020541661080c575f516020616a2b5f395f51905f526020527fbdfeb076d903611fa58576955630d640569633049bcf40ad9c22db9251b54a1380546001600160a01b039283165f908152604081208054949092166001600160a01b03199485161790915560019052805490911683179055813b15610808576107d6839283926040519485809481936306d61fe760e41b83526004830161066f565b03925af180156107fd576107e8575050565b6107f3828092610578565b6107fa5750565b80fd5b6040513d84823e3d90fd5b8280fd5b631034f46960e21b84526004839052602484fd5b637c84ecfb60e01b84526004839052602484fd5b5060018314610714565b631c4f83bb60e31b8452600484fd5b610866915060203d602011610522576105148183610578565b5f610705565b6040513d87823e3d90fd5b803b156103a8576040516396fb721760e01b81526001600160a01b038416600482015260026024820152905f90829060449082905afa80156108cd57156106cd576108c59193505f90610578565b5f915f6106cd565b6040513d5f823e3d90fdfe60806040526004361015610015575b36612af757005b5f3560e01c80630a664dba14610204578063112d3a7d146101ff5780631626ba7e146101fa57806319822f7c146101f5578063392e53cd146101f0578063481ddd23146101eb5780634a58db19146101e65780634b6a1419146101e15780634d44560d146101dc5780634f1ef286146101d757806352d1902d146101d25780635ab1bd53146101cd5780635bfeadbb146101c85780635faac46b146101c357806384b0196e146101be5780638dd7712f146101b95780639517e29f146101b45780639cfd7cff146101af578063a71763a8146101aa578063aaf10f42146101a5578063b0d691fe146101a0578063b46b61a91461019b578063c399ec8814610196578063d03c791414610191578063d691c9641461018c578063d86f2b3c14610187578063e9ae5c5314610182578063ea5a6d911461017d578063ea5f61d014610178578063eab77e17146101735763f2dc691d0361000e57611cc2565b611b1c565b611a20565b611928565b611821565b611747565b611600565b6114f0565b61149a565b611481565b61143e565b6113e0565b6112f7565b611298565b611048565b610f54565b610e9a565b610cb7565b610996565b610951565b6108e3565b6107bb565b610720565b6106ad565b610673565b6105de565b6105b2565b61036e565b610334565b6102de565b610217565b5f91031261021357565b5f80fd5b34610213575f3660031901126102135760206001600160a01b035f5160206160dd5f395f51905f5254166001600160a01b0360405191168152f35b6001600160a01b0381160361021357565b359061026e82610252565b565b9181601f840112156102135782359167ffffffffffffffff8311610213576020838186019501011161021357565b606060031982011261021357600435916024356102ba81610252565b916044359067ffffffffffffffff8211610213576102da91600401610270565b9091565b346102135760206102fa6102f13661029e565b92919091612d76565b6040519015158152f35b90604060031983011261021357600435916024359067ffffffffffffffff8211610213576102da91600401610270565b3461021357602061034d61034736610304565b91611e46565b6001600160e01b031960405191168152f35b90816101209103126102135790565b346102135760603660031901126102135760043567ffffffffffffffff8111610213576103a261047091369060040161035f565b602061041f60243561042a60443580956103e66001600160a01b037f0000000000000000000000000000000000000000000000000000000000000000163314611f1d565b6104246103f33683611fd8565b95869288810135906104098260031a60f81b1590565b156104e9575b5060401c6001600160a01b031690565b612e3e565b936132ec565b61010084929401525f6001600160a01b036040518098819682957f97003203000000000000000000000000000000000000000000000000000000008452600484016121bc565b0393165af19081156104e45761049f925f926104b3575b50806104a3575b506040519081529081906020820190565b0390f35b5f9081803892335af1505f61048e565b8192506104d79060203d6020116104dd575b6104cf8183611ddc565b81019061211a565b91610487565b503d6104c5565b611e3b565b600382901a60f81b600160f81b0361052b576105176105108261010061051e9401906120e7565b908a6131d6565b3691611f87565b6101008501525b5f61040f565b600382901a60f81b7f020000000000000000000000000000000000000000000000000000000000000014610560575b50610525565b6105a161059561058f6105ac9361058461057f61057b6121f0565b1590565b6120b8565b6101008101906120e7565b90612fb8565b93919290923691611f87565b6101008801526130e4565b5f61055a565b34610213575f3660031901126102135760206102fa6121f0565b6001600160e01b031981160361021357565b346102135760203660031901126102135760406020610639600435610602816105cc565b6001600160e01b0319165f527f0bb70095b32b9671358306b0339b4c06e7cbd8cb82505941fba30d1eb5b82f0260205260405f2090565b82519061064582611dbb565b54906001600160f81b03196001600160a01b0383169283835260581b16928391015282519182526020820152f35b5f366003190112610213575f388180347f00000000000000000000000000000000000000000000000000000000000000005af11561021357005b60203660031901126102135760043567ffffffffffffffff8111610213576106d9903690600401610270565b3033036106ec575b6106ea916130e4565b005b7f90b772c2cb8a51aa7a8a65fc23543c6d022d5b3f8e2b92eed79fba7eef8293005c6106e1575b63aed595955f526004601cfd5b60403660031901126102135760043561073881610252565b5f7f0000000000000000000000000000000000000000000000000000000000000000602435336001600160a01b0383161480156107b2575b61077990611f1d565b604051936014526034526f205c28780000000000000000000000008252604460108338935af1156107aa575f603452005b3d5f823e3d90fd5b50333014610770565b6040366003190112610213576004356107d381610252565b60243567ffffffffffffffff8111610213576107f3903690600401610270565b906001600160a01b0361081a6001600160a01b035f5160206160dd5f395f51905f52541690565b168061082a57506106ea92612377565b90916040519263d68f602560e01b84525f848061084c36343360048501612311565b038183875af19384156104e4575f946108bb575b5061086c929394612377565b803b15610213576108975f92918392604051948580948193630b9dfbed60e11b835260048301612337565b03925af180156104e4576108a757005b806108b55f6106ea93611ddc565b80610209565b61086c9394506108dc903d805f833e6108d48183611ddc565b8101906122cb565b9392610860565b34610213575f36600319011261021357307f0000000000000000000000000000000000000000000000000000000000000000036109445760206040517f360894a13ba1a3210667c828492db98dca3e2076cc3735a920a3ca505d382bbc8152f35b639f03a0265f526004601cfd5b34610213575f3660031901126102135760206001600160a01b037f0bb70095b32b9671358306b0339b4c06e7cbd8cb82505941fba30d1eb5b82f085416604051908152f35b60403660031901126102135760043567ffffffffffffffff8111610213578060040190608060031982360301126102135760243567ffffffffffffffff8111610213576109ea6109f1913690600401610270565b9084613483565b610a0d6024820135926044610a05826124f7565b9301906120e7565b9290600482148015610c4a575b828115610c3f575b610a2b91612501565b610a418383610a3c87858484612d76565b612534565b610a7b836001600160a01b03165f527f0bb70095b32b9671358306b0339b4c06e7cbd8cb82505941fba30d1eb5b82f0460205260405f2090565b5480610b0c575050507f2841d18703faaff388732165e48fe431468531b1b1e626b1b7cbcbfc0d79c7409150610b079042610ae6826001600160a01b03165f527f0bb70095b32b9671358306b0339b4c06e7cbd8cb82505941fba30d1eb5b82f0460205260405f2090565b55604080516001600160a01b03909216825242602083015290918291820190565b0390a1005b610b196203f48082612586565b4210610b84575050507fcbd44a75f6935b5837022648b6c8487db984701200c5381c7c0f8c2b1d69b9da9150610b079042610ae6826001600160a01b03165f527f0bb70095b32b9671358306b0339b4c06e7cbd8cb82505941fba30d1eb5b82f0460205260405f2090565b610b8d90612576565b4210610c17577f341347516a9de374859dfda710fa4828b2d48cb57d4fbe4c1149612b8e02276e93610bfc915f610bf4866001600160a01b03165f527f0bb70095b32b9671358306b0339b4c06e7cbd8cb82505941fba30d1eb5b82f0460205260405f2090565b5583856135e5565b604080519182526001600160a01b03929092166020820152a1005b7f07f2f2d2000000000000000000000000000000000000000000000000000000005f5260045ffd5b600981149150610a22565b5060088214610a1a565b90602080835192838152019201905f5b818110610c715750505090565b82516001600160a01b0316845260209384019390920191600101610c64565b906001600160a01b03610cb0602092959495604085526040850190610c54565b9416910152565b3461021357604036600319011261021357600435610cd481610252565b6024359060016001600160a01b038216141580610e64575b610e49578115610e215790610d00816147ee565b610d38610d2b5f946001600160a01b03165f525f5160206160bd5f395f51905f5260205260405f2090565b546001600160a01b031690565b6001600160a01b0381168015159081610e15575b5080610e0c575b15610dad57610da1610d2b82610d7e610da794610d708988614121565b906001600160a01b03169052565b6001600160a01b03165f525f5160206160bd5f395f51905f5260205260405f2090565b93614820565b92610d38565b908360016001600160a01b038416141580610e03575b610dd9575b815261049f60405192839283610c90565b9150610dfd610df0610dea8461482e565b83614121565b516001600160a01b031690565b91610dc8565b50801515610dc3565b50828410610d53565b6001915014155f610d4c565b7ff7250817000000000000000000000000000000000000000000000000000000005f5260045ffd5b637c84ecfb60e01b5f526001600160a01b031660045260245ffd5b50610e7161057b82613d84565b610cec565b805180835260209291819084018484015e5f828201840152601f01601f1916010190565b34610213575f36600319011261021357610ef5610f03610eb86136e6565b6040929192519384937f0f00000000000000000000000000000000000000000000000000000000000000855260e0602086015260e0850190610e76565b908382036040850152610e76565b4660608301523060808301525f60a083015281810360c083015260206060519182815201906080905f5b818110610f3b575050500390f35b8251845285945060209384019390920191600101610f2d565b60403660031901126102135760043567ffffffffffffffff811161021357610f8090369060040161035f565b610fb46001600160a01b037f0000000000000000000000000000000000000000000000000000000000000000163314611f1d565b6001600160a01b03610fda6001600160a01b035f5160206160dd5f395f51905f52541690565b1680610fea57506106ea906125cf565b6040519163d68f602560e01b83525f838061100a36343360048501612311565b038183865af19283156104e4575f93611028575b5061086c906125cf565b61086c919350611041903d805f833e6108d48183611ddc565b929061101e565b6110513661029e565b906001600160a01b037f0000000000000000000000000000000000000000000000000000000000000000163314801561128f575b61108e90611f1d565b61109961057b613395565b611282575b6001600160a01b0383161561125a5760018403611103577fd21d0b289f126c4b473ea641963e766833c2f13866e4ff480abd787c100ef12393916110e291846151ff565b604080519182526001600160a01b0390921660208201529081908101610b07565b90600284036111485761113d7fd21d0b289f126c4b473ea641963e766833c2f13866e4ff480abd787c100ef1239492611143923691611f87565b836150f8565b6110e2565b906003840361117e577fd21d0b289f126c4b473ea641963e766833c2f13866e4ff480abd787c100ef12393916111439184614e15565b600484036111b3577fd21d0b289f126c4b473ea641963e766833c2f13866e4ff480abd787c100ef12393916111439184614c9f565b600884148015611250575b156111f157839161114391847fd21d0b289f126c4b473ea641963e766833c2f13866e4ff480abd787c100ef12396614aa9565b83611223577fd21d0b289f126c4b473ea641963e766833c2f13866e4ff480abd787c100ef12393916111439184614971565b7f098312d2000000000000000000000000000000000000000000000000000000005f52600484905260245ffd5b50600984146111be565b7f5316c18d000000000000000000000000000000000000000000000000000000005f5260045ffd5b61128a61483c565b61109e565b50333014611085565b34610213575f3660031901126102135761049f6040516112b9604082611ddc565b601481527f6269636f6e6f6d792e6e657875732e312e322e300000000000000000000000006020820152604051918291602083526020830190610e76565b6113003661029e565b916001600160a01b037f000000000000000000000000000000000000000000000000000000000000000016331480156113d7575b61133d90611f1d565b6001600160a01b036113636001600160a01b035f5160206160dd5f395f51905f52541690565b168061137357506106ea93612644565b916040939193519363d68f602560e01b85525f858061139736343360048501612311565b038183885af19485156104e4575f956113b7575b5061086c939495612644565b61086c9495506113d0903d805f833e6108d48183611ddc565b94936113ab565b50333014611334565b34610213575f366003190112610213577f360894a13ba1a3210667c828492db98dca3e2076cc3735a920a3ca505d382bbc546001600160a01b03811615611436575b6020906001600160a01b0360405191168152f35b503054611422565b34610213575f3660031901126102135760206040516001600160a01b037f0000000000000000000000000000000000000000000000000000000000000000168152f35b3461021357602061034d61149436610304565b91612722565b34610213575f36600319011261021357306020526370a082315f52602080806024601c7f00000000000000000000000000000000000000000000000000000000000000005afa601f3d1116815102604051908152f35b346102135760203660031901126102135761049f6004358060081b6001600160f81b0319821615918215611589575b8215611574575b5081611540575b5060405190151581529081906020820190565b6001600160f81b03198116159150811561155c575b505f61152d565b6001600160f81b031916600160f81b1490505f611555565b6001600160f81b03199081161491505f611526565b6001600160f81b03198116600160f81b14925061151f565b602081016020825282518091526040820191602060408360051b8301019401925f915b8383106115d357505050505090565b90919293946020806115f1600193603f198682030187528951610e76565b970193019301919392906115c4565b61160936610304565b9161161333613dc4565b1561171b576001600160a01b0361163e6001600160a01b035f5160206160dd5f395f51905f52541690565b168061165f5750916116539161049f936127f4565b604051918291826115a1565b90926040519263d68f602560e01b84525f848061168136343360048501612311565b038183875af19384156104e4575f946116fb575b506116a19293946127f4565b90803b15610213576116cd5f93918492604051958680948193630b9dfbed60e11b835260048301612337565b03925af19182156104e45761049f926116e7575b50611653565b806108b55f6116f593611ddc565b5f6116e1565b6116a1939450611714903d805f833e6108d48183611ddc565b9392611695565b7fb927fe5e000000000000000000000000000000000000000000000000000000005f523360045260245ffd5b346102135760203660031901126102135760043577ffffffffffffffffffffffffffffffffffffffffffffffff811680910361021357604051907f35567e1a00000000000000000000000000000000000000000000000000000000825230600483015260248201526020816044816001600160a01b037f0000000000000000000000000000000000000000000000000000000000000000165afa80156104e45761049f915f9161180257506040519081529081906020820190565b61181b915060203d6020116104dd576104cf8183611ddc565b5f61048e565b61182a36610304565b9061185f6001600160a01b037f0000000000000000000000000000000000000000000000000000000000000000163314611f1d565b6001600160a01b036118856001600160a01b035f5160206160dd5f395f51905f52541690565b168061189557506106ea9261294f565b90916040519263d68f602560e01b84525f84806118b736343360048501612311565b038183875af19384156104e4575f946118d7575b5061086c92939461294f565b61086c9394506118f0903d805f833e6108d48183611ddc565b93926118cb565b9181601f840112156102135782359167ffffffffffffffff8311610213576020808501948460051b01011161021357565b60203660031901126102135760043567ffffffffffffffff8111610213576119549036906004016118f7565b6119886001600160a01b037f0000000000000000000000000000000000000000000000000000000000000000163314611f1d565b6001600160a01b036119ae6001600160a01b035f5160206160dd5f395f51905f52541690565b16806119be57506106ea91614443565b906040519263d68f602560e01b84525f84806119df36343360048501612311565b038183875af19384156104e4575f946119fe575b509061086c91614443565b61086c92919450611a18903d805f833e6108d48183611ddc565b9390916119f3565b3461021357604036600319011261021357600435611a3d81610252565b6024359060016001600160a01b038216141580611b0a575b610e49578115610e215790611a69816147ee565b611a94610d2b5f946001600160a01b03165f525f5160206160fd5f395f51905f5260205260405f2090565b6001600160a01b0381168015159081611afe575b5080611af5575b15610dad57610da1610d2b82611acc611aef94610d708988614121565b6001600160a01b03165f525f5160206160fd5f395f51905f5260205260405f2090565b92611a94565b50828410611aaf565b6001915014155f611aa8565b50611b1761057b82613dc4565b611a55565b606036600319011261021357600435611b3481610252565b60243567ffffffffffffffff811161021357611b549036906004016118f7565b90916044359260ff8416840361021357611b6f303314611f1d565b611b7883612a62565b92611b866040519485611ddc565b808452602084019060051b82019136831161021357905b828210611ca8575050506001600160a01b031691611c0f836001600160a01b03166001600160a01b03197f0bb70095b32b9671358306b0339b4c06e7cbd8cb82505941fba30d1eb5b82f085416177f0bb70095b32b9671358306b0339b4c06e7cbd8cb82505941fba30d1eb5b82f0855565b82611c3c575b827ff98c8404c5b1bfef2e6ba9233c6e88845aedfd36eea8b192725d8c199571cf325f80a2005b823b1561021357611c7d915f9160405193849283927ff05c04e1000000000000000000000000000000000000000000000000000000008452600484016144f8565b038183865af180156104e457611c94575b80611c15565b806108b55f611ca293611ddc565b5f611c8e565b602080918335611cb781610252565b815201910190611b9d565b346102135760203660031901126102135760206102fa600435612a7a565b634e487b7160e01b5f52601160045260245ffd5b906177398202918083046177391490151715611d0c57565b611ce0565b906014116102135790601490565b909291928360141161021357831161021357601401916013190190565b906004116102135790600490565b909291928360051161021357831161021357600501916004190190565b356bffffffffffffffffffffffff19811692919060148210611d87575050565b6bffffffffffffffffffffffff1960149290920360031b82901b16169150565b634e487b7160e01b5f52604160045260245ffd5b6040810190811067ffffffffffffffff821117611dd757604052565b611da7565b90601f8019910116810190811067ffffffffffffffff821117611dd757604052565b908160209103126102135751611e13816105cc565b90565b611e1393926001600160a01b0360609316825260208201528160408201520190610e76565b6040513d5f823e3d90fd5b918015611eff575b90611e88611eaf93611e828480611e7c61041f611e76611e7060209a8a611d11565b90611d67565b60601c90565b95611d1f565b91612f03565b91906001600160a01b03604051809681958294637aa8f17760e11b84523360048501611e16565b0392165afa5f9181611ece575b50611e1357506001600160e01b031990565b611ef191925060203d602011611ef8575b611ee98183611ddc565b810190611dfe565b905f611ebc565b503d611edf565b611f0d61ffff821904611cf4565b8303611e4e5790611e1392612722565b15611f2457565b7fac52ccbe000000000000000000000000000000000000000000000000000000005f5260045ffd5b6040519061026e61012083611ddc565b6040519061026e604083611ddc565b67ffffffffffffffff8111611dd757601f01601f191660200190565b929192611f9382611f6b565b91611fa16040519384611ddc565b829481845281830111610213578281602093845f960137010152565b9080601f8301121561021357816020611e1393359101611f87565b9190916101208184031261021357611fee611f4c565b92611ff882610263565b845260208201356020850152604082013567ffffffffffffffff81116102135781612024918401611fbd565b6040850152606082013567ffffffffffffffff81116102135781612049918401611fbd565b60608501526080820135608085015260a082013560a085015260c082013560c085015260e082013567ffffffffffffffff8111610213578161208c918401611fbd565b60e085015261010082013567ffffffffffffffff8111610213576120b09201611fbd565b610100830152565b156120bf57565b7fae4edb1b000000000000000000000000000000000000000000000000000000005f5260045ffd5b903590601e1981360301821215610213570180359067ffffffffffffffff82116102135760200191813603831361021357565b90816020910312610213575190565b80516001600160a01b03168252611e1391602082015160208201526101006121aa61217a61216860408601516101206040870152610120860190610e76565b60608601518582036060870152610e76565b6080850151608085015260a085015160a085015260c085015160c085015260e085015184820360e0860152610e76565b92015190610100818403910152610e76565b9291906121d3602091604086526040860190612129565b930152565b90816020910312610213575180151581036102135790565b60405163d60b347f60e01b81523060048201526020816024816001600160a01b037f0000000000000000000000000000000000000000000000000000000000000000165afa9081156104e4575f91612256575b50801561224d5790565b50611e13613395565b612278915060203d60201161227e575b6122708183611ddc565b8101906121d8565b5f612243565b503d612266565b81601f820112156102135780519061229c82611f6b565b926122aa6040519485611ddc565b8284526020838301011161021357815f9260208093018386015e8301015290565b9060208282031261021357815167ffffffffffffffff811161021357611e139201612285565b908060209392818452848401375f828201840152601f01601f1916010190565b611e1393926001600160a01b03606093168252602082015281604082015201905f6122f1565b906020611e13928181520190610e76565b1561234f57565b7fc970156c000000000000000000000000000000000000000000000000000000005f5260045ffd5b9190916001600160a01b03811690612390821515612348565b61239c813b1515612348565b30556123c7307f00000000000000000000000000000000000000000000000000000000000000001490565b610944576001600160a01b037f000000000000000000000000000000000000000000000000000000000000000016331480156124ee575b61240790611f1d565b61240f6145c1565b6124c6573d5f526352d1902d6001527f360894a13ba1a3210667c828492db98dca3e2076cc3735a920a3ca505d382bbc602060016004601d855afa51036124b857807fbc7cd75a20ee27fd9adebab32041f755214dbc6bffa90cc0225b39da2e5c2d3b5f80a281817f360894a13ba1a3210667c828492db98dca3e2076cc3735a920a3ca505d382bbc556124a257505050565b815f926040519485378338925af4156107aa5750565b6355299b496001526004601dfd5b7fdc3b8379000000000000000000000000000000000000000000000000000000005f5260045ffd5b503330146123fe565b35611e1381610252565b156125095750565b7f41c38b30000000000000000000000000000000000000000000000000000000005f5260045260245ffd5b1561253d575050565b6001600160a01b0392507fbe601672000000000000000000000000000000000000000000000000000000005f526004521660245260445ffd5b90620151808201809211611d0c57565b91908201809211611d0c57565b908092918237015f815290565b3d156125ca573d906125b182611f6b565b916125bf6040519384611ddc565b82523d5f602084013e565b606090565b6125dd9060608101906120e7565b80600411610213576040515f9283929060031982019060040183378101826003198201528160031991030190305af46126146125a0565b501561261c57565b7facfdb444000000000000000000000000000000000000000000000000000000005f5260045ffd5b90917f341347516a9de374859dfda710fa4828b2d48cb57d4fbe4c1149612b8e02276e936126798484610a3c84868484612d76565b600183036126b55761268b91846139cf565b612693613ac9565b604080519182526001600160a01b03909216602082015290819081015b0390a1565b600283036126cc576126c7918461385a565b612693565b600383036126de576126c7918461375a565b600483148015612718575b801561270e575b6126fc575b5050612693565b6127079183856135e5565b5f806126f5565b50600983146126f0565b50600883146126e9565b60015f9081525f5160206160bd5f395f51905f526020527ffe44ceacbf4f03c6ac19f86826dd265fa9ec25125e8b1766c207f24cd3bc73c7546001600160a01b031694939291905b6001600160a01b03861680151590816127e8575b50156127a05761279484848461279a948a613c67565b95613d3f565b9461276a565b6127cc9495507f0000000000000000000000000000000000000000000000000000000000000000613c67565b6001600160e01b03198116611e1357506001600160e01b031990565b6001915014155f61277e565b91906127ff33613e04565b8260081b92612816816001600160f81b0319161590565b15612827575090611e139291614222565b6001600160f81b03198116600160f81b03612848575090611e13929161415b565b6001600160f81b03198082160361293257509061286491615360565b909161286e614078565b936001600160f81b031981166128a05750916128899261539f565b6128928261410f565b5261289c8161410f565b5090565b6001600160f81b03198116600160f81b03612916575081836128c19261537a565b6128ca8561410f565b52156128d557505090565b7f5bd4c60b4b38b664d8fb5944eb974e3d85083d79afe5ce934ccabcc913707c10916129106129038561410f565b5160405193849384614135565b0390a190565b6308c3ee0360e11b5f526001600160f81b03191660045260245ffd5b6001600160f81b031990632e5bf3f960e21b5f521660045260245ffd5b91908260081b92612968816001600160f81b0319161590565b1561297957509061026e9291614355565b6001600160f81b03198116600160f81b0361299a57509061026e92916142cc565b6001600160f81b0319808216036129325750906129b691615360565b929091906001600160f81b031981166129e457505f9083604051938437838338925af4156107aa5701604052565b9192916001600160f81b03198116600160f81b03612a4557508183612a089261537a565b929015612a1457505050565b6126b07f5bd4c60b4b38b664d8fb5944eb974e3d85083d79afe5ce934ccabcc913707c109360405193849384614135565b6001600160f81b0319906308c3ee0360e11b5f521660045260245ffd5b67ffffffffffffffff8111611dd75760051b60200190565b60018114908115612aec575b8115612ae1575b8115612ad6575b8115612acb575b8115612ac0575b8115612ab7575b50612ab2575f90565b600190565b9050155f612aa9565b600981149150612aa2565b600881149150612a9b565b600481149150612a94565b600381149150612a8d565b600281149150612a86565b5f356001600160e01b0319811690612b40826001600160e01b0319165f527f0bb70095b32b9671358306b0339b4c06e7cbd8cb82505941fba30d1eb5b82f0260205260405f2090565b54612b5f6001600160a01b0382169160581b6001600160f81b03191690565b906001600160a01b038116612bce57505060e01c9063bc197c81821463f23a6e6183141763150b7a02831417612bc4577f08c63e27000000000000000000000000000000000000000000000000000000005f526001600160e01b03191660045260245ffd5b506020526020603cf35b5f5160206160dd5f395f51905f52546001600160a01b0316801515926060929084612cea575b6001600160f81b03198116607f60f91b03612c9857505f8091612c156157a5565b90602082519201905afa92612c286125a0565b935b15612c9057612c3c575b825160208401f35b803b1561021357612c675f92918392604051948580948193630b9dfbed60e11b835260048301612337565b03925af180156104e457612c7c575b80612c34565b806108b55f612c8a93611ddc565b81612c76565b835160208501fd5b6001600160f81b03198116612cce57505f8091612cb36157a5565b906020825192019034905af192612cc86125a0565b93612c2a565b632e5bf3f960e21b5f526001600160f81b03191660045260245ffd5b925060405163d68f602560e01b81525f8180612d0b36343360048501612311565b038183875af19081156104e4575f91612d26575b5092612bf4565b612d3a91503d805f833e6108d48183611ddc565b85612d1f565b919091356001600160e01b031981169260048110612d5c575050565b6001600160e01b0319929350829060040360031b1b161690565b92909160018403612d8d575050611e139150613d84565b60028403612da1575050611e139150613dc4565b60038403612dd657611e13935060048210612dce57612dc991612dc391611d3c565b90612d40565b614575565b50505f614575565b505090600481145f14612e0457505f5160206160dd5f395f51905f52546001600160a01b0391821691161490565b600881148015612e34575b15612e2e576001600160a01b03612e268192614512565b921691161490565b50505f90565b5060098114612e0f565b6001600160a01b03811680612e735750507f000000000000000000000000000000000000000000000000000000000000000090565b612e7c82613d84565b15612e85575090565b7f6859e01e000000000000000000000000000000000000000000000000000000005f5260045260245ffd5b91909160408184031261021357805192602082015167ffffffffffffffff811161021357611e139201612285565b611e1394926001600160a01b03606093168252602082015281604082015201916122f1565b7f0bb70095b32b9671358306b0339b4c06e7cbd8cb82505941fba30d1eb5b82f06549293926001600160a01b031680612f44575090611e1391933691611f87565b6040517f7a0468b7000000000000000000000000000000000000000000000000000000008152945f93869384928392612f81923360048601612ede565b03915afa9182156104e4575f905f93612f9957509190565b90506102da9192503d805f833e612fb08183611ddc565b810190612eb0565b9060f911610713578035906020810135810190602082019135906040810135019360208501943593612feb368486611f87565b602081519101205f528060a01c6020526001600160a01b0360405f201690815f526001600160a01b0360205f2091608060205216601f526305d78094600b52601960272090604051915f52601b602052826040526060526020604060805f60015afa505f60605261307a61057b3d606018518360405261307230916001600160a01b031690565b143015151690565b6130dc575b81156130b4579081527f4f058962bce244bca6c9be42f256083afc66f1f63a1f9a04e31a3042311af38d9080602081016126b0565b7fe483bbcb000000000000000000000000000000000000000000000000000000005f5260045ffd5b5f915061307f565b90601811613189575f8160208083940135820180358060405193849301833781018481520391355af46131156125a0565b5015613161576131236145c1565b1561312a57565b6131326121f0565b1561313957565b7f7556034e000000000000000000000000000000000000000000000000000000005f5260045ffd5b7f315927c5000000000000000000000000000000000000000000000000000000005f5260045ffd5b7ff9c42c60000000000000000000000000000000000000000000000000000000005f5260045ffd5b6001600160a01b03611e139593606093835216602082015281604082015201916122f1565b92909192823560601c601484013590603485013560e01c91603886019383870196603888013560e01c976038828a603c840193010301998060048c01116102135761325f9361325a886132508b948f60049061057b9901019f6003199103019d8061324a61041f611e76611e70848c611d11565b97611d1f565b949093898b6145e3565b614657565b6132c457303b15610213576132a35f9360405195869485947f9517e29f000000000000000000000000000000000000000000000000000000008652600486016131b1565b038183305af180156104e4576132b65750565b806108b55f61026e93611ddc565b7f46fdc333000000000000000000000000000000000000000000000000000000005f5260045ffd5b92916001600160a01b037f0bb70095b32b9671358306b0339b4c06e7cbd8cb82505941fba30d1eb5b82f05541680155f1461332b575050610100015190565b60405f80948297949751978895869485937fe24f8f930000000000000000000000000000000000000000000000000000000085526133756004860191606083526060830190612129565b936020820152015203925af19182156104e4575f905f93612f9957509190565b60015f525f5160206160bd5f395f51905f526020527ffe44ceacbf4f03c6ac19f86826dd265fa9ec25125e8b1766c207f24cd3bc73c7546001600160a01b03161515806133df5790565b5060015f525f5160206160fd5f395f51905f526020527fbdfeb076d903611fa58576955630d640569633049bcf40ad9c22db9251b54a13546001600160a01b0316151590565b1561342c57565b7f756688fe000000000000000000000000000000000000000000000000000000005f5260045ffd5b1561345b57565b7fbf6b5843000000000000000000000000000000000000000000000000000000005f5260045ffd5b6020916001600160a01b039161356461358595806134aa61041f611e76611e708489611d11565b9461355f6135526134de6134bd886124f7565b60608c8a0135996134d160408201826120e7565b92909101359a8b936146dc565b9661352561352061057b613519845f527f0bb70095b32b9671358306b0339b4c06e7cbd8cb82505941fba30d1eb5b82f0760205260405f2090565b5460ff1690565b613425565b5f527f0bb70095b32b9671358306b0339b4c06e7cbd8cb82505941fba30d1eb5b82f0760205260405f2090565b805460ff19166001179055565b611d1f565b93909160405196879586948593637aa8f17760e11b85523060048601612ede565b0392165afa80156104e4576001600160e01b0319630b135d3f60e11b9161026e935f916135b5575b501614613454565b6135ce915060203d602011611ef857611ee98183611ddc565b5f6135ad565b916020611e139381815201916122f1565b6136489392916004810361364c57505f5160206160dd5f395f51905f5280546001600160a01b03191690555b6136435a92613635604051958692638a91b0e360e01b6020850152602484016135d4565b03601f198101855284611ddc565b614796565b5050565b600881148080156136dc575b613664575b5050613611565b156136a157507f0bb70095b32b9671358306b0339b4c06e7cbd8cb82505941fba30d1eb5b82f0680546001600160a01b03191690555b5f8061365d565b60090361369a577f0bb70095b32b9671358306b0339b4c06e7cbd8cb82505941fba30d1eb5b82f0580546001600160a01b031916905561369a565b5060098214613658565b6040516136f4604082611ddc565b600581527f4e6578757300000000000000000000000000000000000000000000000000000060208201529060405161372d604082611ddc565b600581527f312e322e30000000000000000000000000000000000000000000000000000000602082015290565b9190916137e460405161376c81611dbb565b5f81525f6020820152613785610602612dc38688611d3c565b8151815460209093015174ff000000000000000000000000000000000000000060589190911c167fffffffffffffffffffffff0000000000000000000000000000000000000000009093166001600160a01b0390911617919091179055565b5a908260041161021357613643600461364895019360031901613635604051958692638a91b0e360e01b602085015260206024850181815201916122f1565b91909160408184031261021357803561383b81610252565b92602082013567ffffffffffffffff811161021357611e139201611fbd565b90613870906001600160a01b0393810190613823565b92166001600160a01b038216801580156139c5575b6139b2576001600160a01b036138b9835f5160206160fd5f395f51905f52906001600160a01b03165f5260205260405f2090565b54160361399657918161393a6136489461391f6138fa610d2b613635975f5160206160fd5f395f51905f52906001600160a01b03165f5260205260405f2090565b915f5160206160fd5f395f51905f52906001600160a01b03165f5260205260405f2090565b906001600160a01b03166001600160a01b0319825416179055565b613975613965825f5160206160fd5f395f51905f52906001600160a01b03165f5260205260405f2090565b6001600160a01b03198154169055565b6136435a92604051948591638a91b0e360e01b602084015260248301612337565b637c84ecfb60e01b5f526001600160a01b03821660045260245ffd5b50637c84ecfb60e01b5f5260045260245ffd5b5060018114613885565b906139e5906001600160a01b0393810190613823565b92166001600160a01b03821680158015613abf575b6139b2576001600160a01b03613a2e835f5160206160bd5f395f51905f52906001600160a01b03165f5260205260405f2090565b541603613996579181613a946136489461391f613a6f610d2b613635975f5160206160bd5f395f51905f52906001600160a01b03165f5260205260405f2090565b915f5160206160bd5f395f51905f52906001600160a01b03165f5260205260405f2090565b613975613965825f5160206160bd5f395f51905f52906001600160a01b03165f5260205260405f2090565b50600181146139fa565b613ad461057b6145c1565b80613bed575b613ae057565b60015f525f5160206160bd5f395f51905f52602052613b1e7ffe44ceacbf4f03c6ac19f86826dd265fa9ec25125e8b1766c207f24cd3bc73c7610d2b565b6001600160a01b03811680151580613be2575b15613bd15760405163d60b347f60e01b815230600482015290602090829060249082905afa9081156104e4575f91613bb3575b50613b7757613b7290613d3f565b613b1e565b6001600160a01b036001915b1614613b8b57565b7fcc319d84000000000000000000000000000000000000000000000000000000005f5260045ffd5b613bcb915060203d811161227e576122708183611ddc565b5f613b64565b506001600160a01b03600191613b83565b506001811415613b31565b5060405163d60b347f60e01b81523060048201526020816024817f00000000000000000000000000000000000000000000000000000000000000006001600160a01b03165afa9081156104e4575f91613c48575b5015613ada565b613c61915060203d60201161227e576122708183611ddc565b5f613c41565b613c97936001600160a01b0360209496939660405196879586948593637aa8f17760e11b85523360048601612ede565b0392165afa9081156104e4575f91613d20575b507f77390000000000000000000000000000000000000000000000000000000000007fffff00000000000000000000000000000000000000000000000000000000000082161480613d03575b613cfe575090565b905090565b506001600160e01b031982166001600160e01b0319821611613cf6565b613d39915060203d602011611ef857611ee98183611ddc565b5f613caa565b6001600160a01b03168015613d72575f525f5160206160bd5f395f51905f526020526001600160a01b0360405f20541690565b637c84ecfb60e01b5f5260045260245ffd5b6001600160a01b031680600114159081613d9c575090565b90505f525f5160206160bd5f395f51905f526020526001600160a01b0360405f205416151590565b6001600160a01b031680600114159081613ddc575090565b90505f525f5160206160fd5f395f51905f526020526001600160a01b0360405f205416151590565b6001600160a01b037f0bb70095b32b9671358306b0339b4c06e7cbd8cb82505941fba30d1eb5b82f0854169081613e39575050565b813b15610213576040516396fb721760e01b81526001600160a01b03909116600482015260026024820152905f90829060449082905afa80156104e457613e7e575b50565b80613e8a5f8093611ddc565b80031261021357565b6001600160a01b037f0bb70095b32b9671358306b0339b4c06e7cbd8cb82505941fba30d1eb5b82f0854169081613ec8575050565b813b15610213575f9060405192838080936396fb721760e01b8252600460208184016001600160a01b036040820194168152015203915afa80156104e457613e7e5750565b6001600160a01b037f0bb70095b32b9671358306b0339b4c06e7cbd8cb82505941fba30d1eb5b82f0854169081613f42575050565b813b15610213576040516396fb721760e01b81526001600160a01b03909116600482015260036024820152905f90829060449082905afa80156104e457613e7e5750565b6001600160a01b037f0bb70095b32b9671358306b0339b4c06e7cbd8cb82505941fba30d1eb5b82f0854169081613fbb575050565b813b15610213576040516396fb721760e01b81526001600160a01b03909116600482015260016024820152905f90829060449082905afa80156104e457613e7e5750565b6001600160a01b037f0bb70095b32b9671358306b0339b4c06e7cbd8cb82505941fba30d1eb5b82f085416918261403557505050565b823b15610213576040516396fb721760e01b81526001600160a01b039290921660048301526024820152905f90829060449082905afa80156104e457613e7e5750565b604080519091906140898382611ddc565b6001815291601f1901825f5b8281106140a157505050565b806060602080938501015201614095565b906140bc82612a62565b6140c96040519182611ddc565b82815280926140da601f1991612a62565b01905f5b8281106140ea57505050565b8060606020809385010152016140de565b634e487b7160e01b5f52603260045260245ffd5b80511561411c5760200190565b6140fb565b805182101561411c5760209160051b010190565b91611e13939161414d916040855260408501916122f1565b916020818403910152610e76565b90614165916153d2565b916001600160f81b031981166141e2575061417f826140b2565b915f5b81811061418f5750505090565b806141c66141a06001938587615452565b80356141ab81610252565b6141be60208301359260408101906120e7565b929091615573565b6141d08287614121565b526141db8186614121565b5001614182565b9291906001600160f81b03198416600160f81b0361420557611e13929350615474565b6001600160f81b0319846308c3ee0360e11b5f521660045260245ffd5b9061422f91939293615524565b91909261423a614078565b956001600160f81b031981166142695750906142569391615573565b61425f8361410f565b52613e7b8261410f565b6001600160f81b03198116600160f81b03612a4557508361428b92849261554c565b6142948661410f565b521561429e575050565b7fb5282692b8c578af7fb880895d599035496b5e64d1f14bf428a1ed3bc406f662916126b06129038661410f565b906142d6916153d2565b90916001600160f81b0319811661433357505f5b8181106142f657505050565b8061432d6143076001938587615452565b803561431281610252565b61432560208301359260408101906120e7565b9290916155a0565b016142ea565b92916001600160f81b03198416600160f81b0361420557613e7b929350615474565b6001600160f81b03199161436891615524565b90949093919291168061438157509061026e93916155a0565b600160f81b81036143d657508361439992849261554c565b9290156143a557505050565b6126b07fb5282692b8c578af7fb880895d599035496b5e64d1f14bf428a1ed3bc406f6629360405193849384614135565b6308c3ee0360e11b5f5260045260245ffd5b903590601e1981360301821215610213570180359067ffffffffffffffff821161021357602001918160051b3603831361021357565b35611e13816105cc565b60405190614437602083611ddc565b5f808352366020840137565b915f5b828110156144f2578060051b84013590609e1985360301821215610213576144da600192860161448e61447c60608301836143e8565b6144886040850161441e565b916155ce565b6144a661449a836124f7565b6001600160a01b031690565b156144e0576144c66144d2916144bb846124f7565b602085013590615d64565b915b60808101906143e8565b309291615673565b01614446565b506144d26144ec614428565b916144c8565b50915050565b60409060ff611e1394931681528160208201520190610c54565b600803614547576001600160a01b037f0bb70095b32b9671358306b0339b4c06e7cbd8cb82505941fba30d1eb5b82f06541690565b6001600160a01b037f0bb70095b32b9671358306b0339b4c06e7cbd8cb82505941fba30d1eb5b82f05541690565b6001600160a01b036145b981926001600160e01b0319165f527f0bb70095b32b9671358306b0339b4c06e7cbd8cb82505941fba30d1eb5b82f0260205260405f2090565b541691161490565b5f906017303b146145ce57565b905060035f80303c5f5160e81c62ef01001490565b93926145f191933691611f87565b6020815191012090604051926001600160a01b0360208501957ff6c866c1cd985ce61f030431e576c0e82887de0643dfa8a2e6efc3463e638ed087521660408501526060840152608083015260a082015260a0815261465160c082611ddc565b51902090565b92602092916001600160a01b0361467061468e966157d2565b60405196879586948593637aa8f17760e11b85523060048601612ede565b0392165afa5f91816146bb575b506146a557505f90565b6001600160e01b031916630b135d3f60e11b1490565b6146d591925060203d602011611ef857611ee98183611ddc565b905f61469b565b92611e139491926146ee913691611f87565b60208151910120604051926001600160a01b0360208501957fd3ddfc12654178cc44d4a7b6b969cfdce7ffe6342326ba37825314cffa0fba9c87521660408501526060840152608083015260a082015260a0815261474d60c082611ddc565b5190206157d2565b6001600160a01b0361026e91166001600160a01b03166001600160a01b03195f5160206160dd5f395f51905f525416175f5160206160dd5f395f51905f5255565b92915f91908291826147a781611f6b565b966147b56040519889611ddc565b818852601f196147c483611f6b565b013660208a013760208451940192f13d806147e7575b8084525f602085013e9190565b505f6147da565b906147f882612a62565b6148056040519182611ddc565b8281528092614816601f1991612a62565b0190602036910137565b5f198114611d0c5760010190565b5f19810191908211611d0c57565b60015f525f5160206160fd5f395f51905f526020527fbdfeb076d903611fa58576955630d640569633049bcf40ad9c22db9251b54a13546001600160a01b03166149225760015f525f5160206160fd5f395f51905f526020526148af60405f2060016001600160a01b0319825416179055565b60015f525f5160206160bd5f395f51905f526020526001600160a01b037ffe44ceacbf4f03c6ac19f86826dd265fa9ec25125e8b1766c207f24cd3bc73c754166149225760015f525f5160206160bd5f395f51905f5260205261026e60405f2060016001600160a01b0319825416179055565b7f53c85e66000000000000000000000000000000000000000000000000000000005f5260045ffd5b919081101561411c5760051b0190565b9082101561411c576102da9160051b8101906120e7565b9150614993908035810191602083019235916020810135019060208201913590565b929391808403614a81575f5b8181106149ae57505050505050565b806149bc600192848961494a565b358281036149e057506149da6149d382888761495a565b90876151ff565b0161499f565b60028103614a055750614a006149fa61051783898861495a565b866150f8565b6149da565b60038103614a235750614a00614a1c82888761495a565b9087614e15565b60048103614a415750614a00614a3a82888761495a565b9087614c9f565b85600882148015614a77575b614a59575b50506149da565b614a7091614a68848a8961495a565b929091614aa9565b5f85614a52565b5060098214614a4d565b7fb4fa3fb3000000000000000000000000000000000000000000000000000000005f5260045ffd5b9291906001600160a01b03614ad26001600160a01b035f5160206160dd5f395f51905f52541690565b1680614ae2575061026e93614b82565b916040939193519363d68f602560e01b85525f8580614b0636343360048501612311565b038183885af19485156104e4575f95614b62575b50614b26939495614b82565b803b1561021357614b515f92918392604051948580948193630b9dfbed60e11b835260048301612337565b03925af180156104e4576132b65750565b614b26949550614b7b903d805f833e6108d48183611ddc565b9493614b1a565b929092614b8f8185613fff565b60405163ecd0596160e01b8152600481018290526001600160a01b0385169490602081602481895afa9081156104e4575f91614c43575b5015614c1b5781614bec614bdc614bf194614512565b6001600160a01b03811615614c62565b6158e4565b823b1561021357614b51925f92836040518096819582946306d61fe760e41b8452600484016135d4565b7fe27c1dd8000000000000000000000000000000000000000000000000000000005f5260045ffd5b614c5c915060203d60201161227e576122708183611ddc565b5f614bc6565b15614c6a5750565b6001600160a01b03907fc689cd97000000000000000000000000000000000000000000000000000000005f521660045260245ffd5b91906001600160a01b03614cc76001600160a01b035f5160206160dd5f395f51905f52541690565b1680614cd7575061026e92614d39565b90916040519263d68f602560e01b84525f8480614cf936343360048501612311565b038183875af19384156104e4575f94614d19575b50614b26929394614d39565b614b26939450614d32903d805f833e6108d48183611ddc565b9392614d0d565b91614d4383613e93565b60405163ecd0596160e01b81526004808201526001600160a01b0384169390602081602481885afa9081156104e4575f91614db9575b5015614c1b57614bf190614db4614da46001600160a01b035f5160206160dd5f395f51905f52541690565b6001600160a01b03811615614dd8565b614755565b614dd2915060203d60201161227e576122708183611ddc565b5f614d79565b15614de05750565b6001600160a01b03907f741cbe03000000000000000000000000000000000000000000000000000000005f521660045260245ffd5b91906001600160a01b03614e3d6001600160a01b035f5160206160dd5f395f51905f52541690565b1680614e4d575061026e92614eaf565b90916040519263d68f602560e01b84525f8480614e6f36343360048501612311565b038183875af19384156104e4575f94614e8f575b50614b26929394614eaf565b614b26939450614ea8903d805f833e6108d48183611ddc565b9392614e83565b9091614eba82613f0d565b60405163ecd0596160e01b8152600360048201526001600160a01b0383169290602081602481875afa9081156104e4575f9161502e575b5015614c1b5761378584610602614f636105178680614f41614f34614f2683614f20612dc3614fd29e8c611d3c565b9961504d565b356001600160f81b03191690565b6001600160f81b03191690565b9a6001600160f81b03198c16158015615017575b614f5e9061505c565b611d4a565b96614f926001600160e01b031984166306d61fe760e41b8114908115615006575b8115614ffd575b501561508b565b614fa783614fa261057b826159c5565b6150ba565b614fc1614fb2611f5c565b6001600160a01b039096168652565b6001600160f81b0319166020850152565b803b1561021357614b515f929183926040519485809481936306d61fe760e41b835260048301612337565b9050155f614f8b565b638a91b0e360e01b81149150614f84565b50607f60f91b6001600160f81b03198d1614614f55565b615047915060203d60201161227e576122708183611ddc565b5f614ef1565b906004101561411c5760040190565b1561506357565b7f867a1dcf000000000000000000000000000000000000000000000000000000005f5260045ffd5b1561509257565b7fc001660b000000000000000000000000000000000000000000000000000000005f5260045ffd5b156150c25750565b6001600160e01b0319907fa56a04dd000000000000000000000000000000000000000000000000000000005f521660045260245ffd5b906001600160a01b0361511f6001600160a01b035f5160206160dd5f395f51905f52541690565b168061512f575061026e91615191565b906040519263d68f602560e01b84525f848061515036343360048501612311565b038183875af19384156104e4575f9461516f575b5090614b2691615191565b614b2692919450615189903d805f833e6108d48183611ddc565b939091615164565b61519a81613e04565b60405163ecd0596160e01b8152600260048201526001600160a01b0382169190602081602481865afa9081156104e4575f916151e0575b5015614c1b57614fd290615a0f565b6151f9915060203d60201161227e576122708183611ddc565b5f6151d1565b91906001600160a01b036152276001600160a01b035f5160206160dd5f395f51905f52541690565b1680615237575061026e92615299565b90916040519263d68f602560e01b84525f848061525936343360048501612311565b038183875af19384156104e4575f94615279575b50614b26929394615299565b614b26939450615292903d805f833e6108d48183611ddc565b939261526d565b916152a383613f86565b60405163ecd0596160e01b8152600160048201526001600160a01b0384169390602081602481885afa9081156104e4575f91615341575b5015614c1b576001600160a01b037f000000000000000000000000000000000000000000000000000000000000000016841461531957614bf190615b33565b7fabc3af79000000000000000000000000000000000000000000000000000000005f5260045ffd5b61535a915060203d60201161227e576122708183611ddc565b5f6152da565b918160141161021357823560601c92601401916013190190565b5f9192806040519485378338925af4913d82523d5f602084013e60203d830101604052565b5f919392806040519586378438925af4156153c9573d82523d5f602084013e60203d830101604052565b503d5f823e3d90fd5b909181359182810193601f199101016020840193803593828560051b8301119060401c176154455783615403575050565b835b5f190160208160051b8301013580830160608101908135809101918680602080860135809601011191111792171760401c17615445578061540557505050565b63ba597e7e5f526004601cfd5b919081101561411c5760051b81013590605e1981360301821215610213570190565b919091615480836140b2565b925f5b81811061548f57505050565b8061549d6001928486615452565b8035906154a982610252565b6154c8602082013560408301936154c085856120e7565b92909161554c565b6154d2858b614121565b52156154e1575b505001615483565b7fb5282692b8c578af7fb880895d599035496b5e64d1f14bf428a1ed3bc406f6629161550c916120e7565b9061551a612903858b614121565b0390a15f806154d9565b908060141161021357813560601c926034821061021357601483013592603401916033190190565b905f928491604051958692833738935af1913d82523d5f602084013e60203d830101604052565b90925f92819594604051968792833738935af1156153c9573d82523d5f602084013e60203d830101604052565b8380935f93604051958692833738935af1156107aa5701604052565b805191908290602001825e015f815290565b916001600160e01b031960405191166020820152600481526155f1602482611ddc565b915f915b8083106156025750505090565b90919261563461564860019261563a61562461561f89888a615452565b615c53565b60405194859360208501906155bc565b906155bc565b03601f198101835282611ddc565b930191906155f5565b919081101561411c5760051b81013590603e1981360301821215610213570190565b91905f5b818110615685575050505050565b615690818386615651565b908561569b83615c46565b6156a481615c37565b6156d6576156d0906156bc84602060019601906120e7565b506040810135908760208201359135615fe8565b01615677565b509060016156e382615c46565b6156ec81615c37565b0361577d578060206156ff9201906120e7565b50905f8061571f6040850135850160405191828260208294359101612593565b039060208601355afa6157306125a0565b901561575557866157509184608060019601359160608201359135615fe8565b6156d0565b7f6e47f619000000000000000000000000000000000000000000000000000000005f5260045ffd5b7fe2121978000000000000000000000000000000000000000000000000000000005f5260045ffd5b60405190602036830101604052816014360181525f602036920137604051601481016040523360601b9052565b7f00000000000000000000000000000000000000000000000000000000000000007f000000000000000000000000000000000000000000000000000000000000000030147f00000000000000000000000000000000000000000000000000000000000000004614161561585d575b6719010000000000005f52601a52603a526042601820905f603a52565b5060a06040517f8b73c3c69bb8fe3d512ecc4cf759cc79239f7b179b0ffacaa9a75d522b39400f81527f000000000000000000000000000000000000000000000000000000000000000060208201527f0000000000000000000000000000000000000000000000000000000000000000604082015246606082015230608082015220615840565b6008810361595457506001600160a01b0361026e91166001600160a01b03166001600160a01b03197f0bb70095b32b9671358306b0339b4c06e7cbd8cb82505941fba30d1eb5b82f065416177f0bb70095b32b9671358306b0339b4c06e7cbd8cb82505941fba30d1eb5b82f0655565b60091461595e5750565b6001600160a01b0361026e91166001600160a01b03166001600160a01b03197f0bb70095b32b9671358306b0339b4c06e7cbd8cb82505941fba30d1eb5b82f055416177f0bb70095b32b9671358306b0339b4c06e7cbd8cb82505941fba30d1eb5b82f0555565b615a086001600160a01b03916001600160e01b0319165f527f0bb70095b32b9671358306b0339b4c06e7cbd8cb82505941fba30d1eb5b82f0260205260405f2090565b5416151590565b6001600160a01b03811680158015615b29575b613d72575f9081525f5160206160fd5f395f51905f5260205260409020546001600160a01b0316615af55760015f525f5160206160fd5f395f51905f5260205261026e90615aba615a927fbdfeb076d903611fa58576955630d640569633049bcf40ad9c22db9251b54a13610d2b565b61391f835f5160206160fd5f395f51905f52906001600160a01b03165f5260205260405f2090565b60015f525f5160206160fd5f395f51905f526020527fbdfeb076d903611fa58576955630d640569633049bcf40ad9c22db9251b54a1361391f565b7f40d3d1a4000000000000000000000000000000000000000000000000000000005f526001600160a01b031660045260245ffd5b5060018114615a22565b6001600160a01b03811680158015615c19575b613d72575f9081525f5160206160bd5f395f51905f5260205260409020546001600160a01b0316615af55760015f525f5160206160bd5f395f51905f5260205261026e90615bde615bb67ffe44ceacbf4f03c6ac19f86826dd265fa9ec25125e8b1766c207f24cd3bc73c7610d2b565b61391f835f5160206160bd5f395f51905f52906001600160a01b03165f5260205260405f2090565b60015f525f5160206160bd5f395f51905f526020527ffe44ceacbf4f03c6ac19f86826dd265fa9ec25125e8b1766c207f24cd3bc73c761391f565b5060018114615b46565b634e487b7160e01b5f52602160045260245ffd5b60021115615c4157565b615c23565b3560028110156102135790565b615c5c81615c46565b615c6581615c37565b615ca657610517816020611e13930190615ca1615c8283836120e7565b615c9c615c9260408601866143e8565b9390923691611f87565b615e8c565b6120e7565b6001615cb182615c46565b615cba81615c37565b03615d3c575f80615cce60208401846120e7565b5060405180615ce881602085810135860180359101612593565b0391355afa90615cf66125a0565b9115615d1457615d0d816040611e139301906143e8565b9083615e8c565b7f6533cc8d000000000000000000000000000000000000000000000000000000005f5260045ffd5b7f94857955000000000000000000000000000000000000000000000000000000005f5260045ffd5b9291905f91604051943892602083519301915af1156153c9573d82523d5f602084013e60203d830101604052565b6040813603126102135760405190615da982611dbb565b8035600481101561021357825260208101359067ffffffffffffffff821161021357615dd791369101611fbd565b602082015290565b60041115615c4157565b9190826040910312610213576020825192015190565b15615e0657565b630a31844b60e41b5f52600360045260245ffd5b15615e2157565b630a31844b60e41b5f52600260045260245ffd5b15615e3c57565b630a31844b60e41b5f52600160045260245ffd5b15615e5757565b630a31844b60e41b5f525f60045260245ffd5b602081519101519060208110615e7e575090565b5f199060200360031b1b1690565b9180615e9757505050565b5f5b818110615ea65750505050565b615eb9615eb4828486615651565b615d92565b9060208160051b86010151918051615ed081615ddf565b615ed981615ddf565b615efc57600192615ef06020615ef6930151615e6a565b14615e50565b01615e99565b60018151615f0981615ddf565b615f1281615ddf565b03615f3657600192615f2a6020615f31930151615e6a565b1115615e35565b615ef6565b60028151615f4381615ddf565b615f4c81615ddf565b03615f6b57600192615f646020615f31930151615e6a565b1015615e1a565b60038151615f7881615ddf565b615f8181615ddf565b03615fc057600192615fa36020615f3193015160208082518301019101615de9565b908210159182615fb5575b5050615dff565b111590505f80615fae565b7f2c50c45e000000000000000000000000000000000000000000000000000000005f5260045ffd5b929193905f5b848110615ffd57505050505050565b60208160051b83010151906001600160a01b0387169160405160208101906160358161563a868b869091604092825260208201520190565b519020833b15610213576040517fa39e0787000000000000000000000000000000000000000000000000000000008152600481019190915260248101919091526001600160a01b0385166044820152915f908390606490829084905af19182156104e4576001926160a8575b5001615fee565b806108b55f6160b693611ddc565b5f6160a156fe0bb70095b32b9671358306b0339b4c06e7cbd8cb82505941fba30d1eb5b82f000bb70095b32b9671358306b0339b4c06e7cbd8cb82505941fba30d1eb5b82f030bb70095b32b9671358306b0339b4c06e7cbd8cb82505941fba30d1eb5b82f01a26469706673582212201b0f3207880b5ef6a88c4702a35ecb112c4132cf7dd176db86e92e13c963378d64736f6c634300081b00330bb70095b32b9671358306b0339b4c06e7cbd8cb82505941fba30d1eb5b82f01",
  "linkReferences": {},
  "deployedLinkReferences": {}
}