{"contracts/modules/executors/BondModule.sol":{"BondModule":{"abi":[{"inputs":[{"internalType":"address","name":"_bondModuleTeeServer","type":"address"},{"internalType":"address","name":"_owner","type":"address"}],"stateMutability":"nonpayable","type":"constructor"},{"inputs":[],"name":"AgentModeNotActivated","type":"error"},{"inputs":[],"name":"ArrayLengthMismatch","type":"error"},{"inputs":[],"name":"AttestationAlreadyUsed","type":"error"},{"inputs":[],"name":"ECDSAInvalidSignature","type":"error"},{"inputs":[{"internalType":"uint256","name":"length","type":"uint256"}],"name":"ECDSAInvalidSignatureLength","type":"error"},{"inputs":[{"internalType":"bytes32","name":"s","type":"bytes32"}],"name":"ECDSAInvalidSignatureS","type":"error"},{"inputs":[],"name":"ExceededAllowedPercentage","type":"error"},{"inputs":[],"name":"ExecutionFailed","type":"error"},{"inputs":[],"name":"InsufficientAllowance","type":"error"},{"inputs":[],"name":"InvalidAmount","type":"error"},{"inputs":[],"name":"InvalidAttestation","type":"error"},{"inputs":[],"name":"InvalidPercentage","type":"error"},{"inputs":[{"internalType":"address","name":"account","type":"address"}],"name":"ModuleAlreadyInitialized","type":"error"},{"inputs":[{"internalType":"address","name":"account","type":"address"}],"name":"ModuleNotInitialized","type":"error"},{"inputs":[{"internalType":"address","name":"tee","type":"address"}],"name":"NotAuthorized","type":"error"},{"inputs":[{"internalType":"address","name":"owner","type":"address"}],"name":"OwnableInvalidOwner","type":"error"},{"inputs":[{"internalType":"address","name":"account","type":"address"}],"name":"OwnableUnauthorizedAccount","type":"error"},{"anonymous":false,"inputs":[{"indexed":true,"internalType":"address","name":"account","type":"address"},{"indexed":false,"internalType":"address[]","name":"tokenAddresses","type":"address[]"},{"indexed":false,"internalType":"uint256[]","name":"totalAmounts","type":"uint256[]"},{"indexed":false,"internalType":"uint256","name":"nonce","type":"uint256"},{"indexed":false,"internalType":"address","name":"activatedBy","type":"address"},{"indexed":false,"internalType":"uint256","name":"timestamp","type":"uint256"}],"name":"AgentModeActivated","type":"event"},{"anonymous":false,"inputs":[{"indexed":true,"internalType":"address","name":"account","type":"address"},{"indexed":false,"internalType":"uint256","name":"timestamp","type":"uint256"}],"name":"AgentModeDisabled","type":"event"},{"anonymous":false,"inputs":[{"indexed":true,"internalType":"address","name":"account","type":"address"},{"indexed":false,"internalType":"uint256","name":"timestamp","type":"uint256"}],"name":"AgentModeEnabled","type":"event"},{"anonymous":false,"inputs":[{"indexed":true,"internalType":"address","name":"account","type":"address"},{"indexed":true,"internalType":"address","name":"token","type":"address"},{"indexed":false,"internalType":"uint256","name":"amount","type":"uint256"},{"indexed":false,"internalType":"uint256","name":"percentageBps","type":"uint256"},{"indexed":false,"internalType":"uint256","name":"balanceBefore","type":"uint256"},{"indexed":false,"internalType":"uint256","name":"balanceAfter","type":"uint256"},{"indexed":false,"internalType":"uint256","name":"nonce","type":"uint256"},{"indexed":false,"internalType":"bytes32","name":"attestationHash","type":"bytes32"},{"indexed":false,"internalType":"uint256","name":"timestamp","type":"uint256"}],"name":"FundsExecuted","type":"event"},{"anonymous":false,"inputs":[{"indexed":true,"internalType":"address","name":"account","type":"address"},{"indexed":false,"internalType":"address[]","name":"tokenAddresses","type":"address[]"},{"indexed":false,"internalType":"uint256[]","name":"allowances","type":"uint256[]"},{"indexed":false,"internalType":"uint256","name":"timestamp","type":"uint256"}],"name":"ModuleInitialized","type":"event"},{"anonymous":false,"inputs":[{"indexed":true,"internalType":"address","name":"account","type":"address"},{"indexed":false,"internalType":"address[]","name":"tokenAddresses","type":"address[]"},{"indexed":false,"internalType":"uint256","name":"timestamp","type":"uint256"}],"name":"ModuleUninitialized","type":"event"},{"anonymous":false,"inputs":[{"indexed":true,"internalType":"address","name":"previousOwner","type":"address"},{"indexed":true,"internalType":"address","name":"newOwner","type":"address"}],"name":"OwnershipTransferred","type":"event"},{"anonymous":false,"inputs":[{"indexed":true,"internalType":"address","name":"account","type":"address"},{"indexed":false,"internalType":"address[]","name":"tokenAddresses","type":"address[]"},{"indexed":false,"internalType":"uint256[]","name":"previousAllowances","type":"uint256[]"},{"indexed":false,"internalType":"uint256","name":"timestamp","type":"uint256"}],"name":"TokenAllowancesCleared","type":"event"},{"inputs":[],"name":"MODULE_TYPE_EXECUTOR","outputs":[{"internalType":"uint256","name":"","type":"uint256"}],"stateMutability":"view","type":"function"},{"inputs":[{"internalType":"address","name":"nexusAccount","type":"address"},{"internalType":"address[]","name":"tokenAddresses","type":"address[]"},{"internalType":"uint256[]","name":"totalAmounts","type":"uint256[]"},{"internalType":"uint256","name":"nonce","type":"uint256"},{"internalType":"bytes","name":"bondModuleTeeSignature","type":"bytes"}],"name":"activateAgentMode","outputs":[],"stateMutability":"nonpayable","type":"function"},{"inputs":[{"internalType":"address","name":"","type":"address"}],"name":"agentModeActivated","outputs":[{"internalType":"bool","name":"","type":"bool"}],"stateMutability":"view","type":"function"},{"inputs":[],"name":"bondModuleTeeServer","outputs":[{"internalType":"address","name":"","type":"address"}],"stateMutability":"view","type":"function"},{"inputs":[{"internalType":"address[]","name":"tokenAddresses","type":"address[]"}],"name":"clearTokenAllowances","outputs":[],"stateMutability":"nonpayable","type":"function"},{"inputs":[],"name":"disableAgentMode","outputs":[],"stateMutability":"nonpayable","type":"function"},{"inputs":[],"name":"enableAgentMode","outputs":[],"stateMutability":"nonpayable","type":"function"},{"inputs":[{"internalType":"address","name":"nexusAccount","type":"address"},{"internalType":"bytes","name":"executionBatch","type":"bytes"},{"internalType":"address","name":"token","type":"address"},{"internalType":"uint256","name":"allowedPercentageBps","type":"uint256"},{"internalType":"uint256","name":"nonce","type":"uint256"},{"internalType":"bytes","name":"bondModuleTeeSignature","type":"bytes"}],"name":"executeBatchWithAttestation","outputs":[],"stateMutability":"nonpayable","type":"function"},{"inputs":[],"name":"getConfigInputTypeData","outputs":[{"internalType":"string","name":"configInputTypeData","type":"string"}],"stateMutability":"pure","type":"function"},{"inputs":[{"internalType":"address","name":"account","type":"address"},{"internalType":"address","name":"token","type":"address"}],"name":"getTokenAllowance","outputs":[{"internalType":"uint256","name":"","type":"uint256"}],"stateMutability":"view","type":"function"},{"inputs":[{"internalType":"address","name":"","type":"address"}],"name":"initializedAccounts","outputs":[{"internalType":"bool","name":"","type":"bool"}],"stateMutability":"view","type":"function"},{"inputs":[{"internalType":"address","name":"account","type":"address"}],"name":"isAgentModeActivated","outputs":[{"internalType":"bool","name":"","type":"bool"}],"stateMutability":"view","type":"function"},{"inputs":[{"internalType":"bytes32","name":"attestationHash","type":"bytes32"}],"name":"isAttestationUsed","outputs":[{"internalType":"bool","name":"","type":"bool"}],"stateMutability":"view","type":"function"},{"inputs":[{"internalType":"address","name":"smartAccount","type":"address"}],"name":"isInitialized","outputs":[{"internalType":"bool","name":"","type":"bool"}],"stateMutability":"view","type":"function"},{"inputs":[{"internalType":"uint256","name":"moduleTypeId","type":"uint256"}],"name":"isModuleType","outputs":[{"internalType":"bool","name":"","type":"bool"}],"stateMutability":"pure","type":"function"},{"inputs":[{"internalType":"bytes","name":"data","type":"bytes"}],"name":"onInstall","outputs":[],"stateMutability":"nonpayable","type":"function"},{"inputs":[{"internalType":"bytes","name":"data","type":"bytes"}],"name":"onUninstall","outputs":[],"stateMutability":"nonpayable","type":"function"},{"inputs":[],"name":"owner","outputs":[{"internalType":"address","name":"","type":"address"}],"stateMutability":"view","type":"function"},{"inputs":[],"name":"renounceOwnership","outputs":[],"stateMutability":"nonpayable","type":"function"},{"inputs":[{"internalType":"address","name":"","type":"address"},{"internalType":"address","name":"","type":"address"}],"name":"tokenAllowances","outputs":[{"internalType":"uint256","name":"","type":"uint256"}],"stateMutability":"view","type":"function"},{"inputs":[{"internalType":"address","name":"newOwner","type":"address"}],"name":"transferOwnership","outputs":[],"stateMutability":"nonpayable","type":"function"},{"inputs":[{"internalType":"bytes32","name":"","type":"bytes32"}],"name":"usedAttestations","outputs":[{"internalType":"bool","name":"","type":"bool"}],"stateMutability":"view","type":"function"}],"devdoc":{"details":"This module allows verified agents to invest in yield-generating protocols (ZyFAI, Giza, Cod3x, Sail) on behalf of users based on Bond Module TEE attestations. Flow: 1. User deposits funds into their UnWallet smart account 2. User installs module via onInstall, setting initial token allowance caps (no signature needed - it's their transaction) 3. AgentModeActivated event is emitted for off-chain agents to listen 4. Bond Module TEE calls executeBatchWithAttestation with percentage-based limits to move funds 5. Account owner can disable agent mode anytime via disableAgentMode() 6. Bond Module TEE can call activateAgentMode to update allowance caps at any time","errors":{"ECDSAInvalidSignature()":[{"details":"The signature derives the `address(0)`."}],"ECDSAInvalidSignatureLength(uint256)":[{"details":"The signature has an invalid length."}],"ECDSAInvalidSignatureS(bytes32)":[{"details":"The signature has an S value that is in the upper half order."}],"OwnableInvalidOwner(address)":[{"details":"The owner is not a valid owner account. (eg. `address(0)`)"}],"OwnableUnauthorizedAccount(address)":[{"details":"The caller account is not authorized to perform an operation."}]},"kind":"dev","methods":{"activateAgentMode(address,address[],uint256[],uint256,bytes)":{"details":"This function can be used to set new allowance caps at any time. Initial activation happens during onInstall. This allows updating caps for continued operations. Requires Bond Module TEE signature verification to prevent unauthorized allowance setting. Can also reactivate agent mode if it was disabled by the account owner.","params":{"bondModuleTeeSignature":"The signature from the Bond Module TEE server","nexusAccount":"The smart account to update allowances for","nonce":"A unique nonce for this attestation","tokenAddresses":"Array of token addresses to set allowances for","totalAmounts":"Array of amounts corresponding to each token"}},"clearTokenAllowances(address[])":{"details":"ONLY the account itself can call this function (msg.sender must be the account address) Allows account owner to remove specific token allowances without disabling agent mode entirely.","params":{"tokenAddresses":"Array of token addresses to clear"}},"constructor":{"params":{"_bondModuleTeeServer":"Address of the Bond Module TEE server that executes transfers","_owner":"Owner of the contract (can manage configurations)"}},"disableAgentMode()":{"details":"ONLY the account itself can call this function (msg.sender must be the account address) Allows account owner to pause agent operations without uninstalling the module. Token allowances remain in storage but cannot be used when agent mode is disabled. When disabled, executeBatchWithAttestation will revert with AgentModeNotActivated error."},"enableAgentMode()":{"details":"ONLY the account itself can call this function (msg.sender must be the account address) Allows account owner to resume agent operations after disabling. Requires existing token allowances to be set."},"executeBatchWithAttestation(address,bytes,address,uint256,uint256,bytes)":{"details":"Verifies that the amount moved doesn't exceed allowedPercentageBps% of the account's token balance","params":{"allowedPercentageBps":"The maximum percentage of balance that can be moved (in basis points, e.g., 1000 = 10%)","bondModuleTeeSignature":"The signature from the Bond Module TEE server","executionBatch":"The batch execution data","nexusAccount":"The smart account to execute from","nonce":"A unique nonce for this attestation","token":"The token address being moved"}},"getConfigInputTypeData()":{"returns":{"configInputTypeData":"ABI-encoded type string describing expected config payload"}},"getTokenAllowance(address,address)":{"params":{"account":"The account to check","token":"The token address to check"},"returns":{"_0":"The allowed amount for the token"}},"isAgentModeActivated(address)":{"params":{"account":"The account to check"},"returns":{"_0":"True if agent mode is activated"}},"isAttestationUsed(bytes32)":{"params":{"attestationHash":"The hash of the attestation to check"},"returns":{"_0":"True if the attestation has been used"}},"isInitialized(address)":{"params":{"smartAccount":"The address to check"},"returns":{"_0":"True if initialized"}},"isModuleType(uint256)":{"params":{"moduleTypeId":"The module type ID to check"},"returns":{"_0":"True if the module is of type Executor"}},"onInstall(bytes)":{"details":"Called by the Nexus account when installing the module No signature verification needed - the account owner is calling this directly","params":{"data":"Encoded: (address[] tokenAddresses, uint256[] totalAmounts)"}},"onUninstall(bytes)":{"details":"Called by the Nexus account when uninstalling the module","params":{"data":"Encoded: (address[] tokenAddresses) - tokens to clear allowances for"}},"owner()":{"details":"Returns the address of the current owner."},"renounceOwnership()":{"details":"Leaves the contract without owner. It will not be possible to call `onlyOwner` functions. Can only be called by the current owner. NOTE: Renouncing ownership will leave the contract without an owner, thereby disabling any functionality that is only available to the owner."},"transferOwnership(address)":{"details":"Transfers ownership of the contract to a new account (`newOwner`). Can only be called by the current owner."}},"stateVariables":{"tokenAllowances":{"details":"This tracks how much of each token the Bond Module can move"}},"title":"BondModule","version":1},"evm":{"bytecode":{"linkReferences":{},"object":"60a0346100e457601f6118f938819003918201601f19168301916001600160401b038311848410176100e85780849260409485528339810103126100e457610046816100fc565b906001600160a01b039061005c906020016100fc565b169081156100d1575f80546001600160a01b031981168417825560405193916001600160a01b03909116907f8be0079c531659141344cd1fd0a4f28419497f9722a3daafe3b4186f6b6457e09080a36080526117e8908161011182396080518181816101da015281816104f4015261117d0152f35b631e4fbdf760e01b5f525f60045260245ffd5b5f80fd5b634e487b7160e01b5f52604160045260245ffd5b51906001600160a01b03821682036100e45756fe6080806040526004361015610012575f80fd5b5f3560e01c9081631c16aafc146112f7575080632f6c8ea9146112dc5780633594f7e414610e195780633be7aa24146110285780633e7e373214610fc15780634ad4108414610e485780634e627ae6146102ef5780635a55357214610e195780636d61fe7014610bac578063715018a614610b485780638a91b0e314610a1e5780638da5cb5b146109f9578063a4f4b0dd1461095d578063b1ae36d314610369578063b220aef21461032c578063d60b347f146102ef578063d68bda7c1461021e578063dd50bfd114610272578063ea7ee0101461021e578063ecd05961146101fe578063f1974ff9146101bb5763f2fde38b1461010e575f80fd5b346101b75760203660031901126101b7576001600160a01b0361012f611330565b6101376115f8565b16801561018b576001600160a01b035f548273ffffffffffffffffffffffffffffffffffffffff198216175f55167f8be0079c531659141344cd1fd0a4f28419497f9722a3daafe3b4186f6b6457e05f80a3005b7f1e4fbdf7000000000000000000000000000000000000000000000000000000005f525f60045260245ffd5b5f80fd5b346101b7575f3660031901126101b75760206040516001600160a01b037f0000000000000000000000000000000000000000000000000000000000000000168152f35b346101b75760203660031901126101b75760206040516002600435148152f35b346101b75760403660031901126101b757610237611330565b6001600160a01b03610247611346565b91165f5260036020526001600160a01b0360405f2091165f52602052602060405f2054604051908152f35b346101b7575f3660031901126101b757335f52600160205260ff60405f205416156102dc57335f52600460205260405f20600160ff198254161790556040514281527f080ebdd14509e68f40cb107f7ae3528c61e3ac12b215cd10ab4f275b03996f4960203392a2005b632ed28b2160e11b5f523360045260245ffd5b346101b75760203660031901126101b7576001600160a01b03610310611330565b165f526001602052602060ff60405f2054166040519015158152f35b346101b75760203660031901126101b7576001600160a01b0361034d611330565b165f526004602052602060ff60405f2054166040519015158152f35b346101b75760c03660031901126101b757610382611330565b60243567ffffffffffffffff81116101b7576103a2903690600401611439565b9190604435916001600160a01b038316938484036101b757606435916084359160a43567ffffffffffffffff81116101b7576103e29036906004016113f3565b916001600160a01b03811696875f52600160205260ff60405f2054161561094a57875f52600460205260ff60405f205416156109225785158015610917575b6108ef576040519060208201924684526bffffffffffffffffffffffff199060601b1660408301526bffffffffffffffffffffffff199060601b166054820152856068820152846088820152828760a883013761049160a8828581015f838201520301601f1981018352826113a1565b5190207f19457468657265756d205369676e6564204d6573736167653a0a3332000000005f52601c52603c5f2091825f52600260205260ff60405f2054166108c7576104e06104e99184611637565b90929192611671565b6001600160a01b03807f00000000000000000000000000000000000000000000000000000000000000001691160361089f57815f52600260205260405f20600160ff19825416179055604051946370a0823160e01b86528660048701526020866024818b5afa95861561073a575f9661086b575b505f90606460405160208101907f01000000000000000000000000000000000000000000000000000000000000008252846021820152846022820152846026820152601c81526105ae603c826113a1565b519051906020811061085a575b508460405195869485937fd691c964000000000000000000000000000000000000000000000000000000008552600485015260406024850152816044850152848401378181018301859052601f01601f19168101030181838a5af190811561073a575f9161076d575b50511561074557604051916370a0823160e01b83528560048401526020836024818a5afa92831561073a575f93610706575b50828503928584116106f2578486028681048614871517156106f257612710900484116106ca577fbfb1cf66cf3061ba98749cc04519adcf421fa5b476af184ac9d1705fed8eb1de9560e095604051958652602086015260408501526060840152608083015260a08201524260c0820152a3005b7f40a8b414000000000000000000000000000000000000000000000000000000005f5260045ffd5b634e487b7160e01b5f52601160045260245ffd5b9092506020813d602011610732575b81610722602093836113a1565b810103126101b757519187610656565b3d9150610715565b6040513d5f823e3d90fd5b7facfdb444000000000000000000000000000000000000000000000000000000005f5260045ffd5b90503d805f833e61077e81836113a1565b8101906020818303126101b75780519067ffffffffffffffff82116101b757019080601f830112156101b7578151916107b683611467565b926107c460405194856113a1565b80845260208085019160051b830101918383116101b75760208101915b8383106107f357505050505087610624565b825167ffffffffffffffff81116101b757820185603f820112156101b757602081015191610820836113d7565b61082d60405191826113a1565b83815260408385010188106101b7575f602085819660408397018386015e830101528152019201916107e1565b84199060200360031b1b168b6105bb565b9095506020813d602011610897575b81610887602093836113a1565b810103126101b75751945f61055d565b3d915061087a565b7fbd8ba84d000000000000000000000000000000000000000000000000000000005f5260045ffd5b7f17ee279c000000000000000000000000000000000000000000000000000000005f5260045ffd5b7f1f3b85d3000000000000000000000000000000000000000000000000000000005f5260045ffd5b506127108611610421565b7fb2fc88a9000000000000000000000000000000000000000000000000000000005f5260045ffd5b87632ed28b2160e11b5f5260045260245ffd5b346101b7575f3660031901126101b75760405161097b6060826113a1565b60368152604060208201917f7475706c6528616464726573735b5d20746f6b656e4164647265737365732c7583527f696e743235365b5d20746f74616c416d6f756e74732900000000000000000000828201528151928391602083525180918160208501528484015e5f828201840152601f01601f19168101030190f35b346101b7575f3660031901126101b75760206001600160a01b035f5416604051908152f35b346101b75760203660031901126101b75760043567ffffffffffffffff81116101b757610a4f903690600401611439565b8015610b2c5781016020828203126101b757813567ffffffffffffffff81116101b757610a7c920161159e565b5f5b8151811015610abd57600190335f52600360205260405f206001600160a01b0380610aa98487611557565b5116165f526020525f604081205501610a7e565b505b335f52600160205260405f2060ff198154169055335f52600460205260405f2060ff1981541690557f39dcb51185350b02808629040a3a79a6d9413abef919fd007a204cc8ee071ad7610b1d604051926040845260408401906115bc565b914260208201528033930390a2005b5050604051610b3c6020826113a1565b5f81525f368137610abf565b346101b7575f3660031901126101b757610b606115f8565b5f6001600160a01b03815473ffffffffffffffffffffffffffffffffffffffff1981168355167f8be0079c531659141344cd1fd0a4f28419497f9722a3daafe3b4186f6b6457e08280a3005b346101b75760203660031901126101b75760043567ffffffffffffffff81116101b757610bdd903690600401611439565b335f52600160205260ff60405f205416610ded5781016040828203126101b757813567ffffffffffffffff81116101b75781610c1a91840161159e565b9160208101359067ffffffffffffffff82116101b757019080601f830112156101b757816020610c4c933591016114d3565b90335f52600160205260405f20600160ff19825416179055604051606081527f37f8e70664b34d61c21ca3c87cbf62d4da74604df356b8f6b15047f26349f277610caa610c9c60608401856115bc565b83810360208501528561156b565b914260408201528033930390a28051825103610dc557805115610d22575f5b8151811015610d4a57610cdc8184611557565b5115610d225780610cef60019285611557565b51335f52600360205260405f206001600160a01b0380610d0f8588611557565b5116165f5260205260405f205501610cc9565b7f2c5211c6000000000000000000000000000000000000000000000000000000005f5260045ffd5b507fa5b1dada75404a3b3629e03d8cc14288d785999fc7f9b03643da11c1980c4d3c610daa83335f52600460205260405f20600160ff19825416179055610d9c6040519460a0865260a08601906115bc565b90848203602086015261156b565b915f60408201523360608201524260808201528033930390a2005b7fa24a13a6000000000000000000000000000000000000000000000000000000005f5260045ffd5b7f4d6b9dd3000000000000000000000000000000000000000000000000000000005f523360045260245ffd5b346101b75760203660031901126101b7576004355f526002602052602060ff60405f2054166040519015158152f35b346101b75760203660031901126101b75760043567ffffffffffffffff81116101b757610e79903690600401611370565b90335f52600160205260ff60405f205416156102dc57610e9882611467565b610ea560405191826113a1565b828152601f19610eb484611467565b013660208301375f5b838110610f4d575060405192806060850160608652526080840192905f5b818110610f2557857f744c3fc85f3a4040011886737c4cc7b46297a5b25d1e563f9444b7501b4e218d610f168787848203602086015261156b565b914260408201528033930390a2005b9091936020806001926001600160a01b03610f3f8961135c565b168152019501929101610edb565b600190335f52600360205260405f206001600160a01b03610f77610f7284898961151f565b611543565b165f5260205260405f2054610f8c8285611557565b52335f52600360205260405f206001600160a01b03610faf610f7284898961151f565b165f526020525f604081205501610ebd565b346101b7575f3660031901126101b757335f52600160205260ff60405f205416156102dc57335f52600460205260405f2060ff1981541690556040514281527f0bfc3f1654e00deb722f9dd926a5be23196b365b596be487595670a64d92c63260203392a2005b346101b75760a03660031901126101b757611041611330565b60243567ffffffffffffffff81116101b757611061903690600401611370565b919060443567ffffffffffffffff81116101b757611083903690600401611370565b93906064359260843567ffffffffffffffff81116101b7576110a99036906004016113f3565b9060405160208101904682526bffffffffffffffffffffffff198860601b16604082015260548101835f5b8881106112b65750507f07ffffffffffffffffffffffffffffffffffffffffffffffffffffffffffffff8a116101b757602082611123928c60051b90818a8237018a81520380845201826113a1565b5190207f19457468657265756d205369676e6564204d6573736167653a0a3332000000005f52601c52603c5f2091825f52600260205260ff60405f2054166108c7576104e06111729184611637565b6001600160a01b03807f00000000000000000000000000000000000000000000000000000000000000001691160361089f576111d1936111c9925f52600260205260405f20600160ff19825416179055369161147f565b9436916114d3565b928051845103610dc557805115610d225790916001600160a01b0316905f5b8151811015611249576112038186611557565b5115610d22578061121660019287611557565b51845f52600360205260405f206001600160a01b03806112368588611557565b5116165f5260205260405f2055016111f0565b507fa5b1dada75404a3b3629e03d8cc14288d785999fc7f9b03643da11c1980c4d3c9261129f610d9c9395865f52600460205260405f20600160ff1982541617905560405194859460a0865260a08601906115bc565b9060408301523360608301524260808301520390a2005b90916020806001926001600160a01b036112cf8761135c565b16815201930191016110d4565b346101b7575f3660031901126101b757602060405160028152f35b346101b75760203660031901126101b7576020906001600160a01b0361131b611330565b165f526004825260ff60405f20541615158152f35b600435906001600160a01b03821682036101b757565b602435906001600160a01b03821682036101b757565b35906001600160a01b03821682036101b757565b9181601f840112156101b75782359167ffffffffffffffff83116101b7576020808501948460051b0101116101b757565b90601f8019910116810190811067ffffffffffffffff8211176113c357604052565b634e487b7160e01b5f52604160045260245ffd5b67ffffffffffffffff81116113c357601f01601f191660200190565b81601f820112156101b75780359061140a826113d7565b9261141860405194856113a1565b828452602083830101116101b757815f926020809301838601378301015290565b9181601f840112156101b75782359167ffffffffffffffff83116101b757602083818601950101116101b757565b67ffffffffffffffff81116113c35760051b60200190565b92919061148b81611467565b9361149960405195866113a1565b602085838152019160051b81019283116101b757905b8282106114bb57505050565b602080916114c88461135c565b8152019101906114af565b9291906114df81611467565b936114ed60405195866113a1565b602085838152019160051b81019283116101b757905b82821061150f57505050565b8135815260209182019101611503565b919081101561152f5760051b0190565b634e487b7160e01b5f52603260045260245ffd5b356001600160a01b03811681036101b75790565b805182101561152f5760209160051b010190565b90602080835192838152019201905f5b8181106115885750505090565b825184526020938401939092019160010161157b565b9080601f830112156101b7578160206115b99335910161147f565b90565b90602080835192838152019201905f5b8181106115d95750505090565b82516001600160a01b03168452602093840193909201916001016115cc565b6001600160a01b035f5416330361160b57565b7f118cdaa7000000000000000000000000000000000000000000000000000000005f523360045260245ffd5b8151919060418303611667576116609250602082015190606060408401519301515f1a90611730565b9192909190565b50505f9160029190565b600481101561171c5780611683575050565b600181036116b3577ff645eedf000000000000000000000000000000000000000000000000000000005f5260045ffd5b600281036116e757507ffce698f7000000000000000000000000000000000000000000000000000000005f5260045260245ffd5b6003146116f15750565b7fd78bce0c000000000000000000000000000000000000000000000000000000005f5260045260245ffd5b634e487b7160e01b5f52602160045260245ffd5b91907f7fffffffffffffffffffffffffffffff5d576e7357a4501ddfe92f46681b20a084116117a7579160209360809260ff5f9560405194855216868401526040830152606082015282805260015afa1561073a575f516001600160a01b0381161561179d57905f905f90565b505f906001905f90565b5050505f916003919056fea26469706673582212200172e30b3ddf513780d5e33eb99538660f702b23c0a49ef843eb276283cdfd9c64736f6c634300081b0033","opcodes":"PUSH1 0xA0 CALLVALUE PUSH2 0xE4 JUMPI PUSH1 0x1F PUSH2 0x18F9 CODESIZE DUP2 SWAP1 SUB SWAP2 DUP3 ADD PUSH1 0x1F NOT AND DUP4 ADD SWAP2 PUSH1 0x1 PUSH1 0x1 PUSH1 0x40 SHL SUB DUP4 GT DUP5 DUP5 LT OR PUSH2 0xE8 JUMPI DUP1 DUP5 SWAP3 PUSH1 0x40 SWAP5 DUP6 MSTORE DUP4 CODECOPY DUP2 ADD SUB SLT PUSH2 0xE4 JUMPI PUSH2 0x46 DUP2 PUSH2 0xFC JUMP JUMPDEST SWAP1 PUSH1 0x1 PUSH1 0x1 PUSH1 0xA0 SHL SUB SWAP1 PUSH2 0x5C SWAP1 PUSH1 0x20 ADD PUSH2 0xFC JUMP JUMPDEST AND SWAP1 DUP2 ISZERO PUSH2 0xD1 JUMPI PUSH0 DUP1 SLOAD PUSH1 0x1 PUSH1 0x1 PUSH1 0xA0 SHL SUB NOT DUP2 AND DUP5 OR DUP3 SSTORE PUSH1 0x40 MLOAD SWAP4 SWAP2 PUSH1 0x1 PUSH1 0x1 PUSH1 0xA0 SHL SUB SWAP1 SWAP2 AND SWAP1 PUSH32 0x8BE0079C531659141344CD1FD0A4F28419497F9722A3DAAFE3B4186F6B6457E0 SWAP1 DUP1 LOG3 PUSH1 0x80 MSTORE PUSH2 0x17E8 SWAP1 DUP2 PUSH2 0x111 DUP3 CODECOPY PUSH1 0x80 MLOAD DUP2 DUP2 DUP2 PUSH2 0x1DA ADD MSTORE DUP2 DUP2 PUSH2 0x4F4 ADD MSTORE PUSH2 0x117D ADD MSTORE RETURN JUMPDEST PUSH4 0x1E4FBDF7 PUSH1 0xE0 SHL PUSH0 MSTORE PUSH0 PUSH1 0x4 MSTORE PUSH1 0x24 PUSH0 REVERT JUMPDEST PUSH0 DUP1 REVERT JUMPDEST PUSH4 0x4E487B71 PUSH1 0xE0 SHL PUSH0 MSTORE PUSH1 0x41 PUSH1 0x4 MSTORE PUSH1 0x24 PUSH0 REVERT JUMPDEST MLOAD SWAP1 PUSH1 0x1 PUSH1 0x1 PUSH1 0xA0 SHL SUB DUP3 AND DUP3 SUB PUSH2 0xE4 JUMPI JUMP INVALID PUSH1 0x80 DUP1 PUSH1 0x40 MSTORE PUSH1 0x4 CALLDATASIZE LT ISZERO PUSH2 0x12 JUMPI PUSH0 DUP1 REVERT JUMPDEST PUSH0 CALLDATALOAD PUSH1 0xE0 SHR SWAP1 DUP2 PUSH4 0x1C16AAFC EQ PUSH2 0x12F7 JUMPI POP DUP1 PUSH4 0x2F6C8EA9 EQ PUSH2 0x12DC JUMPI DUP1 PUSH4 0x3594F7E4 EQ PUSH2 0xE19 JUMPI DUP1 PUSH4 0x3BE7AA24 EQ PUSH2 0x1028 JUMPI DUP1 PUSH4 0x3E7E3732 EQ PUSH2 0xFC1 JUMPI DUP1 PUSH4 0x4AD41084 EQ PUSH2 0xE48 JUMPI DUP1 PUSH4 0x4E627AE6 EQ PUSH2 0x2EF JUMPI DUP1 PUSH4 0x5A553572 EQ PUSH2 0xE19 JUMPI DUP1 PUSH4 0x6D61FE70 EQ PUSH2 0xBAC JUMPI DUP1 PUSH4 0x715018A6 EQ PUSH2 0xB48 JUMPI DUP1 PUSH4 0x8A91B0E3 EQ PUSH2 0xA1E JUMPI DUP1 PUSH4 0x8DA5CB5B EQ PUSH2 0x9F9 JUMPI DUP1 PUSH4 0xA4F4B0DD EQ PUSH2 0x95D JUMPI DUP1 PUSH4 0xB1AE36D3 EQ PUSH2 0x369 JUMPI DUP1 PUSH4 0xB220AEF2 EQ PUSH2 0x32C JUMPI DUP1 PUSH4 0xD60B347F EQ PUSH2 0x2EF JUMPI DUP1 PUSH4 0xD68BDA7C EQ PUSH2 0x21E JUMPI DUP1 PUSH4 0xDD50BFD1 EQ PUSH2 0x272 JUMPI DUP1 PUSH4 0xEA7EE010 EQ PUSH2 0x21E JUMPI DUP1 PUSH4 0xECD05961 EQ PUSH2 0x1FE JUMPI DUP1 PUSH4 0xF1974FF9 EQ PUSH2 0x1BB JUMPI PUSH4 0xF2FDE38B EQ PUSH2 0x10E JUMPI PUSH0 DUP1 REVERT JUMPDEST CALLVALUE PUSH2 0x1B7 JUMPI PUSH1 0x20 CALLDATASIZE PUSH1 0x3 NOT ADD SLT PUSH2 0x1B7 JUMPI PUSH1 0x1 PUSH1 0x1 PUSH1 0xA0 SHL SUB PUSH2 0x12F PUSH2 0x1330 JUMP JUMPDEST PUSH2 0x137 PUSH2 0x15F8 JUMP JUMPDEST AND DUP1 ISZERO PUSH2 0x18B JUMPI PUSH1 0x1 PUSH1 0x1 PUSH1 0xA0 SHL SUB PUSH0 SLOAD DUP3 PUSH20 0xFFFFFFFFFFFFFFFFFFFFFFFFFFFFFFFFFFFFFFFF NOT DUP3 AND OR PUSH0 SSTORE AND PUSH32 0x8BE0079C531659141344CD1FD0A4F28419497F9722A3DAAFE3B4186F6B6457E0 PUSH0 DUP1 LOG3 STOP JUMPDEST PUSH32 0x1E4FBDF700000000000000000000000000000000000000000000000000000000 PUSH0 MSTORE PUSH0 PUSH1 0x4 MSTORE PUSH1 0x24 PUSH0 REVERT JUMPDEST PUSH0 DUP1 REVERT JUMPDEST CALLVALUE PUSH2 0x1B7 JUMPI PUSH0 CALLDATASIZE PUSH1 0x3 NOT ADD SLT PUSH2 0x1B7 JUMPI PUSH1 0x20 PUSH1 0x40 MLOAD PUSH1 0x1 PUSH1 0x1 PUSH1 0xA0 SHL SUB PUSH32 0x0 AND DUP2 MSTORE RETURN JUMPDEST CALLVALUE PUSH2 0x1B7 JUMPI PUSH1 0x20 CALLDATASIZE PUSH1 0x3 NOT ADD SLT PUSH2 0x1B7 JUMPI PUSH1 0x20 PUSH1 0x40 MLOAD PUSH1 0x2 PUSH1 0x4 CALLDATALOAD EQ DUP2 MSTORE RETURN JUMPDEST CALLVALUE PUSH2 0x1B7 JUMPI PUSH1 0x40 CALLDATASIZE PUSH1 0x3 NOT ADD SLT PUSH2 0x1B7 JUMPI PUSH2 0x237 PUSH2 0x1330 JUMP JUMPDEST PUSH1 0x1 PUSH1 0x1 PUSH1 0xA0 SHL SUB PUSH2 0x247 PUSH2 0x1346 JUMP JUMPDEST SWAP2 AND PUSH0 MSTORE PUSH1 0x3 PUSH1 0x20 MSTORE PUSH1 0x1 PUSH1 0x1 PUSH1 0xA0 SHL SUB PUSH1 0x40 PUSH0 KECCAK256 SWAP2 AND PUSH0 MSTORE PUSH1 0x20 MSTORE PUSH1 0x20 PUSH1 0x40 PUSH0 KECCAK256 SLOAD PUSH1 0x40 MLOAD SWAP1 DUP2 MSTORE RETURN JUMPDEST CALLVALUE PUSH2 0x1B7 JUMPI PUSH0 CALLDATASIZE PUSH1 0x3 NOT ADD SLT PUSH2 0x1B7 JUMPI CALLER PUSH0 MSTORE PUSH1 0x1 PUSH1 0x20 MSTORE PUSH1 0xFF PUSH1 0x40 PUSH0 KECCAK256 SLOAD AND ISZERO PUSH2 0x2DC JUMPI CALLER PUSH0 MSTORE PUSH1 0x4 PUSH1 0x20 MSTORE PUSH1 0x40 PUSH0 KECCAK256 PUSH1 0x1 PUSH1 0xFF NOT DUP3 SLOAD AND OR SWAP1 SSTORE PUSH1 0x40 MLOAD TIMESTAMP DUP2 MSTORE PUSH32 0x80EBDD14509E68F40CB107F7AE3528C61E3AC12B215CD10AB4F275B03996F49 PUSH1 0x20 CALLER SWAP3 LOG2 STOP JUMPDEST PUSH4 0x2ED28B21 PUSH1 0xE1 SHL PUSH0 MSTORE CALLER PUSH1 0x4 MSTORE PUSH1 0x24 PUSH0 REVERT JUMPDEST CALLVALUE PUSH2 0x1B7 JUMPI PUSH1 0x20 CALLDATASIZE PUSH1 0x3 NOT ADD SLT PUSH2 0x1B7 JUMPI PUSH1 0x1 PUSH1 0x1 PUSH1 0xA0 SHL SUB PUSH2 0x310 PUSH2 0x1330 JUMP JUMPDEST AND PUSH0 MSTORE PUSH1 0x1 PUSH1 0x20 MSTORE PUSH1 0x20 PUSH1 0xFF PUSH1 0x40 PUSH0 KECCAK256 SLOAD AND PUSH1 0x40 MLOAD SWAP1 ISZERO ISZERO DUP2 MSTORE RETURN JUMPDEST CALLVALUE PUSH2 0x1B7 JUMPI PUSH1 0x20 CALLDATASIZE PUSH1 0x3 NOT ADD SLT PUSH2 0x1B7 JUMPI PUSH1 0x1 PUSH1 0x1 PUSH1 0xA0 SHL SUB PUSH2 0x34D PUSH2 0x1330 JUMP JUMPDEST AND PUSH0 MSTORE PUSH1 0x4 PUSH1 0x20 MSTORE PUSH1 0x20 PUSH1 0xFF PUSH1 0x40 PUSH0 KECCAK256 SLOAD AND PUSH1 0x40 MLOAD SWAP1 ISZERO ISZERO DUP2 MSTORE RETURN JUMPDEST CALLVALUE PUSH2 0x1B7 JUMPI PUSH1 0xC0 CALLDATASIZE PUSH1 0x3 NOT ADD SLT PUSH2 0x1B7 JUMPI PUSH2 0x382 PUSH2 0x1330 JUMP JUMPDEST PUSH1 0x24 CALLDATALOAD PUSH8 0xFFFFFFFFFFFFFFFF DUP2 GT PUSH2 0x1B7 JUMPI PUSH2 0x3A2 SWAP1 CALLDATASIZE SWAP1 PUSH1 0x4 ADD PUSH2 0x1439 JUMP JUMPDEST SWAP2 SWAP1 PUSH1 0x44 CALLDATALOAD SWAP2 PUSH1 0x1 PUSH1 0x1 PUSH1 0xA0 SHL SUB DUP4 AND SWAP4 DUP5 DUP5 SUB PUSH2 0x1B7 JUMPI PUSH1 0x64 CALLDATALOAD SWAP2 PUSH1 0x84 CALLDATALOAD SWAP2 PUSH1 0xA4 CALLDATALOAD PUSH8 0xFFFFFFFFFFFFFFFF DUP2 GT PUSH2 0x1B7 JUMPI PUSH2 0x3E2 SWAP1 CALLDATASIZE SWAP1 PUSH1 0x4 ADD PUSH2 0x13F3 JUMP JUMPDEST SWAP2 PUSH1 0x1 PUSH1 0x1 PUSH1 0xA0 SHL SUB DUP2 AND SWAP7 DUP8 PUSH0 MSTORE PUSH1 0x1 PUSH1 0x20 MSTORE PUSH1 0xFF PUSH1 0x40 PUSH0 KECCAK256 SLOAD AND ISZERO PUSH2 0x94A JUMPI DUP8 PUSH0 MSTORE PUSH1 0x4 PUSH1 0x20 MSTORE PUSH1 0xFF PUSH1 0x40 PUSH0 KECCAK256 SLOAD AND ISZERO PUSH2 0x922 JUMPI DUP6 ISZERO DUP1 ISZERO PUSH2 0x917 JUMPI JUMPDEST PUSH2 0x8EF JUMPI PUSH1 0x40 MLOAD SWAP1 PUSH1 0x20 DUP3 ADD SWAP3 CHAINID DUP5 MSTORE PUSH12 0xFFFFFFFFFFFFFFFFFFFFFFFF NOT SWAP1 PUSH1 0x60 SHL AND PUSH1 0x40 DUP4 ADD MSTORE PUSH12 0xFFFFFFFFFFFFFFFFFFFFFFFF NOT SWAP1 PUSH1 0x60 SHL AND PUSH1 0x54 DUP3 ADD MSTORE DUP6 PUSH1 0x68 DUP3 ADD MSTORE DUP5 PUSH1 0x88 DUP3 ADD MSTORE DUP3 DUP8 PUSH1 0xA8 DUP4 ADD CALLDATACOPY PUSH2 0x491 PUSH1 0xA8 DUP3 DUP6 DUP2 ADD PUSH0 DUP4 DUP3 ADD MSTORE SUB ADD PUSH1 0x1F NOT DUP2 ADD DUP4 MSTORE DUP3 PUSH2 0x13A1 JUMP JUMPDEST MLOAD SWAP1 KECCAK256 PUSH32 0x19457468657265756D205369676E6564204D6573736167653A0A333200000000 PUSH0 MSTORE PUSH1 0x1C MSTORE PUSH1 0x3C PUSH0 KECCAK256 SWAP2 DUP3 PUSH0 MSTORE PUSH1 0x2 PUSH1 0x20 MSTORE PUSH1 0xFF PUSH1 0x40 PUSH0 KECCAK256 SLOAD AND PUSH2 0x8C7 JUMPI PUSH2 0x4E0 PUSH2 0x4E9 SWAP2 DUP5 PUSH2 0x1637 JUMP JUMPDEST SWAP1 SWAP3 SWAP2 SWAP3 PUSH2 0x1671 JUMP JUMPDEST PUSH1 0x1 PUSH1 0x1 PUSH1 0xA0 SHL SUB DUP1 PUSH32 0x0 AND SWAP2 AND SUB PUSH2 0x89F JUMPI DUP2 PUSH0 MSTORE PUSH1 0x2 PUSH1 0x20 MSTORE PUSH1 0x40 PUSH0 KECCAK256 PUSH1 0x1 PUSH1 0xFF NOT DUP3 SLOAD AND OR SWAP1 SSTORE PUSH1 0x40 MLOAD SWAP5 PUSH4 0x70A08231 PUSH1 0xE0 SHL DUP7 MSTORE DUP7 PUSH1 0x4 DUP8 ADD MSTORE PUSH1 0x20 DUP7 PUSH1 0x24 DUP2 DUP12 GAS STATICCALL SWAP6 DUP7 ISZERO PUSH2 0x73A JUMPI PUSH0 SWAP7 PUSH2 0x86B JUMPI JUMPDEST POP PUSH0 SWAP1 PUSH1 0x64 PUSH1 0x40 MLOAD PUSH1 0x20 DUP2 ADD SWAP1 PUSH32 0x100000000000000000000000000000000000000000000000000000000000000 DUP3 MSTORE DUP5 PUSH1 0x21 DUP3 ADD MSTORE DUP5 PUSH1 0x22 DUP3 ADD MSTORE DUP5 PUSH1 0x26 DUP3 ADD MSTORE PUSH1 0x1C DUP2 MSTORE PUSH2 0x5AE PUSH1 0x3C DUP3 PUSH2 0x13A1 JUMP JUMPDEST MLOAD SWAP1 MLOAD SWAP1 PUSH1 0x20 DUP2 LT PUSH2 0x85A JUMPI JUMPDEST POP DUP5 PUSH1 0x40 MLOAD SWAP6 DUP7 SWAP5 DUP6 SWAP4 PUSH32 0xD691C96400000000000000000000000000000000000000000000000000000000 DUP6 MSTORE PUSH1 0x4 DUP6 ADD MSTORE PUSH1 0x40 PUSH1 0x24 DUP6 ADD MSTORE DUP2 PUSH1 0x44 DUP6 ADD MSTORE DUP5 DUP5 ADD CALLDATACOPY DUP2 DUP2 ADD DUP4 ADD DUP6 SWAP1 MSTORE PUSH1 0x1F ADD PUSH1 0x1F NOT AND DUP2 ADD SUB ADD DUP2 DUP4 DUP11 GAS CALL SWAP1 DUP2 ISZERO PUSH2 0x73A JUMPI PUSH0 SWAP2 PUSH2 0x76D JUMPI JUMPDEST POP MLOAD ISZERO PUSH2 0x745 JUMPI PUSH1 0x40 MLOAD SWAP2 PUSH4 0x70A08231 PUSH1 0xE0 SHL DUP4 MSTORE DUP6 PUSH1 0x4 DUP5 ADD MSTORE PUSH1 0x20 DUP4 PUSH1 0x24 DUP2 DUP11 GAS STATICCALL SWAP3 DUP4 ISZERO PUSH2 0x73A JUMPI PUSH0 SWAP4 PUSH2 0x706 JUMPI JUMPDEST POP DUP3 DUP6 SUB SWAP3 DUP6 DUP5 GT PUSH2 0x6F2 JUMPI DUP5 DUP7 MUL DUP7 DUP2 DIV DUP7 EQ DUP8 ISZERO OR ISZERO PUSH2 0x6F2 JUMPI PUSH2 0x2710 SWAP1 DIV DUP5 GT PUSH2 0x6CA JUMPI PUSH32 0xBFB1CF66CF3061BA98749CC04519ADCF421FA5B476AF184AC9D1705FED8EB1DE SWAP6 PUSH1 0xE0 SWAP6 PUSH1 0x40 MLOAD SWAP6 DUP7 MSTORE PUSH1 0x20 DUP7 ADD MSTORE PUSH1 0x40 DUP6 ADD MSTORE PUSH1 0x60 DUP5 ADD MSTORE PUSH1 0x80 DUP4 ADD MSTORE PUSH1 0xA0 DUP3 ADD MSTORE TIMESTAMP PUSH1 0xC0 DUP3 ADD MSTORE LOG3 STOP JUMPDEST PUSH32 0x40A8B41400000000000000000000000000000000000000000000000000000000 PUSH0 MSTORE PUSH1 0x4 PUSH0 REVERT JUMPDEST PUSH4 0x4E487B71 PUSH1 0xE0 SHL PUSH0 MSTORE PUSH1 0x11 PUSH1 0x4 MSTORE PUSH1 0x24 PUSH0 REVERT JUMPDEST SWAP1 SWAP3 POP PUSH1 0x20 DUP2 RETURNDATASIZE PUSH1 0x20 GT PUSH2 0x732 JUMPI JUMPDEST DUP2 PUSH2 0x722 PUSH1 0x20 SWAP4 DUP4 PUSH2 0x13A1 JUMP JUMPDEST DUP2 ADD SUB SLT PUSH2 0x1B7 JUMPI MLOAD SWAP2 DUP8 PUSH2 0x656 JUMP JUMPDEST RETURNDATASIZE SWAP2 POP PUSH2 0x715 JUMP JUMPDEST PUSH1 0x40 MLOAD RETURNDATASIZE PUSH0 DUP3 RETURNDATACOPY RETURNDATASIZE SWAP1 REVERT JUMPDEST PUSH32 0xACFDB44400000000000000000000000000000000000000000000000000000000 PUSH0 MSTORE PUSH1 0x4 PUSH0 REVERT JUMPDEST SWAP1 POP RETURNDATASIZE DUP1 PUSH0 DUP4 RETURNDATACOPY PUSH2 0x77E DUP2 DUP4 PUSH2 0x13A1 JUMP JUMPDEST DUP2 ADD SWAP1 PUSH1 0x20 DUP2 DUP4 SUB SLT PUSH2 0x1B7 JUMPI DUP1 MLOAD SWAP1 PUSH8 0xFFFFFFFFFFFFFFFF DUP3 GT PUSH2 0x1B7 JUMPI ADD SWAP1 DUP1 PUSH1 0x1F DUP4 ADD SLT ISZERO PUSH2 0x1B7 JUMPI DUP2 MLOAD SWAP2 PUSH2 0x7B6 DUP4 PUSH2 0x1467 JUMP JUMPDEST SWAP3 PUSH2 0x7C4 PUSH1 0x40 MLOAD SWAP5 DUP6 PUSH2 0x13A1 JUMP JUMPDEST DUP1 DUP5 MSTORE PUSH1 0x20 DUP1 DUP6 ADD SWAP2 PUSH1 0x5 SHL DUP4 ADD ADD SWAP2 DUP4 DUP4 GT PUSH2 0x1B7 JUMPI PUSH1 0x20 DUP2 ADD SWAP2 JUMPDEST DUP4 DUP4 LT PUSH2 0x7F3 JUMPI POP POP POP POP POP DUP8 PUSH2 0x624 JUMP JUMPDEST DUP3 MLOAD PUSH8 0xFFFFFFFFFFFFFFFF DUP2 GT PUSH2 0x1B7 JUMPI DUP3 ADD DUP6 PUSH1 0x3F DUP3 ADD SLT ISZERO PUSH2 0x1B7 JUMPI PUSH1 0x20 DUP2 ADD MLOAD SWAP2 PUSH2 0x820 DUP4 PUSH2 0x13D7 JUMP JUMPDEST PUSH2 0x82D PUSH1 0x40 MLOAD SWAP2 DUP3 PUSH2 0x13A1 JUMP JUMPDEST DUP4 DUP2 MSTORE PUSH1 0x40 DUP4 DUP6 ADD ADD DUP9 LT PUSH2 0x1B7 JUMPI PUSH0 PUSH1 0x20 DUP6 DUP2 SWAP7 PUSH1 0x40 DUP4 SWAP8 ADD DUP4 DUP7 ADD MCOPY DUP4 ADD ADD MSTORE DUP2 MSTORE ADD SWAP3 ADD SWAP2 PUSH2 0x7E1 JUMP JUMPDEST DUP5 NOT SWAP1 PUSH1 0x20 SUB PUSH1 0x3 SHL SHL AND DUP12 PUSH2 0x5BB JUMP JUMPDEST SWAP1 SWAP6 POP PUSH1 0x20 DUP2 RETURNDATASIZE PUSH1 0x20 GT PUSH2 0x897 JUMPI JUMPDEST DUP2 PUSH2 0x887 PUSH1 0x20 SWAP4 DUP4 PUSH2 0x13A1 JUMP JUMPDEST DUP2 ADD SUB SLT PUSH2 0x1B7 JUMPI MLOAD SWAP5 PUSH0 PUSH2 0x55D JUMP JUMPDEST RETURNDATASIZE SWAP2 POP PUSH2 0x87A JUMP JUMPDEST PUSH32 0xBD8BA84D00000000000000000000000000000000000000000000000000000000 PUSH0 MSTORE PUSH1 0x4 PUSH0 REVERT JUMPDEST PUSH32 0x17EE279C00000000000000000000000000000000000000000000000000000000 PUSH0 MSTORE PUSH1 0x4 PUSH0 REVERT JUMPDEST PUSH32 0x1F3B85D300000000000000000000000000000000000000000000000000000000 PUSH0 MSTORE PUSH1 0x4 PUSH0 REVERT JUMPDEST POP PUSH2 0x2710 DUP7 GT PUSH2 0x421 JUMP JUMPDEST PUSH32 0xB2FC88A900000000000000000000000000000000000000000000000000000000 PUSH0 MSTORE PUSH1 0x4 PUSH0 REVERT JUMPDEST DUP8 PUSH4 0x2ED28B21 PUSH1 0xE1 SHL PUSH0 MSTORE PUSH1 0x4 MSTORE PUSH1 0x24 PUSH0 REVERT JUMPDEST CALLVALUE PUSH2 0x1B7 JUMPI PUSH0 CALLDATASIZE PUSH1 0x3 NOT ADD SLT PUSH2 0x1B7 JUMPI PUSH1 0x40 MLOAD PUSH2 0x97B PUSH1 0x60 DUP3 PUSH2 0x13A1 JUMP JUMPDEST PUSH1 0x36 DUP2 MSTORE PUSH1 0x40 PUSH1 0x20 DUP3 ADD SWAP2 PUSH32 0x7475706C6528616464726573735B5D20746F6B656E4164647265737365732C75 DUP4 MSTORE PUSH32 0x696E743235365B5D20746F74616C416D6F756E74732900000000000000000000 DUP3 DUP3 ADD MSTORE DUP2 MLOAD SWAP3 DUP4 SWAP2 PUSH1 0x20 DUP4 MSTORE MLOAD DUP1 SWAP2 DUP2 PUSH1 0x20 DUP6 ADD MSTORE DUP5 DUP5 ADD MCOPY PUSH0 DUP3 DUP3 ADD DUP5 ADD MSTORE PUSH1 0x1F ADD PUSH1 0x1F NOT AND DUP2 ADD SUB ADD SWAP1 RETURN JUMPDEST CALLVALUE PUSH2 0x1B7 JUMPI PUSH0 CALLDATASIZE PUSH1 0x3 NOT ADD SLT PUSH2 0x1B7 JUMPI PUSH1 0x20 PUSH1 0x1 PUSH1 0x1 PUSH1 0xA0 SHL SUB PUSH0 SLOAD AND PUSH1 0x40 MLOAD SWAP1 DUP2 MSTORE RETURN JUMPDEST CALLVALUE PUSH2 0x1B7 JUMPI PUSH1 0x20 CALLDATASIZE PUSH1 0x3 NOT ADD SLT PUSH2 0x1B7 JUMPI PUSH1 0x4 CALLDATALOAD PUSH8 0xFFFFFFFFFFFFFFFF DUP2 GT PUSH2 0x1B7 JUMPI PUSH2 0xA4F SWAP1 CALLDATASIZE SWAP1 PUSH1 0x4 ADD PUSH2 0x1439 JUMP JUMPDEST DUP1 ISZERO PUSH2 0xB2C JUMPI DUP2 ADD PUSH1 0x20 DUP3 DUP3 SUB SLT PUSH2 0x1B7 JUMPI DUP2 CALLDATALOAD PUSH8 0xFFFFFFFFFFFFFFFF DUP2 GT PUSH2 0x1B7 JUMPI PUSH2 0xA7C SWAP3 ADD PUSH2 0x159E JUMP JUMPDEST PUSH0 JUMPDEST DUP2 MLOAD DUP2 LT ISZERO PUSH2 0xABD JUMPI PUSH1 0x1 SWAP1 CALLER PUSH0 MSTORE PUSH1 0x3 PUSH1 0x20 MSTORE PUSH1 0x40 PUSH0 KECCAK256 PUSH1 0x1 PUSH1 0x1 PUSH1 0xA0 SHL SUB DUP1 PUSH2 0xAA9 DUP5 DUP8 PUSH2 0x1557 JUMP JUMPDEST MLOAD AND AND PUSH0 MSTORE PUSH1 0x20 MSTORE PUSH0 PUSH1 0x40 DUP2 KECCAK256 SSTORE ADD PUSH2 0xA7E JUMP JUMPDEST POP JUMPDEST CALLER PUSH0 MSTORE PUSH1 0x1 PUSH1 0x20 MSTORE PUSH1 0x40 PUSH0 KECCAK256 PUSH1 0xFF NOT DUP2 SLOAD AND SWAP1 SSTORE CALLER PUSH0 MSTORE PUSH1 0x4 PUSH1 0x20 MSTORE PUSH1 0x40 PUSH0 KECCAK256 PUSH1 0xFF NOT DUP2 SLOAD AND SWAP1 SSTORE PUSH32 0x39DCB51185350B02808629040A3A79A6D9413ABEF919FD007A204CC8EE071AD7 PUSH2 0xB1D PUSH1 0x40 MLOAD SWAP3 PUSH1 0x40 DUP5 MSTORE PUSH1 0x40 DUP5 ADD SWAP1 PUSH2 0x15BC JUMP JUMPDEST SWAP2 TIMESTAMP PUSH1 0x20 DUP3 ADD MSTORE DUP1 CALLER SWAP4 SUB SWAP1 LOG2 STOP JUMPDEST POP POP PUSH1 0x40 MLOAD PUSH2 0xB3C PUSH1 0x20 DUP3 PUSH2 0x13A1 JUMP JUMPDEST PUSH0 DUP2 MSTORE PUSH0 CALLDATASIZE DUP2 CALLDATACOPY PUSH2 0xABF JUMP JUMPDEST CALLVALUE PUSH2 0x1B7 JUMPI PUSH0 CALLDATASIZE PUSH1 0x3 NOT ADD SLT PUSH2 0x1B7 JUMPI PUSH2 0xB60 PUSH2 0x15F8 JUMP JUMPDEST PUSH0 PUSH1 0x1 PUSH1 0x1 PUSH1 0xA0 SHL SUB DUP2 SLOAD PUSH20 0xFFFFFFFFFFFFFFFFFFFFFFFFFFFFFFFFFFFFFFFF NOT DUP2 AND DUP4 SSTORE AND PUSH32 0x8BE0079C531659141344CD1FD0A4F28419497F9722A3DAAFE3B4186F6B6457E0 DUP3 DUP1 LOG3 STOP JUMPDEST CALLVALUE PUSH2 0x1B7 JUMPI PUSH1 0x20 CALLDATASIZE PUSH1 0x3 NOT ADD SLT PUSH2 0x1B7 JUMPI PUSH1 0x4 CALLDATALOAD PUSH8 0xFFFFFFFFFFFFFFFF DUP2 GT PUSH2 0x1B7 JUMPI PUSH2 0xBDD SWAP1 CALLDATASIZE SWAP1 PUSH1 0x4 ADD PUSH2 0x1439 JUMP JUMPDEST CALLER PUSH0 MSTORE PUSH1 0x1 PUSH1 0x20 MSTORE PUSH1 0xFF PUSH1 0x40 PUSH0 KECCAK256 SLOAD AND PUSH2 0xDED JUMPI DUP2 ADD PUSH1 0x40 DUP3 DUP3 SUB SLT PUSH2 0x1B7 JUMPI DUP2 CALLDATALOAD PUSH8 0xFFFFFFFFFFFFFFFF DUP2 GT PUSH2 0x1B7 JUMPI DUP2 PUSH2 0xC1A SWAP2 DUP5 ADD PUSH2 0x159E JUMP JUMPDEST SWAP2 PUSH1 0x20 DUP2 ADD CALLDATALOAD SWAP1 PUSH8 0xFFFFFFFFFFFFFFFF DUP3 GT PUSH2 0x1B7 JUMPI ADD SWAP1 DUP1 PUSH1 0x1F DUP4 ADD SLT ISZERO PUSH2 0x1B7 JUMPI DUP2 PUSH1 0x20 PUSH2 0xC4C SWAP4 CALLDATALOAD SWAP2 ADD PUSH2 0x14D3 JUMP JUMPDEST SWAP1 CALLER PUSH0 MSTORE PUSH1 0x1 PUSH1 0x20 MSTORE PUSH1 0x40 PUSH0 KECCAK256 PUSH1 0x1 PUSH1 0xFF NOT DUP3 SLOAD AND OR SWAP1 SSTORE PUSH1 0x40 MLOAD PUSH1 0x60 DUP2 MSTORE PUSH32 0x37F8E70664B34D61C21CA3C87CBF62D4DA74604DF356B8F6B15047F26349F277 PUSH2 0xCAA PUSH2 0xC9C PUSH1 0x60 DUP5 ADD DUP6 PUSH2 0x15BC JUMP JUMPDEST DUP4 DUP2 SUB PUSH1 0x20 DUP6 ADD MSTORE DUP6 PUSH2 0x156B JUMP JUMPDEST SWAP2 TIMESTAMP PUSH1 0x40 DUP3 ADD MSTORE DUP1 CALLER SWAP4 SUB SWAP1 LOG2 DUP1 MLOAD DUP3 MLOAD SUB PUSH2 0xDC5 JUMPI DUP1 MLOAD ISZERO PUSH2 0xD22 JUMPI PUSH0 JUMPDEST DUP2 MLOAD DUP2 LT ISZERO PUSH2 0xD4A JUMPI PUSH2 0xCDC DUP2 DUP5 PUSH2 0x1557 JUMP JUMPDEST MLOAD ISZERO PUSH2 0xD22 JUMPI DUP1 PUSH2 0xCEF PUSH1 0x1 SWAP3 DUP6 PUSH2 0x1557 JUMP JUMPDEST MLOAD CALLER PUSH0 MSTORE PUSH1 0x3 PUSH1 0x20 MSTORE PUSH1 0x40 PUSH0 KECCAK256 PUSH1 0x1 PUSH1 0x1 PUSH1 0xA0 SHL SUB DUP1 PUSH2 0xD0F DUP6 DUP9 PUSH2 0x1557 JUMP JUMPDEST MLOAD AND AND PUSH0 MSTORE PUSH1 0x20 MSTORE PUSH1 0x40 PUSH0 KECCAK256 SSTORE ADD PUSH2 0xCC9 JUMP JUMPDEST PUSH32 0x2C5211C600000000000000000000000000000000000000000000000000000000 PUSH0 MSTORE PUSH1 0x4 PUSH0 REVERT JUMPDEST POP PUSH32 0xA5B1DADA75404A3B3629E03D8CC14288D785999FC7F9B03643DA11C1980C4D3C PUSH2 0xDAA DUP4 CALLER PUSH0 MSTORE PUSH1 0x4 PUSH1 0x20 MSTORE PUSH1 0x40 PUSH0 KECCAK256 PUSH1 0x1 PUSH1 0xFF NOT DUP3 SLOAD AND OR SWAP1 SSTORE PUSH2 0xD9C PUSH1 0x40 MLOAD SWAP5 PUSH1 0xA0 DUP7 MSTORE PUSH1 0xA0 DUP7 ADD SWAP1 PUSH2 0x15BC JUMP JUMPDEST SWAP1 DUP5 DUP3 SUB PUSH1 0x20 DUP7 ADD MSTORE PUSH2 0x156B JUMP JUMPDEST SWAP2 PUSH0 PUSH1 0x40 DUP3 ADD MSTORE CALLER PUSH1 0x60 DUP3 ADD MSTORE TIMESTAMP PUSH1 0x80 DUP3 ADD MSTORE DUP1 CALLER SWAP4 SUB SWAP1 LOG2 STOP JUMPDEST PUSH32 0xA24A13A600000000000000000000000000000000000000000000000000000000 PUSH0 MSTORE PUSH1 0x4 PUSH0 REVERT JUMPDEST PUSH32 0x4D6B9DD300000000000000000000000000000000000000000000000000000000 PUSH0 MSTORE CALLER PUSH1 0x4 MSTORE PUSH1 0x24 PUSH0 REVERT JUMPDEST CALLVALUE PUSH2 0x1B7 JUMPI PUSH1 0x20 CALLDATASIZE PUSH1 0x3 NOT ADD SLT PUSH2 0x1B7 JUMPI PUSH1 0x4 CALLDATALOAD PUSH0 MSTORE PUSH1 0x2 PUSH1 0x20 MSTORE PUSH1 0x20 PUSH1 0xFF PUSH1 0x40 PUSH0 KECCAK256 SLOAD AND PUSH1 0x40 MLOAD SWAP1 ISZERO ISZERO DUP2 MSTORE RETURN JUMPDEST CALLVALUE PUSH2 0x1B7 JUMPI PUSH1 0x20 CALLDATASIZE PUSH1 0x3 NOT ADD SLT PUSH2 0x1B7 JUMPI PUSH1 0x4 CALLDATALOAD PUSH8 0xFFFFFFFFFFFFFFFF DUP2 GT PUSH2 0x1B7 JUMPI PUSH2 0xE79 SWAP1 CALLDATASIZE SWAP1 PUSH1 0x4 ADD PUSH2 0x1370 JUMP JUMPDEST SWAP1 CALLER PUSH0 MSTORE PUSH1 0x1 PUSH1 0x20 MSTORE PUSH1 0xFF PUSH1 0x40 PUSH0 KECCAK256 SLOAD AND ISZERO PUSH2 0x2DC JUMPI PUSH2 0xE98 DUP3 PUSH2 0x1467 JUMP JUMPDEST PUSH2 0xEA5 PUSH1 0x40 MLOAD SWAP2 DUP3 PUSH2 0x13A1 JUMP JUMPDEST DUP3 DUP2 MSTORE PUSH1 0x1F NOT PUSH2 0xEB4 DUP5 PUSH2 0x1467 JUMP JUMPDEST ADD CALLDATASIZE PUSH1 0x20 DUP4 ADD CALLDATACOPY PUSH0 JUMPDEST DUP4 DUP2 LT PUSH2 0xF4D JUMPI POP PUSH1 0x40 MLOAD SWAP3 DUP1 PUSH1 0x60 DUP6 ADD PUSH1 0x60 DUP7 MSTORE MSTORE PUSH1 0x80 DUP5 ADD SWAP3 SWAP1 PUSH0 JUMPDEST DUP2 DUP2 LT PUSH2 0xF25 JUMPI DUP6 PUSH32 0x744C3FC85F3A4040011886737C4CC7B46297A5B25D1E563F9444B7501B4E218D PUSH2 0xF16 DUP8 DUP8 DUP5 DUP3 SUB PUSH1 0x20 DUP7 ADD MSTORE PUSH2 0x156B JUMP JUMPDEST SWAP2 TIMESTAMP PUSH1 0x40 DUP3 ADD MSTORE DUP1 CALLER SWAP4 SUB SWAP1 LOG2 STOP JUMPDEST SWAP1 SWAP2 SWAP4 PUSH1 0x20 DUP1 PUSH1 0x1 SWAP3 PUSH1 0x1 PUSH1 0x1 PUSH1 0xA0 SHL SUB PUSH2 0xF3F DUP10 PUSH2 0x135C JUMP JUMPDEST AND DUP2 MSTORE ADD SWAP6 ADD SWAP3 SWAP2 ADD PUSH2 0xEDB JUMP JUMPDEST PUSH1 0x1 SWAP1 CALLER PUSH0 MSTORE PUSH1 0x3 PUSH1 0x20 MSTORE PUSH1 0x40 PUSH0 KECCAK256 PUSH1 0x1 PUSH1 0x1 PUSH1 0xA0 SHL SUB PUSH2 0xF77 PUSH2 0xF72 DUP5 DUP10 DUP10 PUSH2 0x151F JUMP JUMPDEST PUSH2 0x1543 JUMP JUMPDEST AND PUSH0 MSTORE PUSH1 0x20 MSTORE PUSH1 0x40 PUSH0 KECCAK256 SLOAD PUSH2 0xF8C DUP3 DUP6 PUSH2 0x1557 JUMP JUMPDEST MSTORE CALLER PUSH0 MSTORE PUSH1 0x3 PUSH1 0x20 MSTORE PUSH1 0x40 PUSH0 KECCAK256 PUSH1 0x1 PUSH1 0x1 PUSH1 0xA0 SHL SUB PUSH2 0xFAF PUSH2 0xF72 DUP5 DUP10 DUP10 PUSH2 0x151F JUMP JUMPDEST AND PUSH0 MSTORE PUSH1 0x20 MSTORE PUSH0 PUSH1 0x40 DUP2 KECCAK256 SSTORE ADD PUSH2 0xEBD JUMP JUMPDEST CALLVALUE PUSH2 0x1B7 JUMPI PUSH0 CALLDATASIZE PUSH1 0x3 NOT ADD SLT PUSH2 0x1B7 JUMPI CALLER PUSH0 MSTORE PUSH1 0x1 PUSH1 0x20 MSTORE PUSH1 0xFF PUSH1 0x40 PUSH0 KECCAK256 SLOAD AND ISZERO PUSH2 0x2DC JUMPI CALLER PUSH0 MSTORE PUSH1 0x4 PUSH1 0x20 MSTORE PUSH1 0x40 PUSH0 KECCAK256 PUSH1 0xFF NOT DUP2 SLOAD AND SWAP1 SSTORE PUSH1 0x40 MLOAD TIMESTAMP DUP2 MSTORE PUSH32 0xBFC3F1654E00DEB722F9DD926A5BE23196B365B596BE487595670A64D92C632 PUSH1 0x20 CALLER SWAP3 LOG2 STOP JUMPDEST CALLVALUE PUSH2 0x1B7 JUMPI PUSH1 0xA0 CALLDATASIZE PUSH1 0x3 NOT ADD SLT PUSH2 0x1B7 JUMPI PUSH2 0x1041 PUSH2 0x1330 JUMP JUMPDEST PUSH1 0x24 CALLDATALOAD PUSH8 0xFFFFFFFFFFFFFFFF DUP2 GT PUSH2 0x1B7 JUMPI PUSH2 0x1061 SWAP1 CALLDATASIZE SWAP1 PUSH1 0x4 ADD PUSH2 0x1370 JUMP JUMPDEST SWAP2 SWAP1 PUSH1 0x44 CALLDATALOAD PUSH8 0xFFFFFFFFFFFFFFFF DUP2 GT PUSH2 0x1B7 JUMPI PUSH2 0x1083 SWAP1 CALLDATASIZE SWAP1 PUSH1 0x4 ADD PUSH2 0x1370 JUMP JUMPDEST SWAP4 SWAP1 PUSH1 0x64 CALLDATALOAD SWAP3 PUSH1 0x84 CALLDATALOAD PUSH8 0xFFFFFFFFFFFFFFFF DUP2 GT PUSH2 0x1B7 JUMPI PUSH2 0x10A9 SWAP1 CALLDATASIZE SWAP1 PUSH1 0x4 ADD PUSH2 0x13F3 JUMP JUMPDEST SWAP1 PUSH1 0x40 MLOAD PUSH1 0x20 DUP2 ADD SWAP1 CHAINID DUP3 MSTORE PUSH12 0xFFFFFFFFFFFFFFFFFFFFFFFF NOT DUP9 PUSH1 0x60 SHL AND PUSH1 0x40 DUP3 ADD MSTORE PUSH1 0x54 DUP2 ADD DUP4 PUSH0 JUMPDEST DUP9 DUP2 LT PUSH2 0x12B6 JUMPI POP POP PUSH32 0x7FFFFFFFFFFFFFFFFFFFFFFFFFFFFFFFFFFFFFFFFFFFFFFFFFFFFFFFFFFFFFF DUP11 GT PUSH2 0x1B7 JUMPI PUSH1 0x20 DUP3 PUSH2 0x1123 SWAP3 DUP13 PUSH1 0x5 SHL SWAP1 DUP2 DUP11 DUP3 CALLDATACOPY ADD DUP11 DUP2 MSTORE SUB DUP1 DUP5 MSTORE ADD DUP3 PUSH2 0x13A1 JUMP JUMPDEST MLOAD SWAP1 KECCAK256 PUSH32 0x19457468657265756D205369676E6564204D6573736167653A0A333200000000 PUSH0 MSTORE PUSH1 0x1C MSTORE PUSH1 0x3C PUSH0 KECCAK256 SWAP2 DUP3 PUSH0 MSTORE PUSH1 0x2 PUSH1 0x20 MSTORE PUSH1 0xFF PUSH1 0x40 PUSH0 KECCAK256 SLOAD AND PUSH2 0x8C7 JUMPI PUSH2 0x4E0 PUSH2 0x1172 SWAP2 DUP5 PUSH2 0x1637 JUMP JUMPDEST PUSH1 0x1 PUSH1 0x1 PUSH1 0xA0 SHL SUB DUP1 PUSH32 0x0 AND SWAP2 AND SUB PUSH2 0x89F JUMPI PUSH2 0x11D1 SWAP4 PUSH2 0x11C9 SWAP3 PUSH0 MSTORE PUSH1 0x2 PUSH1 0x20 MSTORE PUSH1 0x40 PUSH0 KECCAK256 PUSH1 0x1 PUSH1 0xFF NOT DUP3 SLOAD AND OR SWAP1 SSTORE CALLDATASIZE SWAP2 PUSH2 0x147F JUMP JUMPDEST SWAP5 CALLDATASIZE SWAP2 PUSH2 0x14D3 JUMP JUMPDEST SWAP3 DUP1 MLOAD DUP5 MLOAD SUB PUSH2 0xDC5 JUMPI DUP1 MLOAD ISZERO PUSH2 0xD22 JUMPI SWAP1 SWAP2 PUSH1 0x1 PUSH1 0x1 PUSH1 0xA0 SHL SUB AND SWAP1 PUSH0 JUMPDEST DUP2 MLOAD DUP2 LT ISZERO PUSH2 0x1249 JUMPI PUSH2 0x1203 DUP2 DUP7 PUSH2 0x1557 JUMP JUMPDEST MLOAD ISZERO PUSH2 0xD22 JUMPI DUP1 PUSH2 0x1216 PUSH1 0x1 SWAP3 DUP8 PUSH2 0x1557 JUMP JUMPDEST MLOAD DUP5 PUSH0 MSTORE PUSH1 0x3 PUSH1 0x20 MSTORE PUSH1 0x40 PUSH0 KECCAK256 PUSH1 0x1 PUSH1 0x1 PUSH1 0xA0 SHL SUB DUP1 PUSH2 0x1236 DUP6 DUP9 PUSH2 0x1557 JUMP JUMPDEST MLOAD AND AND PUSH0 MSTORE PUSH1 0x20 MSTORE PUSH1 0x40 PUSH0 KECCAK256 SSTORE ADD PUSH2 0x11F0 JUMP JUMPDEST POP PUSH32 0xA5B1DADA75404A3B3629E03D8CC14288D785999FC7F9B03643DA11C1980C4D3C SWAP3 PUSH2 0x129F PUSH2 0xD9C SWAP4 SWAP6 DUP7 PUSH0 MSTORE PUSH1 0x4 PUSH1 0x20 MSTORE PUSH1 0x40 PUSH0 KECCAK256 PUSH1 0x1 PUSH1 0xFF NOT DUP3 SLOAD AND OR SWAP1 SSTORE PUSH1 0x40 MLOAD SWAP5 DUP6 SWAP5 PUSH1 0xA0 DUP7 MSTORE PUSH1 0xA0 DUP7 ADD SWAP1 PUSH2 0x15BC JUMP JUMPDEST SWAP1 PUSH1 0x40 DUP4 ADD MSTORE CALLER PUSH1 0x60 DUP4 ADD MSTORE TIMESTAMP PUSH1 0x80 DUP4 ADD MSTORE SUB SWAP1 LOG2 STOP JUMPDEST SWAP1 SWAP2 PUSH1 0x20 DUP1 PUSH1 0x1 SWAP3 PUSH1 0x1 PUSH1 0x1 PUSH1 0xA0 SHL SUB PUSH2 0x12CF DUP8 PUSH2 0x135C JUMP JUMPDEST AND DUP2 MSTORE ADD SWAP4 ADD SWAP2 ADD PUSH2 0x10D4 JUMP JUMPDEST CALLVALUE PUSH2 0x1B7 JUMPI PUSH0 CALLDATASIZE PUSH1 0x3 NOT ADD SLT PUSH2 0x1B7 JUMPI PUSH1 0x20 PUSH1 0x40 MLOAD PUSH1 0x2 DUP2 MSTORE RETURN JUMPDEST CALLVALUE PUSH2 0x1B7 JUMPI PUSH1 0x20 CALLDATASIZE PUSH1 0x3 NOT ADD SLT PUSH2 0x1B7 JUMPI PUSH1 0x20 SWAP1 PUSH1 0x1 PUSH1 0x1 PUSH1 0xA0 SHL SUB PUSH2 0x131B PUSH2 0x1330 JUMP JUMPDEST AND PUSH0 MSTORE PUSH1 0x4 DUP3 MSTORE PUSH1 0xFF PUSH1 0x40 PUSH0 KECCAK256 SLOAD AND ISZERO ISZERO DUP2 MSTORE RETURN JUMPDEST PUSH1 0x4 CALLDATALOAD SWAP1 PUSH1 0x1 PUSH1 0x1 PUSH1 0xA0 SHL SUB DUP3 AND DUP3 SUB PUSH2 0x1B7 JUMPI JUMP JUMPDEST PUSH1 0x24 CALLDATALOAD SWAP1 PUSH1 0x1 PUSH1 0x1 PUSH1 0xA0 SHL SUB DUP3 AND DUP3 SUB PUSH2 0x1B7 JUMPI JUMP JUMPDEST CALLDATALOAD SWAP1 PUSH1 0x1 PUSH1 0x1 PUSH1 0xA0 SHL SUB DUP3 AND DUP3 SUB PUSH2 0x1B7 JUMPI JUMP JUMPDEST SWAP2 DUP2 PUSH1 0x1F DUP5 ADD SLT ISZERO PUSH2 0x1B7 JUMPI DUP3 CALLDATALOAD SWAP2 PUSH8 0xFFFFFFFFFFFFFFFF DUP4 GT PUSH2 0x1B7 JUMPI PUSH1 0x20 DUP1 DUP6 ADD SWAP5 DUP5 PUSH1 0x5 SHL ADD ADD GT PUSH2 0x1B7 JUMPI JUMP JUMPDEST SWAP1 PUSH1 0x1F DUP1 NOT SWAP2 ADD AND DUP2 ADD SWAP1 DUP2 LT PUSH8 0xFFFFFFFFFFFFFFFF DUP3 GT OR PUSH2 0x13C3 JUMPI PUSH1 0x40 MSTORE JUMP JUMPDEST PUSH4 0x4E487B71 PUSH1 0xE0 SHL PUSH0 MSTORE PUSH1 0x41 PUSH1 0x4 MSTORE PUSH1 0x24 PUSH0 REVERT JUMPDEST PUSH8 0xFFFFFFFFFFFFFFFF DUP2 GT PUSH2 0x13C3 JUMPI PUSH1 0x1F ADD PUSH1 0x1F NOT AND PUSH1 0x20 ADD SWAP1 JUMP JUMPDEST DUP2 PUSH1 0x1F DUP3 ADD SLT ISZERO PUSH2 0x1B7 JUMPI DUP1 CALLDATALOAD SWAP1 PUSH2 0x140A DUP3 PUSH2 0x13D7 JUMP JUMPDEST SWAP3 PUSH2 0x1418 PUSH1 0x40 MLOAD SWAP5 DUP6 PUSH2 0x13A1 JUMP JUMPDEST DUP3 DUP5 MSTORE PUSH1 0x20 DUP4 DUP4 ADD ADD GT PUSH2 0x1B7 JUMPI DUP2 PUSH0 SWAP3 PUSH1 0x20 DUP1 SWAP4 ADD DUP4 DUP7 ADD CALLDATACOPY DUP4 ADD ADD MSTORE SWAP1 JUMP JUMPDEST SWAP2 DUP2 PUSH1 0x1F DUP5 ADD SLT ISZERO PUSH2 0x1B7 JUMPI DUP3 CALLDATALOAD SWAP2 PUSH8 0xFFFFFFFFFFFFFFFF DUP4 GT PUSH2 0x1B7 JUMPI PUSH1 0x20 DUP4 DUP2 DUP7 ADD SWAP6 ADD ADD GT PUSH2 0x1B7 JUMPI JUMP JUMPDEST PUSH8 0xFFFFFFFFFFFFFFFF DUP2 GT PUSH2 0x13C3 JUMPI PUSH1 0x5 SHL PUSH1 0x20 ADD SWAP1 JUMP JUMPDEST SWAP3 SWAP2 SWAP1 PUSH2 0x148B DUP2 PUSH2 0x1467 JUMP JUMPDEST SWAP4 PUSH2 0x1499 PUSH1 0x40 MLOAD SWAP6 DUP7 PUSH2 0x13A1 JUMP JUMPDEST PUSH1 0x20 DUP6 DUP4 DUP2 MSTORE ADD SWAP2 PUSH1 0x5 SHL DUP2 ADD SWAP3 DUP4 GT PUSH2 0x1B7 JUMPI SWAP1 JUMPDEST DUP3 DUP3 LT PUSH2 0x14BB JUMPI POP POP POP JUMP JUMPDEST PUSH1 0x20 DUP1 SWAP2 PUSH2 0x14C8 DUP5 PUSH2 0x135C JUMP JUMPDEST DUP2 MSTORE ADD SWAP2 ADD SWAP1 PUSH2 0x14AF JUMP JUMPDEST SWAP3 SWAP2 SWAP1 PUSH2 0x14DF DUP2 PUSH2 0x1467 JUMP JUMPDEST SWAP4 PUSH2 0x14ED PUSH1 0x40 MLOAD SWAP6 DUP7 PUSH2 0x13A1 JUMP JUMPDEST PUSH1 0x20 DUP6 DUP4 DUP2 MSTORE ADD SWAP2 PUSH1 0x5 SHL DUP2 ADD SWAP3 DUP4 GT PUSH2 0x1B7 JUMPI SWAP1 JUMPDEST DUP3 DUP3 LT PUSH2 0x150F JUMPI POP POP POP JUMP JUMPDEST DUP2 CALLDATALOAD DUP2 MSTORE PUSH1 0x20 SWAP2 DUP3 ADD SWAP2 ADD PUSH2 0x1503 JUMP JUMPDEST SWAP2 SWAP1 DUP2 LT ISZERO PUSH2 0x152F JUMPI PUSH1 0x5 SHL ADD SWAP1 JUMP JUMPDEST PUSH4 0x4E487B71 PUSH1 0xE0 SHL PUSH0 MSTORE PUSH1 0x32 PUSH1 0x4 MSTORE PUSH1 0x24 PUSH0 REVERT JUMPDEST CALLDATALOAD PUSH1 0x1 PUSH1 0x1 PUSH1 0xA0 SHL SUB DUP2 AND DUP2 SUB PUSH2 0x1B7 JUMPI SWAP1 JUMP JUMPDEST DUP1 MLOAD DUP3 LT ISZERO PUSH2 0x152F JUMPI PUSH1 0x20 SWAP2 PUSH1 0x5 SHL ADD ADD SWAP1 JUMP JUMPDEST SWAP1 PUSH1 0x20 DUP1 DUP4 MLOAD SWAP3 DUP4 DUP2 MSTORE ADD SWAP3 ADD SWAP1 PUSH0 JUMPDEST DUP2 DUP2 LT PUSH2 0x1588 JUMPI POP POP POP SWAP1 JUMP JUMPDEST DUP3 MLOAD DUP5 MSTORE PUSH1 0x20 SWAP4 DUP5 ADD SWAP4 SWAP1 SWAP3 ADD SWAP2 PUSH1 0x1 ADD PUSH2 0x157B JUMP JUMPDEST SWAP1 DUP1 PUSH1 0x1F DUP4 ADD SLT ISZERO PUSH2 0x1B7 JUMPI DUP2 PUSH1 0x20 PUSH2 0x15B9 SWAP4 CALLDATALOAD SWAP2 ADD PUSH2 0x147F JUMP JUMPDEST SWAP1 JUMP JUMPDEST SWAP1 PUSH1 0x20 DUP1 DUP4 MLOAD SWAP3 DUP4 DUP2 MSTORE ADD SWAP3 ADD SWAP1 PUSH0 JUMPDEST DUP2 DUP2 LT PUSH2 0x15D9 JUMPI POP POP POP SWAP1 JUMP JUMPDEST DUP3 MLOAD PUSH1 0x1 PUSH1 0x1 PUSH1 0xA0 SHL SUB AND DUP5 MSTORE PUSH1 0x20 SWAP4 DUP5 ADD SWAP4 SWAP1 SWAP3 ADD SWAP2 PUSH1 0x1 ADD PUSH2 0x15CC JUMP JUMPDEST PUSH1 0x1 PUSH1 0x1 PUSH1 0xA0 SHL SUB PUSH0 SLOAD AND CALLER SUB PUSH2 0x160B JUMPI JUMP JUMPDEST PUSH32 0x118CDAA700000000000000000000000000000000000000000000000000000000 PUSH0 MSTORE CALLER PUSH1 0x4 MSTORE PUSH1 0x24 PUSH0 REVERT JUMPDEST DUP2 MLOAD SWAP2 SWAP1 PUSH1 0x41 DUP4 SUB PUSH2 0x1667 JUMPI PUSH2 0x1660 SWAP3 POP PUSH1 0x20 DUP3 ADD MLOAD SWAP1 PUSH1 0x60 PUSH1 0x40 DUP5 ADD MLOAD SWAP4 ADD MLOAD PUSH0 BYTE SWAP1 PUSH2 0x1730 JUMP JUMPDEST SWAP2 SWAP3 SWAP1 SWAP2 SWAP1 JUMP JUMPDEST POP POP PUSH0 SWAP2 PUSH1 0x2 SWAP2 SWAP1 JUMP JUMPDEST PUSH1 0x4 DUP2 LT ISZERO PUSH2 0x171C JUMPI DUP1 PUSH2 0x1683 JUMPI POP POP JUMP JUMPDEST PUSH1 0x1 DUP2 SUB PUSH2 0x16B3 JUMPI PUSH32 0xF645EEDF00000000000000000000000000000000000000000000000000000000 PUSH0 MSTORE PUSH1 0x4 PUSH0 REVERT JUMPDEST PUSH1 0x2 DUP2 SUB PUSH2 0x16E7 JUMPI POP PUSH32 0xFCE698F700000000000000000000000000000000000000000000000000000000 PUSH0 MSTORE PUSH1 0x4 MSTORE PUSH1 0x24 PUSH0 REVERT JUMPDEST PUSH1 0x3 EQ PUSH2 0x16F1 JUMPI POP JUMP JUMPDEST PUSH32 0xD78BCE0C00000000000000000000000000000000000000000000000000000000 PUSH0 MSTORE PUSH1 0x4 MSTORE PUSH1 0x24 PUSH0 REVERT JUMPDEST PUSH4 0x4E487B71 PUSH1 0xE0 SHL PUSH0 MSTORE PUSH1 0x21 PUSH1 0x4 MSTORE PUSH1 0x24 PUSH0 REVERT JUMPDEST SWAP2 SWAP1 PUSH32 0x7FFFFFFFFFFFFFFFFFFFFFFFFFFFFFFF5D576E7357A4501DDFE92F46681B20A0 DUP5 GT PUSH2 0x17A7 JUMPI SWAP2 PUSH1 0x20 SWAP4 PUSH1 0x80 SWAP3 PUSH1 0xFF PUSH0 SWAP6 PUSH1 0x40 MLOAD SWAP5 DUP6 MSTORE AND DUP7 DUP5 ADD MSTORE PUSH1 0x40 DUP4 ADD MSTORE PUSH1 0x60 DUP3 ADD MSTORE DUP3 DUP1 MSTORE PUSH1 0x1 GAS STATICCALL ISZERO PUSH2 0x73A JUMPI PUSH0 MLOAD PUSH1 0x1 PUSH1 0x1 PUSH1 0xA0 SHL SUB DUP2 AND ISZERO PUSH2 0x179D JUMPI SWAP1 PUSH0 SWAP1 PUSH0 SWAP1 JUMP JUMPDEST POP PUSH0 SWAP1 PUSH1 0x1 SWAP1 PUSH0 SWAP1 JUMP JUMPDEST POP POP POP PUSH0 SWAP2 PUSH1 0x3 SWAP2 SWAP1 JUMP INVALID LOG2 PUSH5 0x6970667358 0x22 SLT KECCAK256 ADD PUSH19 0xE30B3DDF513780D5E33EB99538660F702B23C0 LOG4 SWAP15 0xF8 NUMBER 0xEB 0x27 PUSH3 0x83CDFD SWAP13 PUSH5 0x736F6C6343 STOP ADDMOD SHL STOP CALLER "},"gasEstimates":{"creation":{"codeDepositCost":"1224000","executionCost":"infinite","totalCost":"infinite"},"external":{"MODULE_TYPE_EXECUTOR()":"175","activateAgentMode(address,address[],uint256[],uint256,bytes)":"infinite","agentModeActivated(address)":"2726","bondModuleTeeServer()":"infinite","clearTokenAllowances(address[])":"infinite","disableAgentMode()":"28092","enableAgentMode()":"28384","executeBatchWithAttestation(address,bytes,address,uint256,uint256,bytes)":"infinite","getConfigInputTypeData()":"687","getTokenAllowance(address,address)":"2957","initializedAccounts(address)":"2550","isAgentModeActivated(address)":"2410","isAttestationUsed(bytes32)":"2377","isInitialized(address)":"2748","isModuleType(uint256)":"581","onInstall(bytes)":"infinite","onUninstall(bytes)":"infinite","owner()":"2515","renounceOwnership()":"28236","tokenAllowances(address,address)":"2913","transferOwnership(address)":"28609","usedAttestations(bytes32)":"2487"},"internal":{"_activateAgentMode(address,address[] memory,uint256[] memory,uint256,address)":"infinite","_encodeExecutionMode(CallType,ExecType)":"infinite"}},"methodIdentifiers":{"MODULE_TYPE_EXECUTOR()":"2f6c8ea9","activateAgentMode(address,address[],uint256[],uint256,bytes)":"3be7aa24","agentModeActivated(address)":"b220aef2","bondModuleTeeServer()":"f1974ff9","clearTokenAllowances(address[])":"4ad41084","disableAgentMode()":"3e7e3732","enableAgentMode()":"dd50bfd1","executeBatchWithAttestation(address,bytes,address,uint256,uint256,bytes)":"b1ae36d3","getConfigInputTypeData()":"a4f4b0dd","getTokenAllowance(address,address)":"ea7ee010","initializedAccounts(address)":"4e627ae6","isAgentModeActivated(address)":"1c16aafc","isAttestationUsed(bytes32)":"3594f7e4","isInitialized(address)":"d60b347f","isModuleType(uint256)":"ecd05961","onInstall(bytes)":"6d61fe70","onUninstall(bytes)":"8a91b0e3","owner()":"8da5cb5b","renounceOwnership()":"715018a6","tokenAllowances(address,address)":"d68bda7c","transferOwnership(address)":"f2fde38b","usedAttestations(bytes32)":"5a553572"}},"storageLayout":{"storage":[{"astId":8,"contract":"contracts/modules/executors/BondModule.sol:BondModule","label":"_owner","offset":0,"slot":"0","type":"t_address"},{"astId":6490,"contract":"contracts/modules/executors/BondModule.sol:BondModule","label":"initializedAccounts","offset":0,"slot":"1","type":"t_mapping(t_address,t_bool)"},{"astId":6495,"contract":"contracts/modules/executors/BondModule.sol:BondModule","label":"usedAttestations","offset":0,"slot":"2","type":"t_mapping(t_bytes32,t_bool)"},{"astId":6502,"contract":"contracts/modules/executors/BondModule.sol:BondModule","label":"tokenAllowances","offset":0,"slot":"3","type":"t_mapping(t_address,t_mapping(t_address,t_uint256))"},{"astId":6507,"contract":"contracts/modules/executors/BondModule.sol:BondModule","label":"agentModeActivated","offset":0,"slot":"4","type":"t_mapping(t_address,t_bool)"}],"types":{"t_address":{"encoding":"inplace","label":"address","numberOfBytes":"20"},"t_bool":{"encoding":"inplace","label":"bool","numberOfBytes":"1"},"t_bytes32":{"encoding":"inplace","label":"bytes32","numberOfBytes":"32"},"t_mapping(t_address,t_bool)":{"encoding":"mapping","key":"t_address","label":"mapping(address => bool)","numberOfBytes":"32","value":"t_bool"},"t_mapping(t_address,t_mapping(t_address,t_uint256))":{"encoding":"mapping","key":"t_address","label":"mapping(address => mapping(address => uint256))","numberOfBytes":"32","value":"t_mapping(t_address,t_uint256)"},"t_mapping(t_address,t_uint256)":{"encoding":"mapping","key":"t_address","label":"mapping(address => uint256)","numberOfBytes":"32","value":"t_uint256"},"t_mapping(t_bytes32,t_bool)":{"encoding":"mapping","key":"t_bytes32","label":"mapping(bytes32 => bool)","numberOfBytes":"32","value":"t_bool"},"t_uint256":{"encoding":"inplace","label":"uint256","numberOfBytes":"32"}}},"userdoc":{"kind":"user","methods":{"MODULE_TYPE_EXECUTOR()":{"notice":"ERC-7579 Module Type ID for Executor"},"activateAgentMode(address,address[],uint256[],uint256,bytes)":{"notice":"Updates token allowance caps via Bond Module TEE attestation"},"agentModeActivated(address)":{"notice":"Mapping to track if agent mode is activated for an account"},"bondModuleTeeServer()":{"notice":"Address of the Bond Module TEE server that executes fund movements"},"clearTokenAllowances(address[])":{"notice":"Clears specific token allowances for the calling account"},"disableAgentMode()":{"notice":"Disables agent mode for the calling account"},"enableAgentMode()":{"notice":"Enables agent mode for the calling account"},"executeBatchWithAttestation(address,bytes,address,uint256,uint256,bytes)":{"notice":"Allows verified agents to execute batch transactions with percentage-based limits"},"getConfigInputTypeData()":{"notice":"Returns the ABI type definition for BondModule installation/config data"},"getTokenAllowance(address,address)":{"notice":"Gets the token allowance for a specific account and token"},"initializedAccounts(address)":{"notice":"Mapping to track initialized accounts"},"isAgentModeActivated(address)":{"notice":"Checks if agent mode is activated for an account"},"isAttestationUsed(bytes32)":{"notice":"Checks if an attestation has been used"},"isInitialized(address)":{"notice":"Checks if the module is initialized for a smart account"},"isModuleType(uint256)":{"notice":"Checks if the module matches a specific module type"},"onInstall(bytes)":{"notice":"Installs the module and activates agent mode"},"onUninstall(bytes)":{"notice":"Uninstalls the module and clears configuration"},"tokenAllowances(address,address)":{"notice":"Mapping to store token allowances: account => token => allowedAmount"},"usedAttestations(bytes32)":{"notice":"Mapping to track used attestations (prevents replay attacks)"}},"notice":"ERC-7579 compliant Executor module for Nexus Smart Accounts","version":1}}}}