{
  "_format": "hh-sol-artifact-1",
  "contractName": "MockValidator_7739v2",
  "sourceName": "contracts/mocks/MockValidator_7739v2.sol",
  "abi": [
    {
      "inputs": [],
      "name": "InvalidSignature",
      "type": "error"
    },
    {
      "inputs": [
        {
          "internalType": "address",
          "name": "account",
          "type": "address"
        }
      ],
      "name": "getOwner",
      "outputs": [
        {
          "internalType": "address",
          "name": "",
          "type": "address"
        }
      ],
      "stateMutability": "view",
      "type": "function"
    },
    {
      "inputs": [
        {
          "internalType": "address",
          "name": "",
          "type": "address"
        }
      ],
      "name": "isInitialized",
      "outputs": [
        {
          "internalType": "bool",
          "name": "",
          "type": "bool"
        }
      ],
      "stateMutability": "pure",
      "type": "function"
    },
    {
      "inputs": [
        {
          "internalType": "uint256",
          "name": "moduleTypeId",
          "type": "uint256"
        }
      ],
      "name": "isModuleType",
      "outputs": [
        {
          "internalType": "bool",
          "name": "",
          "type": "bool"
        }
      ],
      "stateMutability": "pure",
      "type": "function"
    },
    {
      "inputs": [
        {
          "internalType": "address",
          "name": "account",
          "type": "address"
        },
        {
          "internalType": "address",
          "name": "owner",
          "type": "address"
        }
      ],
      "name": "isOwner",
      "outputs": [
        {
          "internalType": "bool",
          "name": "",
          "type": "bool"
        }
      ],
      "stateMutability": "view",
      "type": "function"
    },
    {
      "inputs": [
        {
          "internalType": "address",
          "name": "sender",
          "type": "address"
        },
        {
          "internalType": "bytes32",
          "name": "hash",
          "type": "bytes32"
        },
        {
          "internalType": "bytes",
          "name": "signature",
          "type": "bytes"
        }
      ],
      "name": "isValidSignatureWithSender",
      "outputs": [
        {
          "internalType": "bytes4",
          "name": "",
          "type": "bytes4"
        }
      ],
      "stateMutability": "view",
      "type": "function"
    },
    {
      "inputs": [
        {
          "internalType": "bytes",
          "name": "data",
          "type": "bytes"
        }
      ],
      "name": "onInstall",
      "outputs": [],
      "stateMutability": "nonpayable",
      "type": "function"
    },
    {
      "inputs": [
        {
          "internalType": "bytes",
          "name": "data",
          "type": "bytes"
        }
      ],
      "name": "onUninstall",
      "outputs": [],
      "stateMutability": "nonpayable",
      "type": "function"
    },
    {
      "inputs": [
        {
          "internalType": "address",
          "name": "",
          "type": "address"
        }
      ],
      "name": "smartAccountOwners",
      "outputs": [
        {
          "internalType": "address",
          "name": "",
          "type": "address"
        }
      ],
      "stateMutability": "view",
      "type": "function"
    },
    {
      "inputs": [],
      "name": "supportsNestedTypedDataSign",
      "outputs": [
        {
          "internalType": "bytes32",
          "name": "result",
          "type": "bytes32"
        }
      ],
      "stateMutability": "view",
      "type": "function"
    },
    {
      "inputs": [
        {
          "internalType": "bytes32",
          "name": "hash",
          "type": "bytes32"
        },
        {
          "internalType": "bytes",
          "name": "sig",
          "type": "bytes"
        },
        {
          "internalType": "bytes",
          "name": "data",
          "type": "bytes"
        }
      ],
      "name": "validateSignatureWithData",
      "outputs": [
        {
          "internalType": "bool",
          "name": "validSig",
          "type": "bool"
        }
      ],
      "stateMutability": "view",
      "type": "function"
    },
    {
      "inputs": [
        {
          "components": [
            {
              "internalType": "address",
              "name": "sender",
              "type": "address"
            },
            {
              "internalType": "uint256",
              "name": "nonce",
              "type": "uint256"
            },
            {
              "internalType": "bytes",
              "name": "initCode",
              "type": "bytes"
            },
            {
              "internalType": "bytes",
              "name": "callData",
              "type": "bytes"
            },
            {
              "internalType": "bytes32",
              "name": "accountGasLimits",
              "type": "bytes32"
            },
            {
              "internalType": "uint256",
              "name": "preVerificationGas",
              "type": "uint256"
            },
            {
              "internalType": "bytes32",
              "name": "gasFees",
              "type": "bytes32"
            },
            {
              "internalType": "bytes",
              "name": "paymasterAndData",
              "type": "bytes"
            },
            {
              "internalType": "bytes",
              "name": "signature",
              "type": "bytes"
            }
          ],
          "internalType": "struct PackedUserOperation",
          "name": "userOp",
          "type": "tuple"
        },
        {
          "internalType": "bytes32",
          "name": "userOpHash",
          "type": "bytes32"
        }
      ],
      "name": "validateUserOp",
      "outputs": [
        {
          "internalType": "uint256",
          "name": "validation",
          "type": "uint256"
        }
      ],
      "stateMutability": "view",
      "type": "function"
    }
  ],
  "bytecode": "0x6080806040523460155761080f908161001a8239f35b5f80fdfe6080806040526004361015610012575f80fd5b5f3560e01c9081632e5b63a614610519575080636d61fe701461040e5780637ddc02d4146103b95780638a91b0e3146102da578063940d38401461026157806397003203146101bd578063d60b347f14610199578063d620c85a1461015f578063ecd059611461013f578063f551e2ee146100d95763fa54416114610095575f80fd5b346100d55760203660031901126100d5576001600160a01b036100b6610555565b165f525f60205260206001600160a01b0360405f205416604051908152f35b5f80fd5b346100d55760603660031901126100d5576100f2610555565b5060443567ffffffffffffffff81116100d55761011390369060040161056b565b505060206040517f77390002000000000000000000000000000000000000000000000000000000008152f35b346100d55760203660031901126100d55760206040516001600435148152f35b346100d5575f3660031901126100d55760206040517fd620c85a000000000000000000000000000000000000000000000000000000008152f35b346100d55760203660031901126100d5576101b2610555565b5060206040515f8152f35b346100d55760403660031901126100d55760043567ffffffffffffffff81116100d5578036036101206003198201126100d557335f525f6020526001600160a01b0360405f2054169161010481013591602219018212156100d5570160048101359067ffffffffffffffff82116100d55760240181360381136100d5576102479260243590610665565b156102585760205f5b604051908152f35b60206001610250565b346100d55760603660031901126100d55760243567ffffffffffffffff81116100d55761029290369060040161056b565b60443567ffffffffffffffff81116100d5576102b290369060040161056b565b6014929192116100d5576020926102d092600435903560601c610665565b6040519015158152f35b346100d55760203660031901126100d55760043567ffffffffffffffff81116100d55761030b90369060040161056b565b505060405163112d3a7d60e01b815260016004820152306024820152606060448201525f6064820152602081608481335afa80156103ae57610355915f9161037f575b5015610600565b335f525f60205260405f2073ffffffffffffffffffffffffffffffffffffffff1981541690555f80f35b6103a1915060203d6020116103a7575b6103998183610599565b8101906105e8565b8261034e565b503d61038f565b6040513d5f823e3d90fd5b346100d55760403660031901126100d5576103d2610555565b6024356001600160a01b0381168091036100d5576001600160a01b03602092165f525f82526001600160a01b0360405f20541614604051908152f35b346100d55760203660031901126100d55760043567ffffffffffffffff81116100d55761043f90369060040161056b565b60405163112d3a7d60e01b815260016004820152306024820152606060448201525f6064820152909190602081608481335afa80156103ae57610489915f916104fa575b50610600565b35906bffffffffffffffffffffffff19821691601482106104d5575b82335f525f60205260405f209060601c73ffffffffffffffffffffffffffffffffffffffff198254161790555f80f35b6bffffffffffffffffffffffff1960149290920360031b82901b1616905081806104a5565b610513915060203d6020116103a7576103998183610599565b84610483565b346100d55760203660031901126100d5576020906001600160a01b0361053d610555565b165f525f82526001600160a01b0360405f2054168152f35b600435906001600160a01b03821682036100d557565b9181601f840112156100d55782359167ffffffffffffffff83116100d557602083818601950101116100d557565b90601f8019910116810190811067ffffffffffffffff8211176105bb57604052565b7f4e487b71000000000000000000000000000000000000000000000000000000005f52604160045260245ffd5b908160209103126100d5575180151581036100d55790565b1561060757565b60646040517f08c379a000000000000000000000000000000000000000000000000000000000815260206004820152601c60248201527f56616c696461746f72206973207374696c6c20696e7374616c6c6564000000006044820152fd5b92919092610675838386846106c3565b6106ba576106ad937f19457468657265756d205369676e6564204d6573736167653a0a3332000000005f52601c52603c5f20906106c3565b6106b5575f90565b600190565b50505050600190565b909193925f946001600160a01b038316156107d05760405195600487016024880195604489019160648a0193873b1561073f575094602096948a948260649581958c9d9e9a7f1626ba7e00000000000000000000000000000000000000000000000000000000809e9c525260408a52523701915afa9151141690565b99975050939150508060401461078c5760411461075c5750505050565b60408092939496508101355f1a60205281375b5f526020600160805f825afa511860601b3d11915f606052604052565b507f7fffffffffffffffffffffffffffffffffffffffffffffffffffffffffffffff9192939550602081013590601b8260ff1c01602052356040521660605261076f565b505f945050505056fea264697066735822122013ff446cec7017fdee80174f14da43c95bb638d25edc56539f3237594c1f69f364736f6c634300081b0033",
  "linkReferences": {},
  "deployedLinkReferences": {}
}