{
  "_format": "hh-sol-artifact-1",
  "contractName": "MockCallee",
  "sourceName": "contracts/mocks/MockCallee.sol",
  "abi": [
    {
      "inputs": [
        {
          "internalType": "address",
          "name": "addrParam",
          "type": "address"
        },
        {
          "internalType": "uint256",
          "name": "uintParam",
          "type": "uint256"
        },
        {
          "internalType": "bytes32",
          "name": "bytesParam",
          "type": "bytes32"
        }
      ],
      "name": "addBalance",
      "outputs": [],
      "stateMutability": "nonpayable",
      "type": "function"
    },
    {
      "inputs": [
        {
          "internalType": "address",
          "name": "",
          "type": "address"
        }
      ],
      "name": "bals",
      "outputs": [
        {
          "internalType": "uint256",
          "name": "uintBalance",
          "type": "uint256"
        },
        {
          "internalType": "bytes32",
          "name": "bytes32Balance",
          "type": "bytes32"
        }
      ],
      "stateMutability": "view",
      "type": "function"
    }
  ],
  "bytecode": "0x60808060405234601557610189908161001a8239f35b5f80fdfe60806040526004361015610011575f80fd5b5f3560e01c8063f6cd9380146100805763fcdcc9fb1461002f575f80fd5b3461007c57602036600319011261007c5773ffffffffffffffffffffffffffffffffffffffff61005d6100f6565b165f525f6020526040805f206001815491015482519182526020820152f35b5f80fd5b3461007c57606036600319011261007c5773ffffffffffffffffffffffffffffffffffffffff6100ae6100f6565b16805f525f60205260405f206100c76024358254610119565b9055805f525f6020526100e3604435600160405f200154610119565b905f525f602052600160405f2001555f80f35b6004359073ffffffffffffffffffffffffffffffffffffffff8216820361007c57565b9190820180921161012657565b7f4e487b71000000000000000000000000000000000000000000000000000000005f52601160045260245ffdfea264697066735822122006c693840968786142e0b9620a5430982f29e81a1d79069725e99cbe8398125964736f6c634300081b0033",
  "linkReferences": {},
  "deployedLinkReferences": {}
}