{
  "_format": "hh-sol-artifact-1",
  "contractName": "BiconomyMetaFactory",
  "sourceName": "contracts/factory/BiconomyMetaFactory.sol",
  "abi": [
    {
      "inputs": [
        {
          "internalType": "address",
          "name": "owner_",
          "type": "address"
        }
      ],
      "stateMutability": "nonpayable",
      "type": "constructor"
    },
    {
      "inputs": [],
      "name": "AlreadyInitialized",
      "type": "error"
    },
    {
      "inputs": [],
      "name": "CallToDeployWithFactoryFailed",
      "type": "error"
    },
    {
      "inputs": [],
      "name": "FactoryNotWhitelisted",
      "type": "error"
    },
    {
      "inputs": [],
      "name": "InvalidEntryPointAddress",
      "type": "error"
    },
    {
      "inputs": [],
      "name": "InvalidFactoryAddress",
      "type": "error"
    },
    {
      "inputs": [],
      "name": "NewOwnerIsZeroAddress",
      "type": "error"
    },
    {
      "inputs": [],
      "name": "NoHandoverRequest",
      "type": "error"
    },
    {
      "inputs": [],
      "name": "Unauthorized",
      "type": "error"
    },
    {
      "inputs": [],
      "name": "ZeroAddressNotAllowed",
      "type": "error"
    },
    {
      "anonymous": false,
      "inputs": [
        {
          "indexed": true,
          "internalType": "address",
          "name": "pendingOwner",
          "type": "address"
        }
      ],
      "name": "OwnershipHandoverCanceled",
      "type": "event"
    },
    {
      "anonymous": false,
      "inputs": [
        {
          "indexed": true,
          "internalType": "address",
          "name": "pendingOwner",
          "type": "address"
        }
      ],
      "name": "OwnershipHandoverRequested",
      "type": "event"
    },
    {
      "anonymous": false,
      "inputs": [
        {
          "indexed": true,
          "internalType": "address",
          "name": "oldOwner",
          "type": "address"
        },
        {
          "indexed": true,
          "internalType": "address",
          "name": "newOwner",
          "type": "address"
        }
      ],
      "name": "OwnershipTransferred",
      "type": "event"
    },
    {
      "inputs": [
        {
          "internalType": "address",
          "name": "factory",
          "type": "address"
        }
      ],
      "name": "addFactoryToWhitelist",
      "outputs": [],
      "stateMutability": "nonpayable",
      "type": "function"
    },
    {
      "inputs": [
        {
          "internalType": "address",
          "name": "epAddress",
          "type": "address"
        },
        {
          "internalType": "uint32",
          "name": "unstakeDelaySec",
          "type": "uint32"
        }
      ],
      "name": "addStake",
      "outputs": [],
      "stateMutability": "payable",
      "type": "function"
    },
    {
      "inputs": [],
      "name": "cancelOwnershipHandover",
      "outputs": [],
      "stateMutability": "payable",
      "type": "function"
    },
    {
      "inputs": [
        {
          "internalType": "address",
          "name": "pendingOwner",
          "type": "address"
        }
      ],
      "name": "completeOwnershipHandover",
      "outputs": [],
      "stateMutability": "payable",
      "type": "function"
    },
    {
      "inputs": [
        {
          "internalType": "address",
          "name": "factory",
          "type": "address"
        },
        {
          "internalType": "bytes",
          "name": "factoryData",
          "type": "bytes"
        }
      ],
      "name": "deployWithFactory",
      "outputs": [
        {
          "internalType": "address payable",
          "name": "createdAccount",
          "type": "address"
        }
      ],
      "stateMutability": "payable",
      "type": "function"
    },
    {
      "inputs": [
        {
          "internalType": "address",
          "name": "",
          "type": "address"
        }
      ],
      "name": "factoryWhitelist",
      "outputs": [
        {
          "internalType": "bool",
          "name": "",
          "type": "bool"
        }
      ],
      "stateMutability": "view",
      "type": "function"
    },
    {
      "inputs": [
        {
          "internalType": "address",
          "name": "factory",
          "type": "address"
        }
      ],
      "name": "isFactoryWhitelisted",
      "outputs": [
        {
          "internalType": "bool",
          "name": "",
          "type": "bool"
        }
      ],
      "stateMutability": "view",
      "type": "function"
    },
    {
      "inputs": [],
      "name": "owner",
      "outputs": [
        {
          "internalType": "address",
          "name": "result",
          "type": "address"
        }
      ],
      "stateMutability": "view",
      "type": "function"
    },
    {
      "inputs": [
        {
          "internalType": "address",
          "name": "pendingOwner",
          "type": "address"
        }
      ],
      "name": "ownershipHandoverExpiresAt",
      "outputs": [
        {
          "internalType": "uint256",
          "name": "result",
          "type": "uint256"
        }
      ],
      "stateMutability": "view",
      "type": "function"
    },
    {
      "inputs": [
        {
          "internalType": "address",
          "name": "factory",
          "type": "address"
        }
      ],
      "name": "removeFactoryFromWhitelist",
      "outputs": [],
      "stateMutability": "nonpayable",
      "type": "function"
    },
    {
      "inputs": [],
      "name": "renounceOwnership",
      "outputs": [],
      "stateMutability": "payable",
      "type": "function"
    },
    {
      "inputs": [],
      "name": "requestOwnershipHandover",
      "outputs": [],
      "stateMutability": "payable",
      "type": "function"
    },
    {
      "inputs": [
        {
          "internalType": "address",
          "name": "newOwner",
          "type": "address"
        }
      ],
      "name": "transferOwnership",
      "outputs": [],
      "stateMutability": "payable",
      "type": "function"
    },
    {
      "inputs": [
        {
          "internalType": "address",
          "name": "epAddress",
          "type": "address"
        }
      ],
      "name": "unlockStake",
      "outputs": [],
      "stateMutability": "nonpayable",
      "type": "function"
    },
    {
      "inputs": [
        {
          "internalType": "address",
          "name": "epAddress",
          "type": "address"
        },
        {
          "internalType": "address payable",
          "name": "withdrawAddress",
          "type": "address"
        }
      ],
      "name": "withdrawStake",
      "outputs": [],
      "stateMutability": "nonpayable",
      "type": "function"
    }
  ],
  "bytecode": "0x60803460a357601f6108db38819003918201601f19168301916001600160401b0383118484101760a75780849260209460405283398101031260a357516001600160a01b0381169081900360a35780638b78c6d819547f8be0079c531659141344cd1fd0a4f28419497f9722a3daafe3b4186f6b6457e05f80a380638b78c6d819551560945760405161081f90816100bc8239f35b6342bcdf7f60e11b5f5260045ffd5b5f80fd5b634e487b7160e01b5f52604160045260245ffdfe60806040526004361015610011575f80fd5b5f3560e01c806316077799146100ff57806325692962146100fa57806343a0fcc4146100c857806345171159146100f55780634a1ce599146100f057806354d1f13d146100eb578063715018a6146100e6578063759cf602146100e15780638da5cb5b146100dc578063b36f9705146100d7578063c513b4a4146100d2578063f04e283e146100cd578063f2b9c6e3146100c8578063f2fde38b146100c35763fee81cf4146100be575f80fd5b6105eb565b6105ac565b6101e6565b61055b565b6104e6565b610449565b61041f565b6103db565b610392565b61034e565b6102ce565b610226565b61019d565b610119565b6001600160a01b0381160361011557565b5f80fd5b60403660031901126101155760043561013181610104565b60243567ffffffffffffffff8111610115573660238201121561011557806004013567ffffffffffffffff81116101155736602482840101116101155761019992602461017f9301906106a4565b6040516001600160a01b0390911681529081906020820190565b0390f35b5f3660031901126101155763389a75e1600c52335f526202a30042016020600c2055337fdbf36a107da19e49527a7176a1babf963b4b0ff8cde35ee35d6cd8f1f9ac7e1d5f80a2005b34610115576020366003190112610115576001600160a01b0360043561020b81610104565b165f525f602052602060ff60405f2054166040519015158152f35b5f60403660031901126101155760043561023f81610104565b6024359063ffffffff8216809203610115576001600160a01b039061026261078f565b169061026f821515610755565b813b15610115575f906024604051809481937f0396cb60000000000000000000000000000000000000000000000000000000008352600483015234905af180156102c9576102bb575080f35b6102c791505f9061064e565b005b610784565b34610115575f6020366003190112610115576001600160a01b036004356102f481610104565b6102fc61078f565b16610308811515610755565b803b15610115575f80916004604051809481937fbb9fe6bf0000000000000000000000000000000000000000000000000000000083525af180156102c9576102bb575080f35b5f3660031901126101155763389a75e1600c52335f525f6020600c2055337ffa7b8eab7da67f412cc9575ed43464468f9bfbae89d1675917346ca6d8fe3c925f80a2005b5f366003190112610115576103a561078f565b5f638b78c6d819547f8be0079c531659141344cd1fd0a4f28419497f9722a3daafe3b4186f6b6457e08280a35f638b78c6d81955005b34610115576020366003190112610115576001600160a01b0360043561040081610104565b61040861078f565b165f525f60205260405f2060ff1981541690555f80f35b34610115575f366003190112610115576020638b78c6d819546001600160a01b0360405191168152f35b34610115575f60403660031901126101155760043561046781610104565b6001600160a01b036024359161047c83610104565b61048461078f565b1690610491821515610755565b813b15610115576001600160a01b0360245f928360405195869485937fc23a5cea0000000000000000000000000000000000000000000000000000000085521660048401525af180156102c9576102bb575080f35b34610115576020366003190112610115576001600160a01b0360043561050b81610104565b61051361078f565b168015610533575f525f60205260405f20600160ff198254161790555f80f35b7f5c7bfbe9000000000000000000000000000000000000000000000000000000005f5260045ffd5b60203660031901126101155760043561057381610104565b61057b61078f565b63389a75e1600c52805f526020600c20908154421161059f575f6102c792556107ab565b636f5e88185f526004601cfd5b6020366003190112610115576004356105c481610104565b6105cc61078f565b8060601b156105de576102c7906107ab565b637448fbae5f526004601cfd5b346101155760203660031901126101155760043561060881610104565b63389a75e1600c525f52602080600c2054604051908152f35b7f4e487b71000000000000000000000000000000000000000000000000000000005f52604160045260245ffd5b90601f8019910116810190811067ffffffffffffffff82111761067057604052565b610621565b1561067c57565b7fb4c97408000000000000000000000000000000000000000000000000000000005f5260045ffd5b6001600160a01b0381165f525f60205260ff60405f2054161561072d57825f9392849360405192839283378101848152039134905af13d1561071f573d67ffffffffffffffff81116106705761071a6020926040519261070d85601f19601f840116018561064e565b83523d5f8585013e610675565b015190565b60209061071a606091610675565b7f8de0e0da000000000000000000000000000000000000000000000000000000005f5260045ffd5b1561075c57565b7f91fdf191000000000000000000000000000000000000000000000000000000005f5260045ffd5b6040513d5f823e3d90fd5b638b78c6d81954330361079e57565b6382b429005f526004601cfd5b6001600160a01b031680638b78c6d819547f8be0079c531659141344cd1fd0a4f28419497f9722a3daafe3b4186f6b6457e05f80a3638b78c6d8195556fea264697066735822122010fc9bfcc80572ef0e27bc112bcc60d7396b596feff4bf368d0fdb5e665c5b4d64736f6c634300081b0033",
  "linkReferences": {},
  "deployedLinkReferences": {}
}