{
  "_format": "hh-sol-artifact-1",
  "contractName": "MockPaymaster",
  "sourceName": "contracts/mocks/MockPaymaster.sol",
  "abi": [
    {
      "inputs": [
        {
          "internalType": "address",
          "name": "_entryPoint",
          "type": "address"
        },
        {
          "internalType": "address",
          "name": "_signer",
          "type": "address"
        }
      ],
      "stateMutability": "nonpayable",
      "type": "constructor"
    },
    {
      "inputs": [],
      "name": "ECDSAInvalidSignature",
      "type": "error"
    },
    {
      "inputs": [
        {
          "internalType": "uint256",
          "name": "length",
          "type": "uint256"
        }
      ],
      "name": "ECDSAInvalidSignatureLength",
      "type": "error"
    },
    {
      "inputs": [
        {
          "internalType": "bytes32",
          "name": "s",
          "type": "bytes32"
        }
      ],
      "name": "ECDSAInvalidSignatureS",
      "type": "error"
    },
    {
      "inputs": [
        {
          "internalType": "address",
          "name": "owner",
          "type": "address"
        }
      ],
      "name": "OwnableInvalidOwner",
      "type": "error"
    },
    {
      "inputs": [
        {
          "internalType": "address",
          "name": "account",
          "type": "address"
        }
      ],
      "name": "OwnableUnauthorizedAccount",
      "type": "error"
    },
    {
      "anonymous": false,
      "inputs": [
        {
          "indexed": true,
          "internalType": "address",
          "name": "previousOwner",
          "type": "address"
        },
        {
          "indexed": true,
          "internalType": "address",
          "name": "newOwner",
          "type": "address"
        }
      ],
      "name": "OwnershipTransferred",
      "type": "event"
    },
    {
      "inputs": [
        {
          "internalType": "uint32",
          "name": "unstakeDelaySec",
          "type": "uint32"
        }
      ],
      "name": "addStake",
      "outputs": [],
      "stateMutability": "payable",
      "type": "function"
    },
    {
      "inputs": [],
      "name": "deposit",
      "outputs": [],
      "stateMutability": "payable",
      "type": "function"
    },
    {
      "inputs": [],
      "name": "entryPoint",
      "outputs": [
        {
          "internalType": "contract IEntryPoint",
          "name": "",
          "type": "address"
        }
      ],
      "stateMutability": "view",
      "type": "function"
    },
    {
      "inputs": [],
      "name": "getDeposit",
      "outputs": [
        {
          "internalType": "uint256",
          "name": "",
          "type": "uint256"
        }
      ],
      "stateMutability": "view",
      "type": "function"
    },
    {
      "inputs": [
        {
          "components": [
            {
              "internalType": "address",
              "name": "sender",
              "type": "address"
            },
            {
              "internalType": "uint256",
              "name": "nonce",
              "type": "uint256"
            },
            {
              "internalType": "bytes",
              "name": "initCode",
              "type": "bytes"
            },
            {
              "internalType": "bytes",
              "name": "callData",
              "type": "bytes"
            },
            {
              "internalType": "bytes32",
              "name": "accountGasLimits",
              "type": "bytes32"
            },
            {
              "internalType": "uint256",
              "name": "preVerificationGas",
              "type": "uint256"
            },
            {
              "internalType": "bytes32",
              "name": "gasFees",
              "type": "bytes32"
            },
            {
              "internalType": "bytes",
              "name": "paymasterAndData",
              "type": "bytes"
            },
            {
              "internalType": "bytes",
              "name": "signature",
              "type": "bytes"
            }
          ],
          "internalType": "struct PackedUserOperation",
          "name": "userOp",
          "type": "tuple"
        },
        {
          "internalType": "uint48",
          "name": "validUntil",
          "type": "uint48"
        },
        {
          "internalType": "uint48",
          "name": "validAfter",
          "type": "uint48"
        }
      ],
      "name": "getHash",
      "outputs": [
        {
          "internalType": "bytes32",
          "name": "",
          "type": "bytes32"
        }
      ],
      "stateMutability": "view",
      "type": "function"
    },
    {
      "inputs": [],
      "name": "owner",
      "outputs": [
        {
          "internalType": "address",
          "name": "",
          "type": "address"
        }
      ],
      "stateMutability": "view",
      "type": "function"
    },
    {
      "inputs": [
        {
          "internalType": "bytes",
          "name": "paymasterAndData",
          "type": "bytes"
        }
      ],
      "name": "parsePaymasterAndData",
      "outputs": [
        {
          "internalType": "uint48",
          "name": "validUntil",
          "type": "uint48"
        },
        {
          "internalType": "uint48",
          "name": "validAfter",
          "type": "uint48"
        },
        {
          "internalType": "bytes",
          "name": "signature",
          "type": "bytes"
        }
      ],
      "stateMutability": "pure",
      "type": "function"
    },
    {
      "inputs": [
        {
          "internalType": "enum IPaymaster.PostOpMode",
          "name": "mode",
          "type": "uint8"
        },
        {
          "internalType": "bytes",
          "name": "context",
          "type": "bytes"
        },
        {
          "internalType": "uint256",
          "name": "actualGasCost",
          "type": "uint256"
        },
        {
          "internalType": "uint256",
          "name": "actualUserOpFeePerGas",
          "type": "uint256"
        }
      ],
      "name": "postOp",
      "outputs": [],
      "stateMutability": "nonpayable",
      "type": "function"
    },
    {
      "inputs": [],
      "name": "renounceOwnership",
      "outputs": [],
      "stateMutability": "nonpayable",
      "type": "function"
    },
    {
      "inputs": [
        {
          "internalType": "address",
          "name": "newOwner",
          "type": "address"
        }
      ],
      "name": "transferOwnership",
      "outputs": [],
      "stateMutability": "nonpayable",
      "type": "function"
    },
    {
      "inputs": [],
      "name": "unlockStake",
      "outputs": [],
      "stateMutability": "nonpayable",
      "type": "function"
    },
    {
      "inputs": [
        {
          "components": [
            {
              "internalType": "address",
              "name": "sender",
              "type": "address"
            },
            {
              "internalType": "uint256",
              "name": "nonce",
              "type": "uint256"
            },
            {
              "internalType": "bytes",
              "name": "initCode",
              "type": "bytes"
            },
            {
              "internalType": "bytes",
              "name": "callData",
              "type": "bytes"
            },
            {
              "internalType": "bytes32",
              "name": "accountGasLimits",
              "type": "bytes32"
            },
            {
              "internalType": "uint256",
              "name": "preVerificationGas",
              "type": "uint256"
            },
            {
              "internalType": "bytes32",
              "name": "gasFees",
              "type": "bytes32"
            },
            {
              "internalType": "bytes",
              "name": "paymasterAndData",
              "type": "bytes"
            },
            {
              "internalType": "bytes",
              "name": "signature",
              "type": "bytes"
            }
          ],
          "internalType": "struct PackedUserOperation",
          "name": "userOp",
          "type": "tuple"
        },
        {
          "internalType": "bytes32",
          "name": "userOpHash",
          "type": "bytes32"
        },
        {
          "internalType": "uint256",
          "name": "maxCost",
          "type": "uint256"
        }
      ],
      "name": "validatePaymasterUserOp",
      "outputs": [
        {
          "internalType": "bytes",
          "name": "context",
          "type": "bytes"
        },
        {
          "internalType": "uint256",
          "name": "validationData",
          "type": "uint256"
        }
      ],
      "stateMutability": "nonpayable",
      "type": "function"
    },
    {
      "inputs": [],
      "name": "verifyingSigner",
      "outputs": [
        {
          "internalType": "address",
          "name": "",
          "type": "address"
        }
      ],
      "stateMutability": "view",
      "type": "function"
    },
    {
      "inputs": [
        {
          "internalType": "address payable",
          "name": "withdrawAddress",
          "type": "address"
        }
      ],
      "name": "withdrawStake",
      "outputs": [],
      "stateMutability": "nonpayable",
      "type": "function"
    },
    {
      "inputs": [
        {
          "internalType": "address payable",
          "name": "withdrawAddress",
          "type": "address"
        },
        {
          "internalType": "uint256",
          "name": "amount",
          "type": "uint256"
        }
      ],
      "name": "withdrawTo",
      "outputs": [],
      "stateMutability": "nonpayable",
      "type": "function"
    },
    {
      "stateMutability": "payable",
      "type": "receive"
    }
  ],
  "bytecode": "0x60c080604052346101a657604081611182803803809161001f82856101d0565b8339810103126101a65761003e602061003783610207565b9201610207565b906001600160a01b031633156101bd575f8054336001600160a01b03198216811783556040519290916001600160a01b0316907f8be0079c531659141344cd1fd0a4f28419497f9722a3daafe3b4186f6b6457e09080a36301ffc9a760e01b815263122a0e9b60e31b6004820152602081602481855afa9081156101b2575f91610173575b501561012e5760805260a052604051610f66908161021c823960805181818160280152818161025201528181610311015281816103af0152818161044c015281816104d1015281816107f3015281816108a00152610b8d015260a0518181816107a20152610c870152f35b60405162461bcd60e51b815260206004820152601e60248201527f49456e747279506f696e7420696e74657266616365206d69736d6174636800006044820152606490fd5b90506020813d6020116101aa575b8161018e602093836101d0565b810103126101a6575180151581036101a6575f6100c3565b5f80fd5b3d9150610181565b6040513d5f823e3d90fd5b631e4fbdf760e01b5f525f60045260245ffd5b601f909101601f19168101906001600160401b038211908210176101f357604052565b634e487b7160e01b5f52604160045260245ffd5b51906001600160a01b03821682036101a65756fe608060405260043610156100d9575b3615610018575f80fd5b3415610095576001600160a01b037f000000000000000000000000000000000000000000000000000000000000000016803b15610091575f6024916040519283809263b760faf960e01b825230600483015234905af180156100865761007a57005b5f61008491610970565b005b6040513d5f823e3d90fd5b5f80fd5b606460405162461bcd60e51b815260206004820152600860248201527f4e4f5f56414c55450000000000000000000000000000000000000000000000006044820152fd5b5f5f3560e01c80630396cb6014610870578063205c2878146107c657806323d9ac9b1461078257806352b7512c146107015780635829c5f51461068c578063715018a6146106265780637c627b211461059b5780638da5cb5b1461057557806394d4ad60146104f5578063b0d691fe146104b1578063bb9fe6bf14610428578063c23a5cea14610382578063c399ec88146102c4578063d0e30db01461023b5763f2fde38b14610189575061000e565b34610238576020366003190112610238576004356001600160a01b038116809103610236576101b6610b44565b801561020a576001600160a01b0382548273ffffffffffffffffffffffffffffffffffffffff198216178455167f8be0079c531659141344cd1fd0a4f28419497f9722a3daafe3b4186f6b6457e08380a380f35b6024827f1e4fbdf700000000000000000000000000000000000000000000000000000000815280600452fd5b505b80fd5b508060031936011261023857806001600160a01b037f000000000000000000000000000000000000000000000000000000000000000016803b156102c157816024916040519283809263b760faf960e01b825230600483015234905af180156102b6576102a55750f35b816102af91610970565b6102385780f35b6040513d84823e3d90fd5b50fd5b50346102385780600319360112610238576040517f70a082310000000000000000000000000000000000000000000000000000000081523060048201526020816024816001600160a01b037f0000000000000000000000000000000000000000000000000000000000000000165afa9081156102b657829161034c575b602082604051908152f35b90506020813d60201161037a575b8161036760209383610970565b810103126102365760209150515f610341565b3d915061035a565b5034610238576020366003190112610238578061039d610919565b6103a5610b44565b6001600160a01b037f00000000000000000000000000000000000000000000000000000000000000001690813b15610424576001600160a01b03602484928360405195869485937fc23a5cea0000000000000000000000000000000000000000000000000000000085521660048401525af180156102b6576102a55750f35b5050fd5b5034610238578060031936011261023857610441610b44565b806001600160a01b037f000000000000000000000000000000000000000000000000000000000000000016803b156102c1578180916004604051809481937fbb9fe6bf0000000000000000000000000000000000000000000000000000000083525af180156102b6576102a55750f35b503461023857806003193601126102385760206040516001600160a01b037f0000000000000000000000000000000000000000000000000000000000000000168152f35b50346102385760203660031901126102385760043567ffffffffffffffff81116102365765ffffffffffff918261053b6105356080943690600401610942565b90610afc565b9384926040969496519889971687521660208601526060604086015281606086015285850137828201840152601f01601f19168101030190f35b50346102385780600319360112610238576001600160a01b036020915416604051908152f35b503461023857608036600319011261023857600360043510156102385760243567ffffffffffffffff8111610236576105d8903690600401610942565b50506105e2610b83565b606460405162461bcd60e51b815260206004820152600d60248201527f6d757374206f76657272696465000000000000000000000000000000000000006044820152fd5b503461023857806003193601126102385761063f610b44565b806001600160a01b03815473ffffffffffffffffffffffffffffffffffffffff1981168355167f8be0079c531659141344cd1fd0a4f28419497f9722a3daafe3b4186f6b6457e08280a380f35b50346102385760603660031901126102385760043567ffffffffffffffff8111610236576101206003198236030112610236576024359065ffffffffffff821682036106fd576044359265ffffffffffff841684036102385760206106f5858585600401610a1f565b604051908152f35b8280fd5b50346102385760603660031901126102385760043567ffffffffffffffff811161023657610120600319823603011261023657602061074c606092610744610b83565b600401610bf9565b604092919251948593604085528051938491826040880152018686015e8383018501526020830152601f01601f19168101030190f35b503461023857806003193601126102385760206040516001600160a01b037f0000000000000000000000000000000000000000000000000000000000000000168152f35b503461023857604036600319011261023857806107e1610919565b6107e9610b44565b6001600160a01b037f00000000000000000000000000000000000000000000000000000000000000001690813b15610424576001600160a01b03604484928360405195869485937f205c287800000000000000000000000000000000000000000000000000000000855216600484015260243560248401525af180156102b6576102a55750f35b5060203660031901126100915760043563ffffffff811680910361009157610896610b44565b6001600160a01b037f00000000000000000000000000000000000000000000000000000000000000001690813b15610091575f906024604051809481937f0396cb60000000000000000000000000000000000000000000000000000000008352600483015234905af180156100865761090d575080f35b61008491505f90610970565b600435906001600160a01b038216820361009157565b359065ffffffffffff8216820361009157565b9181601f840112156100915782359167ffffffffffffffff8311610091576020838186019501011161009157565b90601f8019910116810190811067ffffffffffffffff82111761099257604052565b634e487b7160e01b5f52604160045260245ffd5b903590601e1981360301821215610091570180359067ffffffffffffffff82116100915760200191813603831361009157565b92919267ffffffffffffffff82116109925760405191610a03601f8201601f191660200184610970565b829481845281830111610091578281602093845f960137010152565b90610a37610a3060408401846109a6565b36916109d9565b6020815191012092610a4f610a3060608501856109a6565b6020815191012092610a6460e08201826109a6565b6034949194116100915760c065ffffffffffff9492601486946040519860208a019a6001600160a01b038535168c52602085013560408c015260608b015260808a0152608083013560a08a015201358288015260a081013560e08801520135610100860152466101208601523061014086015216610160840152166101808201526101808152610af66101a082610970565b51902090565b9190806034116100915760406033198483810103011261009157610b226034840161092f565b91610b2f6054850161092f565b92938260741161009157607401916073190190565b6001600160a01b035f54163303610b5757565b7f118cdaa7000000000000000000000000000000000000000000000000000000005f523360045260245ffd5b6001600160a01b037f0000000000000000000000000000000000000000000000000000000000000000163303610bb557565b606460405162461bcd60e51b815260206004820152601560248201527f53656e646572206e6f7420456e747279506f696e7400000000000000000000006044820152fd5b610c0961053560e08301836109a6565b91929390604083148015610dab575b15610d41576001600160a01b0392610c6d610c7392610c3b8789610c7c97610a1f565b7f19457468657265756d205369676e6564204d6573736167653a0a3332000000005f52601c52603c5f209236916109d9565b90610db5565b90929192610def565b166001600160a01b037f00000000000000000000000000000000000000000000000000000000000000001603610cf8577fffffffffffff000000000000000000000000000000000000000000000000000065ffffffffffff60a01b9160d01b169160a01b161790604051610cf1602082610970565b5f81529190565b9065ffffffffffff60a01b7fffffffffffff000000000000000000000000000000000000000000000000000060019360d01b169160a01b16171790604051610cf1602082610970565b608460405162461bcd60e51b815260206004820152604060248201527f566572696679696e675061796d61737465723a20696e76616c6964207369676e60448201527f6174757265206c656e67746820696e207061796d6173746572416e64446174616064820152fd5b5060418314610c18565b8151919060418303610de557610dde9250602082015190606060408401519301515f1a90610eae565b9192909190565b50505f9160029190565b6004811015610e9a5780610e01575050565b60018103610e31577ff645eedf000000000000000000000000000000000000000000000000000000005f5260045ffd5b60028103610e6557507ffce698f7000000000000000000000000000000000000000000000000000000005f5260045260245ffd5b600314610e6f5750565b7fd78bce0c000000000000000000000000000000000000000000000000000000005f5260045260245ffd5b634e487b7160e01b5f52602160045260245ffd5b91907f7fffffffffffffffffffffffffffffff5d576e7357a4501ddfe92f46681b20a08411610f25579160209360809260ff5f9560405194855216868401526040830152606082015282805260015afa15610086575f516001600160a01b03811615610f1b57905f905f90565b505f906001905f90565b5050505f916003919056fea2646970667358221220d93a5cfaeef3faf81debf031ca42151820870fc3f89e71e4fbeaa93b0df7d29b64736f6c634300081b0033",
  "linkReferences": {},
  "deployedLinkReferences": {}
}