{
  "_format": "hh-sol-artifact-1",
  "contractName": "EntryPoint",
  "sourceName": "account-abstraction/core/EntryPoint.sol",
  "abi": [
    {
      "inputs": [
        {
          "internalType": "bool",
          "name": "success",
          "type": "bool"
        },
        {
          "internalType": "bytes",
          "name": "ret",
          "type": "bytes"
        }
      ],
      "name": "DelegateAndRevert",
      "type": "error"
    },
    {
      "inputs": [
        {
          "internalType": "uint256",
          "name": "opIndex",
          "type": "uint256"
        },
        {
          "internalType": "string",
          "name": "reason",
          "type": "string"
        }
      ],
      "name": "FailedOp",
      "type": "error"
    },
    {
      "inputs": [
        {
          "internalType": "uint256",
          "name": "opIndex",
          "type": "uint256"
        },
        {
          "internalType": "string",
          "name": "reason",
          "type": "string"
        },
        {
          "internalType": "bytes",
          "name": "inner",
          "type": "bytes"
        }
      ],
      "name": "FailedOpWithRevert",
      "type": "error"
    },
    {
      "inputs": [
        {
          "internalType": "bytes",
          "name": "returnData",
          "type": "bytes"
        }
      ],
      "name": "PostOpReverted",
      "type": "error"
    },
    {
      "inputs": [],
      "name": "ReentrancyGuardReentrantCall",
      "type": "error"
    },
    {
      "inputs": [
        {
          "internalType": "address",
          "name": "sender",
          "type": "address"
        }
      ],
      "name": "SenderAddressResult",
      "type": "error"
    },
    {
      "inputs": [
        {
          "internalType": "address",
          "name": "aggregator",
          "type": "address"
        }
      ],
      "name": "SignatureValidationFailed",
      "type": "error"
    },
    {
      "anonymous": false,
      "inputs": [
        {
          "indexed": true,
          "internalType": "bytes32",
          "name": "userOpHash",
          "type": "bytes32"
        },
        {
          "indexed": true,
          "internalType": "address",
          "name": "sender",
          "type": "address"
        },
        {
          "indexed": false,
          "internalType": "address",
          "name": "factory",
          "type": "address"
        },
        {
          "indexed": false,
          "internalType": "address",
          "name": "paymaster",
          "type": "address"
        }
      ],
      "name": "AccountDeployed",
      "type": "event"
    },
    {
      "anonymous": false,
      "inputs": [],
      "name": "BeforeExecution",
      "type": "event"
    },
    {
      "anonymous": false,
      "inputs": [
        {
          "indexed": true,
          "internalType": "address",
          "name": "account",
          "type": "address"
        },
        {
          "indexed": false,
          "internalType": "uint256",
          "name": "totalDeposit",
          "type": "uint256"
        }
      ],
      "name": "Deposited",
      "type": "event"
    },
    {
      "anonymous": false,
      "inputs": [
        {
          "indexed": true,
          "internalType": "bytes32",
          "name": "userOpHash",
          "type": "bytes32"
        },
        {
          "indexed": true,
          "internalType": "address",
          "name": "sender",
          "type": "address"
        },
        {
          "indexed": false,
          "internalType": "uint256",
          "name": "nonce",
          "type": "uint256"
        },
        {
          "indexed": false,
          "internalType": "bytes",
          "name": "revertReason",
          "type": "bytes"
        }
      ],
      "name": "PostOpRevertReason",
      "type": "event"
    },
    {
      "anonymous": false,
      "inputs": [
        {
          "indexed": true,
          "internalType": "address",
          "name": "aggregator",
          "type": "address"
        }
      ],
      "name": "SignatureAggregatorChanged",
      "type": "event"
    },
    {
      "anonymous": false,
      "inputs": [
        {
          "indexed": true,
          "internalType": "address",
          "name": "account",
          "type": "address"
        },
        {
          "indexed": false,
          "internalType": "uint256",
          "name": "totalStaked",
          "type": "uint256"
        },
        {
          "indexed": false,
          "internalType": "uint256",
          "name": "unstakeDelaySec",
          "type": "uint256"
        }
      ],
      "name": "StakeLocked",
      "type": "event"
    },
    {
      "anonymous": false,
      "inputs": [
        {
          "indexed": true,
          "internalType": "address",
          "name": "account",
          "type": "address"
        },
        {
          "indexed": false,
          "internalType": "uint256",
          "name": "withdrawTime",
          "type": "uint256"
        }
      ],
      "name": "StakeUnlocked",
      "type": "event"
    },
    {
      "anonymous": false,
      "inputs": [
        {
          "indexed": true,
          "internalType": "address",
          "name": "account",
          "type": "address"
        },
        {
          "indexed": false,
          "internalType": "address",
          "name": "withdrawAddress",
          "type": "address"
        },
        {
          "indexed": false,
          "internalType": "uint256",
          "name": "amount",
          "type": "uint256"
        }
      ],
      "name": "StakeWithdrawn",
      "type": "event"
    },
    {
      "anonymous": false,
      "inputs": [
        {
          "indexed": true,
          "internalType": "bytes32",
          "name": "userOpHash",
          "type": "bytes32"
        },
        {
          "indexed": true,
          "internalType": "address",
          "name": "sender",
          "type": "address"
        },
        {
          "indexed": true,
          "internalType": "address",
          "name": "paymaster",
          "type": "address"
        },
        {
          "indexed": false,
          "internalType": "uint256",
          "name": "nonce",
          "type": "uint256"
        },
        {
          "indexed": false,
          "internalType": "bool",
          "name": "success",
          "type": "bool"
        },
        {
          "indexed": false,
          "internalType": "uint256",
          "name": "actualGasCost",
          "type": "uint256"
        },
        {
          "indexed": false,
          "internalType": "uint256",
          "name": "actualGasUsed",
          "type": "uint256"
        }
      ],
      "name": "UserOperationEvent",
      "type": "event"
    },
    {
      "anonymous": false,
      "inputs": [
        {
          "indexed": true,
          "internalType": "bytes32",
          "name": "userOpHash",
          "type": "bytes32"
        },
        {
          "indexed": true,
          "internalType": "address",
          "name": "sender",
          "type": "address"
        },
        {
          "indexed": false,
          "internalType": "uint256",
          "name": "nonce",
          "type": "uint256"
        }
      ],
      "name": "UserOperationPrefundTooLow",
      "type": "event"
    },
    {
      "anonymous": false,
      "inputs": [
        {
          "indexed": true,
          "internalType": "bytes32",
          "name": "userOpHash",
          "type": "bytes32"
        },
        {
          "indexed": true,
          "internalType": "address",
          "name": "sender",
          "type": "address"
        },
        {
          "indexed": false,
          "internalType": "uint256",
          "name": "nonce",
          "type": "uint256"
        },
        {
          "indexed": false,
          "internalType": "bytes",
          "name": "revertReason",
          "type": "bytes"
        }
      ],
      "name": "UserOperationRevertReason",
      "type": "event"
    },
    {
      "anonymous": false,
      "inputs": [
        {
          "indexed": true,
          "internalType": "address",
          "name": "account",
          "type": "address"
        },
        {
          "indexed": false,
          "internalType": "address",
          "name": "withdrawAddress",
          "type": "address"
        },
        {
          "indexed": false,
          "internalType": "uint256",
          "name": "amount",
          "type": "uint256"
        }
      ],
      "name": "Withdrawn",
      "type": "event"
    },
    {
      "inputs": [
        {
          "internalType": "uint32",
          "name": "unstakeDelaySec",
          "type": "uint32"
        }
      ],
      "name": "addStake",
      "outputs": [],
      "stateMutability": "payable",
      "type": "function"
    },
    {
      "inputs": [
        {
          "internalType": "address",
          "name": "account",
          "type": "address"
        }
      ],
      "name": "balanceOf",
      "outputs": [
        {
          "internalType": "uint256",
          "name": "",
          "type": "uint256"
        }
      ],
      "stateMutability": "view",
      "type": "function"
    },
    {
      "inputs": [
        {
          "internalType": "address",
          "name": "target",
          "type": "address"
        },
        {
          "internalType": "bytes",
          "name": "data",
          "type": "bytes"
        }
      ],
      "name": "delegateAndRevert",
      "outputs": [],
      "stateMutability": "nonpayable",
      "type": "function"
    },
    {
      "inputs": [
        {
          "internalType": "address",
          "name": "account",
          "type": "address"
        }
      ],
      "name": "depositTo",
      "outputs": [],
      "stateMutability": "payable",
      "type": "function"
    },
    {
      "inputs": [
        {
          "internalType": "address",
          "name": "",
          "type": "address"
        }
      ],
      "name": "deposits",
      "outputs": [
        {
          "internalType": "uint256",
          "name": "deposit",
          "type": "uint256"
        },
        {
          "internalType": "bool",
          "name": "staked",
          "type": "bool"
        },
        {
          "internalType": "uint112",
          "name": "stake",
          "type": "uint112"
        },
        {
          "internalType": "uint32",
          "name": "unstakeDelaySec",
          "type": "uint32"
        },
        {
          "internalType": "uint48",
          "name": "withdrawTime",
          "type": "uint48"
        }
      ],
      "stateMutability": "view",
      "type": "function"
    },
    {
      "inputs": [
        {
          "internalType": "address",
          "name": "account",
          "type": "address"
        }
      ],
      "name": "getDepositInfo",
      "outputs": [
        {
          "components": [
            {
              "internalType": "uint256",
              "name": "deposit",
              "type": "uint256"
            },
            {
              "internalType": "bool",
              "name": "staked",
              "type": "bool"
            },
            {
              "internalType": "uint112",
              "name": "stake",
              "type": "uint112"
            },
            {
              "internalType": "uint32",
              "name": "unstakeDelaySec",
              "type": "uint32"
            },
            {
              "internalType": "uint48",
              "name": "withdrawTime",
              "type": "uint48"
            }
          ],
          "internalType": "struct IStakeManager.DepositInfo",
          "name": "info",
          "type": "tuple"
        }
      ],
      "stateMutability": "view",
      "type": "function"
    },
    {
      "inputs": [
        {
          "internalType": "address",
          "name": "sender",
          "type": "address"
        },
        {
          "internalType": "uint192",
          "name": "key",
          "type": "uint192"
        }
      ],
      "name": "getNonce",
      "outputs": [
        {
          "internalType": "uint256",
          "name": "nonce",
          "type": "uint256"
        }
      ],
      "stateMutability": "view",
      "type": "function"
    },
    {
      "inputs": [
        {
          "internalType": "bytes",
          "name": "initCode",
          "type": "bytes"
        }
      ],
      "name": "getSenderAddress",
      "outputs": [],
      "stateMutability": "nonpayable",
      "type": "function"
    },
    {
      "inputs": [
        {
          "components": [
            {
              "internalType": "address",
              "name": "sender",
              "type": "address"
            },
            {
              "internalType": "uint256",
              "name": "nonce",
              "type": "uint256"
            },
            {
              "internalType": "bytes",
              "name": "initCode",
              "type": "bytes"
            },
            {
              "internalType": "bytes",
              "name": "callData",
              "type": "bytes"
            },
            {
              "internalType": "bytes32",
              "name": "accountGasLimits",
              "type": "bytes32"
            },
            {
              "internalType": "uint256",
              "name": "preVerificationGas",
              "type": "uint256"
            },
            {
              "internalType": "bytes32",
              "name": "gasFees",
              "type": "bytes32"
            },
            {
              "internalType": "bytes",
              "name": "paymasterAndData",
              "type": "bytes"
            },
            {
              "internalType": "bytes",
              "name": "signature",
              "type": "bytes"
            }
          ],
          "internalType": "struct PackedUserOperation",
          "name": "userOp",
          "type": "tuple"
        }
      ],
      "name": "getUserOpHash",
      "outputs": [
        {
          "internalType": "bytes32",
          "name": "",
          "type": "bytes32"
        }
      ],
      "stateMutability": "view",
      "type": "function"
    },
    {
      "inputs": [
        {
          "components": [
            {
              "components": [
                {
                  "internalType": "address",
                  "name": "sender",
                  "type": "address"
                },
                {
                  "internalType": "uint256",
                  "name": "nonce",
                  "type": "uint256"
                },
                {
                  "internalType": "bytes",
                  "name": "initCode",
                  "type": "bytes"
                },
                {
                  "internalType": "bytes",
                  "name": "callData",
                  "type": "bytes"
                },
                {
                  "internalType": "bytes32",
                  "name": "accountGasLimits",
                  "type": "bytes32"
                },
                {
                  "internalType": "uint256",
                  "name": "preVerificationGas",
                  "type": "uint256"
                },
                {
                  "internalType": "bytes32",
                  "name": "gasFees",
                  "type": "bytes32"
                },
                {
                  "internalType": "bytes",
                  "name": "paymasterAndData",
                  "type": "bytes"
                },
                {
                  "internalType": "bytes",
                  "name": "signature",
                  "type": "bytes"
                }
              ],
              "internalType": "struct PackedUserOperation[]",
              "name": "userOps",
              "type": "tuple[]"
            },
            {
              "internalType": "contract IAggregator",
              "name": "aggregator",
              "type": "address"
            },
            {
              "internalType": "bytes",
              "name": "signature",
              "type": "bytes"
            }
          ],
          "internalType": "struct IEntryPoint.UserOpsPerAggregator[]",
          "name": "opsPerAggregator",
          "type": "tuple[]"
        },
        {
          "internalType": "address payable",
          "name": "beneficiary",
          "type": "address"
        }
      ],
      "name": "handleAggregatedOps",
      "outputs": [],
      "stateMutability": "nonpayable",
      "type": "function"
    },
    {
      "inputs": [
        {
          "components": [
            {
              "internalType": "address",
              "name": "sender",
              "type": "address"
            },
            {
              "internalType": "uint256",
              "name": "nonce",
              "type": "uint256"
            },
            {
              "internalType": "bytes",
              "name": "initCode",
              "type": "bytes"
            },
            {
              "internalType": "bytes",
              "name": "callData",
              "type": "bytes"
            },
            {
              "internalType": "bytes32",
              "name": "accountGasLimits",
              "type": "bytes32"
            },
            {
              "internalType": "uint256",
              "name": "preVerificationGas",
              "type": "uint256"
            },
            {
              "internalType": "bytes32",
              "name": "gasFees",
              "type": "bytes32"
            },
            {
              "internalType": "bytes",
              "name": "paymasterAndData",
              "type": "bytes"
            },
            {
              "internalType": "bytes",
              "name": "signature",
              "type": "bytes"
            }
          ],
          "internalType": "struct PackedUserOperation[]",
          "name": "ops",
          "type": "tuple[]"
        },
        {
          "internalType": "address payable",
          "name": "beneficiary",
          "type": "address"
        }
      ],
      "name": "handleOps",
      "outputs": [],
      "stateMutability": "nonpayable",
      "type": "function"
    },
    {
      "inputs": [
        {
          "internalType": "uint192",
          "name": "key",
          "type": "uint192"
        }
      ],
      "name": "incrementNonce",
      "outputs": [],
      "stateMutability": "nonpayable",
      "type": "function"
    },
    {
      "inputs": [
        {
          "internalType": "bytes",
          "name": "callData",
          "type": "bytes"
        },
        {
          "components": [
            {
              "components": [
                {
                  "internalType": "address",
                  "name": "sender",
                  "type": "address"
                },
                {
                  "internalType": "uint256",
                  "name": "nonce",
                  "type": "uint256"
                },
                {
                  "internalType": "uint256",
                  "name": "verificationGasLimit",
                  "type": "uint256"
                },
                {
                  "internalType": "uint256",
                  "name": "callGasLimit",
                  "type": "uint256"
                },
                {
                  "internalType": "uint256",
                  "name": "paymasterVerificationGasLimit",
                  "type": "uint256"
                },
                {
                  "internalType": "uint256",
                  "name": "paymasterPostOpGasLimit",
                  "type": "uint256"
                },
                {
                  "internalType": "uint256",
                  "name": "preVerificationGas",
                  "type": "uint256"
                },
                {
                  "internalType": "address",
                  "name": "paymaster",
                  "type": "address"
                },
                {
                  "internalType": "uint256",
                  "name": "maxFeePerGas",
                  "type": "uint256"
                },
                {
                  "internalType": "uint256",
                  "name": "maxPriorityFeePerGas",
                  "type": "uint256"
                }
              ],
              "internalType": "struct EntryPoint.MemoryUserOp",
              "name": "mUserOp",
              "type": "tuple"
            },
            {
              "internalType": "bytes32",
              "name": "userOpHash",
              "type": "bytes32"
            },
            {
              "internalType": "uint256",
              "name": "prefund",
              "type": "uint256"
            },
            {
              "internalType": "uint256",
              "name": "contextOffset",
              "type": "uint256"
            },
            {
              "internalType": "uint256",
              "name": "preOpGas",
              "type": "uint256"
            }
          ],
          "internalType": "struct EntryPoint.UserOpInfo",
          "name": "opInfo",
          "type": "tuple"
        },
        {
          "internalType": "bytes",
          "name": "context",
          "type": "bytes"
        }
      ],
      "name": "innerHandleOp",
      "outputs": [
        {
          "internalType": "uint256",
          "name": "actualGasCost",
          "type": "uint256"
        }
      ],
      "stateMutability": "nonpayable",
      "type": "function"
    },
    {
      "inputs": [
        {
          "internalType": "address",
          "name": "",
          "type": "address"
        },
        {
          "internalType": "uint192",
          "name": "",
          "type": "uint192"
        }
      ],
      "name": "nonceSequenceNumber",
      "outputs": [
        {
          "internalType": "uint256",
          "name": "",
          "type": "uint256"
        }
      ],
      "stateMutability": "view",
      "type": "function"
    },
    {
      "inputs": [
        {
          "internalType": "bytes4",
          "name": "interfaceId",
          "type": "bytes4"
        }
      ],
      "name": "supportsInterface",
      "outputs": [
        {
          "internalType": "bool",
          "name": "",
          "type": "bool"
        }
      ],
      "stateMutability": "view",
      "type": "function"
    },
    {
      "inputs": [],
      "name": "unlockStake",
      "outputs": [],
      "stateMutability": "nonpayable",
      "type": "function"
    },
    {
      "inputs": [
        {
          "internalType": "address payable",
          "name": "withdrawAddress",
          "type": "address"
        }
      ],
      "name": "withdrawStake",
      "outputs": [],
      "stateMutability": "nonpayable",
      "type": "function"
    },
    {
      "inputs": [
        {
          "internalType": "address payable",
          "name": "withdrawAddress",
          "type": "address"
        },
        {
          "internalType": "uint256",
          "name": "withdrawAmount",
          "type": "uint256"
        }
      ],
      "name": "withdrawTo",
      "outputs": [],
      "stateMutability": "nonpayable",
      "type": "function"
    },
    {
      "stateMutability": "payable",
      "type": "receive"
    }
  ],
  "bytecode": "0x60a08060405234607657600160025561018c8181016001600160401b0381118382101760625782916132a5833903905ff0801560575760805260405161322a908161007b8239608051818181610a6701526127ac0152f35b6040513d5f823e3d90fd5b634e487b7160e01b5f52604160045260245ffd5b5f80fdfe60806040526004361015610023575b3615610018575f80fd5b61002133611e74565b005b5f5f3560e01c806242dc531461153f57806301ffc9a71461140a5780630396cb601461116c5780630bd28e3b146111195780631b2e01b8146110c4578063205c287814610f9c57806322cdde4c14610f5257806335567e1a14610eee5780635287ce1214610e1357806370a0823114610ddc578063765e827f14610baf578063850aaf6214610b0c5780639b249f6914610a01578063b760faf9146109e1578063bb9fe6bf14610882578063c23a5cea14610692578063dbed18e0146101765763fc7e286d146100f3575061000e565b3461017357602036600319011261017357604060a0916001600160a01b03610119611ae5565b168152806020522065ffffffffffff6001825492015460405192835260ff8116151560208401526dffffffffffffffffffffffffffff8160081c16604084015263ffffffff8160781c16606084015260981c166080820152f35b80fd5b50346101735761018536611b3f565b9061019193929361204d565b8291835b8281106104b2575090916101a890611d38565b9183845b8281106102c35750507fbb47ee3e183a558b1a2ff0874b079f3fc5478b7454eacf2bfc5af2ff5878f9728480a183928491855b81811061021e57866102168787837f575ff3acadd5ab348fe1855e217e0f3678f8d767d7494c9f9fefbee2e17cca4d8180a2612f32565b600160025580f35b61026b61022c82848b611eb5565b6001600160a01b0361024060208301611f0d565b167f575ff3acadd5ab348fe1855e217e0f3678f8d767d7494c9f9fefbee2e17cca4d8a80a280611ed7565b9088915b808310610281575050506001016101df565b909195976102ba6102b46001926102ae8c61029d8c888a611e12565b6102a7828d611dea565b5191612a58565b90611be5565b99611c06565b9601919061026f565b6102ce818489611eb5565b60206102e66102dd8380611ed7565b92909301611f0d565b916001600160a01b03899316905b82841061030757505050506001016101ac565b9091929461033c6001600160a01b03610335610323848d611dea565b5161032f8a8988611e12565b85612084565b9290613162565b911685036104665761041a576103596001600160a01b0391613162565b91166103ce576103785761036e600191611c06565b95019291906102f4565b60a48660405190631101335b60e11b8252600482015260406024820152602160448201527f41413332207061796d61737465722065787069726564206f72206e6f742064756064820152606560f81b6084820152fd5b60848760405190631101335b60e11b8252600482015260406024820152601460448201527f41413334207369676e6174757265206572726f720000000000000000000000006064820152fd5b60848760405190631101335b60e11b8252600482015260406024820152601760448201527f414132322065787069726564206f72206e6f74206475650000000000000000006064820152fd5b60848860405190631101335b60e11b8252600482015260406024820152601460448201527f41413234207369676e6174757265206572726f720000000000000000000000006064820152fd5b6104bd818488611eb5565b936104c88580611ed7565b91906001600160a01b036104de60208901611f0d565b16966001881461064e578761050a575b5050600192939495509061050191611be5565b93929101610195565b806040610518920190611f21565b889291923b1561064a579189916040519384927f2dd8113300000000000000000000000000000000000000000000000000000000845287604485016040600487015252606484019260648960051b8601019381879061011e1981360301905b8c8310610603575050505050838303600319016024850152849392839261059d92611e54565b03818b5afa91826105ea575b50506105db57602487877f86a9f750000000000000000000000000000000000000000000000000000000008252600452fd5b939450849361050160016104ee565b816105f491611a71565b6105ff57875f6105a9565b8780fd5b92959750929750929460631989820301855287358381121561064557602061063060019385839401611f86565b9901950193018f979593919289979593610577565b508f80fd5b8980fd5b606460405162461bcd60e51b815260206004820152601760248201527f4141393620696e76616c69642061676772656761746f720000000000000000006044820152fd5b5034610173576020366003190112610173576106ac611ae5565b33825281602052600160408320018054906dffffffffffffffffffffffffffff8260081c1691821561083e5760981c65ffffffffffff1680156107fa5742106107b65780547fffffffffffffff000000000000000000000000000000000000000000000000ff169055604080516001600160a01b0384811682526020820184905285948594859485949193929133917fb7c918e0e249f999e965cafeb6c664271b3f4317d296461500e71da39f0cbda391a2165af1610769611c21565b50156107725780f35b606460405162461bcd60e51b815260206004820152601860248201527f6661696c656420746f207769746864726177207374616b6500000000000000006044820152fd5b606460405162461bcd60e51b815260206004820152601b60248201527f5374616b65207769746864726177616c206973206e6f742064756500000000006044820152fd5b606460405162461bcd60e51b815260206004820152601d60248201527f6d7573742063616c6c20756e6c6f636b5374616b6528292066697273740000006044820152fd5b606460405162461bcd60e51b815260206004820152601460248201527f4e6f207374616b6520746f2077697468647261770000000000000000000000006044820152fd5b50346101735780600319360112610173573381528060205260016040822001805463ffffffff8160781c1690811561099d5760ff16156109595765ffffffffffff4216019065ffffffffffff82116109455780547fffffffffffffff000000000000ffffffffffffffffffffffffffffffffffff001665ffffffffffff60981b609884901b1617905560405165ffffffffffff909116815233907ffa9b3c14cc825c412c9ed81b3ba365a5b459439403f18829e572ed53a4180f0a90602090a280f35b602483634e487b7160e01b81526011600452fd5b606460405162461bcd60e51b815260206004820152601160248201527f616c726561647920756e7374616b696e670000000000000000000000000000006044820152fd5b606460405162461bcd60e51b815260206004820152600a60248201527f6e6f74207374616b6564000000000000000000000000000000000000000000006044820152fd5b506020366003190112610173576109fe6109f9611ae5565b611e74565b80f35b50346101735760203660031901126101735760043567ffffffffffffffff8111610b08576020610a38610a5a923690600401611afb565b6040519384928392632b870d1b60e11b84528560048501526024840191611e54565b0381856001600160a01b037f0000000000000000000000000000000000000000000000000000000000000000165af1908115610afd5782916001600160a01b039160249491610ace575b507f6ca7b80600000000000000000000000000000000000000000000000000000000835216600452fd5b610af0915060203d602011610af6575b610ae88183611a71565b810190611e35565b5f610aa4565b503d610ade565b6040513d84823e3d90fd5b5080fd5b50346101735760403660031901126101735780610b27611ae5565b60243567ffffffffffffffff8111610bab57610b47903690600401611afb565b90816040519283928337810184815203915af4610b62611c21565b90610ba76040519283927f9941055400000000000000000000000000000000000000000000000000000000845215156004840152604060248401526044830190611ba7565b0390fd5b5050fd5b503461017357610bbe36611b3f565b929190610bc961204d565b610bd281611d38565b91835b828110610c4a575083927fbb47ee3e183a558b1a2ff0874b079f3fc5478b7454eacf2bfc5af2ff5878f9728580a184925b808410610c1857856102168689612f32565b90919293600190610c3f610c2d878588611e12565b610c378887611dea565b519088612a58565b019401929190610c06565b610c716001600160a01b03610335610c658488969798611dea565b5161032f858989611e12565b9116610d9057610d4457610c8c6001600160a01b0391613162565b9116610cf857610ca25760010192919092610bd5565b60a49060405190631101335b60e11b8252600482015260406024820152602160448201527f41413332207061796d61737465722065787069726564206f72206e6f742064756064820152606560f81b6084820152fd5b60848260405190631101335b60e11b8252600482015260406024820152601460448201527f41413334207369676e6174757265206572726f720000000000000000000000006064820152fd5b60848260405190631101335b60e11b8252600482015260406024820152601760448201527f414132322065787069726564206f72206e6f74206475650000000000000000006064820152fd5b60848360405190631101335b60e11b8252600482015260406024820152601460448201527f41413234207369676e6174757265206572726f720000000000000000000000006064820152fd5b50346101735760203660031901126101735760406020916001600160a01b03610e03611ae5565b1681528083522054604051908152f35b503461017357602036600319011261017357604060a0916001600160a01b03610e3a611ae5565b8260808551610e4881611a08565b82815282602082015282878201528260608201520152168152806020522065ffffffffffff604051610e7981611a08565b63ffffffff60018454948584520154916dffffffffffffffffffffffffffff6020820160ff8516151581526040830190828660081c1682528660806060860195878960781c168752019660981c1686526040519788525115156020880152511660408601525116606084015251166080820152f35b5034610173576040366003190112610173576020906040610f0d611ae5565b916001600160a01b03610f1e611b29565b9316815260018452206001600160c01b0382165f52825260405f20546040519167ffffffffffffffff199060401b16178152f35b5034610173576020366003190112610173576004359067ffffffffffffffff8211610173576101206003198336030112610173576020610f9483600401611c50565b604051908152f35b503461017357604036600319011261017357610fb6611ae5565b6024359033835282602052604083209081549182841161108057848080866001600160a01b0382968396610fea848b611c14565b9055604080516001600160a01b03831681526020810185905233917fd1c19fbcd4551a5edfb66d43d2e337c04837afda3482b42bdf569a8fccdae5fb91a2165af1611033611c21565b501561103c5780f35b606460405162461bcd60e51b815260206004820152601260248201527f6661696c656420746f20776974686472617700000000000000000000000000006044820152fd5b606460405162461bcd60e51b815260206004820152601960248201527f576974686472617720616d6f756e7420746f6f206c61726765000000000000006044820152fd5b5034610173576040366003190112610173576001600160c01b0360406110e8611ae5565b926001600160a01b036110f9611b29565b9416815260016020522091165f52602052602060405f2054604051908152f35b5034610173576020366003190112610173576004356001600160c01b0381168103610b085733825260016020526001600160c01b036040832091165f5260205260405f206111678154611c06565b905580f35b5060203660031901126101735760043563ffffffff8116809103610b085733825281602052604082209080156113c657600182015463ffffffff8160781c168210611382576111cf906dffffffffffffffffffffffffffff349160081c16611be5565b91821561133e576dffffffffffffffffffffffffffff83116112fa57546040516112c6916111fc82611a08565b8152600160208083018281526dffffffffffffffffffffffffffff8716604080860191825260608601888152608087018b8152338c52948b9052908a209551865591519490930180549351915192517fffffffffffffff0000000000000000000000000000000000000000000000000090941660ff951515959095169490941760089190911b6effffffffffffffffffffffffffff00161760789190911b72ffffffff000000000000000000000000000000161760989190911b65ffffffffffff60981b16179055565b60405191825260208201527fa5ae833d0bb1dcd632d98a8b70973e8516812898e19bf27b70071ebc8dc52c0160403392a280f35b606460405162461bcd60e51b815260206004820152600e60248201527f7374616b65206f766572666c6f770000000000000000000000000000000000006044820152fd5b606460405162461bcd60e51b815260206004820152601260248201527f6e6f207374616b652073706563696669656400000000000000000000000000006044820152fd5b606460405162461bcd60e51b815260206004820152601c60248201527f63616e6e6f7420646563726561736520756e7374616b652074696d65000000006044820152fd5b606460405162461bcd60e51b815260206004820152601a60248201527f6d757374207370656369667920756e7374616b652064656c61790000000000006044820152fd5b5034610173576020366003190112610173576004357fffffffff000000000000000000000000000000000000000000000000000000008116809103610b0857807f60fc6b6e0000000000000000000000000000000000000000000000000000000060209214908115611515575b81156114eb575b81156114c1575b8115611497575b506040519015158152f35b7f01ffc9a7000000000000000000000000000000000000000000000000000000009150148261148c565b7f3e84f0210000000000000000000000000000000000000000000000000000000081149150611485565b7fcf28ef97000000000000000000000000000000000000000000000000000000008114915061147e565b7f915074d80000000000000000000000000000000000000000000000000000000081149150611477565b50346118e1576102003660031901126118e15760043567ffffffffffffffff81116118e157366023820112156118e157611583903690602481600401359101611aaf565b9036602319016101c081126118e157610140604051916115a283611a08565b126118e1576040516115b381611a38565b6024356001600160a01b03811681036118e157815260443560208201526064356040820152608435606082015260a435608082015260c43560a082015260e43560c0820152610104356001600160a01b03811681036118e15760e08201526101243561010082015261014435610120820152815260208101610164358152604082016101843581526101a435606084015260808301906101c43582526101e43567ffffffffffffffff81116118e157611670903690600401611afb565b935a903033036119c457865190606082015199603f5a0260061c61271060a08501518d0101116119b5575f9a815191826118f9575b5050505050906116bd915a9003845101943691611aaf565b5a928551946116cb86613005565b926001600160a01b0360e0880151169081155f146117c65750506001600160a01b03865116945b5a9003019460a060608201519101510190518503908181116117b2575b505083029051918183105f1461176d57505060038510156117595760209460020361174a57610f949293508093611745816130fd565b61302f565b50505063deadaa5160e01b8152fd5b602484634e487b7160e01b81526021600452fd5b8161177e9296939794970390612fe1565b50600382101561179e57509282611799926020951590613096565b610f94565b80634e487b7160e01b602492526021600452fd5b6064919003600a0204909301925f8061170f565b8196919681516117d8575b50506116f2565b60038c10156118e55760028c03156117d15760a089015191813b156118e157611841928d5f80946040518097819682957f7c627b210000000000000000000000000000000000000000000000000000000084526004840152608060248401526084830190611ba7565b8c8b0260448301528c60648301520393f190816118cc575b506118c557610ba7893d61080081116118bc575b60405191602082840101604052818352602083013e6040519182917fad7954bc000000000000000000000000000000000000000000000000000000008352602060048401526024830190611ba7565b5061080061186d565b5f806117d1565b6118d9919a505f90611a71565b5f985f611859565b5f80fd5b634e487b7160e01b5f52602160045260245ffd5b915f929183809360206001600160a01b03895116910192f11561191f575b8080806116a5565b6116bd939299503d9061080082116119ab575b604051916020818401016040528083525f602084013e815161195d575b50505060019790915f611917565b7f1c4fada7374c0a9ee8841fc38afe82932dc0f8e69012e927f061a8bae611a20190519160206001600160a01b038551169401516119a060405192839283611bcb565b0390a35f808061194f565b6108009150611932565b63deaddead60e01b5f5260205ffd5b606460405162461bcd60e51b815260206004820152601760248201527f4141393220696e7465726e616c2063616c6c206f6e6c790000000000000000006044820152fd5b60a0810190811067ffffffffffffffff821117611a2457604052565b634e487b7160e01b5f52604160045260245ffd5b610140810190811067ffffffffffffffff821117611a2457604052565b6060810190811067ffffffffffffffff821117611a2457604052565b90601f8019910116810190811067ffffffffffffffff821117611a2457604052565b67ffffffffffffffff8111611a2457601f01601f191660200190565b929192611abb82611a93565b91611ac96040519384611a71565b8294818452818301116118e1578281602093845f960137010152565b600435906001600160a01b03821682036118e157565b9181601f840112156118e15782359167ffffffffffffffff83116118e157602083818601950101116118e157565b602435906001600160c01b03821682036118e157565b9060406003198301126118e15760043567ffffffffffffffff81116118e15760040182601f820112156118e15780359267ffffffffffffffff84116118e1576020808301928560051b0101116118e15791906024356001600160a01b03811681036118e15790565b805180835260209291819084018484015e5f828201840152601f01601f1916010190565b604090611be2939281528160208201520190611ba7565b90565b91908201809211611bf257565b634e487b7160e01b5f52601160045260245ffd5b5f198114611bf25760010190565b91908203918211611bf257565b3d15611c4b573d90611c3282611a93565b91611c406040519384611a71565b82523d5f602084013e565b606090565b611c5d6040820182611f21565b90816040519182372090611c746060820182611f21565b9081604051918237209060c0611c8d60e0830183611f21565b908160405191823720916040519360208501956001600160a01b0383351687526020830135604087015260608601526080850152608081013560a085015260a081013582850152013560e08301526101008201526101008152611cf261012082611a71565b5190206040516020810191825230604082015246606082015260608152611d1a608082611a71565b51902090565b67ffffffffffffffff8111611a245760051b60200190565b90611d4282611d20565b611d4f6040519182611a71565b8281528092611d60601f1991611d20565b01905f5b828110611d7057505050565b602090604051611d7f81611a08565b604051611d8b81611a38565b5f81525f848201525f60408201525f60608201525f60808201525f60a08201525f60c08201525f60e08201525f6101008201525f61012082015281525f838201525f60408201525f60608201525f608082015282828501015201611d64565b8051821015611dfe5760209160051b010190565b634e487b7160e01b5f52603260045260245ffd5b9190811015611dfe5760051b8101359061011e19813603018212156118e1570190565b908160209103126118e157516001600160a01b03811681036118e15790565b908060209392818452848401375f828201840152601f01601f1916010190565b7f2da466a7b24304f47e87fa2e1e5a81b9831ce54fec19055ce277ca2f39ba42c460206001600160a01b03611ea93485612fe1565b936040519485521692a2565b9190811015611dfe5760051b81013590605e19813603018212156118e1570190565b903590601e19813603018212156118e1570180359067ffffffffffffffff82116118e157602001918160051b360383136118e157565b356001600160a01b03811681036118e15790565b903590601e19813603018212156118e1570180359067ffffffffffffffff82116118e1576020019181360383136118e157565b9035601e19823603018112156118e157016020813591019167ffffffffffffffff82116118e15781360383136118e157565b8035916001600160a01b03831683036118e1576001600160a01b03611be2931681526020820135602082015261203e612032611ff9611fde611fcb6040870187611f54565b6101206040880152610120870191611e54565b611feb6060870187611f54565b908683036060880152611e54565b6080850135608085015260a085013560a085015260c085013560c085015261202460e0860186611f54565b9085830360e0870152611e54565b92610100810190611f54565b91610100818503910152611e54565b600280541461205c5760028055565b7f3ee5aeb5000000000000000000000000000000000000000000000000000000005f5260045ffd5b929190915f905a92805185356001600160a01b0381168091036118e15781526020810194602087013586526080870135916fffffffffffffffffffffffffffffffff8360801c9316604082019360608301918252845260a08901359360c0830185815260c08b0135906fffffffffffffffffffffffffffffffff8260801c921691610120860190610100870193845281526121238d60e0810190611f21565b908115612a3f57603482106129fb57816014116118e157803590826024116118e1576014810135926034116118e15760240135608090811c60a08a015291821c9188019190915260601c60e08701525b61217c8d611c50565b9360208a0194855280519586845117815117916effffffffffffffffffffffffffffff60808a01938451179460a08b0195865117885117905117116129b75751905101905101905101905101905102918a87516001600160a01b03815116906121e86040840184611f21565b908161275c575b505060e001516001600160a01b031615915f908361272d575b60209086519061224560405194859384937f19822f7c00000000000000000000000000000000000000000000000000000000855260048501613140565b03815f8689f15f91816126f9575b506122e1573d8f61080082116122d7575b604051916020818401016040528083525f602084013e610ba76040519283926365c8fd4d60e01b8452600484015260606024840152600d60648401527f4141323320726576657274656400000000000000000000000000000000000000608484015260a0604484015260a4830190611ba7565b6108009150612264565b9d9495969798999a9b9c9d9161268f575b509a6001600160a01b038651169051905f52600160205260405f206001600160c01b038260401c165f5260205267ffffffffffffffff60405f209182549261233984611c06565b90551603612643575a8603116125f7576001600160a01b0360e060609501511661237b575b50508495969798506040608095015260608501525a900301910152565b9192509796505a908551996001600160a01b0360e08c01511690815f525f60205260405f2080548681106125ab57915f60806123f79d9e9f8296948a809703905501519551916040519d8e95869485937f52b7512c00000000000000000000000000000000000000000000000000000000855260048501613140565b039286f197885f915f9a61252b575b50612494573d8b610800821161248a575b604051916020818401016040528083525f602084013e610ba76040519283926365c8fd4d60e01b8452600484015260606024840152600d60648401527f4141333320726576657274656400000000000000000000000000000000000000608484015260a0604484015260a4830190611ba7565b6108009150612417565b9991929394959697989998925a9003116124b95750879690959493929160805f61235e565b60a49060405190631101335b60e11b8252600482015260406024820152602760448201527f41413336206f766572207061796d6173746572566572696669636174696f6e4760648201527f61734c696d6974000000000000000000000000000000000000000000000000006084820152fd5b915098503d805f833e61253e8183611a71565b8101906040818303126118e157805167ffffffffffffffff81116118e15781019082601f830112156118e157815161257581611a93565b936125836040519586611a71565b818552602082850101116118e1576020815f92828096018388015e850101520151985f612406565b60848d60405190631101335b60e11b8252600482015260406024820152601e60448201527f41413331207061796d6173746572206465706f73697420746f6f206c6f7700006064820152fd5b60848260405190631101335b60e11b8252600482015260406024820152601e60448201527f41413236206f76657220766572696669636174696f6e4761734c696d697400006064820152fd5b60848360405190631101335b60e11b8252600482015260406024820152601a60448201527f4141323520696e76616c6964206163636f756e74206e6f6e63650000000000006064820152fd5b5f525f60205260405f2080548087116126ad5786900390555f6122f2565b60848660405190631101335b60e11b8252600482015260406024820152601760448201527f41413231206469646e2774207061792070726566756e640000000000000000006064820152fd5b9091506020813d602011612725575b8161271560209383611a71565b810103126118e15751905f612253565b3d9150612708565b5050805f525f6020528c60405f20548681115f14612752575060205f5b919050612208565b602090870361274a565b909193506001600160a01b0384511691823b6129695760408c51015160206040518092632b870d1b60e11b8252826004830152815f816127a060248201898b611e54565b03926001600160a01b037f00000000000000000000000000000000000000000000000000000000000000001690f190811561295e575f9161293f575b506001600160a01b03811680156128ef5784036128a0573b15612852576014116118e1578e936001600160a01b03928c7fd51a9c61267aa6196961883ecf5ff2da6619c37dac0fa92122513fb32c032d2d604060e0953587878d5195510151168883519260601c1682526020820152a3916121ef565b505060848f60405190631101335b60e11b8252600482015260406024820152602060448201527f4141313520696e6974436f6465206d757374206372656174652073656e6465726064820152fd5b50505060848f60405190631101335b60e11b8252600482015260406024820152602060448201527f4141313420696e6974436f6465206d7573742072657475726e2073656e6465726064820152fd5b5050505060848f60405190631101335b60e11b8252600482015260406024820152601b60448201527f4141313320696e6974436f6465206661696c6564206f72204f4f4700000000006064820152fd5b612958915060203d602011610af657610ae88183611a71565b5f6127dc565b6040513d5f823e3d90fd5b505060848f60405190631101335b60e11b8252600482015260406024820152601f60448201527f414131302073656e64657220616c726561647920636f6e7374727563746564006064820152fd5b606460405162461bcd60e51b815260206004820152601860248201527f41413934206761732076616c756573206f766572666c6f7700000000000000006044820152fd5b606460405162461bcd60e51b815260206004820152601d60248201527f4141393320696e76616c6964207061796d6173746572416e64446174610000006044820152fd5b50505f60e08701525f60808701525f60a0870152612173565b9092915a60608201516040519586612a736060830183611f21565b5f60038211612f2a575b7fffffffff0000000000000000000000000000000000000000000000000000000016638dd7712f60e01b03612e2b575050505f612b21612beb612ae6612afa602095868a0151604051938492638dd7712f60e01b8a850152604060248501526064840190611f86565b90604483015203601f198101835282611a71565b612bdd6040519384926242dc5360e01b888501526102006024850152610224840190611ba7565b612bca604484018b60806101a09161012081516001600160a01b038151168652602081015160208701526040810151604087015260608101516060870152838101518487015260a081015160a087015260c081015160c08701526001600160a01b0360e08201511660e087015261010081015161010087015201516101208501526020810151610140850152604081015161016085015260608101516101808501520151910152565b8281036023190161020484015287611ba7565b03601f198101835282611a71565b828151910182305af15f519660405215612c06575b50505050565b9091929394505f3d602014612e1e575b63deaddead60e01b8103612c705760848560405190631101335b60e11b8252600482015260406024820152600f60448201527f41413935206f7574206f662067617300000000000000000000000000000000006064820152fd5b929350909163deadaa5160e01b03612cba5750612c9f612c94612caf925a90611c14565b608084015190611be5565b60408301518361174582956130fd565b905b5f808080612c00565b90612d339060208401518451907ff62676f440ff169a3a9afdbf812e89e7f95975ee8e5c31214ffdef631c5f479260206001600160a01b038451169301513d906108008211612e14575b604051916020818401016040528083525f602084013e612d2960405192839283611bcb565b0390a35a90611c14565b90612d446080840192835190611be5565b915a915f91855194612d5586613005565b926001600160a01b0360e08801511680155f14612e045750506001600160a01b03865116945b5a9003019460a06060820151910151019051850390818111612df0575b505083026040850151928184105f14612dc95750508061179e57509081612dc39293611745816130fd565b90612cb1565b612dd99082849397950390612fe1565b5061179e575090825f612deb93613096565b612dc3565b6064919003600a0204909301925f80612d98565b95905115612d7b575f9450612d7b565b6108009150612d04565b5060205f803e5f51612c16565b612f219350612f1391612e57916242dc5360e01b60208601526102006024860152610224850191611e54565b612f00604484018860806101a09161012081516001600160a01b038151168652602081015160208701526040810151604087015260608101516060870152838101518487015260a081015160a087015260c081015160c08701526001600160a01b0360e08201511660e087015261010081015161010087015201516101208501526020810151610140850152604081015161016085015260608101516101808501520151910152565b8281036023190161020484015284611ba7565b03601f198101885287611a71565b60205f87612beb565b508135612a7d565b6001600160a01b03168015612f9d575f80809381935af1612f51611c21565b5015612f5957565b606460405162461bcd60e51b815260206004820152601f60248201527f41413931206661696c65642073656e6420746f2062656e6566696369617279006044820152fd5b606460405162461bcd60e51b815260206004820152601860248201527f4141393020696e76616c69642062656e656669636961727900000000000000006044820152fd5b6001600160a01b03165f525f602052612fff60405f20918254611be5565b80915590565b61012061010082015191015180821461302b57480180821015613026575090565b905090565b5090565b9190917f49628fd1471006c1482da88028e9ce4dbb080b815c9b0344d39e5a8e6ec1419f608060208301519251946001600160a01b038651169460206001600160a01b0360e089015116970151916040519283525f602084015260408301526060820152a4565b9060807f49628fd1471006c1482da88028e9ce4dbb080b815c9b0344d39e5a8e6ec1419f9160208401519351956001600160a01b038751169560206001600160a01b0360e08a015116980151926040519384521515602084015260408301526060820152a4565b60208101519051907f67b4fa9642f42120bf031f3051d1824b0fe25627945b27b8a6a65d5761d5482e6020806001600160a01b03855116940151604051908152a3565b61315860409295949395606083526060830190611f86565b9460208201520152565b80156131ed575f6040805161317681611a55565b82815282602082015201526001600160a01b0381169065ffffffffffff8160a01c169081156131df575b60409060d01c9165ffffffffffff8251916131ba83611a55565b85835284602084015216918291015242119081156131d757509091565b905042109091565b65ffffffffffff91506131a0565b505f905f9056fea264697066735822122048031584a4152a133c27af3833a7391e2298bc0d2dfba45a1be08062895a0f4d64736f6c634300081b003360808060405234601557610172908161001a8239f35b5f80fdfe6080600436101561000e575f80fd5b5f3560e01c63570e1a3614610021575f80fd5b34610138576020366003190112610138576004359067ffffffffffffffff821161013857366023830112156101385781600401359167ffffffffffffffff8311610138573660248483010111610138578260141161013857601319830167ffffffffffffffff811161010b57600b8401601f19908116603f011683019367ffffffffffffffff85118486101761010b5760245f9485600c819460209960405286845289840196603889018837830101525193013560601c5af15f519015610104575b60209073ffffffffffffffffffffffffffffffffffffffff60405191168152f35b505f6100e3565b7f4e487b71000000000000000000000000000000000000000000000000000000005f52604160045260245ffd5b5f80fdfea2646970667358221220c6c95eda006272b148118cf90847c6f57e6134df8131fb96039695bd69ebc67764736f6c634300081b0033",
  "linkReferences": {},
  "deployedLinkReferences": {}
}