{
  "_format": "hh-sol-artifact-1",
  "contractName": "MockPreValidationHookMultiplexer",
  "sourceName": "contracts/mocks/MockPreValidationHookMultiplexer.sol",
  "abi": [
    {
      "inputs": [
        {
          "internalType": "uint256",
          "name": "hookType",
          "type": "uint256"
        }
      ],
      "name": "AlreadyInitialized",
      "type": "error"
    },
    {
      "inputs": [
        {
          "internalType": "uint256",
          "name": "hookType",
          "type": "uint256"
        }
      ],
      "name": "InvalidHookType",
      "type": "error"
    },
    {
      "inputs": [
        {
          "internalType": "uint256",
          "name": "hookType",
          "type": "uint256"
        }
      ],
      "name": "NotInitialized",
      "type": "error"
    },
    {
      "inputs": [
        {
          "internalType": "address",
          "name": "hook",
          "type": "address"
        }
      ],
      "name": "OnInstallFailed",
      "type": "error"
    },
    {
      "inputs": [
        {
          "internalType": "address",
          "name": "hook",
          "type": "address"
        }
      ],
      "name": "OnUninstallFailed",
      "type": "error"
    },
    {
      "inputs": [
        {
          "internalType": "address",
          "name": "hook",
          "type": "address"
        }
      ],
      "name": "SubHookFailed",
      "type": "error"
    },
    {
      "inputs": [
        {
          "internalType": "address",
          "name": "smartAccount",
          "type": "address"
        },
        {
          "internalType": "uint256",
          "name": "hookType",
          "type": "uint256"
        }
      ],
      "name": "isHookTypeInitialized",
      "outputs": [
        {
          "internalType": "bool",
          "name": "",
          "type": "bool"
        }
      ],
      "stateMutability": "view",
      "type": "function"
    },
    {
      "inputs": [
        {
          "internalType": "address",
          "name": "smartAccount",
          "type": "address"
        }
      ],
      "name": "isInitialized",
      "outputs": [
        {
          "internalType": "bool",
          "name": "",
          "type": "bool"
        }
      ],
      "stateMutability": "view",
      "type": "function"
    },
    {
      "inputs": [
        {
          "internalType": "uint256",
          "name": "moduleTypeId",
          "type": "uint256"
        }
      ],
      "name": "isModuleType",
      "outputs": [
        {
          "internalType": "bool",
          "name": "",
          "type": "bool"
        }
      ],
      "stateMutability": "pure",
      "type": "function"
    },
    {
      "inputs": [
        {
          "internalType": "bytes",
          "name": "data",
          "type": "bytes"
        }
      ],
      "name": "onInstall",
      "outputs": [],
      "stateMutability": "nonpayable",
      "type": "function"
    },
    {
      "inputs": [
        {
          "internalType": "bytes",
          "name": "data",
          "type": "bytes"
        }
      ],
      "name": "onUninstall",
      "outputs": [],
      "stateMutability": "nonpayable",
      "type": "function"
    },
    {
      "inputs": [
        {
          "internalType": "address",
          "name": "sender",
          "type": "address"
        },
        {
          "internalType": "bytes32",
          "name": "hash",
          "type": "bytes32"
        },
        {
          "internalType": "bytes",
          "name": "signature",
          "type": "bytes"
        }
      ],
      "name": "preValidationHookERC1271",
      "outputs": [
        {
          "internalType": "bytes32",
          "name": "hookHash",
          "type": "bytes32"
        },
        {
          "internalType": "bytes",
          "name": "hookSignature",
          "type": "bytes"
        }
      ],
      "stateMutability": "view",
      "type": "function"
    },
    {
      "inputs": [
        {
          "components": [
            {
              "internalType": "address",
              "name": "sender",
              "type": "address"
            },
            {
              "internalType": "uint256",
              "name": "nonce",
              "type": "uint256"
            },
            {
              "internalType": "bytes",
              "name": "initCode",
              "type": "bytes"
            },
            {
              "internalType": "bytes",
              "name": "callData",
              "type": "bytes"
            },
            {
              "internalType": "bytes32",
              "name": "accountGasLimits",
              "type": "bytes32"
            },
            {
              "internalType": "uint256",
              "name": "preVerificationGas",
              "type": "uint256"
            },
            {
              "internalType": "bytes32",
              "name": "gasFees",
              "type": "bytes32"
            },
            {
              "internalType": "bytes",
              "name": "paymasterAndData",
              "type": "bytes"
            },
            {
              "internalType": "bytes",
              "name": "signature",
              "type": "bytes"
            }
          ],
          "internalType": "struct PackedUserOperation",
          "name": "userOp",
          "type": "tuple"
        },
        {
          "internalType": "uint256",
          "name": "missingAccountFunds",
          "type": "uint256"
        },
        {
          "internalType": "bytes32",
          "name": "userOpHash",
          "type": "bytes32"
        }
      ],
      "name": "preValidationHookERC4337",
      "outputs": [
        {
          "internalType": "bytes32",
          "name": "hookHash",
          "type": "bytes32"
        },
        {
          "internalType": "bytes",
          "name": "hookSignature",
          "type": "bytes"
        }
      ],
      "stateMutability": "view",
      "type": "function"
    }
  ],
  "bytecode": "0x60808060405234601557610f5c908161001a8239f35b5f80fdfe60806040526004361015610011575f80fd5b5f3560e01c80636d61fe70146100845780637a0468b71461007f5780638a91b0e31461007a578063cfab0de714610075578063d60b347f14610070578063e24f8f931461006b5763ecd0596114610066575f80fd5b610829565b610694565b6105e5565b610594565b610478565b610313565b3461024a5761009d6100953661027c565b8101906109a2565b90916100af6100ab82610f0f565b1590565b610238576100ea60016100e26100cc845f525f60205260405f2090565b336001600160a01b03165f5260205260405f2090565b015460ff1690565b61020d57600161013d61014b9261012b8661012633610110855f525f60205260405f2090565b906001600160a01b03165f5260205260405f2090565b610a48565b61011033915f525f60205260405f2090565b01805460ff19166001179055565b5f5b825181101561020b57806102055f806101a46101b261016e60019789610ae8565b516040519283917f6d61fe7000000000000000000000000000000000000000000000000000000000602084015260248301610b01565b03601f198101835282610865565b6101cc6101bf868a610ae8565b516001600160a01b031690565b90826040516101e5816101a46020820195339087610b12565b51925af16101f1610b3c565b506101ff6101bf8488610ae8565b90610b6b565b0161014d565b005b7fceb8fbff000000000000000000000000000000000000000000000000000000005f5260045260245ffd5b630f64246160e41b5f5260045260245ffd5b5f80fd5b9181601f8401121561024a5782359167ffffffffffffffff831161024a576020838186019501011161024a57565b602060031982011261024a576004359067ffffffffffffffff821161024a576102a79160040161024e565b9091565b600435906001600160a01b038216820361024a57565b35906001600160a01b038216820361024a57565b805180835260209291819084018484015e5f828201840152601f01601f1916010190565b6040906103109392815281602082015201906102d5565b90565b3461024a57606036600319011261024a5761032c6102ab565b6024359060443567ffffffffffffffff811161024a5761035090369060040161024e565b9190926103686100cc60085f525f60205260405f2090565b9361037a6100ab600187015460ff1690565b6104645761038a919336916108d2565b925f908054905b8183106103ab57604051806103a78888836102f9565b0390f35b91935f9193956103ef83926101a46040519384927f7a0468b70000000000000000000000000000000000000000000000000000000060208501528b60248501610ba8565b61040f6103fc8786610bcd565b90546001600160a01b039160031b1c1690565b90604051610427816101a46020820194339086610b12565b51915afa93610434610b3c565b941561045c5761044f85602080600198518301019101610be2565b9590940191929092610391565b845160208601fd5b637734d3ff60e11b5f52600860045260245ffd5b3461024a576104916104893661027c565b810190610c4d565b61049d6100ab83610f0f565b610580576104db6104d66104c36104be6100cc865f525f60205260405f2090565b610c7b565b9361011033915f525f60205260405f2090565b610ccc565b5f5b825181101561020b578061057a5f806101a46105346104fe60019789610ae8565b516040519283917f8a91b0e300000000000000000000000000000000000000000000000000000000602084015260248301610b01565b6105416101bf868a610ae8565b908260405161055a816101a46020820195339087610b12565b51925af1610566610b3c565b506105746101bf8488610ae8565b90610d04565b016104dd565b630f64246160e41b5f52600482905260245ffd5b3461024a57604036600319011261024a57602060ff60016105d86105b66102ab565b6024355f525f855260405f20906001600160a01b03165f5260205260405f2090565b0154166040519015158152f35b3461024a57602036600319011261024a576105fe6102ab565b6001600160a01b0381165f9081527f324fdf7bfe7bd2828491073f0b7868a9a19ee3eff384c2805040be3e426447f5602052604090206001015460ff16908115610651575b506040519015158152602090f35b6001600160a01b03165f9081527f5b8b9143058ba3a137192c563ca6541845e62f0a2f9a667aac4db2fa3c334e3c602052604081206001015460ff169150610643565b3461024a57606036600319011261024a5760043567ffffffffffffffff811161024a578060040190610120600319823603011261024a5760243560443560095f9081526020526107037f324fdf7bfe7bd2828491073f0b7868a9a19ee3eff384c2805040be3e426447f56100cc565b906107156100ab600184015460ff1690565b6108155761073861073161010461074093959495960187610d41565b36916108d2565b943690610d74565b915f918154906101008501925b82851061076357604051806103a78a8a836102f9565b9193955f91939597506101a46107ab83926040519283917fe24f8f93000000000000000000000000000000000000000000000000000000006020840152888d60248501610e54565b6107b86103fc8986610bcd565b906040516107d0816101a46020820194339086610b12565b51915afa956107dd610b3c565b961561080d576107f9876020806001999a518301019101610be2565b96909787989787520193919492909461074d565b865160208801fd5b637734d3ff60e11b5f52600960045260245ffd5b3461024a57602036600319011261024a576020610847600435610f0f565b6040519015158152f35b634e487b7160e01b5f52604160045260245ffd5b90601f8019910116810190811067ffffffffffffffff82111761088757604052565b610851565b6040519061089c61012083610865565b565b67ffffffffffffffff81116108875760051b60200190565b67ffffffffffffffff811161088757601f01601f191660200190565b9291926108de826108b6565b916108ec6040519384610865565b82948184528183011161024a578281602093845f960137010152565b9080601f8301121561024a57816020610310933591016108d2565b9080601f8301121561024a57813561093a8161089e565b926109486040519485610865565b81845260208085019260051b8201019183831161024a5760208201905b83821061097457505050505090565b813567ffffffffffffffff811161024a5760209161099787848094880101610908565b815201910190610965565b9160608383031261024a57823592602081013567ffffffffffffffff811161024a57810183601f8201121561024a578035906109dd8261089e565b916109eb6040519384610865565b80835260208084019160051b8301019186831161024a57602001905b828210610a305750505092604082013567ffffffffffffffff811161024a576103109201610923565b60208091610a3d846102c1565b815201910190610a07565b81519167ffffffffffffffff831161088757680100000000000000008311610887578154838355808410610aae575b50602001905f5260205f205f5b838110610a915750505050565b60019060206001600160a01b038551169401938184015501610a84565b825f528360205f2091820191015b818110610ac95750610a77565b5f8155600101610abc565b634e487b7160e01b5f52603260045260245ffd5b8051821015610afc5760209160051b010190565b610ad4565b9060206103109281815201906102d5565b60209060149392805192839101825e01906bffffffffffffffffffffffff199060601b1681520190565b3d15610b66573d90610b4d826108b6565b91610b5b6040519384610865565b82523d5f602084013e565b606090565b15610b735750565b6001600160a01b03907f40c039cf000000000000000000000000000000000000000000000000000000005f521660045260245ffd5b61031093926001600160a01b03606093168252602082015281604082015201906102d5565b8054821015610afc575f5260205f2001905f90565b919060408382031261024a5782519260208101519067ffffffffffffffff821161024a570181601f8201121561024a57805190610c1e826108b6565b92610c2c6040519485610865565b8284526020838301011161024a57815f9260208093018386015e8301015290565b91909160408184031261024a57803592602082013567ffffffffffffffff811161024a576103109201610923565b90604051918281549182825260208201905f5260205f20925f5b818110610caa57505061089c92500383610865565b84546001600160a01b0316835260019485019487945060209093019201610c95565b80545f825580610ce0575b5060015f910155565b815f5260205f20908101905b818110610cf95750610cd7565b5f8155600101610cec565b15610d0c5750565b6001600160a01b03907ff6a8039b000000000000000000000000000000000000000000000000000000005f521660045260245ffd5b903590601e198136030182121561024a570180359067ffffffffffffffff821161024a5760200191813603831361024a57565b9190916101208184031261024a57610d8a61088c565b92610d94826102c1565b845260208201356020850152604082013567ffffffffffffffff811161024a5781610dc0918401610908565b6040850152606082013567ffffffffffffffff811161024a5781610de5918401610908565b60608501526080820135608085015260a082013560a085015260c082013560c085015260e082013567ffffffffffffffff811161024a5781610e28918401610908565b60e085015261010082013567ffffffffffffffff811161024a57610e4c9201610908565b610100830152565b610f056040929594939560608352610e786060840182516001600160a01b03169052565b60208101516080840152610100610ef0610ebb610ea58785015161012060a08901526101808801906102d5565b6060850151878203605f190160c08901526102d5565b608084015160e087015260a08401518387015260c084015161012087015260e0840151605f19878303016101408801526102d5565b910151838203605f19016101608501526102d5565b9460208201520152565b60098114908115610f1e575090565b60089150149056fea264697066735822122099e74375eacbefde83499191cbd754ab954e8142aba44dfbc0ece86f4967db7264736f6c634300081b0033",
  "linkReferences": {},
  "deployedLinkReferences": {}
}